:020000040000FA
:0600000002011A0228EBC8
:03002B000230A000
:0300330002307820
:0300530002295E21
:03006B0002301F41
:03007B0002304709
:10008300022757E5C754F84401F5C7790122000058
:100093000080FB120086B90003020104E479217891
:1000A30008B800028004F709D8FCE479297802B87B
:1000B30000028004F709D8FCE49002817871790981
:1000C3008002F0A3D8FCD9FA781A90014A7A01BACF
:1000D30000028007E493A3F608DAF97AF17B0A9029
:1000E300014B78E779078015E493A3AD82AE838A49
:1000F300828B83F0A3AA82AB838D828E83D8E9D9C6
:10010300E775825C75839B740412012C758291756B
:100113008300740012012C75D00075813F7518811E
:10012300751902759F00020096C09FF59FE473D076
:100133009F22D083D082C09FE493C0E0740193C018
:10014300E0740293F59F2201FF0000B40000280031
:100153002800283075A000A000A000A0000008001F
:1001630008E001F000100010001000100010001053
:100173000050005000500010001000D00700000095
:100183000000000F0001000500307507001000019A
:100193000081FF00000000FF2F0A4D0A350AFF020D
:1001A300020208025000A0000000E8030247840195
:1001B30000000184021984010000480B022B840112
:1001C3000000B302021984010000490B02358401C7
:1001D3000000C9020219840100004A0B023B84019A
:1001E3000000CB020219840100004B0B023F84087C
:1001F3000000CC020219840100004C0B024184016F
:1002030000004D0BFF0100FF2002478401000004A2
:1002130084021984010000B10B0243840000000032
:1002230000022384030000190305100510051005BF
:100233001005100510051005100510051005100513
:100243001005109912B1129312FFFF0A0953656E3C
:10025300736F72546167051250002003020A000293
:100263000105544920424C452053656E736F72203B
:1002730054616700D007E803E803E803E803E803F1
:10028300BB140000FD140315091515150F151B15D7
:10029300211527152D15331512416363656C2E2027
:1002A30044617461000A416363656C2E20436F6E81
:1002B300662E000A0A416363656C2E2050657269DD
:1002C3006F6400024784010000F283021984010075
:1002D30000410C1025820100005108022384030011
:1002E300005408021D84010000420C02198401001D
:1002F300004E0C1035820300005A08021D840100D1
:10030300004F0C0219840100005C0C1045820300AD
:10031300005D0C021D840100005E0C124261726FCD
:100323006D2E2044617461000A4261726F6D2E204C
:10033300436F6E662E00024261726F6D2E20436121
:100343006C6962722E000A0A4261726F6D2E205030
:100353006572696F6400024784010000FE8302191D
:1003630084010000C40C1085820100005D08022393
:10037300840300006108021D84010000C50C0219FA
:1003830084010000D10C1095820300006708021D50
:1003930084010000D20C021984010000EF0C10B597
:1003A30082030000F00C021D84010000F10C02190D
:1003B30084010000DF0C10A58201000068080223FD
:1003C300840300007808021D84010000E00C12433E
:1003D3006F6E6E2E20506172616D730008436F6EF5
:1003E3006E2E20506172616D732052657100084456
:1003F3006973636F6E6E65637420526571000247A3
:1004030084010000F883021984010000770D105560
:100413008201000080080223840300008608021D75
:1004230084010000780D021984010000850D10F588
:10043300820200008C08021D84010000860D02194F
:1004430084010000970D10D5820200009408021D5C
:1004530084010000980D020202020202020202015C
:100463000D00000010010247840100000D840219F1
:1004730084010000FF0D0239840100009508021970
:1004830084010000000E02378401000085830219F5
:1004930084010000010E022D840100007B830219F8
:1004A30084010000030E02278401000093800219D7
:1004B30084010000040E02258401000080830219D8
:1004C30084010000020E02218401000076830219D8
:1004D30084010000050E021F8401000081800219BF
:1004E30084010000060E02498401000005830219FD
:1004F30084010000070E024584010000080E01E894
:1005030003053F100A124779726F2044617461003A
:100513000A4779726F20436F6E662E000A0A477985
:10052300726F20506572696F640002478401000096
:10053300F583021984010000AE0E10F5810100005D
:1005430059090223840300005F09021D840100008E
:10055300AF0E021984010000B90E10E581030000FB
:100563006509021D84010000BA0E0219840100000E
:10057300C50E10D581030000C60E021D84010000C4
:10058300C70E0380000080700061801248756D699A
:10059300642E2044617461000A48756D69642E20DD
:1005A300436F6E662E000A0A48756D69642E2050EB
:1005B3006572696F640002478401000010840219A8
:1005C30084010000340F10B581010000F0090223FB
:1005D30084030000F409021D84010000350F021991
:1005E30084010000410F10A581030000FA09021DD8
:1005F30084010000420F0219840100004F0F10957F
:1006030081030000500F021D84010000510F12549A
:10061300656D702E2044617461000A54656D702EFF
:1006230020436F6E662E000A1E54656D702E205097
:100633006572696F64000247840100001384021924
:1006430084010000B70F107581010000FD0902232A
:1006530084030000090A021D84010000B80F021977
:1006630084010000C30F1065810300000F0A021DFF
:1006730084010000C40F021984010000D00F10652B
:1006830082030000D10F021D84010000D20F124D1E
:1006930061676E2E2044617461000A4D61676E2E9E
:1006A30020436F6E662E000A0A4D61676E2E20503E
:1006B3006572696F64000247840100000A840219AD
:1006C300840100003710100581010000130A022382
:1006D30084030000190A021D840100003810021966
:1006E30084010000431010D5800300001F0A021D7F
:1006F300840100004410021984010000501010C549
:10070300800300005110021D840100005210FF00FD
:100713000130750302010600000000000000000024
:1007230000000000000000000000000000000000C6
:10073300000000FFFF0600800CE803104B657920E2
:1007430050726573732053746174650002478401AA
:1007530000000784021984010000E41002338400BE
:100763000000CF0A022384030000D00A021D840183
:100773000000E51002546573742044617461000A3B
:100783005465737420436F6E666967000A41706530
:1007930069724F6E652073656C662D646566696E5C
:1007A3006564207465737400024784010000FB8351
:1007B3000219840100001D1110A580030000D80A4E
:1007C300021D840100001E1102198401000028117A
:1007D30010E580030000E00A021D840100002911D6
:1007E3000219840100003511102581030000E10A7C
:1007F300021D840100003611E70A1254696D652E4B
:1008030020446174610002478401000016840219C8
:1008130084010000A311105581030000E70A02239D
:1008230084030000EB0A021D84010000A4111201DD
:1008330035E78504120135FE85041201352F860440
:100843001201356A8604120135948604120135BEFD
:100853008604120135D58604120135EC8604120193
:10086300350387041201352C87041201353F8704B1
:100873001201355587041201356887041201358F3B
:100883008704120135D8E802120135DCE9021201AE
:100893003514EA0212013537EA0212013542EA023F
:1008A30012013565EA0212013574EB021201354972
:1008B300EC02120135C4EC021201354CED021201B7
:1008C3003587ED02120135BEED021201354CEE0201
:1008D30012013525EF0212013585EF021201359021
:1008E300EF021201350FF00212013512F00212016C
:1008F3003515F002120135A4F002120135A7F002FA
:10090300120135D7F00212013501F102120135EF60
:10091300F102120135A1F20212013549AF031201AE
:100923003571AF031201359FAF03120135D6AF0303
:1009330012013534B0031201357FB003120135CAF9
:10094300B0031201350AB10312013550B10312018C
:10095300357EB1031201353BB20312013545B203B3
:1009630012013552B20312013585B203120135511A
:10097300B3031201355DB30312013575B3031201DD
:10098300357FB303120135FEFE031201350CFF035D
:1009930012013524FF031201353CFF031201350018
:1009A3008002120135AC8002120135278102120147
:1009B300354882021201358482021201352D8302E9
:1009C300120135148402120135788502120135CFE4
:1009D3008502120135508602120135408702120149
:1009E300358D8702120135138802120135458802BD
:1009F300120135598A021201359B8A02120135B957
:100A03008A021201353C8B02120135108C0212014D
:100A130035D88C021201357897031201354B9803B0
:100A2300120135F49803120135479903120135F782
:100A33009903120135839A031201356F9B03120147
:100A4300359E9B03120135B19C03120135F99C03BA
:100A5300120135CE9D031201350A9E03120135267C
:100A63009E03120135D89A041201351EE1031201C7
:100A73003534E1031201355AE10312013576E203FD
:100A830012013580E203120135B5E303120135ADDE
:100A9300E40312013522AA0312013552AB031201FA
:100AA3003585AB03120135CFAB0312013596AD0388
:100AB300120135A4DB011201350EDC011201356D83
:100AC300DD011201357DDD01120135AADD011201BF
:100AD3003501DE01120135AADE01120135B1DF0154
:100AE3001201357BE001120135DBE1011201351EF4
:100AF300E201120135C3E20112013510E3011201D3
:100B03003536E30112013544E50112013549E501AA
:100B13001201354EE7011201359BE7011201350E33
:100B2300E80112013541E801120135E3E801120140
:100B3300358CE901120135C4E901120135C7E90118
:100B43001201350FEA011201354FEA01120135A6F0
:100B5300EA0112013535F7031201354DF70312018E
:100B63003595F703120135ABF703120135F2F7039D
:100B730012013506F90312013593F903120135DE2B
:100B8300F903120135FC4D00120135084E00120124
:100B930035434E00120135884E00120135484F008F
:100BA300120135CE4F001201353350001201355F6B
:100BB3005000120135985000120135D6520012012F
:100BC30035BA5400120135A05600120135E357001F
:100BD300120135315A00120135435B001201358E83
:100BE3005C001201359E5D00120135BB5D001201F0
:100BF30035F65D00120135185E001201357B5E008B
:100C03001201353C6300120135D163001201352214
:100C130064001201354964001201359B640012011E
:100C230035B96400120135136500120135FC650006
:100C3300120135726700120135F66700120135643F
:100C4300BD031201356EBD03120135B1BD0312019F
:100C530035CCBD031201355CBE0312013584BE03DE
:100C6300120135C1BE03120135F8BE03120135214D
:100C7300BF0312013596BF03120135ABBF03120147
:100C830035C0BF03120135F1BF0312013505C0039F
:100C93001201352AC00312013564C00312013590D5
:100CA300C003120135C8C00312013547C103120145
:100CB3003590C103120135BAC103120135E5C103F1
:100CC30012013557960412013575C602120135A378
:100CD300C602120135F1C702120135D1C802120151
:100CE30035F0C8021201356DC902120135B0C902CF
:100CF30012013506CB02120135C7CB021201354E64
:100D0300CE02120135EFCE02120135E5CF021201F8
:100D130035E2D0021201353CD202120135C7D202AC
:100D23001201354E9104120135B791041201350BAE
:100D330092041201353292041201356392041201B6
:100D430035A5D40312013512D50312013559D50344
:100D530012013571D6031201356DD70312013550D7
:100D6300D8031201350080031201354280031201BA
:100D730035148103120135ED8103120135E7820336
:100D8300120135C98303120135328403120135E898
:100D930084031201355C8503120135C885031201F2
:100DA30035F185031201356B860312013504870380
:100DB3001201356987031201357E8703120135C499
:100DC3008703120135DD87031201354288031201BF
:100DD3003545880312013554F1031201357CF103C3
:100DE300120135BAF10312013578F203120135DF2E
:100DF300F203120135FBF20312013523F30312014F
:100E03003553F30312013562F303120135DFF303A4
:100E130012013505F40312013593EB01120135710B
:100E2300ED01120135A3EF01120135DFEF011201CC
:100E3300350CF001120135F6F00112013541F101D3
:100E43001201358CF1011201359EF101120135DEDB
:100E5300F10112013513F20112013561F2011201A0
:100E63003590F201120135B3F20112013500F3019D
:100E730012013585F3011201359FF501120135DEAB
:100E8300F7011201351FF801120135C1F9011201F1
:100E93003502FA0112013575FA01120135CBFA0157
:100EA30012013560B9021201355EBA02120135F73B
:100EB300C00212013518C302120135E3C402120144
:100EC300354BC6021201354B8401120135FA8401F8
:100ED3001201352785011201356D8501120135ADEA
:100EE3008601120135438801120135BD88011201C3
:100EF30035D88801120135538901120135AD8A01B4
:100F03001201350D8C01120135138D011201357457
:100F13008E011201358D8E01120135EB8E01120106
:100F230035D98F011201350C90011201357C9001E6
:100F3300120135F690011201354091011201350A73
:100F43009201120135DF9201120135BE93011201A4
:100F530035499401120135B794011201352B9501DE
:100F63001201355695011201351596011201357A94
:100F73009701120135979701120135B697011201B6
:100F830035A79801120135CC9801120135F6980165
:100F9300120135719901120135CB990112013534D2
:100FA3009B01120135E29B01120135239C011201C1
:100FB300358CAB02120135DAAB02120135E6AB0216
:100FC300120135C4AC02120135F5AC02120135260B
:100FD300AD02120135A6AD02120135DEAD021201DA
:100FE3003530AE021201356DAE021201358AB00200
:100FF300120135B0B2021201359BB40212013585DC
:10100300B602120135EAFF0112013523B4011201C0
:101013003553B4011201352CBB01120135B1BC01AA
:10102300120135AEC20112013596C301120135D347
:10103300C301120135F6C30112013527C4011201A0
:101043003530C4011201353AC40112013528C501F6
:101053001201351EC6011201355D68001201355CAF
:101063006C00120135626C001201359D7300120190
:1010730035B6780012013550DD03120135E6DD0384
:10108300120135FCDD0312013572DE03120135E670
:10109300DE0312013524DF0312013598DF03120149
:1010A3003511E0031201351AE00312013526E0037E
:1010B3001201353BE00312013579E0031201358F4C
:1010C300E003120135EEE003120135A9FB02120120
:1010D30035B6FB02120135D0FB021201350FFC02BB
:1010E3001201354DFC02120135B2FC02120135C763
:1010F300FC02120135D2FC02120135DFFC0212019F
:1011030035F6FC0212013504FD021201350FFD0212
:101113001201351BFD021201352AFD02120135357C
:10112300FD0212013558FD02120135FFFD021201C5
:10113300350FFE0212013529FE0212013546FE0269
:1011430012013562FE0212013587FE021201359249
:10115300FE02120135A7FE02120135BBFE02120187
:10116300351CFF0212013522FF0212013528FF024E
:101173001201352EFF0212013546FF0212013579A5
:10118300FF02120135629D02120135E69D02120132
:1011930035959E02120135F49F0212013515A20204
:1011A30012013501A30212013536A302120135588B
:1011B300A30212013507A402120135FFA502120191
:1011C3003528A602120135BAA602120135ECA60291
:1011D300120135F9A60212013550A7021201357624
:1011E300A702120135E3A902120135E6AA02120190
:1011F300353EAB02120135F18E02120135FB8F022F
:10120300120135E29002120135EC90021201350E03
:1012130091021201351A9102120135B392021201A1
:1012230035E29202120135FE930212013557940200
:10123300120135BD95021201359C9602120135F853
:101243009602120135659702120135A09702120129
:1012530035DF9702120135989A02120135B29A02CC
:101263001201353E9B021201354C9B02120135A53A
:101273009B02120135B39B02120135269C02120117
:10128300358A9C02120135D49C0212013548D302DF
:101293001201356AD30212013590D502120135A528
:1012A300D802120135BDD90212013570DA021201DA
:1012B3003552DB021201354C890412013571890460
:1012C300120135E38904120135FE8F03120135073C
:1012D3009003120135109003120135E790031201B8
:1012E30035989203120135CE920312013508930308
:1012F3001201353E9303120135789303120135AC85
:101303009303120135D8930312013521940312017B
:10131300355B9403120135A49403120135FC940345
:101323001201353195031201358C9503120135C62F
:1013330095031201351796031201354D96031201D9
:1013430035879603120135B59603120135D89603F6
:10135300120135EA98041201351699041201357108
:1013630099041201357B99041201358B99041201FA
:10137300356988031201357E8803120135DA880343
:101383001201354589031201358D8903120135F7A1
:101393008903120135268A03120135348A031201A7
:1013A30035968A03120135D48A03120135EF8A0375
:1013B3001201358A8B031201352F8C03120135B2CA
:1013C3008C03120135EB8C03120135768D03120168
:1013D30035CD8D031201352C8E031201353E8E035C
:1013E300120135648E031201356D8E03120135C768
:1013F3008F03120135EB9304120135C994041201D2
:101403003508FA031201354DFA0312013593FA0335
:101413001201355CFC031201357097041201358B00
:1014230097041201359B9704120135F297041201B8
:101433003595990412013512F30212013532F30284
:10144300120135A8F402120135F6F4021201351621
:10145300F5021201357EF50212013500F602120182
:101463003546F602120135D2F6021201351BFB0294
:1014730012013598FB02120135A99204120135DAE3
:1014830092041201350493041201352493041201CA
:1014930035829304120135539C0112013521A001B9
:1014A30012013555A40112013587A401120135B289
:1014B300A401120135A6A50112013529A6011201C5
:1014C3003501A7011201352CA70112013557A701D8
:1014D30012013582A701120135ADA701120135E4CE
:1014E300A7011201351CA90112013586A9011201B8
:1014F3003581AA011201358CAB01120135B7AB015D
:101503001201355EAC0112013503AD01120135AA9A
:10151300AD011201354FAE01120135F8AE011201D2
:10152300359FAF01120135E6AF01120135EFB0016E
:10153300120135BCB10112013548B2011201352146
:10154300B301120135FFCF031201354FD00312014E
:101553003578D0031201352AD10312013593D10313
:101563001201359FD20312013568D403120135A944
:10157300A403120135F9A40312013522A5031201B4
:10158300353CA603120135CFA60312013518A80373
:10159300120135E5A90312013512D903120135628F
:1015A300D9031201357FD9031201354EDA03120133
:1015B30035CFDA03120135A2DB0312013520DD0337
:1015C3001201359B9E03120135C09E03120135F8AB
:1015D3009E03120135389A04120135D030001201EE
:1015E30035E933001201359B35001201353F3600D2
:1015F300120135E23600120135993700120135C860
:101603003700120135863C001201351D3D001201E1
:1016130035593E00120135C13E00120135753F00B8
:101623001201352B4200120135654200120135CFFC
:1016330042001201352D43001201358B4300120184
:1016430035E84300120135D744001201351D45002A
:10165300120135624500120135854500120135C876
:101663004600120135DC4600120135E54700120140
:10167300352448001201355048001201359F4800B7
:10168300120135C04800120135FE480012013545EC
:101693004B00120135864B00120135244C00120118
:1016A300358F4C00120135C84D001201350DC203B0
:1016B3001201355DC20312013586C20312013538AA
:1016C300C303120135A1C303120135ADC4031201D3
:1016D3003576C6031201350A84041201351A8404CF
:1016E3001201355F84041201353D8504120135D59D
:1016F3008504120135A18704120135D48704120130
:1017030035F287041201358B8804120135A8880449
:101713001201353A8904120135D5FF03120135252B
:1017230095041201353595041201354995041201CA
:10173300355196041201354EEB03120135F8EB03D4
:101743001201353AEE03120135A0FC03120135BA3A
:10175300FC031201351DFD031201358BFD0312013C
:101763003541FE0312013560FE0312013570FE039D
:10177300120135AFFE03120135ECFE03120135925F
:101783008C04120135CC8C041201353F8D041201F7
:1017930035898D04120135C88D04120135DA8D04A3
:1017A3001201350F8E04120135F18A0412013540FE
:1017B3008B04120135728B04120135048C0412015F
:1017C30035808C041201350CE80312013520E8033F
:1017D30012013549E80312013572E8031201353A63
:1017E300E90312013585E9031201353CEB031201CC
:1017F30035C18F04120135F48F0412013570900442
:10180300120135909004120135F590041201353D13
:101813009104120135409104120135F5FA011201C8
:10182300350EFB01120135A3FB0112013594FC01B6
:101833001201354AFF011201358AFF01120135CC2D
:10184300FF011201350080041201351180041201D9
:10185300355A8004120135868004120135A68004AE
:101863001201354581041201351882041201353302
:101873008E04120135828E041201350A8F0412017F
:1018830035948F04120135F87F001201354DF403AE
:101893001201357BF603120135E7F60312013532E7
:1018A300F70312013559CB03120135A9CB031201FA
:1018B30035D2CB0312013584CC03120135EDCC03B1
:1018C300120135F9CD03120135C2CF03120135B62A
:1018D300B80312013506B9031201352FB9031201FA
:1018E3003548B903120135FAB90312013563BA0356
:1018F30012013540BB0312013509BD0312013554F2
:10190300BD03120135B3C60312013503C703120128
:10191300352CC703120135DEC70312013547C8034F
:1019230012013553C9031201351CCB031201352AA9
:1019330082041201359182041201353C83041201A1
:1019430035B28304120135B7E403120135EAE40327
:10195300120135F0E50312013545E703120135762F
:10196300DE0212013552DF0212013599DF02120144
:1019730035D6DF0212013544E0021201359EE00242
:101983001201350EE102120135E6E102120135D9E9
:10199300E2021201355DE30212013500E502120194
:1019A300358BE5021201351BE602120135B4E6025E
:1019B300120135CBE60212013506E8021201355C4D
:1019C300E80212013536C801120135DACC011201E1
:1019D30035CBCF01120135F4CF011201350BD00104
:1019E30012013534D001120135E6D001120135C49C
:1019F300D20112013516D4011201355DD90112014C
:101A03003596D901120135DAD901120135E6DA0129
:101A13001201356C7D00120135BC7D001201351FAA
:101A23007E00120135E57E001201359D7F00120113
:101A3300353E980412013506B40312013556B4033A
:101A43001201357FB40312013517B503120135981E
:101A5300B503120135CBB60312013579B803120170
:101A63003555EE03120135BAEE03120135E3EE03E9
:101A73001201352FEF0312013572EF0312013545C1
:101A8300F00312013524F103120135D39B04120133
:101A930035DA7F00E066701008A3E066700A08A3D9
:101AA300E066700408A3E06622C3E7960809E79698
:101AB3000809E7960809E79622C3E09608A3E0968B
:101AC30008A3E09608A3E09622C008C3E096F508B1
:101AD30008A3E096420808A3E096420808A3E0960C
:101AE30045087001D3D00822080808EAC0E0EBC01B
:101AF300E086F0E7A4FA180986F0E7A42AFA1809A1
:101B030086F0E7A42AFA180986F0E7A42AFA1986C8
:101B1300F0E7A4FBE5F02AFA190886F0E7A42BFB0B
:101B2300E5F03AFA190886F0E7A42BFBE5F03AFA58
:101B330018180986F0E7A4C5F02BFBE43AFA190854
:101B4300E7C5F0C6A426F6E5F03BFBE43AFA1886AF
:101B5300F0E7A4F6E5F00826F6E43B08F6E43A08D5
:101B6300F6D0E0FBD0E0FA22E4CFC0E0E4CEC0E060
:101B7300E4CDC0E0E4CCC0E075F020E626F608E64C
:101B830033F608E633F608E633F6181818EC33FC98
:101B9300ED33FDEE33FEEF33FFC3EC9709ED970909
:101BA300EE9709EF97191919400FFFEC97FC09ED10
:101BB30097FD09EE97FE191906D5F0BFECF709ED6D
:101BC300F709EEF709EFF7191919D0E0FCD0E0FD9A
:101BD300D0E0FED0E0FF226016080808C6C313C693
:101BE30018C613C618C613C618C613C6D5E0EA220C
:101BF3007009080808226016181818C6C333C608E7
:101C0300C633C608C633C608C633C6D5E0EA22E6DD
:101C130027F60809E637F60809E637F60809E6372E
:101C2300F622E026F608A3E036F608A3E036F60827
:101C3300A3E036F622E026F008A3E036F008A3E09E
:101C430036F008A3E036F022C3E697F60809E697D4
:101C5300F60809E697F60809E697F622C3E0C69662
:101C6300F608A3E0C696F608A3E0C696F608A3E036
:101C7300C696F622C3E096F008A3E096F008A3E028
:101C830096F008A3E096F022E657F60809E657F621
:101C93000809E657F60809E657F622E056F608A3C0
:101CA300E056F608A3E056F608A3E056F622E056FF
:101CB300F008A3E056F008A3E056F008A3E056F0BE
:101CC30022E0F608A3E0F608A3E0F608A3E0F62274
:101CD300E6F008A3E6F008A3E6F008A3E6F022E0A6
:101CE300FAA3E0FBA3E0FCA3E0FD22EAF0A3EBF000
:101CF300A3ECF0A3EDF022E0F8A3E0F9A3E0FAA34C
:101D0300E0FB22E8F0A3E9F0A3EAF0A3EBF022CA98
:101D1300C0E0E6F0A308DAFAD0E0FA22CAC0E0E0B5
:101D2300A3C582CCC582C583CDC583F0A3C582CCB0
:101D3300C582C583CDC583DAE6D0E0CA22C3E49861
:101D4300F8E499F9121D818026C3E49AFAE49BFB17
:101D5300E920E7E9121D81E498F8E499F922C3E444
:101D630098F8E499F9121D81E498F8E499F9C3E429
:101D73009AFAE49BFB22EB20E7CFE920E7E0B900E6
:101D830010BB0008E88AF084F8AAF022E4FBC8FA42
:101D930022EB70227B10C833C8C933C9335007C341
:101DA3009AC3DBF280069A50012ADBEAC833F4C8EF
:101DB300C933F4C9FA2275F008E4C833C8C933C972
:101DC30033C99AC99B5004C92AC93BD5F0ECFBC857
:101DD30033F4C8E4C9FA22600D08C6A2E713C61893
:101DE300C613C6D5E0F322600C08C6C313C618C6D3
:101DF30013C6D5E0F422700422600D18C6C333C69F
:101E030008C633C6D5E0F41822251810AF08F51814
:101E1300400C15198008F51840021519D2AF22009D
:101E2300C0D0251810AF08F518500C05198008F517
:101E33001850020519D2AFD0D0222518F58210AF61
:101E430008F518400C15198008F51840021519D229
:101E5300AF851983222518F582E43519F5832225E8
:101E630018F8E43519F9222518FAE43519FB222567
:101E730018FCE43519FD22E4732518C582C0E0E59A
:101E83001934FFC583C0E0E518C3958224F810AF69
:101E9300088583198582188008858319858218D25D
:101EA300AFCEF0A3E520F0A37808E608F0A3DEFAAE
:101EB300EFF0A3E58124FAF8E608F0A3E608F0A31F
:101EC300E608F0A30808E608F0A3E608F0A31581E6
:101ED3001581D0E0FED0E0F8158115811581E8C0A9
:101EE300E0EEC0E0222518C582C0E0E51934FFC545
:101EF30083C0E0E518C3958224F910AF08858319E0
:101F03008582188008858319858218D2AFCEF0A305
:101F1300E520F0A37808E608F0A3DEFAEFF0A3E5E6
:101F23008124FBF8E608F0A3E608F0A30808E60816
:101F3300F0A3E608F0A315811581D0E0FED0E0F808
:101F430015811581E8C0E0EEC0E02285198385186C
:101F530082E0A3FEE0A3F5207808E0A3F608DFFA09
:101F6300E0A3FFE0A3C0E0E0A3C0E0E0A3C0E0E0A3
:101F7300A3C0E0E0A3C0E010AF08858218858319F1
:101F83008008858218858319D2AFD083D08202015D
:101F930032851983851882E0A3FEE0A3F520780833
:101FA300E0A3F608DFFAE0A3FFE0A3C0E0E0A3C0EC
:101FB300E0E0A3C0E0E0A3C0E010AF08858218858D
:101FC30083198008858218858319D2AFD083D08284
:101FD30022C0D02518C582C0E0E51934FFC583C0EF
:101FE300E0E518C3958224F310AF08858319858231
:101FF300188008858319858218D2AFC8F0A3E9F049
:10200300A3EAF0A3EBF0A37908E709F0A3D8FAEC6D
:10201300F0A3EDF0A3EEF0A3EFF0A3D0E0F0A3D094
:10202300E0F0A3D0E0F0A3E520F0A3E5F0F0A322D5
:10203300851983851882E0C0E0A3E0F9A3E0FAA341
:10204300E0FBA37808E0F608A3DFFAE0FCA3E0FDD9
:10205300A3E0FEA3E0FFA3E0C0E0A3E0C0E0A3E0B1
:10206300F5D0A3E0F520A3E0A3F5F010AF08858336
:10207300198582188008858319858218D2AFD0828A
:10208300D083D0E0F8D0E03274048006740280027A
:102093007401C0E0F404121E3DD0E0121D1222743C
:1020A30004800474028000CCC0E0EDC0E0E518C3F6
:1020B3009CCCAD1950011D10AF068C188D198006EC
:1020C3008C188D19D2AF121D1FD0E0FDD0E0FC2279
:1020D300D083D082E9C0E0E493A3C386F0C5F09532
:1020E300F0F908E493A386F0C5F095F0700BE49340
:1020F300A3C3994005E9048002A3E475F002A42573
:1021030082F582E5F03583F583D0E0F9E493A3C04B
:10211300E0E493C0E022D083D082ECC0E0EDC0E0E5
:10212300E493A3FCE493A3FDED4C600D122165EC55
:1021330024FFFCED34FFFD80EFE493A3FCE493A3C1
:10214300FDED4C600D1221A4EC24FFFCED34FFFDEA
:1021530080EFD0E0FDD0E0FCE493A3C0E0E493C0C3
:10216300E022C0E0C3E49396087401939618400FED
:10217300E49366700808740193661870007019A3DD
:10218300A3C3E49396087401939618A3A3400DD0B8
:10219300E0D0E0D0E0022155A3A3A3A3A3A3D0E002
:1021A30022C0E0C0F088F0E49366700808740193DD
:1021B30066187000A8F0A3A3700BD0F0D0E0D0E0B5
:0C21C300D0E0022155A3A3D0F0D0E02210
:1021D00074F5121EE8EAFEEBFFEE2434F8EF34004B
:1021E000F988088909EE2435F582EF3400F583E09B
:1021F000F8EE2437F582EF3400F583E0F50AEC853C
:102200000AF0A4FCAAF0850AF0EDA42AFDE82CF857
:10221000E43DF97A257B00121D81EA850882850953
:1022200083F0F8740758F97401B900028004C333CD
:10223000D9FCFAE8131313541FF8EE28F8EF340012
:10224000F9E8245DF582E93400F583E05A6008EE90
:102250002434F582EF802CEE2434F582EF3400F53F
:1022600083E0C0E0EE2436F582EF3400F583E0F53C
:10227000F0D0E084A8F0EE28F8EF3400F9E8243834
:10228000F582E93400F583E0F97F04021F9474F5C8
:10229000121EE8EAFEEBFFEE2434F582EF3400F57F
:1022A00083E0C0E0EE2435F582EF3400F583D0E022
:1022B000F08E828F83A3A3A3A3A3A3A3C082C08312
:1022C0008E828F83A3A3A3A3A3E0F8A3E0F9D08316
:1022D000D082E0C398F508A3E099F509EE247FF5D4
:1022E00082EF3400F583E064017069EE2480F582AA
:1022F000EF3400F583E0F8A3E0F98E828F83A3A387
:10230000A3A3A3A3A3E0FCA3E0FD8E828F83A3A3DA
:10231000A3A3A3E0FAA3E0FBC3EA9CEB9D5010C388
:10232000EC98ED99402EC3EA98EB995027800EC3A4
:10233000EA98EB994007C3EC98ED9940177CDC7D57
:1023400004EEFAEFFB120F63EE247FF582EF340008
:10235000F583E4F0EE2434F8EF3400F9E8FCE9FD0D
:10236000EE2435F582EF3400F583E0F8EE2437F5FE
:1023700082EF3400F583E0F50AE508850AF0A4F55C
:1023800008AAF0850AF0E509A42AF509E82508F865
:10239000E43509F97A257B00121D81EA8C828D8350
:1023A000F0F8740758F97401B900028004C333D9F6
:1023B000FCFAE8131313541FF8EE28F8EF3400F971
:1023C000E8245DF582E93400F583E05A6008EE24E4
:1023D00034F582EF802CEE2434F582EF3400F5835F
:1023E000E0C0E0EE2436F582EF3400F583E0F5F04E
:1023F000D0E084A8F0EE28F8EF3400F9E82438F5AE
:1024000082E93400F583E0F912300B022289C082A0
:10241000C083851882851983E0F8A3E0F9C3EA9C9C
:10242000EB9D5010C3EC98ED99401BC3EA98EB99D3
:102430005014800EC3EA98EB994007C3EC98ED99CD
:102440004004790180027900D083D08222EAC39CC3
:10245000FAEB9DFB2274EF121EE89003A2E06408E1
:102460006005E06407702A9061C8E060249003D0A2
:10247000E0F4601DE0F875F003A4C8AAF02AF9742E
:10248000D228FE740339FF8E828F83A3A3A3E0704A
:1024900003022585906060E0C0E0EE2468F582EFDD
:1024A0003400F583D0E0F0750C45750D0575080016
:1024B000750900E5D914F50AE5D95403F50E60173E
:1024C0007403650E605CE50A6010EE2467F582EF28
:1024D0003400F583E0700302256A900540E0640152
:1024E000602AEE2482F582EF3400F583E060047800
:1024F0000480027800850A08E508C398FA95E0FB95
:10250000120E2B8A088B09EA4509700512116780A3
:1025100074EE2482F582EF3400F583E070048A0CB7
:102520008B0DE50A6012850C82850D83F50BE5D9CC
:10253000F0A3150BE50B70F6EE2482F582EF340064
:10254000F583E0604474FC250AF50A780C12208FAC
:10255000AC0AA90EEEFAEFFB120FFF7402121E2254
:10256000E97026AA08AB09121935793D8E828F834E
:10257000A3A3A3A3E0FA7B00120CFFEEFAEFFB1279
:102580000F7B121011790080747403650E605685FC
:102590000A10751100781012208FAC0CAD0DAA082E
:1025A000AB09120FDB7402121E22EE2468F582EFD3
:1025B0003400F583E064807004747F8001E0F50CE2
:1025C000780C122093E50EF50C780C122093A90AD2
:1025D000AC08AD099003D0E0FA7B00120CC3740282
:1025E000121E2280139003A2E06408600BAC0CADB5
:1025F0000DEEFAEFFB12106B12117379017F0A02D4
:102600001F9474F5121EE874FC121E0CEAFEEBFF18
:102610008908A2AFE433F509C2AF806AEE2463F8FB
:10262000EF3400F97A007B00A2AFE433F50AC2AFC1
:1026300088828983E0FCA3E0FDEC4D603A888289C2
:1026400083E0FAA3E0FB8A828B83E0FCA3E0FD88B1
:10265000828983ECF0A3EDF08A828B83E4F0A3F00F
:1026600088828983E0FCA3E0FDEC4D700A888289B2
:1026700083A3A3E4F0A3F0E50AA2E092AF12193518
:102680009004E3E004F0EE2463F582EF3400F58378
:10269000E0F8A3E0F9E849603DEE2463F582EF3409
:1026A00000F583E02402FAA3E03400FBEA2402F5FB
:1026B0000AEB3400F50B780A12208F8A828B83E0B4
:1026C000FCA3E0F9EEFAEFFB120F9F7402121E2238
:1026D000E9700302261C9004E3E060639004E4E0E8
:1026E000F89004E3E0C398500C74026508705090B1
:1026F00004E5E0604A8E828F83A3A3A3A3E085183C
:1027000082851983F0A3E4F09004E3E0F8740212E8
:102710001E58E8F0A3E4F09004E3E0F89004E2E04F
:1027200028F07402121E58AC82AD83851882851978
:1027300083AA82AB837901120CCF9004E3E4F0E525
:1027400009A2E092AF7404121E2202228900000046
:102750008521878522C622C0E0C0D0E8C0E0E9C05C
:10276000E0EAC0E0EBC0E0ECC0E0EDC0E0EEC0E0CD
:10277000C008C009C00AC00BC082C083C0F0A2AFAD
:10278000E433FEC2AF759B00906182E0A2E050127C
:10279000E591A2E0500C7591FE7401652170031261
:1027A0002455E0A2E55051E591A2E5504B7591DF2B
:1027B0009003A2E064076005E0640870237401657B
:1027C00021703579019003D0E0FA75F003A4CAA80E
:1027D000F028FB74D22AFA74033BFB1226028018FD
:1027E000E0640D70139003C4E004F064287002E408
:1027F000F07A00E0F9121179906182E0A2E64003DC
:1028000002289EE591A2E6400302289E7591BF90A2
:1028100003A2E0640570081210A11210AD8003122B
:1028200010A7752100121107E99003A3F079001297
:1028300010FB120ED97A017B009003A1E0F912136C
:10284000CB907803E064427055900544E014F0703A
:102850004DC2AF12285600782AD0E0F618D0E0F624
:10286000E59F540770057509FF800375097FC4C093
:10287000E07829E6F50808E65509F509740B7808AB
:10288000121DEAD0E02508F8906270E0A2E740F857
:10289000E8C333906272F0906270E0D2E0F0906131
:1028A00081E0A2E35009E5E9A2E3500375E9F7A34B
:1028B000E0A2E75009E591A2E7500375917FEEA2EF
:1028C000E092AFD0F0D083D082D00BD00AD009D024
:1028D00008D0E0FED0E0FDD0E0FCD0E0FBD0E0FA94
:1028E000D0E0F9D0E0F8D0D0D0E032C0E0C0D0C025
:1028F00082C083906183E0A2E05009E5BFA2E0506E
:102900000375BFFEE0A2E15009E5BFA2E1500375E7
:10291000BFFDE0A2E25009E5BFA2E2500375BFFB94
:10292000E0A2E35009E5BFA2E3500375BFF7E0A2C0
:10293000E45009E5BFA2E4500375BFEFE0A2E55003
:1029400009E5BFA2E5500375BFDFE0A2E65009E547
:10295000BFA2E6500375BFBFD083D0828088C0E09D
:10296000C0D0E8C0E0E9C0E0EAC0E0EBC0E0ECC005
:10297000E0EDC0E0C0F0E5A7A2E6500FE5A1A2E6B9
:10298000500953A7BF75A1BF1229C3E5A7A2E550FF
:102990000CE5A1A2E5500653A7DF75A1DFE5A7A2CC
:1029A000E15009E5A1A2E1500375A1FDE5A7A2E26E
:1029B000500CE5A1A2E2500653A7FB75A1FBD0F095
:1029C0000228D474F8121EE87521019003A2E06475
:1029D00006701512102F8A828B83A3A3A3A3A3A32F
:1029E000E0FAA3E0FB12108FA2AFE433FED2AF9067
:1029F00003A8E0640170187A207B009003A1E0F93D
:102A000012145B7A207B009003A1E0F91213D1909D
:102A10006182E0D2E6F0900541E0602185C6228027
:102A2000169003A7E064017008E5C654F84405F564
:102A3000C653BEFC1227507401652160E4EEA2E08B
:102A400092AF7F01021F94008E238F2485822885F8
:102A50008327851882851983E0CEA3E0CF8528825D
:102A6000852783EBC9EAC8EDCBECCA75F010C3E843
:102A700033C8E933C9EA33CAEB33CBC3EA9EF52640
:102A8000EB9FF525B35004AB25AA26EC33CCED33F0
:102A9000CDD5F0DAAE23AF242274E9121EE874F823
:102AA000121E0C851882851983ECF0A3EDF08A08BC
:102AB0008B099003A2E024F7C39405500675080122
:102AC000022C3012102F8A0A8B0BAE0AAF0BEE4F7E
:102AD0007003022C2DAC08AD097402121E58AA8294
:102AE000AB831210BF8E828F83A3A3750CFF750D6D
:102AF000FF750EFF750F00780C121C9E7402121EDB
:102B0000587510FF7511FF7512FF751300781012BC
:102B10001C9E780C7910121AAC502A780C7910127D
:102B20001C4B7508017509C8750A00750B007808FB
:102B3000790C121AAC5052850C08850D09850E0AC5
:102B4000850F0B80507514017515C8751600751723
:102B50000085100885110985120A85130B780879FC
:102B60000C121C4B78147908121AAC401C75080022
:102B7000750900750A00750B0178087910121C4B55
:102B80007808790C121C12800C7508017509007503
:102B90000A00750B0074097808121BF3750C19F5FF
:102BA0000DF50EF50F7808790C121B6B8E828F8352
:102BB000A3A3A3A3A3A3E0F8A3E0F97AD07B031215
:102BC0001D81880C890DE4F50EF50F7808790C123B
:102BD0001C127406121E58E0F8A3E0F97AD07B03A9
:102BE000121D81E8FA8A0CE4F50D7808790C121AA6
:102BF000AC50077808790C121C4B9003A2E06408D3
:102C0000600AE064066005E06405702D750C0D78BF
:102C10000C7908121AAC4021750CF4750DFF750E75
:102C2000FF750FFF7808790C121C12800C750800D4
:102C3000750900750A00750B00851882851983E0F7
:102C4000F8A3E0F58388827808121CD37408121E5A
:102C5000227F10021F9474F7121EE81210D1900503
:102C60003FE064017010906245E4F0A3F053F4F388
:102C700043FE0C5390F312107DE5C654804449F591
:102C8000C6E59E547F644970F8906185740FF0909A
:102C9000053DE0F47002A3E0604E90053EE0600860
:102CA00014601B14602E80407508017509009005A2
:102CB0003DE07808121DF9E508F45280802A750875
:102CC0000175090090053DE07808121DF9E508F44A
:102CD0005290801475080175090090053DE0780850
:102CE000121DF9E508F452A079007F02021F9474C6
:102CF000F7121EE8E9FEEAFF74016E700C7A807B21
:102D0000009003A1E0F91213CB9030C8E493F46073
:102D100008E493F9120ECD800953C680E59E547FD6
:102D200070FA12108390053FE064017003120EE503
:102D300090053DE0F47002A3E0604B90053EE0603A
:102D40000814601A14602C803D7508017509009004
:102D5000053DE07808121DF9E508428080287508D5
:102D60000175090090053DE07808121DF9E508425B
:102D700090801375080175090090053DE0780812F0
:102D80001DF9E50842A01210D112102F8A088B09F4
:102D9000A808A909E8496015E5E170FCE82414F5E4
:102DA00082E93400F583E0F46003E0F5E174016F3B
:102DB000700A7A019003A1E0F9121425022CEA743A
:102DC000ED121EE88A088B098C0A8D0B7413121EF3
:102DD00058780C121CC47808790C121AAC751001C2
:102DE0007511C875120075130050127808790C120D
:102DF0001C4B78107908121AAC50168010780C7998
:102E000008121C4B7810790C121AAC40047901801E
:102E10000279007F0C021F9474ED121EE88A088B61
:102E2000098C0A8D0B7413121E58780C121CC4786E
:102E30000C7908121AAC40117808790C121C4BAAB4
:102E400008AB09AC0AAD0B80227510007511007536
:102E500012007513017810790C121C4B7810790848
:102E6000121C12AA10AB11AC12AD1380A68A828B71
:102E7000837508FF7509FF750AFF750B0078081246
:102E80001CB17F04021F9474F5121EE88C828D839E
:102E90007808121CC48A828B837808121C77EA2473
:102EA00004F8EB3400F98C828D83A3A3A3A3E0FC88
:102EB000A3E0FD88828983C3E09CF0A3E09DF088B5
:102EC000828983C3E09420A3E0944E40268A828BBB
:102ED000837508FF7509FF750AFF750BFF780812E7
:102EE0001C388A828B83A3A3A3A3E02420F0A3E051
:102EF000344EF0022E6D74F5121EE8E9FE9004F7D0
:102F0000E0FAA3E0FBEEC333F8E433F974F528F5F7
:102F100082748039F583E02AF508A3E03BF509784F
:102F20000812208F7A407B427C0F7D00122A487461
:102F300002121E228A088B098C0A8D0B74107808E5
:102F4000121BDAAA08AB097F04021F9474F1121E47
:102F5000E88A0C8B0D8C0E8D0F740F121E58E0FA40
:102F6000A3E0FB7411121E58E0F508A3E0F5097800
:102F70000812208FEA2401F508EB3400F509E4F586
:102F80000AF50B780C7908121AEB750871750902AD
:102F9000780C7908121AEBAA0CAB0DAC0EAD0F121F
:102FA0002A487402121E228B09EA450960047A013C
:102FB00080027A00EC2AFCED3400FD7413121E58D6
:102FC000E0F8A3E0F9E8FEE9FFECF8EDF97A717BAF
:102FD00002121D81880889098E828F837808121C4D
:102FE000D3ECF8EDF97A717B02121D818A088B0906
:102FF00074057808121DF98E828F83A3A3A3A3E51D
:1030000008F0A3E509F07F08021F94C082C083E99D
:10301000906000F0D083D08222C2AF02000022C0B4
:10302000E074F2121FD4A2AFE433FED2AFE589A25E
:10303000E05003121809758900C2C5EEF8EEA2E04F
:1030400092AF7F01022033C0E074F2121FD4A2AF0E
:10305000E433FED2AFE58AA2E64006E58AA2E75055
:1030600003121809758A00758A00C2EBEEF8EEA209
:10307000E092AF7F01022033C0E0C0D0E8C0E0E9B9
:10308000C0E0A2AFE433F8D2AF758B00C2E8E8F934
:10309000E8A2E092AFD0E0F9D0E0F8D0D0D0E032B2
:1030A000C0E0C0D0E8C0E0E9C0E0A2AFE433F8D2AD
:1030B000AFC2C7751A00E8F9E8A2E092AFD0E0F914
:1030C000D0E0F8D0D0D0E032FFFFFFFFFFFFFFFFDE
:1030D00074F0121E7C74F8121E0C8A0E8B0FE9FF1E
:1030E0008C0C8D0D7E00850E08850F097808122046
:1030F000D3000410B53318313B315A317D31A03142
:10310000C331F43117322E325E32163339335C3329
:103110008A33B533B533873274016F7019850C82E9
:10312000850D83E0C39403500D850C82850D83E0EB
:10313000900EA7F080027E180233DD74026F7015C6
:10314000850C82850D83E0F8A3E0F9900EA8E8F0E5
:10315000A3E9F080027E180233DD74016F701985D7
:103160000C82850D83E0C39402500D850C82850D81
:1031700083E090089EF080027E180233DD74016FB8
:103180007019850C82850D83E0C39405500D850C64
:1031900082850D83E090089FF080027E180233DD67
:1031A00074016F7019850C82850D83E0C394025001
:1031B0000D850C82850D83E09008A0F080027E18BA
:1031C0000233DD74106F70277508107509007808D8
:1031D00012208FAC0CAD0D7AA17B0812137774020C
:1031E000121E228A088B0985088285098380027E47
:1031F000180233DD74016F7019850C82850D83E030
:10320000C39402500D850C82850D83E09008B1F0C7
:1032100080027E180233DD74016F700D850C82858B
:103220000D83E0900EABF080027E180233DD740453
:103230006F70269083967808121CC4850C82850DC9
:10324000837808121ABC5011850C82850D83121CDC
:10325000FA9008B3121D0680027E180233DDEF706B
:1032600021120A7DE97013121653E9F508795012FC
:1032700019BFE9F509121641800A9009467401F058
:1032800080027E180233DD74076F6003023311750C
:103290000806750900780812208F850C82850D8339
:1032A000A3AC82AD837404121E6A12137D740212E1
:1032B0001E22851882851983EAF0A3EBF07C007D3D
:1032C000007402121E6A850C82850D83E0F91215C6
:1032D000E7E9F50AE50AC3940A5032120A7DE9705B
:1032E00015A90A121659E9F50879501219BFE9F51E
:1032F00009121641801D850A0875090074472508C2
:10330000F58274093509F5837401F080067E028028
:10331000027E180233DD74016F7019850C82850DF1
:1033200083E0C39402500D850C82850D83E09008E4
:10333000B2F080027E180233DD74016F7019850CC3
:1033400082850D83E0C3940A500D850C82850D8320
:10335000E0900EAAF080027E180233DD74016F70D7
:1033600025850C82850D83E0C394074019850C8266
:10337000850D83E0C39411500D850C82850D83E08B
:10338000900EACF080577E18805374016F702290BD
:103390000945E0F508850C82850D83E0900945F02C
:1033A000E5087039900945E06401703112164180DA
:1033B0002C7E188028C3E50E9427E50F9400501B3F
:1033C00074026F7016850C82850D83E0FCA3E0FD0E
:1033D000AA0EAB0F12091BE9FE80027E02EEF97401
:1033E00008121E227F08021F4E74F0121E7C74D732
:1033F000121E0CE9C0E0851882851983D0E0F074B4
:1034000001121E58EAF0A3EBF08C0E8D0F90835E34
:103410007403121E727406121D1F7403121E72743E
:1034200001121E58E0FAA3E0FB851882851983E09B
:10343000F91215E7E9FEEEC3940A4003023576EE71
:10344000F9121623E9FF900EA7E0640270047401DC
:1034500080027400F5087808122093743A121E58FE
:10346000E0FDEFFCEEF9AA0EAB0F121695740112F7
:103470001E227C147D0079007415121E6A12138FAF
:103480008A088B0985080A85090B7415121E727A41
:103490001075F006EEA42424F91219B9E9703B7CEA
:1034A0001079FF7415121E6A1213EFE9702C74253F
:1034B000121E58AC82AD837A0475F006EEA4242562
:1034C000F91219B9E9F5087415121E72EFA2E0E4B9
:1034D00033F9AA0EAB0F1209A5E97409121E727A0C
:1034E0000C74702EF91219B9E970797409121E6AF8
:1034F000121617750800E508C394045067E508F82C
:103500007900E875F003A4C8AAF075F000A42AFABF
:1035100075F003E9A42AF97409121E58E58228F50A
:103520000CE58339F50D850C82850D83E0F8A3E069
:10353000F9E849602B850C82850D83A3A3E0F50A89
:10354000750B00780A12208F850C82850D83E0FCB4
:10355000A3E0FDAA0EAB0F120C097402121E22E9A1
:1035600005088092EFA2E1500D90089DE0F9AA0EA7
:10357000AB0F120C0FE97439121E58E06404700F7F
:10358000900EA7E064027007AA0EAB0F12168F7997
:10359000007429121E227F08021F4E74F2121E7C34
:1035A000890B8A088B09ECFEEDFF750A0AE50B60B2
:1035B0000B14600814604114605F807CAA08AB099A
:1035C000121635E9F50AE50AC3940A506BEE4F600E
:1035D00067750C06750D00780C12208FAC08AD09CC
:1035E000EEFAEFFB1213777402121E228A0C8B0D77
:1035F000850C82850D838040AA08AB0912162FE93D
:10360000F50AE50AC3940A502FEE4F602BEEFAEF4D
:10361000FBA90A121629E9801FAA08AB0912163B5A
:10362000E9F50AE50AC3940A500EEE4F600AEEFA75
:10363000EFFBA90A121629E9A90A7F06021F4E7498
:10364000F2121E7C8A0C8B0DE9FF7E1574FF650C4F
:10365000700474FF650D702A750800E508C3940AAC
:103660005014EFFC7A027B00A908121605E96002EB
:103670007E00050880E5EF60627A7D7B16120E0DF4
:103680008059AA0CAB0D120DEF8A088B0985080A28
:1036900085090BE50A450B60407C007D00E50A24A6
:1036A00005FAE4350BFB850A82850B83A3A3A3A34C
:1036B000E0F91215E7E9F508E508C3940A500EEFA2
:1036C000FC7A027B00A908121605E97E00EF600B68
:1036D000AA0AAB0B12167D80027E14EEF97F060259
:1036E0001F4E74F0121E7C74FE121E0C851882850B
:1036F0001983EAF0A3EBF08C0A8D0B7412121E589A
:10370000E0F50EA3E0F50F7E15851882851983E09C
:1037100064FF7004A3E064FF701D7F00EFC3940A90
:10372000506BAC0EAD0FAA0AAB0BEFF912160BE9FA
:1037300060027E000F80E5851882851983E0FAA378
:10374000E0FB120DEF8A0C8B0D850C08850D09E549
:1037500008450960367C007D00E5082405FAE4355B
:1037600009FB850882850983A3A3A3A3E0F91215A9
:10377000E7E9FFEFC3940A5014AC0EAD0FAA0AABF1
:103780000BEFF912160BE97E0080027E14EEF9743D
:1037900002121E227F08021F4E74F7121E7CEAFEE0
:1037A000EBFF9008B7EEF0A3EFF090089DE0FC7DF2
:1037B000007A267B0012091BE9F50890089DE0F9C4
:1037C000120B857F01021F4E74F2121E7C74EC12E4
:1037D0001E0C8A0A8B0B850A82850B83A3A3E02427
:1037E000FA7003023C0C24FD7003023A8414700347
:1037F0000238B814601024FD7003023A2C147003D0
:10380000023AC7023C7AAE0AAF0B9008B7E0F8A3C1
:10381000E0F9E84960669008B7E0F8A3E0F583882E
:1038200082E0F8A3E0F9E8496052EE240CF582E466
:103830003FF583E0F5087808122093EE240BF5821B
:10384000E43FF583E0F98E828F83A3A3A3A3A3A310
:10385000A3A3A3E0FCA3E0FDEE2403FAE43FFB9066
:1038600008B7E0F8A3E0F5838882E0F8A3E0F583E9
:103870008882121E7A7401121E2280398E828F83F2
:10388000A3A3A3A3A3A3A3A3A31220A69008B31248
:103890001CE21209B77402121E22E9601879018E27
:1038A000828F83A3A3A3A3A3A3A3A3A3E0FAA3E06C
:1038B000FB1209B1E9023C7AAE0AAF0B8E828F830C
:1038C000A3E060030239DA8E828F83A3A3A3A3A3AC
:1038D000E0A2E040030239DA900951E0F8A3E0F9F0
:1038E000E84960030239DA7C0E7D007900AA18AB42
:1038F0001912138F8A088B09AA08AB09EE240CF55C
:1039000082E43FF583E0F8A3E0F9E8496036750802
:1039100006750900780812208FEE240CF582E43F2A
:10392000F583E02410FCA3E03400FD7402121E6A4B
:103930001213777402121E228A088B098508828569
:103940000983804F8E828F83A3A3A3E0FAA3E0FBB9
:10395000120DEF8A0C8B0D850C08850D09E50845C5
:1039600009602D750C06750D00780C12208FE50886
:103970002405FCE43509FD7402121E6A12137774E3
:1039800002121E228A0C8B0D850C82850D8380030A
:10399000023C7A8E828F83A3A3A3A3A3E0A2E2506A
:1039A00004D2F08002C2F0A2F0E433F87900740C83
:1039B000121E58E048F0A3E049F0EEFCEFFDAA1813
:1039C000AB1912161DE970127A027B0090089DE077
:1039D000F91213CBE97900023C7C9008B7E0F8A318
:1039E000E0F9E84960439008B7E0F8A3E0F5838880
:1039F00082A3A3E0F8A3E0F9E849602D8E828F83CB
:103A0000A3E0FC79018E828F83A3A3A3E0FAA3E055
:103A1000FB9008B7E0F8A3E0F5838882A3A3E0F861
:103A2000A3E0F5838882121E7A023C7AAE0AAF0BBD
:103A30009008B7E0F8A3E0F9E84960459008B7E0DE
:103A4000F8A3E0F5838882A3A3E0F8A3E0F9E849AE
:103A5000602F850A82850B83A3E0FC79028E828F1A
:103A600083A3A3A3E0FAA3E0FB9008B7E0F8A3E0E8
:103A7000F5838882A3A3E0F8A3E0F5838882121E71
:103A80007A023C7A850A08850B097C007D00E508EE
:103A90002404FAE43509FB850882850983A3A3A3DE
:103AA000E0F91215E7E9FEEEC3940A5017E5082481
:103AB0000AFCE43509FD7A0475F006EEA42425F924
:103AC0001219B3E9023C7AAE0AAF0B9008B2E0607B
:103AD00018900EAAE0F98E828F83A3A3A3E0FAA325
:103AE000E0FB1209B1E9023C7A900EA7E07015796B
:103AF000058E828F83A3A3A3E0FAA3E0FB1209B192
:103B0000E9023C7A8E828F83A3A3A3E0FAA3E0FBB1
:103B1000120DEF8A0C8B0D850C08850D098E828F96
:103B200083A3A3A3A3A3A3A3E0A2E05071E5084548
:103B3000096068850882850983A3A3A3A3E0605E6A
:103B40008E828F83A3A3A3A3A3A3A3A3A3E0F8A31D
:103B5000E0F9E8C4540FF87900E85401F8E954009A
:103B6000F9E8A2E04038740E121E72E5082405FA46
:103B7000E43509FB850882850983A3A3A3A3E0F9A3
:103B80001215E7E9701879038E828F83A3A3A3E04F
:103B9000FAA3E0FB1209B1E9023C7A023C7AEE2476
:103BA00005FCE43FFD850882850983A3A3A3A3E068
:103BB000F98E828F83A3A3A3E0FAA3E0FB121689F8
:103BC0009008B7E0F8A3E0F9E849603E9008B7E054
:103BD000F8A3E0F5838882A3A3E0F8A3E0F9E8491D
:103BE00060287C0079008E828F83A3A3A3E0FAA3D0
:103BF000E0FB9008B7E0F8A3E0F5838882A3A3E098
:103C0000F8A3E0F5838882121E7A806E120A7DE99D
:103C10007068900946E06401701A121653E9FE902C
:103C200009467400F07C0A7D0079007A477B09120E
:103C3000138F803C7E00EEC3940A50348E087509C1
:103C40000074472508F58274093509F583E064019D
:103C5000701BEEF9121659E9F88E087509007447C1
:103C60002508F58274093509F5837400F00E80C6C5
:103C700079501219BFE9FE12164179017414121E0F
:103C8000227F06021F4E74F3121E7C74F2121E0C69
:103C90008908EAFEEBFF8C09AC18AD197A0E75F0B5
:103CA00006E508A42420F91219B9E970647C0679A4
:103CB000FFAA18AB191213EFE97056740C121E58B4
:103CC000E0F8A3E0F9E8F50CE5096005EE420C80A8
:103CD00004EEF4520C850C0A750B00740C121E587D
:103CE000E0650A7004A3E0650B6022E50CF879003A
:103CF000740C121E58E8F0A3E9F0AC18AD197A0E56
:103D000075F006E508A42420F91219B3E9790180B9
:103D1000027900740E121E227F05021F4E74F012EB
:103D20001E7C74E6121E0C89098A0E8B0FECFEEDC8
:103D3000FF740C121E727A0E75F006E509A4242099
:103D4000F91219B9E96003023E4D7C0679FF740C43
:103D5000121E6A1213EFE96003023E4DAC18AD1952
:103D60007A0C74702509F91219B9E96003023E4909
:103D7000750800AA18AB19121617E50E450F702E1C
:103D80007C0C7900AA18AB191213EFE96003023E0C
:103D90002F7C0C7D007900AA18AB1912138F8A0AA8
:103DA0008B0B850A82850B83750801023E2FAC18A8
:103DB000AD19AA0EAB0F1216118A0C8B0D850C0AC9
:103DC000850D0BE50A450B7030EE4F601BAC18AD4E
:103DD000197A007B001216118A0C8B0DA80CA90D04
:103DE000880A890BE849700479008063850A828516
:103DF0000B83E50EF0A3E50FF0850A82850B83A304
:103E0000A3E0F87900EE687002EF696022EEC0E08E
:103E1000850A82850B83A3A3D0E0F0EE4F700D8559
:103E20000A82850B837400F0A37400F0750801E525
:103E3000086016AA18AB19121617AC18AD197A0C2F
:103E400074702509F91219B3E979018002790074B7
:103E50001A121E227F08021F4E74F7121E7CEAFE01
:103E6000EBFF7B00EBC39404504EEBF87900E87550
:103E7000F003A4C8AAF075F000A42AFA75F003E9CB
:103E8000A42AF9EC28F582ED39F583E06E7003A3DE
:103E9000E06F7021EBF87900E875F003A4C8AAF090
:103EA00075F000A42AFA75F003E9A42AF9EC28FABF
:103EB000ED39FB80070B80AC7A007B007F01021F8D
:103EC0004E74F7121E7C7F00EFC394044003023F40
:103ED00070EFF87900E875F003A4C8ACF075F00055
:103EE000A42CFC75F003E9A42CF9EA28F582EB393F
:103EF000F583E0F4FCA3E0F4FDEFF87900E875F059
:103F000003A4C8AEF075F000A42EFE75F003E9A47A
:103F10002EF9EA28F582EB39F583ECF0A3EDF0EF0A
:103F2000F87900E875F003A4C8ACF075F000A42C93
:103F3000FC75F003E9A42CF9EA28F582EB39F58346
:103F4000A3A3E0F4C0E0EFF87900E875F003A4C89B
:103F5000ACF075F000A42CFC75F003E9A42CF9EA90
:103F600028F582EB39F583A3A3D0E0F00F023EC819
:103F70007F01021F4E74F0121E7C74F4121E0CEAB4
:103F8000FEEBFF8C088D09900951E0F8A3E0F9E8F9
:103F900049702CEE4F6006E508450970057901026D
:103FA0004221EEFAEFFB121635E9900EADF0900EBD
:103FB000ADE0C3940A4008121647E9900EADF090A8
:103FC0000EADE0C3940A400302421F900951E0F88D
:103FD000A3E0F9E849600302406BEEFCEFFD7A0EC6
:103FE00075F006900EADE0A42420F91219B3E9F59E
:103FF0000B7C0C7D0079FFAA18AB1912138F8A0C69
:104000008B0D850C0E850D0FAC18AD197A0C900E2A
:10401000ADE02470F91219B3E9F50A750C0E750DAF
:1040200000780C12208FEEFCEFFD900EADE0F879D9
:1040300000E875F00EA4C8AAF075F000A42AFA757D
:10404000F00EE9A42AF974B928FA740839FB12139E
:10405000777402121E228A0C8B0DA80CA90D9009F0
:1040600051E508F0A3E509F002421B900951E0F880
:10407000A3E0C82406F582C83400F583E0F8A3E085
:10408000F9E8496043900951E0F8A3E0C82406F537
:1040900082C83400F583E0FCA3E0FD7A1B75F006CE
:1040A000900EADE0A42421F91219B3E9F89009515A
:1040B000E0F9A3E0C92406F582C93400F583740051
:1040C000F0A37400F002421B900951E0F8A3E0C88D
:1040D000240AF582C83400F583E0F8A3E0F9E84942
:1040E0006043900951E0F8A3E0C8240AF582C8347F
:1040F00000F583E0FCA3E0FD7A1B75F006900EADA1
:10410000E0A42422F91219B3E9F8900951E0F9A3C7
:10411000E0C9240AF582C93400F5837400F0A37461
:1041200000F002421B900951E0F8A3E0C8240CF50E
:1041300082C83400F583E0F8A3E0F9E849604390D1
:104140000951E0F8A3E0C8240CF582C83400F583D7
:10415000E0FCA3E0FD7A1075F006900EADE0A4241B
:1041600023F91219B3E9F8900951E0F9A3E0C92441
:104170000CF582C93400F5837400F0A37400F002DA
:10418000421B900951E0F8A3E0C82408F582C83426
:1041900000F583E0F8A3E0F9E849606F900951E089
:1041A000F8A3E0C82408F582C83400F583E0FCA336
:1041B000E0FD7A1075F006900EADE0A42424F9120B
:1041C00019B3E9F50A900951E0F8A3E0C82408F50D
:1041D00082C83400F583E02410FCA3E03400FD7AAB
:1041E0000475F006900EADE0A42425F91219B3E988
:1041F000F8900951E0F9A3E0C92408F582C9340018
:10420000F5837400F0A37400F08010900945E0601D
:104210000312169B121683790180067900800279B9
:1042200001740C121E227F08021F4E74F7121E7CAE
:1042300074F2121E0CE9FEAC18AD197A0E75F00678
:10424000EEA42420F91219B9E9700E740C121E584C
:10425000E0F8A3E0F9E8F980027900740E121E225A
:104260007F01021F4E74F4121E7C74F2121E0C8920
:1042700009EAFEEBFFE509C3940A5004EE4F70040F
:1042800079028041AC18AD197A0E75F006E509A4E3
:104290002420F91219B9E9F508E5087026750A060F
:1042A000750B00780A12208F7402121E72EEFAEF5C
:1042B000FB1213777402121E228A0A8B0B850A8264
:1042C000850B83A908740E121E227F04021F4E74F0
:1042D000F4121E7CEAFEEBFF750800E508C3940AA1
:1042E0005044750A06750B00780A12208FEEFCEF19
:1042F000FDE508F87900E875F00EA4C8AAF075F09D
:1043000000A42AFA75F00EE9A42AF974BF28FA74F9
:104310000839FB1213897402121E22E96004A908ED
:104320008006050880B5790A7F04021F4E74F412D6
:104330001E7CEAFEEBFF750800E508C3940A5044B2
:10434000750A06750B00780A12208FEEFCEFFDE56A
:1043500008F87900E875F00EA4C8AAF075F000A47A
:104360002AFA75F00EE9A42AF974B928FA74083902
:10437000FB1213897402121E22E96004A908800648
:10438000050880B5790A7F04021F4E74F7121E7C5F
:1043900074F0121E0CEAFEEBFF750800E508C394EA
:1043A0000A5039AC18AD197A1075F006E508A42446
:1043B00023F91219B9E970207C1079FFAA18AB19FA
:1043C0001213EFE97012EEFCEFFDAA18AB191209F7
:1043D00087E97004A9088006050880C0790A74106E
:1043E000121E227F01021F4E74F4121E7C750800FB
:1043F000E508C3940A40030244C6E508F87900E8DA
:1044000075F00EA4C8AAF075F000A42AFA75F00E93
:10441000E9A42AF974B928FC740839FD7A0E75F0FC
:1044200006E508A42420F91219B9E970030244C171
:104430007C067D0079FFE508FA7B00EA75F00EA4A2
:10444000CAA8F075F000A428F875F00EEBA428FBBC
:1044500074B92AFA74083BFB12138F8A0A8B0BAECD
:104460000AAF0B7C067D0079FFE508FA7B00EA7550
:10447000F00EA4CAA8F075F000A428F875F00EEBB1
:10448000A428FB74BF2AFA74083BFB12138F8A0A14
:104490008B0BAC0AAD0BE508F87900E875F00EA4BB
:1044A000C8AAF075F000A42AFA75F00EE9A42AF95A
:1044B00074C528F582740839F5837400F0A374007C
:1044C000F005080243F0900945E0600312169B12C4
:1044D00016837F04021F4E74F7121E7C7E00EEC30B
:1044E000940A50327C0679FFEEFA7B00EA75F00EF2
:1044F000A4CAA8F075F000A428F875F00EEBA42863
:10450000FB74B92AFA74083BFB1213EFE96004EE5E
:10451000F980050E80C8790A7F01021F4E74F712D8
:104520001E7C7E007F00EFC3940A502F7C0679FF2B
:10453000EFFA7B00EA75F00EA4CAA8F075F000A4AB
:1045400028F875F00EEBA428FB74B92AFA74083B1E
:10455000FB1213EFE970010E0F80CBEEF97F010221
:104560001F4E74F7121E7C7E007F00EFC3940A502A
:104570000DEE700AEFF9121659E9FE0F80EDEEF913
:104580007F01021F4E74F0121E7C74C9121E0CE9CA
:10459000FE900EADE06E701D7A017B0090089DE0EC
:1045A000F91213D1E97A027B0090089DE0F9121309
:1045B000D1E91216A77429121E727A0E75F006EE52
:1045C000A42420F91219B9E960030246B97C0679DE
:1045D000FF7429121E6A1213EFE960030246B97CC8
:1045E0000E7D0079FF7429121E6A12138F851882BE
:1045F000851983EAF0A3EBF07C1B7D0079FF740E34
:10460000121E6A12138F8A0A8B0B850A0E850B0FF6
:104610007C0C7D0079FF7402121E6A12138F8A0CC3
:104620008B0D850C0A850D0B7429121E727A0E757E
:10463000F006EEA42420F91219B3E9F508740E125D
:104640001E727A1B75F006EEA42421F91219B3E943
:104650004208740E121E727A1B75F006EEA4242214
:10466000F91219B3E94208740E121E727A1075F02D
:1046700006EEA42423F91219B3E94208740E121E9F
:10468000727A1075F006EEA42424F91219B3E942E7
:1046900008740E121E727A0475F006EEA42425F931
:1046A0001219B3E942087402121E727A0C74702E49
:1046B000F91219B3E942088003750800A908743794
:1046C000121E227F08021F4E74F7121E7CE9FEEEB6
:1046D00090089DF01216417F01021F4E74F2121EC7
:1046E0007C890AEAFEEBFFEE5400F8EF5480F9E80B
:1046F00049603590089DE0F91213B38A0C8B0DA820
:104700000CA90D88088909E8496012AA08AB0912AA
:10471000166BE96008AA08AB091213A1E9EE640060
:10472000FAEF6480FB0247E0EE5402602D7C007DCE
:10473000007A007B0012161DE960187A017B009058
:10474000089DE0F91213CBE9EE6402FAEF6400FB76
:104750000247E07A027B000247E0EEA2E0507D9043
:104760000951E0F8A3E0F5838882A3A3A3E0FAA3AC
:10477000E0FB1216A1E9605E9008B7E0F8A3E0F94B
:10478000E84960459008B7E0F8A3E0F5838882A384
:10479000A3E0F8A3E0F9E849602F7C0079019009D3
:1047A00051E0F8A3E0F5838882A3A3A3E0FAA3E095
:1047B000FB9008B7E0F8A3E0F5838882A3A3E0F8B4
:1047C000A3E0F5838882121E7A1216A7EE6401FA1E
:1047D000EF6400FB800A7A017B0080047A007B0092
:1047E0007F06021F4E74F7121E7CEAFEEBFF75086F
:1047F000018E828F83E02450601314601924E170CD
:104800001CEEFAEFFB1215FFE9F5088010EEFAEF47
:10481000FB1216718007EEFAEFFB121677A9087FDC
:1048200001021F4E74F7121E7CEAFEEBFF8E828F90
:1048300083A3A3A3A3E0641E701179008E828F83EB
:10484000A3A3E0FAA3E0FB1215EDE97F01021F4EDE
:1048500074F6121E7C8A088B09850882850983A359
:10486000A3A3A3E07034AE08AF098E828F83A3A305
:10487000A3A3A3A3A31220A68E828F83A3A3A3A383
:10488000A3E0FCA3E0FD8E828F83A3A3E0FAA3E064
:10489000FB1215F37402121E22E97F02021F4E74EE
:1048A000F7121E7CEAFEEBFF90089DE0F98E828FE6
:1048B00083A3E0FAA3E0FB120C0FE97F01021F4E75
:1048C000C082C08374FF121E0C12164DE9C39402FD
:1048D000400B8518828519837402F080098518823F
:1048E000851983740AF0AC18AD197A017905120A9A
:1048F00095E97401121E22D083D08202013274F233
:10490000121E7C74E8121E0C8A088B09E9FE8C0AC0
:104910008D0B7C187D007900AA18AB1912138F8AB1
:104920000C8B0DAC0CAD0D851882851983E508F054
:10493000A3E509F090089FE0C0E07402121E58D071
:10494000E0F09008A0E0C0E07403121E58D0E0F040
:10495000900EACE0C0E07417121E58D0E0F0741551
:10496000121E58E054FEF8A3E054FFF9900EABE09D
:10497000A2E0E433FA7B00E84AF8E94BF974151237
:104980001E58E8F0A3E9F0900EABE0A2E15004D28B
:10499000F08002C2F07415121E58E054FDFAA3E034
:1049A00054FFFBA2F0E433F87900E828F8E933F982
:1049B000EA48F8EB49F97415121E58E8F0A3E9F03B
:1049C000900EABE0A2E35004D2F08002C2F0741566
:1049D000121E58E054F7FAA3E054FFFBA2F0E433B0
:1049E000F50C750D007403780C121DF9EA450CF8EE
:1049F000EB450DF97415121E58E8F0A3E9F0900E7E
:104A0000ABE0A2E45004D2F08002C2F07415121E92
:104A100058E054EFFAA3E054FFFBA2F0E433F50CA6
:104A2000750D007404780C121DF9EA450CF8EB457D
:104A30000DF97415121E58E8F0A3E9F0900EABE0E2
:104A4000A2E55004D2F08002C2F07415121E58E0A4
:104A500054DFFAA3E054FFFBA2F0E433F50C750D2C
:104A6000007405780C121DF9EA450CF8EB450DF9B8
:104A70007415121E58E8F0A3E9F0900EABE0A2E224
:104A80005004D2F08002C2F07415121E58E054FB9C
:104A9000FAA3E054FFFBA2F0E433F50C750D0074AB
:104AA00002780C121DF9EA450CF8EB450DF9741566
:104AB000121E58E8F0A3E9F09008A0E0602A750CF7
:104AC00010750D00780C12208F7CA17D08740612E1
:104AD0001E58AA82AB831213777402121E228A0C0C
:104AE0008B0D850C82850D839008B1E06011EE601E
:104AF0000E7415121E58E04402F0A3E04400F0903A
:104B000008B1E060067801790080047800790074CB
:104B100014121E58E048F090089EE0600678047970
:104B2000008004780079007414121E58E048F0AC3C
:104B30000AAD0BAA18AB191209ABE97418121E22A0
:104B40007F06021F4E74F7121E7CEAFEEBFF75080B
:104B5000009008B1E060067801790080047800795F
:104B600000E8420890089EE060067804790080041E
:104B700078007900E84208A908EEFAEFFB120A650E
:104B8000E97F01021F4E74F2121E7C74E3121E0CA8
:104B90008A0C8B0DE9FF8C0A8D09742B121E58E0CC
:104BA000F50874086509700A75F006EFA42422FE62
:104BB000800875F006EFA42421FE7C1B7D0079009F
:104BC0007402121E6A12138F851882851983EAF007
:104BD000A3EBF07402121E727A1BEEF91219B9E9F6
:104BE0007038741C121E58E0C39407402D741C12B8
:104BF0001E58E0C394115022E508F50B780B1220E3
:104C0000937403121E72E50AA2E0E433F9AA0CAB16
:104C10000D1209BD7401121E22E9741D121E227F9D
:104C200006021F4E74F7121E7C120C87E97E00EEFE
:104C3000C3940A50557C0679FFEEFA7B00EA75F0C2
:104C40000EA4CAA8F075F000A428F875F00EEBA425
:104C500028FB74B92AFA74083BFB1213EFE970279A
:104C6000EEF87900E875F00EA4C8AAF075F000A47B
:104C70002AFA75F00EE9A42AF974B928FA740839E9
:104C8000FB7900120C8DE90E80A57F01021F4E7486
:104C9000F6121E7C74FD121E0CEAFEEBFF90095307
:104CA000E0F8A3E0F9E84970397508557509097805
:104CB0000812208F750802750900780812208F7578
:104CC0000823750984780812208F7CFF7DFF7A0104
:104CD0007B00120AD77406121E22900953EAF0A331
:104CE000EBF0900953E0F8A3E0F9E8497003024DB6
:104CF000ACE4F508F509780812208F7404121E62DE
:104D000088088909780812208F7404121E628808A6
:104D10008909780812208F9009551220A6790290EF
:104D20000953E0FCA3E0FDEEFAEFFB120BFD740863
:104D3000121E22E9704A851882851983E0FA7B00E9
:104D40007401121E58E0F87900E4C8F9EA28F50861
:104D5000EB39F509E50845096026780812208F909F
:104D60000953E0F8A3E0F5838882A3A3A3A3E0FCA2
:104D7000A3E0FDEEFAEFFB1215F37402121E22E916
:104D8000E4F508F509780812208F9009551220A63D
:104D90007CFF7DFF900953E0FAA3E0FB120AE37465
:104DA00004121E22900953EAF0A3EBF0900953E09D
:104DB000F8A3E0F9E84970047901800279007403EE
:104DC000121E227F02021F4EC082C083900951E052
:104DD000F8A3E0F9E8496017900951E0FAA3E0FB75
:104DE0001213A1E9F89009517400F0A37400F09037
:104DF0000EAD740AF0D083D082020132C082C0832B
:104E0000E9900BB0F002508B74F7121E7CE990020F
:104E1000E1F07C197D037AFF7BFF120C159002E212
:104E200074FFF0A3F0A3E4F0A3F07905120B9D90BA
:104E300002E1E0F9120ABF7A337B0C120DDD7F012B
:104E4000021F4E74F4121E7C8A088B09EB5480609A
:104E5000309002E1E0F91213B38A0A8B0BAE0AAF6D
:104E60000BEE4F60138E828F83E064B07003120BE1
:104E7000B5EEFAEFFB1213A1AA08E5096480FB80E6
:104E8000047A007B0002505A74F2121E7C74FC12E9
:104E90001E0CEAFEEBFFEE4F60387402121E58EE55
:104EA000F0A3EF1252BFECF0A3ED1252BFAA82ABF7
:104EB00083120AB9E9F50870737412121E58125E53
:104EC00073E50A450B60658E828F83124F36EE4F75
:104ED000700575080280557A067B0012140D8A0C45
:104EE0008B0DA80CA90DE8497005750813803D8845
:104EF000828983E4124F40A3A3EEF0A3EF12630C68
:104F0000E50AF0A3E50BF09002E7124FC89002E724
:104F10006017E0FCA3E08003EAFCEBFD8C828D834C
:104F2000124FC870F38C828D83125D98A9087404A7
:104F3000121E2202650EA3A3A3A3E0FEA3E0FF229C
:104F4000F0A3F0888289832274F2121E7C890AE918
:104F500075F017A4FEAFF09002E6E4F09002E412C0
:104F60004FC8600A1214139002E4E4F0A3F0EEFAC2
:104F7000EFFB12140D8A088B09EA4509602FEEFC3D
:104F8000EFFD790012138F9002E4E508F0A3E50924
:104F9000F07B008008124FB2E4F0A3F00BEBC39556
:104FA0000A40F2E50A9002E6F079008002791302E5
:104FB000650EEB75F017A4F8A9F09002E4E028FA6A
:104FC000A3E0398A82F58322125B2EEA4B2274F425
:104FD000121E7C750800750900740C121E581262AE
:104FE000E0FEE9FF800CE5082401F508E50934003E
:104FF000F509C3E5089CE5099D503285080A850935
:105000000B7403780A121DF9EA250AF8EB350BF93F
:1050100088828983A3A3A3A3A3A3125E73EE650A68
:105020007003EF650B70BFE8FAE9FB80047A007B40
:1050300000802774F4121E7C7900EAA2E0501B75F0
:105040000828750983780812208F7C047D007AB2C5
:105050007B0B120B977402121E227F04021F4EC09C
:1050600082C0839002E7125092601C88828983A3D9
:10507000A3E06A7003A3E06B8882898370E8A3A32E
:10508000A3A3125B2A80047A007B00D083D0820223
:1050900001321265E1E8492274EE121E7C74FC12A2
:1050A0001E0CEAFEEBFF851882851983E4F0A3F05D
:1050B000EE2402125D7CEE24051252ADEE2404F5BE
:1050C0000EEF125692E024FE603924FC604624FE66
:1050D000605224FE605E24FE70030251B224FE7012
:1050E0000302522A24FE700302523924FE70030286
:1050F000524824FC700302525724FE700302526689
:105100000252A39003007417F0A3E41252C71208CE
:10511000370252A3851882851983AC82AD83120BA6
:10512000BB025273851882851983AC82AD83120B42
:10513000C1025273850C08850D097402121E58AC09
:1051400082AD83850882850983125B2A120ADD8A73
:105150000C8B0DAC0CAD0DEC4D6042E4F50CF50D77
:10516000780C12208F750C00750D03780C12208FAF
:10517000750C01750D03780C12208F7408121E58DF
:105180001220A67916125B24120BFD7408121E223F
:10519000E9F50C700B125B2012084F800F750C01A3
:1051A0008508828509831252B5125D98850C080224
:1051B00052767402121E58AC82AD83850C82850D26
:1051C00083125B2A120ADD8A108B11AC10AD11EC30
:1051D0004D6043850C82850D83A3A31220A6751014
:1051E00000751103781012208F7510017511037866
:1051F0001012208F7408121E581220A67916125B06
:1052000024120BFD7408121E22E9F509700B125BC3
:1052100020120855800F750901850C82850D8312B7
:1052200052B5125D98850908804C851882851983CE
:10523000AC82AD83120BC7803A851882851983AC86
:1052400082AD83120BCD802B851882851983AC82A9
:10525000AD83120BD3801C851882851983AC82AD77
:1052600083120BD9800D851882851983AC82AD839A
:10527000120BDFE9F508E50860298E828F83A3E031
:105280006414601F850E82850F83E0900300125224
:10529000BF1265DD900301125D98E508A31252C7A5
:1052A000120831EEFAEFFB120B5B025C84F50CEF97
:1052B0003400F50D221265E185188285198322F0EC
:1052C00085188285198322F07C007D03850A8285FA
:1052D0000B83125B2E2274EE121E7C74FC121E0CC9
:1052E0008A0A8B0B8C0E8D0FEA2405F508EB34002F
:1052F000F5097C157D0079007A007B0312138FE598
:10530000082402F50CE5091252B08518828519832C
:10531000858210858311781012208F850882850977
:1053200083A3A3A3A31257DA12208FE5082405F55F
:1053300010E5093400F511781012208F850C828554
:105340000D83125B34120AD77406121E228A108B48
:1053500011AE10AF11E50A2402F50AE50B125D7FCC
:10536000EE4F700302549C80177402121E58125B99
:105370002A88828983EAF0A3EBF0900300E004F02E
:10538000900300E0C39405400302549CE4F510F53B
:1053900011781012208F7510E97511027810122003
:1053A0008F7510EA751102781012208F7406121E84
:1053B000581220A67910EEFCEFFD125B24120BFDB3
:1053C0007408121E22E9705E850882850983A3A3F2
:1053D000A3A3A3A3A3E0F89002E9E06870481257E2
:1053E000DA12208F7CEA7D02E5082408FAE5093408
:1053F00000FB1213897402121E22E960298E828F2B
:1054000083A3A3A3A3125B2A900300E0F510740208
:105410007810121DF974012510F58274033511F509
:1054200083EAF0A3EBF07402121E58858210858384
:1054300011781012208F7402121E581220A6850CAB
:1054400082850D831265F2120AE37404121E228A09
:10545000108B11AE10AF11900300E0F51075110024
:1054600074027810121DF974002510F874033511B8
:10547000F988828983A3124FC87003025360E8241D
:1054800003F8E93400F9EE4F60030253698882891A
:105490008374FFF0A3F0900300E004F0900300E0B9
:1054A000600A125B201208437900800B8508828510
:1054B0000983125D8F790A025C8474EA121E7C747F
:1054C000FE121E0C8C128D13EA2405F50CEB1267EC
:1054D0005C124F3A750800750900EA2402F510EBDA
:1054E0003400F51185188285198385820A85830B1E
:1054F000780A12208F850C82850D83A3A3A3A312A3
:10550000569C12208FE50C2405F50AE50D125D7FEF
:10551000780A12208F850C82850D831265F0120A9D
:10552000D77406121E228A0A8B0BEA450B700302FF
:10553000564DEA2404F50EEB125692124F3A8A8227
:105540008B83A3A3A3E0F9851082851183125B2AC4
:10555000120AC5E9F509600302564DE4F514F51584
:10556000781412208F7514E9751502781412208FA3
:105570007514EA751502781412208F7406121E58DD
:105580001220A67913AC0AAD0B8510828511831207
:105590005B2A120BFD7408121E22E9F50960030252
:1055A000564D9002E9E0F8E5087009E02402900306
:1055B00001F08017900301E0FCE82402FAE43400D3
:1055C000FBEA6C7001EB6003025651850882AA82E7
:1055D0001257D194141257C95073850E82850F83C8
:1055E000E0C0E074022A125689D0E0F00508850E6A
:1055F00082850F83A3E0C0E085080A7402250A12A1
:105600005689D0E0F005089002E912569C12208FCE
:105610007CEA7D0285080A7402250AFA74033400C4
:10562000FB1213777402121E229002E9E02508F59E
:105630000874FF6E700374FF6F6012EE24010EEFAA
:105640003400FFE508C3941450030254E4E50860F5
:1056500013125A15851082851183125B2A1208498C
:1056600079008014E509700375090A851282851393
:1056700083EEF0A3EFF0A9097402121E227F0E023E
:105680001F4E85080C7402250CF58274033400F556
:1056900083223400F50F850E82F5832212631F22C8
:1056A00074EE121E7C74FE121E0C8C0E8D0FEA24FA
:1056B00005F50CEB1252B0750B00900300E4F0F509
:1056C0000AEA2402F508EB3400F50980499003004A
:1056D000E0FA9002E9E0F81257D194171257C94046
:1056E0000D900300E0F87416C3989002E9F0125789
:1056F000DA12208F7CEA7D0274012AFA74033400E6
:10570000FB1213777402121E229002E9E0F8900354
:1057100000E028F0050AE50C2416F582E50D125686
:105720008DE0F8E50AC39840030257B2900300E009
:10573000C39416507DE50AC333F8E433F9E50C2829
:10574000FEE50D39FF851882851983AC82AD838E05
:10575000828F83125B2A120ADD8A108B11AC10AD86
:1057600011EC4D7005750B018043E4F510F51178CF
:105770001012208F7510E9751102781012208F75A4
:1057800010EA751102781012208F7406121E58123A
:1057900020A67916850882850983125B2A120BFDE3
:1057A0007408121E22E9F50B70030256CD125D8BB0
:1057B00080107C007D03850882850983125B2A1294
:1057C000085BA90B7402025C86E99400C365D033C0
:1057D00022EA28F8E43400F9E822E0F51075110017
:1057E00078102274EA121E7C74FC121E0C8A0C8B38
:1057F0000D8C128D13EA2405F50AEB125D7F7508F6
:1058000000750900E50A2402F510E50B3400F511D6
:105810007402121E5885820E85830F780E12208F17
:10582000850A82850B83A3A3A3A31262CB12208FC8
:10583000E50A2405F50EE50B3400F50F780E12206D
:105840008F851082851183125D85125B24120AD721
:105850007406121E228A0E8B0FAE0EAF0FE50C24BB
:1058600002F50EE50D3400F50F80408882898374BF
:10587000FFF0050812568274FFF005089002E9E077
:10588000F50C750D00780C12208F7CEA7D028508DE
:105890000C7402250CFA74033400FB1213777402A3
:1058A000121E229002E9E02508F508EE4F60718E85
:1058B000828F83A3A3A3E0F9850E82850F83125BF9
:1058C0002A120AC5E9F509EE24041252ADE9704422
:1058D000E4F514F515781412208F7514E975150286
:1058E000781412208F7514EA751502781412208F1F
:1058F0007408121E581220A67911EEFCEFFD850ED9
:1059000082850F83125B2A120BFD7408121E22E996
:10591000F5096027850C82850D83125A0B125D985C
:10592000E50870030259F1125A15850E82850F831E
:10593000125B2A1208617900025A06850882AA823F
:10594000EA9002E97009E02404900301F08022E06B
:10595000F8900301E0F514E82404FCE43400FDECC5
:1059600065147001ED70C01257D194121257C950CE
:10597000B6850C82850D83E0C0E074022A12568938
:10598000D0E0F00508850C82850D83A3E0C0E0120D
:105990005682D0E0125A2785820C85830D780C122E
:1059A000208F7404121E581220A685108285118340
:1059B0001265F2120AE37404121E228A0C8B0DAED9
:1059C0000CAF0D85080C7402250CF874033400F933
:1059D000EE4F700302586B851882851983E0888228
:1059E0008983125A27A3E0C0E0125682D0E0025801
:1059F00079E509700375090A850A82850B83125AB5
:105A00000B125D98A909740402567A1265E1851299
:105A10008285138322900301E0F5F0E5088490036A
:105A200000F07C007D0322F005088518828519832B
:105A30002274EC121E7C74FE121E0C8A088B098CD8
:105A40000E8D0FEA2405FEEB3400FF8518828519C0
:105A500083AC82AD838E828F83125B2A120ADD8A29
:105A60000A8B0BEE24181252ADEA450B7003025A52
:105A7000FB125C6D5032851882851983125B2A12E5
:105A80000BF18A108B11EA4511606B7912AC0AADEB
:105A90000B850882850983125B2A85108285118314
:105AA000121E7AE9F50A7058E4F50AF50B780A1225
:105AB000208F8E828F83A3A3E0F50A780A12208FAD
:105AC000EE2403125D7C780A12208F8E828F83125F
:105AD0005B34120C037406121E22E9F50A7021854C
:105AE0000C82850D83E0701F850882850983125B17
:105AF0002A1208678011750A0E8009750A01800450
:105B0000E50A6003125D8B850C82850D83E06004DD
:105B100079008002A90A7402121E227F0C021F4E15
:105B20007C007D03850A82850B83125B2E22E0FABE
