:020000040000FA
:0600000002011A0227C3F1
:03002B00022F7829
:03003300022F5049
:030053000228364A
:03006B00022EF76B
:03007B00022F1F32
:1000830002262FE5C754F84401F5C7790122000081
:100093000080FB120086B90003020104E479217891
:1000A30008B800028004F709D8FCE479297802B87B
:1000B30000028004F709D8FCE4900281785379099F
:1000C3008002F0A3D8FCD9FA781A90014A7A01BACF
:1000D30000028007E493A3F608DAF97AD37B0A9047
:1000E300014B782A79078015E493A3AD82AE838A06
:1000F300828B83F0A3AA82AB838D828E83D8E9D9C6
:10010300E77582D175838E740412012C7582917503
:100113008300740012012C75D00075813F7518811E
:10012300751902759F00020096C09FF59FE473D076
:100133009F22D083D082C09FE493C0E0740193C018
:10014300E0740293F59F2201FF0000B40000280031
:100153002800283075A000A000A000A0000008001F
:1001630008E001F000100010001000100010001053
:100173000050005000500010001000D00700000095
:100183000000000F0001000500307507001000019A
:100193000081FF00000000FF720990097809FF0247
:1001A300020208025000A0000000E80302E88301F5
:1001B30000009D8302C2830100002A0B02BA83015F
:1001C3000000B30202C2830100002B0B02B88301BB
:1001D3000000C90202C2830100002C0B02BE83018E
:1001E3000000CB0202C2830100002D0B02C683086C
:1001F3000000CC0202C2830100002E0B02CA83015D
:1002030000002F0BFF0100FF2002E883010000A381
:100213008302C283010000930B02D6830000000017
:100223000002BC830300001903480F480F480F481E
:100233000F480F480F480F480F480F480F480F4803
:100243000F480FDC11F411D611FFFF0A0953656E35
:10025300736F72546167051250002003020A000293
:100263000105544920424C452053656E736F72203B
:1002730054616700D007E803E803E803E803FE13CB
:1002830000002E1434143A14401446144C1452141F
:1002930058145E1412416363656C2E2044617461CB
:1002A300000A416363656C2E20436F6E662E000A5D
:1002B3000A416363656C2E20506572696F640002A6
:1002C300E883010000B28302C2830100001F0C1007
:1002D300F5810100004B0802BC830300004E0802B5
:1002E300C083010000200C02C2830100002C0C100B
:1002F3000582030000540802C0830100002D0C0294
:10030300C2830100003A0C1015820300003B0C026B
:10031300C0830100003C0C124261726F6D2E2044B9
:10032300617461000A4261726F6D2E20436F6E66C5
:100333002E00024261726F6D2E2043616C696272FE
:100343002E000A0A4261726F6D2E20506572696F2A
:10035300640002E883010000B58302C28301000048
:10036300A20C105582010000570802BC8303000051
:100373005B0802C083010000A30C02C283010000DA
:10038300AF0C106582030000610802C08301000006
:10039300B00C02C283010000CD0C10858203000063
:1003A300CE0C02C083010000CF0C02C28301000007
:1003B300BD0C107582010000620802BC83030000BB
:1003C300720802C083010000BE0C12436F6E6E2ED2
:1003D30020506172616D730008436F6E6E2E205062
:1003E3006172616D73205265710008446973636FB4
:1003F3006E6E656374205265710002E8830100002C
:10040300978302C283010000550D10B581010000DE
:100413007A0802BC83030000800802C08301000045
:10042300560D02C283010000630D106581020000B6
:10043300860802C083010000640D02C2830100002C
:10044300750D1055810200008E0802C08301000063
:10045300760D020202020202020202010D000000F6
:10046300100102E883010000AC8302C28301000093
:10047300DD0D02E2830100008F0802C28301000048
:10048300DE0D02E083010000208302C2830100002D
:10049300DF0D02DE83010000258302C28301000019
:1004A300E10D02CE83010000818002C283010000BE
:1004B300E20D02D0830100002F8302C283010000FA
:1004C300E00D02DA830100002A8302C283010000E7
:1004D300E30D02DC83010000938002C2830100006C
:1004E300E40D02E483010000B58202C2830100002F
:1004F300E50D02E683010000E60D01E803053F1068
:100503000A124779726F2044617461000A47797255
:100513006F20436F6E662E000A0A4779726F205070
:100523006572696F640002E883010000948302C26C
:10053300830100008C0E10B580010000530902BC3A
:1005430083030000590902C0830100008D0E02C21B
:1005530083010000970E10D5800300005F0902C0DD
:1005630083010000980E02C283010000A30E100550
:1005730081030000A40E02C083010000A50E0380C6
:10058300000080700061801254656D702E204461FC
:100593007461000A54656D702E20436F6E662E00E1
:1005A3000A1E54656D702E20506572696F640002D7
:1005B300E883010000AF8302C283010000120F1021
:1005C3002582010000E30902BC83030000EF090256
:1005D300C083010000130F02C2830100001E0F102D
:1005E300D581030000F50902C0830100001F0F023B
:1005F300C2830100002B0F10C5810300002C0F02E2
:10060300C0830100002D0F124D61676E2E204461DF
:100613007461000A4D61676E2E20436F6E662E0073
:100623000A0A4D61676E2E20506572696F6400027D
:10063300E883010000A98302C283010000920F1026
:100643009581010000F90902BC83030000FF090240
:10065300C083010000930F02C2830100009E0F10AC
:100663008581030000050A02C0830100009F0F0279
:10067300C283010000AB0F107581030000AC0F02B1
:10068300C083010000AD0FFF0001307503020106B6
:100693000000000000000000000000000000000057
:1006A300000000000000000000000000FFFF060043
:1006B300800CE803104B65792050726573732053E7
:1006C300746174650002E883010000A68302C2839B
:1006D3000100003F1002D483000000B50A02BC836E
:1006E300030000B60A02C0830100004010025465F3
:1006F30073742044617461000A5465737420436FFA
:100703006E6669670002E883010000A08302C2836A
:100713000100007810104581030000BE0A02C08367
:10072300010000791002C283010000831010A5802C
:10073300030000C60A02C08301000084101254693A
:100743006D652E20446174610002E8830100009A04
:100753008302C283010000C810102581030000C971
:100763000A02BC83030000CD0A02C083010000C952
:1007730010120135E8FC03120135FFFC03120135A9
:1007830030FD031201356BFD0312013595FD031294
:100793000135BFFD03120135D6FD03120135EDFD11
:1007A3000312013504FE031201352DFE0312013538
:1007B30040FE0312013556FE0312013569FE031292
:1007C300013590FE03120135AADD02120135AEDEBA
:1007D30002120135E6DE0212013509DF021201358C
:1007E30014DF0212013537DF0212013546E002122F
:1007F30001351BE10212013596E1021201351EE2B9
:100803000212013559E20212013590E2021201355A
:100813001EE302120135F7E30212013557E4021217
:10082300013562E402120135E1E402120135E4E428
:1008330002120135E7E40212013576E502120135B1
:1008430079E502120135A9E502120135D3E5021259
:100853000135C1E60212013573E70212013591AA8F
:1008630003120135B9AA03120135E7AA03120135B0
:100873001EAB031201357CAB03120135C7AB031268
:10088300013512AC0312013552AC0312013598AC99
:1008930003120135C6AC0312013583AD03120135D2
:1008A3008DAD031201359AAD03120135CDAD03129F
:1008B300013599AE03120135A5AE03120135BDAE64
:1008C30003120135C7AE03120135F2FE02120135E0
:1008D30000FF0212013518FF0212013530FF021228
:1008E3000135008002120135AC80021201352781E7
:1008F3000212013548820212013584820212013547
:100903002D830212013514840212013578850212F7
:100913000135CF8502120135508602120135408719
:10092300021201358D870212013513880212013537
:10093300458802120135598A021201359B8A021237
:100943000135B98A021201353C8B02120135108C34
:1009530002120135D88C021201350F8F03120135B3
:10096300E28F031201358B9003120135DE900312DF
:1009730001358E91031201351A9203120135069344
:1009830003120135359303120135489403120135DF
:10099300909403120135659503120135A195031255
:1009A3000135BD95031201354D8E04120135A6D6CE
:1009B30003120135BCD603120135E2D60312013509
:1009C300FED70312013508D8031201353DD90312AE
:1009D300013535DA03120135AB9B03120135DB9C7C
:1009E300031201350E9D03120135589D0312013583
:1009F3001F9F0312013532D4011201359CD4011219
:100A03000135FBD5011201350BD60112013538D65C
:100A1300011201358FD60112013538D70112013584
:100A23003FD80112013509D90112013569DA0112E2
:100A33000135ACDA0112013551DB011201359EDBC0
:100A430001120135C4DB01120135D2DD011201357A
:100A5300D7DD01120135DCDF0112013529E0011276
:100A630001359CE001120135CFE00112013571E13E
:100A7300011201351AE20112013552E20112013568
:100A830055E2011201359DE201120135DDE2011249
:100A9300013534E301120135CAEC03120135E2ECEE
:100AA300031201352AED0312013540ED031201351E
:100AB30087ED031201359BEE0312013528EF031274
:100AC300013573EF03120135D44C00120135E04CAC
:100AD300001201351B4D00120135604D0012013526
:100AE300204E00120135A64E001201350B4F0012A5
:100AF3000135374F00120135704F00120135AE51E9
:100B03000012013592530012013578550012013558
:100B1300BB56001201350959001201351B5A001248
:100B23000135665B00120135765C00120135935C7A
:100B330000120135CE5C00120135F05C0012013564
:100B4300535D00120135146200120135A9620012CF
:100B53000135FA6200120135216300120135736316
:100B630000120135916300120135EB630012013568
:100B7300D464001201354A6600120135CE660012B4
:100B830001354EAF0312013558AF031201359BAF48
:100B930003120135B6AF0312013546B00312013516
:100BA3006EB003120135ABB003120135E2B003128C
:100BB30001350BB10312013580B10312013595B133
:100BC30003120135AAB103120135DBB1031201355A
:100BD300EFB10312013514B2031201354EB2031201
:100BE30001357AB203120135B2B20312013531B3C2
:100BF300031201357AB303120135A4B3031201358D
:100C0300CFB303120135788A0412013575C6021277
:100C13000135A3C602120135F1C702120135D1C84D
:100C230002120135F0C8021201356DC902120135F5
:100C3300B0C90212013506CB02120135C7CB02122D
:100C430001354ECE02120135EFCE02120135E5CF4A
:100C530002120135E2D0021201353CD202120135F3
:100C6300C7D202120135A2FE031201350BFF031294
:100C730001355FFF0312013586FF03120135B7FF0C
:100C830003120135E9C10312013556C203120135BE
:100C93009DC203120135B5C303120135B1C403125A
:100CA300013594C5031201357BF002120135BDF005
:100CB300021201358FF10212013568F20212013579
:100CC30062F30212013544F402120135ADF402124B
:100CD300013563F502120135D7F50212013543F6EA
:100CE300021201356CF602120135E6F602120135E5
:100CF3007FF702120135E4F702120135F9F7021208
:100D030001353FF80212013558F802120135BDF8DA
:100D130002120135C0F802120135E9E6031201356A
:100D230011E7031201354FE7031201350DE80312F2
:100D3300013574E80312013590E803120135B8E870
:100D430003120135E8E803120135F7E80312013510
:100D530074E9031201359AE90312013521E4011202
:100D63000135FFE50112013531E8011201356DE866
:100D7300011201359AE80112013584E901120135A6
:100D8300CFE9011201351AEA011201352CEA0112E9
:100D930001356CEA01120135A1EA01120135EFEACE
:100DA300011201351EEB0112013541EB0112013530
:100DB3008EEB0112013513EC011201352DEE0112F8
:100DC30001356CF001120135ADF0011201354FF21E
:100DD3000112013590F20112013503F301120135BD
:100DE30059F30112013560B9021201355EBA0212DC
:100DF3000135F7C00212013518C302120135E3C4ED
:100E0300021201354BC60212013535670012013556
:100E1300E4670012013511680012013557680012AA
:100E230001359769001201352D6B00120135A76B4F
:100E330000120135C26B001201353D6C0012013501
:100E4300976D00120135F76E00120135FD6F001228
:100E530001355E7100120135777100120135D571CC
:100E630000120135C37200120135F672001201350A
:100E7300667300120135E073001201352A74001203
:100E83000135F47400120135C97500120135A876D5
:100E930000120135337700120135A17700120135B5
:100EA300157800120135407800120135FF780012E1
:100EB3000135647A00120135817A00120135A07A76
:100EC30000120135917B00120135B67B001201350A
:100ED300E07B001201355B7C00120135B57C00120A
:100EE30001351E7E00120135CC7E001201350D7FC7
:100EF300001201358CAB02120135DAAB0212013557
:100F0300E6AB02120135C4AC02120135F5AC021294
:100F1300013526AD02120135A6AD02120135DEAD53
:100F23000212013530AE021201356DAE02120135E7
:100F33008AB002120135B0B2021201359BB402121B
:100F4300013585B602120135E97F00120135F998A2
:100F53000112013529990112013502A0011201354F
:100F630087A10112013584A7011201356CA8011272
:100F73000135A9A801120135CCA801120135FDA83C
:100F83000112013506A90112013510A9011201351B
:100F9300FEA901120135F4AA01120135EA830112F7
:100FA3000135E98701120135EF87011201352A8FD7
:100FB30001120135439401120135D8D203120135D0
:100FC3006ED30312013584D303120135FAD303120E
:100FD30001356ED403120135ACD40312013520D58B
:100FE3000312013599D503120135A2D50312013538
:100FF300AED503120135C3D50312013501D6031251
:10100300013517D60312013576D60312013556C6BC
:101013000312013563C6031201357DC60312013580
:10102300BCC603120135FAC6031201355FC70312AA
:10103300013574C7031201357FC7031201358CC70D
:1010430003120135A3C703120135B1C703120135DA
:10105300BCC703120135C8C703120135D7C7031232
:101063000135E2C70312013505C803120135ACC8C7
:1010730003120135BCC803120135D6C8031201356A
:10108300F3C8031201350FC90312013534C9031222
:1010930001353FC90312013554C90312013568C92B
:1010A30003120135C9C903120135CFC90312013532
:1010B300D5C903120135DBC903120135F3C9031284
:1010C300013526CA03120135629D02120135E69DE0
:1010D30002120135959E02120135F49F0212013569
:1010E30015A20212013501A30212013536A3021221
:1010F300013558A30212013507A402120135FFA5D9
:101103000212013528A602120135BAA602120135D0
:10111300ECA602120135F9A60212013550A70212FC
:10112300013576A702120135E3A902120135E6AAB9
:10113300021201353EAB02120135F18E0212013566
:10114300FB8F02120135E29002120135EC9002127C
:1011530001350E91021201351A9102120135B39233
:1011630002120135E29202120135FE930212013599
:10117300579402120135BD95021201359C96021255
:101183000135F89602120135659702120135A097D1
:1011930002120135DF9702120135989A02120135C6
:1011A300B29A021201353E9B021201354C9B021288
:1011B3000135A59B02120135B39B02120135269C12
:1011C300021201358A9C02120135D49C02120135A8
:1011D30083F301120135A5F301120135CBF5011299
:1011E3000135E0F801120135F8F901120135ABFAC6
:1011F300011201358DFB01120135AB81041201355A
:10120300D0810412013542820412013595870312FD
:1012130001359E8703120135A787031201357E88A6
:10122300031201352F8A03120135658A0312013532
:101233009F8A03120135D58A031201350F8B0312DE
:101243000135438B031201356F8B03120135B88BC4
:1012530003120135F28B031201353B8C0312013566
:10126300938C03120135C88C03120135238D0312AD
:1012730001355D8D03120135AE8D03120135E48D09
:10128300031201351E8E031201354C8E03120135F4
:101293006F8E031201355F8C041201358B8C04129F
:1012A3000135E68C04120135F08C04120135008DF2
:1012B3000412013500800312013515800312013534
:1012C300718003120135DC8003120135248103127E
:1012D30001358E8103120135BD8103120135CB81A6
:1012E300031201352D82031201356B82031201357E
:1012F300868203120135218303120135C68303124B
:1013030001354984031201358284031201350D85A9
:1013130003120135648503120135C38503120135B8
:10132300D58503120135FB850312013504860312AB
:1013330001355E87031201350C8804120135EA88F2
:10134300041201359DEF03120135E2EF031201355B
:1013530028F003120135F1F103120135918B0412C8
:101363000135AC8B04120135BC8B04120135138C8F
:10137300041201350A8D04120135E4E70212013526
:1013830004E8021201357AE902120135C8E90212B2
:101393000135E8E90212013550EA02120135D2EAB9
:1013A3000212013518EB02120135A4EB02120135CA
:1013B300EDEF021201356AF002120135B1FE01129E
:1013C3000135E2FE011201350CFF011201352CFF3C
:1013D300011201358AFF011201350CAD01120135ED
:1013E30070B00112013506B40112013538B401128F
:1013F300013563B40112013557B501120135CBB57F
:1014030001120135A3B601120135CEB60112013521
:10141300F9B60112013524B7011201355BB7011288
:10142300013593B8011201357AB901120135A5B915
:10143300011201354CBA01120135F1BA011201351D
:1014430098BB011201353DBC01120135E4BC011208
:10145300013523BD01120135CBBD0112013598BE03
:101463000112013524BF01120135E9BF0112013513
:101473009DB803120135EDB80312013516B90312F5
:101483000135C8B90312013531BA031201353DBB29
:101493000312013506BD03120135329603120135DD
:1014A300829603120135AB9603120135C5970312D9
:1014B3000135589803120135A199031201356E9B2A
:1014C30003120135A3CA03120135F3CA031201350E
:1014D30010CB03120135DFCB0312013560CC0312AD
:1014E300013533CD03120135B1CE03120135E4F8D2
:1014F3000212013509F90212013541F902120135CF
:10150300AD8D04120135A82F00120135C13200122E
:101513000135733400120135173500120135BA3520
:1015230000120135713600120135A0360012013563
:101533005E3B00120135F53B00120135313D0012CF
:101543000135993D001201354D3E0012013503412D
:10155300001201353D4100120135A741001201354A
:10156300054200120135634200120135C0420012E8
:101573000135AF4300120135F543001201353A44FA
:10158300001201355D4400120135A04500120135FA
:10159300B44500120135BD4600120135FC46001268
:1015A3000135284700120135774700120135984766
:1015B30000120135D647001201351D4A00120135CC
:1015C3005E4A00120135FC4A00120135674B0012D6
:1015D3000135A04C0012013543BD0312013593BD03
:1015E30003120135BCBD031201356EBE0312013572
:1015F300D7BE03120135E3BF03120135ACC1031299
:1016030001350BFB031201351BFB0312013560FB94
:10161300031201353EFC03120135D6FC03120135DA
:101623000080041201353380041201355180041205
:101633000135EA80041201350781041201359981CD
:1016430004120135B78F041201354689041201359E
:101653005689041201356A8904120135728A04120B
:101663000135E2E3031201358CE403120135CEE6C2
:1016730003120135A3F403120135BDF4031201353E
:1016830020F5031201358EF50312013544F60312DA
:10169300013563F60312013573F603120135B2F611
:1016A30003120135EFF603120135488F0412013599
:1016B300878F041201355083041201359F8304126E
:1016C3000135D18304120135638404120135DF84AB
:1016D3000412013594DD03120135A8DD031201352F
:1016E300D1DD03120135FADD03120135C2DE031227
:1016F30001350DDF03120135C4E0031201357F8686
:1017030004120135B286041201352E870412013505
:101713004E8704120135B38704120135FB87041287
:101723000135FE8704120135D2A003120135EBA067
:101733000312013580A10312013571A20312013591
:1017430027A50312013567A503120135A9A50312C5
:10175300013501F70312013512F7031201355BF767
:101763000312013587F703120135A7F70312013579
:1017730046F80312013519F903120135F1840412F5
:101783000135408504120135C8850412013552869E
:1017930004120135F87F00120135E2E90312013525
:1017A30010EC031201357CEC03120135C7EC031274
:1017B3000135C7A50312013517A60312013540A64B
:1017C30003120135F2A6031201355BA7031201359B
:1017D3007DA80312013546AA03120135F7B303129C
:1017E300013547B40312013570B40312013522B534
:1017F300031201358BB50312013597B60312013578
:1018030060B8031201352BF90312013592F9031263
:1018130001353DFA03120135B3FA031201353FDAFC
:101823000312013572DA0312013578DB0312013535
:10183300CDDC0312013548D30212013524D4021240
:1018430001356BD402120135A8D40212013516D525
:101853000212013570D502120135E0D502120135AD
:10186300B8D602120135ABD7021201352FD80212B6
:101873000135D2D9021201355DDA02120135EDDAF2
:101883000212013586DB021201359DDB021201359E
:10189300D8DC021201352EDD02120135C4C001125B
:1018A300013568C50112013559C80112013582C8D5
:1018B3000112013599C801120135C2C8011201355F
:1018C30074C90112013552CB01120135A4CC0112A6
:1018D3000135EBD10112013524D20112013568D251
:1018E3000112013574D30112013535F203120135AA
:1018F30085F203120135E8F203120135AEF3031248
:10190300013566F4031201353D7F00120135E1CE46
:101913000312013531CF031201355ACF03120135BA
:10192300F2CF0312013549D0031201354ED1031210
:1019330001359BD203120135D6E0031201353BE199
:101943000312013564E103120135B0E103120135DD
:10195300F3E103120135C6E203120135A5E30312D5
:101963000135C9FF02120135998F04E06670100832
:10197300A3E066700A08A3E066700408A3E0662289
:10198300C3E7960809E7960809E7960809E7962248
:10199300C3E09608A3E09608A3E09608A3E0962286
:1019A300C008C3E096F50808A3E096420808A3E040
:1019B30096420808A3E09645087001D3D008220890
:1019C3000808EAC0E0EBC0E086F0E7A4FA1809864D
:1019D300F0E7A42AFA180986F0E7A42AFA18098678
:1019E300F0E7A42AFA1986F0E7A4FBE5F02AFA192E
:1019F3000886F0E7A42BFBE5F03AFA190886F0E72E
:101A0300A42BFBE5F03AFA18180986F0E7A4C5F011
:101A13002BFBE43AFA1908E7C5F0C6A426F6E5F06D
:101A23003BFBE43AFA1886F0E7A4F6E5F00826F65D
:101A3300E43B08F6E43A08F6D0E0FBD0E0FA22E40F
:101A4300CFC0E0E4CEC0E0E4CDC0E0E4CCC0E075BC
:101A5300F020E626F608E633F608E633F608E63322
:101A6300F6181818EC33FCED33FDEE33FEEF33FFBD
:101A7300C3EC9709ED9709EE9709EF9719191940E8
:101A83000FFFEC97FC09ED97FD09EE97FE19190678
:101A9300D5F0BFECF709EDF709EEF709EFF71919E0
:101AA30019D0E0FCD0E0FDD0E0FED0E0FF226016CC
:101AB300080808C6C313C618C613C618C613C61823
:101AC300C613C6D5E0EA2270090808082260161872
:101AD3001818C6C333C608C633C608C633C608C6F5
:101AE30033C6D5E0EA22E627F60809E637F6080901
:101AF300E637F60809E637F622E026F608A3E036CD
:101B0300F608A3E036F608A3E036F622E026F0084E
:101B1300A3E036F008A3E036F008A3E036F022C3D2
:101B2300E697F60809E697F60809E697F60809E640
:101B330097F622C3E0C696F608A3E0C696F608A376
:101B4300E0C696F608A3E0C696F622C3E096F00830
:101B5300A3E096F008A3E096F008A3E096F022E64F
:101B630057F60809E657F60809E657F60809E6574F
:101B7300F622E056F608A3E056F608A3E056F60868
:101B8300A3E056F622E056F008A3E056F008A3E0DF
:101B930056F008A3E056F022E0F608A3E0F608A307
:101BA300E0F608A3E0F622E6F008A3E6F008A3E6D1
:101BB300F008A3E6F022E0FAA3E0FBA3E0FCA3E035
:101BC300FD22EAF0A3EBF0A3ECF0A3EDF022E0F8A2
:101BD300A3E0F9A3E0FAA3E0FB22E8F0A3E9F0A372
:101BE300EAF0A3EBF022CAC0E0E6F0A308DAFAD0E9
:101BF300E0FA22CAC0E0E0A3C582CCC582C583CD8A
:101C0300C583F0A3C582CCC582C583CDC583DAE67F
:101C1300D0E0CA22C3E498F8E499F9121C5880264C
:101C2300C3E49AFAE49BFBE920E7E9121C58E49821
:101C3300F8E499F922C3E498F8E499F9121C58E4FA
:101C430098F8E499F9C3E49AFAE49BFB22EB20E7C2
:101C5300CFE920E7E0B90010BB0008E88AF084F878
:101C6300AAF022E4FBC8FA22EB70227B10C833C827
:101C7300C933C9335007C39AC3DBF280069A5001B4
:101C83002ADBEAC833F4C8C933F4C9FA2275F00869
:101C9300E4C833C8C933C933C99AC99B5004C92A94
:101CA300C93BD5F0ECFBC833F4C8E4C9FA22600D94
:101CB30008C6A2E713C618C613C6D5E0F322600C04
:101CC30008C6C313C618C613C6D5E0F4227004228F
:101CD300600D18C6C333C608C633C6D5E0F4182250
:101CE300251810AF08F518400C15198008F5184091
:101CF300021519D2AF2200C0D0251810AF08F5186D
:101D0300500C05198008F51850020519D2AFD0D030
:101D1300222518F58210AF08F518400C1519800814
:101D2300F51840021519D2AF851983222518F582BB
:101D3300E43519F583222518F8E43519F922251815
:101D4300FAE43519FB222518FCE43519FD22E47366
:101D53002518C582C0E0E51934FFC583C0E0E51846
:101D6300C3958224F810AF088583198582188008EB
:101D7300858319858218D2AFCEF0A3E520F0A3782E
:101D830008E608F0A3DEFAEFF0A3E58124FAF8E60B
:101D930008F0A3E608F0A3E608F0A30808E608F0B5
:101DA300A3E608F0A315811581D0E0FED0E0F81575
:101DB3008115811581E8C0E0EEC0E0222518C582B7
:101DC300C0E0E51934FFC583C0E0E518C39582245C
:101DD300F910AF08858319858218800885831985D2
:101DE3008218D2AFCEF0A3E520F0A37808E608F07E
:101DF300A3DEFAEFF0A3E58124FBF8E608F0A3E6FF
:101E030008F0A30808E608F0A3E608F0A315811577
:101E130081D0E0FED0E0F815811581E8C0E0EEC086
:101E2300E022851983851882E0A3FEE0A3F52078DC
:101E330008E0A3F608DFFAE0A3FFE0A3C0E0E0A315
:101E4300C0E0E0A3C0E0E0A3C0E0E0A3C0E010AFC7
:101E5300088582188583198008858218858319D29D
:101E6300AFD083D082020132851983851882E0A323
:101E7300FEE0A3F5207808E0A3F608DFFAE0A3FF6D
:101E8300E0A3C0E0E0A3C0E0E0A3C0E0E0A3C0E0C3
:101E930010AF088582188583198008858218858389
:101EA30019D2AFD083D08222C0D02518C582C0E01A
:101EB300E51934FFC583C0E0E518C3958224F31008
:101EC300AF08858319858218800885831985821850
:101ED300D2AFC8F0A3E9F0A3EAF0A3EBF0A379082B
:101EE300E709F0A3D8FAECF0A3EDF0A3EEF0A3EF2B
:101EF300F0A3D0E0F0A3D0E0F0A3D0E0F0A3E5207E
:101F0300F0A3E5F0F0A322851983851882E0C0E0F1
:101F1300A3E0F9A3E0FAA3E0FBA37808E0F608A3A3
:101F2300DFFAE0FCA3E0FDA3E0FEA3E0FFA3E0C033
:101F3300E0A3E0C0E0A3E0F5D0A3E0F520A3E0A395
:101F4300F5F010AF088583198582188008858319F9
:101F5300858218D2AFD082D083D0E0F8D0E032743B
:101F6300048006740280027401C0E0F404121D149C
:101F7300D0E0121BE9227404800474028000CCC0F8
:101F8300E0EDC0E0E518C39CCCAD1950011D10AFC6
:101F9300068C188D1980068C188D19D2AF121BF67A
:101FA300D0E0FDD0E0FC22D083D082E9C0E0E4930E
:101FB300A3C386F0C5F095F0F908E493A386F0C5B2
:101FC300F095F0700BE493A3C3994005E9048002F4
:101FD300A3E475F002A42582F582E5F03583F58349
:101FE300D0E0F9E493A3C0E0E493C0E022D083D02F
:101FF30082ECC0E0EDC0E0E493A3FCE493A3FDED29
:102003004C600D12203CEC24FFFCED34FFFD80EF0F
:10201300E493A3FCE493A3FDED4C600D12207BEC51
:1020230024FFFCED34FFFD80EFD0E0FDD0E0FCE4C5
:1020330093A3C0E0E493C0E022C0E0C3E493960816
:102043007401939618400FE4936670080874019323
:10205300661870007019A3A3C3E4939608740193E0
:102063009618A3A3400DD0E0D0E0D0E002202CA32B
:10207300A3A3A3A3A3D0E022C0E0C0F088F0E4931D
:102083006670080874019366187000A8F0A3A37023
:102093000BD0F0D0E0D0E0D0E002202CA3A3D0F00E
:0320A300D0E02268
:1020A80074F5121DBFEAFEEBFFEE2434F8EF34009E
:1020B800F988088909EE2435F582EF3400F583E0C4
:1020C800F8EE2437F582EF3400F583E0F50AEC8565
:1020D8000AF0A4FCAAF0850AF0EDA42AFDE82CF881
:1020E800E43DF97A257B00121C58EA8508828509A7
:1020F80083F0F8740758F97401B900028004C333F7
:10210800D9FCFAE8131313541FF8EE28F8EF34003B
:10211800F9E8245DF582E93400F583E05A6008EEB9
:102128002434F582EF802CEE2434F582EF3400F568
:1021380083E0C0E0EE2436F582EF3400F583E0F565
:10214800F0D0E084A8F0EE28F8EF3400F9E824385D
:10215800F582E93400F583E0F97F04021E6B74F51B
:10216800121DBFEAFEEBFFEE2434F582EF3400F5D2
:1021780083E0C0E0EE2435F582EF3400F583D0E04B
:10218800F08E828F83A3A3A3A3A3A3A3C082C0833B
:102198008E828F83A3A3A3A3A3E0F8A3E0F9D0833F
:1021A800D082E0C398F508A3E099F509EE247FF5FD
:1021B80082EF3400F583E064017069EE2480F582D3
:1021C800EF3400F583E0F8A3E0F98E828F83A3A3B0
:1021D800A3A3A3A3A3E0FCA3E0FD8E828F83A3A304
:1021E800A3A3A3E0FAA3E0FBC3EA9CEB9D5010C3B2
:1021F800EC98ED99402EC3EA98EB995027800EC3CE
:10220800EA98EB994007C3EC98ED9940177CDC7D80
:1022180004EEFAEFFB120EA6EE247FF582EF3400EF
:10222800F583E4F0EE2434F8EF3400F9E8FCE9FD36
:10223800EE2435F582EF3400F583E0F8EE2437F527
:1022480082EF3400F583E0F50AE508850AF0A4F585
:1022580008AAF0850AF0E509A42AF509E82508F88E
:10226800E43509F97A257B00121C58EA8C828D83A3
:10227800F0F8740758F97401B900028004C333D91F
:10228800FCFAE8131313541FF8EE28F8EF3400F99A
:10229800E8245DF582E93400F583E05A6008EE240D
:1022A80034F582EF802CEE2434F582EF3400F58388
:1022B800E0C0E0EE2436F582EF3400F583E0F5F077
:1022C800D0E084A8F0EE28F8EF3400F9E82438F5D7
:1022D80082E93400F583E0F9122EE3022161C0821D
:1022E800C083851882851983E0F8A3E0F9C3EA9CC6
:1022F800EB9D5010C3EC98ED99401BC3EA98EB99FD
:102308005014800EC3EA98EB994007C3EC98ED99F6
:102318004004790180027900D083D08222EAC39CEC
:10232800FAEB9DFB2274EF121DBF9003A2E0640834
:102338006005E06407702A9061C8E060249003D0CB
:10234800E0F4601DE0F875F003A4C8AAF02AF97457
:10235800D228FE740339FF8E828F83A3A3A3E07073
:102368000302245D906060E0C0E0EE2468F582EF2F
:102378003400F583D0E0F0750C45750D057508003F
:10238800750900E5D914F50AE5D95403F50E601767
:102398007403650E605CE50A6010EE2467F582EF51
:1023A8003400F583E07003022442900540E06401A4
:1023B800602AEE2482F582EF3400F583E060047829
:1023C8000480027800850A08E508C398FA95E0FBBE
:1023D800120D6E8A088B09EA450970051210AA8049
:1023E80074EE2482F582EF3400F583E070048A0CE1
:1023F8008B0DE50A6012850C82850D83F50BE5D9F6
:10240800F0A3150BE50B70F6EE2482F582EF34008D
:10241800F583E0604474FC250AF50A780C121F66FF
:10242800AC0AA90EEEFAEFFB120F427402121CF965
:10243800E97026AA08AB0912180C793D8E828F83A1
:10244800A3A3A3A3E0FA7B00120C42EEFAEFFB125F
:102458000EBE120F54790080747403650E605685A1
:102468000A107511007810121F66AC0CAD0DAA0881
:10247800AB09120F1E7402121CF9EE2468F582EFE4
:102488003400F583E064807004747F8001E0F50C0B
:10249800780C121F6AE50EF50C780C121F6AA90A4F
:1024A800AC08AD099003D0E0FA7B00120C06740268
:1024B800121CF980139003A2E06408600BAC0CAD09
:1024C8000DEEFAEFFB120FAE1210B679017F0A0279
:1024D8001E6B74F5121DBF74FC121CE3EAFEEBFFC1
:1024E8008908A2AFE433F509C2AF806AEE2463F825
:1024F800EF3400F97A007B00A2AFE433F50AC2AFEB
:1025080088828983E0FCA3E0FDEC4D603A888289EB
:1025180083E0FAA3E0FB8A828B83E0FCA3E0FD88DA
:10252800828983ECF0A3EDF08A828B83E4F0A3F038
:1025380088828983E0FCA3E0FDEC4D700A888289DB
:1025480083A3A3E4F0A3F0E50AA2E092AF12180C6B
:102558009004E3E004F0EE2463F582EF3400F583A1
:10256800E0F8A3E0F9E849603DEE2463F582EF3432
:1025780000F583E02402FAA3E03400FBEA2402F524
:102588000AEB3400F50B780A121F668A828B83E007
:10259800FCA3E0F9EEFAEFFB120EE27402121CF94A
:1025A800E970030224F49004E3E060639004E4E03B
:1025B800F89004E3E0C398500C74026508705090DA
:1025C80004E5E0604A8E828F83A3A3A3A3E0851865
:1025D80082851983F0A3E4F09004E3E0F874021212
:1025E8001D2FE8F0A3E4F09004E3E0F89004E2E0A3
:1025F80028F07402121D2FAC82AD838518828519CC
:1026080083AA82AB837901120C129004E3E4F0E50B
:1026180009A2E092AF7404121CF9022161000000C3
:102628008521878522C622C0E0C0D0E8C0E0E9C085
:10263800E0EAC0E0EBC0E0ECC0E0EDC0E0EEC0E0F6
:10264800C008C009C00AC00BC082C083C0F0A2AFD6
:10265800E433FEC2AF759B00906182E0A2E05012A5
:10266800E591A2E0500C7591FE740165217003128A
:10267800232DE0A2E55051E591A2E5504B7591DF7D
:102688009003A2E064076005E064087023740165A4
:1026980021703579019003D0E0FA75F003A4CAA837
:1026A800F028FB74D22AFA74033BFB1224DA801850
:1026B800E0640D70139003C4E004F064287002E431
:1026C800F07A00E0F91210BC906182E0A2E64003C3
:1026D800022776E591A2E640030227767591BF901E
:1026E80003A2E064057008120FE4120FF0800312D1
:1026F8000FEA75210012104AE99003A3F07900123D
:10270800103E120E1C7A017B009003A1E0F912130F
:102718000E907803E064427055900544E014F07020
:102728004DC2AF12272E00782AD0E0F618D0E0F676
:10273800E59F540770057509FF800375097FC4C0BC
:10274800E07829E6F50808E65509F509740B7808D4
:10275800121CC1D0E02508F8906270E0A2E740F8AA
:10276800E8C333906272F0906270E0D2E0F090615A
:1027780081E0A2E35009E5E9A2E3500375E9F7A374
:10278800E0A2E75009E591A2E7500375917FEEA218
:10279800E092AFD0F0D083D082D00BD00AD009D04D
:1027A80008D0E0FED0E0FDD0E0FCD0E0FBD0E0FABD
:1027B800D0E0F9D0E0F8D0D0D0E032C0E0C0D0C04E
:1027C80082C083906183E0A2E05009E5BFA2E05097
:1027D8000375BFFEE0A2E15009E5BFA2E150037511
:1027E800BFFDE0A2E25009E5BFA2E2500375BFFBBE
:1027F800E0A2E35009E5BFA2E3500375BFF7E0A2EA
:10280800E45009E5BFA2E4500375BFEFE0A2E5502C
:1028180009E5BFA2E5500375BFDFE0A2E65009E570
:10282800BFA2E6500375BFBFD083D0828088C0E0C6
:10283800C0D0E8C0E0E9C0E0EAC0E0EBC0E0ECC02E
:10284800E0EDC0E0C0F0E5A7A2E6500FE5A1A2E6E2
:10285800500953A7BF75A1BF12289BE5A7A2E55051
:102868000CE5A1A2E5500653A7DF75A1DFE5A7A2F5
:10287800E15009E5A1A2E1500375A1FDE5A7A2E297
:10288800500CE5A1A2E2500653A7FB75A1FBD0F0BE
:102898000227AC74F8121DBF7521019003A2E064F1
:1028A800067015120F728A828B83A3A3A3A3A3A316
:1028B800E0FAA3E0FB120FD2A2AFE433FED2AF904E
:1028C80003A8E0640170187A207B009003A1E0F966
:1028D80012139E7A207B009003A1E0F91213149042
:1028E8006182E0D2E6F0900541E0602185C6228051
:1028F800169003A7E064017008E5C654F84405F58E
:10290800C653BEFC1226287401652160E4EEA2E0DD
:1029180092AF7F01021E6B008E238F24858228854B
:102928008327851882851983E0CEA3E0CF85288286
:10293800852783EBC9EAC8EDCBECCA75F010C3E86C
:1029480033C8E933C9EA33CAEB33CBC3EA9EF52669
:10295800EB9FF525B35004AB25AA26EC33CCED3319
:10296800CDD5F0DAAE23AF242274E9121DBF74F876
:10297800121CE3851882851983ECF0A3EDF08A0810
:102988008B099003A2E024F7C3940550067508014B
:10299800022B08120F728A0A8B0BAE0AAF0BEE4F8E
:1029A8007003022B05AC08AD097402121D2FAA8210
:1029B800AB831210028E828F83A3A3750CFF750D53
:1029C800FF750EFF750F00780C121B757402121D2F
:1029D8002F7510FF7511FF7512FF7513007810120F
:1029E8001B75780C7910121983502A780C791012FB
:1029F8001B227508017509C8750A00750B0078084F
:102A0800790C1219835052850C08850D09850E0A18
:102A1800850F0B80507514017515C875160075174C
:102A28000085100885110985120A85130B78087925
:102A38000C121B2278147908121983401C7508009F
:102A4800750900750A00750B0178087910121B22A8
:102A58007808790C121AE9800C7508017509007557
:102A68000A00750B0074097808121ACA750C19F552
:102A78000DF50EF50F7808790C121A428E828F83A5
:102A8800A3A3A3A3A3A3E0F8A3E0F97AD07B03123E
:102A98001C58880C890DE4F50EF50F7808790C128E
:102AA8001AE97406121D2FE0F8A3E0F97AD07B0327
:102AB800121C58E8FA8A0CE4F50D7808790C1219FA
:102AC8008350077808790C121B229003A2E064084F
:102AD800600AE064066005E06405702D750C0D78E9
:102AE8000C79081219834021750CF4750DFF750EC9
:102AF800FF750FFF7808790C121AE9800C75080029
:102B0800750900750A00750B00851882851983E020
:102B1800F8A3E0F58388827808121BAA7408121CAF
:102B2800F97F10021E6B74F7121DBF121014900566
:102B38003FE064017010906245E4F0A3F053F4F3B1
:102B480043FE0C5390F3120FC0E5C654804449F578
:102B5800C6E59E547F644970F8906185740FF090C3
:102B6800053DE0F47002A3E0604E90053EE0600889
:102B780014601B14602E80407508017509009005CB
:102B88003DE07808121CD0E508F45280802A7508C8
:102B98000175090090053DE07808121CD0E508F49D
:102BA8005290801475080175090090053DE0780879
:102BB800121CD0E508F452A079007F02021E6B7443
:102BC800F7121DBFE9FEEAFF74016E700C7A807B74
:102BD800009003A1E0F912130E902FA0E493F46083
:102BE80008E493F9120E10800953C680E59E547FBD
:102BF80070FA120FC690053FE064017003120E28A8
:102C080090053DE0F47002A3E0604B90053EE06063
:102C18000814601A14602C803D750801750900902D
:102C2800053DE07808121CD0E50842808028750828
:102C38000175090090053DE07808121CD0E50842AE
:102C480090801375080175090090053DE078081219
:102C58001CD0E50842A0121014120F728A088B09C2
:102C6800A808A909E8496015E5E170FCE82414F50D
:102C780082E93400F583E0F46003E0F5E174016F64
:102C8800700A7A019003A1E0F9121368022BC2744A
:102C9800ED121DBF8A088B098C0A8D0B7413121D47
:102CA8002F780C121B9B7808790C12198375100168
:102CB8007511C875120075130050127808790C1236
:102CC8001B227810790812198350168010780C7915
:102CD80008121B227810790C12198340047901809C
:102CE8000279007F0C021E6B74ED121DBF8A088BDF
:102CF800098C0A8D0B7413121D2F780C121B9B78EC
:102D08000C790812198340117808790C121B22AA31
:102D180008AB09AC0AAD0B8022751000751100755F
:102D280012007513017810790C121B22781079089B
:102D3800121AE9AA10AB11AC12AD1380A68A828BC5
:102D4800837508FF7509FF750AFF750B007808126F
:102D58001B887F04021E6B74F5121DBF8C828D8345
:102D68007808121B9B8A828B837808121B4EEA24F0
:102D780004F8EB3400F98C828D83A3A3A3A3E0FCB1
:102D8800A3E0FD88828983C3E09CF0A3E09DF088DE
:102D9800828983C3E09420A3E0944E40268A828BE4
:102DA800837508FF7509FF750AFF750BFF78081210
:102DB8001B0F8A828B83A3A3A3A3E02420F0A3E0A4
:102DC800344EF0022D4574F5121DBFE9FE9004F74C
:102DD800E0FAA3E0FBEEC333F8E433F974F528F521
:102DE80082748039F583E02AF508A3E03BF5097879
:102DF80008121F667A407B427C0F7D0012292074DE
:102E080002121CF98A088B098C0A8D0B7410780839
:102E1800121AB1AA08AB097F04021E6B74F1121DC5
:102E2800BF8A0C8B0D8C0E8D0F740F121D2FE0FABC
:102E3800A3E0FB7411121D2FE0F508A3E0F5097853
:102E480008121F66EA2401F508EB3400F509E4F5D9
:102E58000AF50B780C79081219C275087175090200
:102E6800780C79081219C2AA0CAB0DAC0EAD0F1272
:102E780029207402121CF98B09EA450960047A01B9
:102E880080027A00EC2AFCED3400FD7413121D2F29
:102E9800E0F8A3E0F9E8FEE9FFECF8EDF97A717BD8
:102EA80002121C58880889098E828F837808121BA1
:102EB800AAECF8EDF97A717B02121C588A088B0982
:102EC80074057808121CD08E828F83A3A3A3A3E570
:102ED80008F0A3E509F07F08021E6BC082C083E9F1
:102EE800906000F0D083D08222C2AF02000022C0DE
:102EF800E074F2121EABA2AFE433FED2AFE589A2B2
:102F0800E05003121716758900C2C5EEF8EEA2E06C
:102F180092AF7F01021F0AC0E074F2121EABA2AF8B
:102F2800E433FED2AFE58AA2E64006E58AA2E7507E
:102F380003121716758A00758A00C2EBEEF8EEA226
:102F4800E092AF7F01021F0AC0E0C0D0E8C0E0E90C
:102F5800C0E0A2AFE433F8D2AF758B00C2E8E8F95D
:102F6800E8A2E092AFD0E0F9D0E0F8D0D0D0E032DB
:102F7800C0E0C0D0E8C0E0E9C0E0A2AFE433F8D2D6
:102F8800AFC2C7751A00E8F9E8A2E092AFD0E0F93D
:102F9800D0E0F8D0D0D0E032FFFFFFFFFFFFFFFF07
:102FA80074F0121D5374F8121CE38A0E8B0FE9FF9C
:102FB8008C0C8D0D7E00850E08850F097808121F70
:102FC800AA0004108D32F02F13303230553078308B
:102FD8009B30CC30EF3006313631EE31113234329D
:102FE80062328D328D325F3174016F7019850C82B7
:102FF800850D83E0C39403500D850C82850D83E015
:10300800900E85F080027E180232B574026F70153A
:10301800850C82850D83E0F8A3E0F9900E86E8F030
:10302800A3E9F080027E180232B574016F70198529
:103038000C82850D83E0C39402500D850C82850DAA
:1030480083E0900898F080027E180232B574016F10
:103058007019850C82850D83E0C39405500D850C8D
:1030680082850D83E0900899F080027E180232B5BF
:1030780074016F7019850C82850D83E0C39402502A
:103088000D850C82850D83E090089AF080027E18E9
:103098000232B574106F702775081075090078082A
:1030A800121F66AC0CAD0D7A9B7B081212BA740223
:1030B800121CF98A088B0985088285098380027E9B
:1030C800180232B574016F7019850C82850D83E082
:1030D800C39402500D850C82850D83E09008ABF0F7
:1030E80080027E180232B574016F700D850C8285DE
:1030F8000D83E0900E89F080027E180232B57404C8
:103108006F702690834C7808121B9B850C82850D66
:103118008378081219935011850C82850D83121B30
:10312800D19008AD121BDD80027E180232B5EF7017
:10313800211209C0E9701312157EE9F508795012B9
:103148001896E9F50912156C800A9009407401F087
:1031580080027E180232B574076F60030231E97588
:1031680008067509007808121F66850C82850D838C
:10317800A3AC82AD837404121D411212C0740212F2
:103188001CF9851882851983EAF0A3EBF07C007D91
:10319800007402121D41850C82850D83E0F9121519
:1031A80012E9F50AE50AC3940A50321209C0E97017
:1031B80015A90A121584E9F5087950121896E9F547
:1031C8000912156C801D850A0875090074412508C7
:1031D800F58274093509F5837401F080067E028052
:1031E800027E180232B574016F7019850C82850D44
:1031F80083E0C39402500D850C82850D83E090080E
:10320800ACF080027E180232B574016F7019850C1B
:1032180082850D83E0C3940A500D850C82850D8349
:10322800E0900E88F080027E180232B574016F704B
:1032380025850C82850D83E0C394074019850C828F
:10324800850D83E0C39411500D850C82850D83E0B4
:10325800900E8AF080577E18805374016F70229008
:10326800093FE0F508850C82850D83E090093FF061
:10327800E508703990093FE06401703112156C80DF
:103288002C7E188028C3E50E9427E50F9400501B68
:1032980074026F7016850C82850D83E0FCA3E0FD37
:1032A800AA0EAB0F12085EE9FE80027E02EEF974E8
:1032B80008121CF97F08021E2574F0121D5374D7DA
:1032C800121CE3E9C0E0851882851983D0E0F07408
:1032D80001121D2FEAF0A3EBF08C0E8D0F9082FCEB
:1032E8007403121D497406121BF67403121D4974E7
:1032F80001121D2FE0FAA3E0FB851882851983E0EF
:10330800F9121512E9FEEEC3940A400302344EEE98
:10331800F912154EE9FF900E85E0640270047401FD
:1033280080027400F5087808121F6A743A121D2F7B
:10333800E0FDEFFCEEF9AA0EAB0F1215C0740112F6
:103348001CF97C147D0079007415121D411212D2EB
:103358008A088B0985080A85090B7415121D497A94
:103368001075F006EEA42424F9121890E9703B7C3D
:103378001079FF7415121D41121332E9702C74254F
:10338800121D2FAC82AD837A0475F006EEA42425B5
:10339800F9121890E9F5087415121D49EFA2E0E436
:1033A80033F9AA0EAB0F1208E8E97409121D497A1D
:1033B8000C74702EF9121890E970797409121D4175
:1033C800121542750800E508C394045067E508F82B
:1033D8007900E875F003A4C8AAF075F000A42AFAE9
:1033E80075F003E9A42AF97409121D2FE58228F55E
:1033F8000CE58339F50D850C82850D83E0F8A3E093
:10340800F9E849602B850C82850D83A3A3E0F50AB2
:10341800750B00780A121F66850C82850D83E0FC07
:10342800A3E0FDAA0EAB0F120B4C7402121CF9E9B3
:1034380005088092EFA2E1500D900897E0F9AA0ED6
:10344800AB0F120B52E97439121D2FE06404700F90
:10345800900E85E064027007AA0EAB0F1215BA79B8
:10346800007429121CF97F08021E2574F2121D53DC
:10347800890B8A088B09ECFEEDFF750A0AE50B60DB
:103488000B14600814604114605F807CAA08AB09C3
:10349800121560E9F50AE50AC3940A506BEE4F600D
:1034A80067750C06750D00780C121F66AC08AD091F
:1034B800EEFAEFFB1212BA7402121CF98A0C8B0D89
:1034C800850C82850D838040AA08AB0912155AE93C
:1034D800F50AE50AC3940A502FEE4F602BEEFAEF77
:1034E800FBA90A121554E9801FAA08AB0912156630
:1034F800E9F50AE50AC3940A500EEE4F600AEEFA9F
:10350800EFFBA90A121554E9A90A7F06021E2574C1
:10351800F2121D538A0C8B0DE9FF7E1574FF650CA2
:10352800700474FF650D702A750800E508C3940AD5
:103538005014EFFC7A027B00A908121530E96002EA
:103548007E00050880E5EF60627AA87B15120D50B1
:103558008059AA0CAB0D120D328A088B0985080A0E
:1035680085090BE50A450B60407C007D00E50A24CF
:1035780005FAE4350BFB850A82850B83A3A3A3A375
:10358800E0F9121512E9F508E508C3940A500EEFA0
:10359800FC7A027B00A908121530E97E00EF600B67
:1035A800AA0AAB0B1215A880027E14EEF97F060258
:1035B8001E2574F0121D5374FE121CE385188285B3
:1035C8001983EAF0A3EBF08C0A8D0B7412121D2FED
:1035D800E0F50EA3E0F50F7E15851882851983E0C6
:1035E80064FF7004A3E064FF701D7F00EFC3940ABA
:1035F800506BAC0EAD0FAA0AAB0BEFF9121536E9FA
:1036080060027E000F80E5851882851983E0FAA3A1
:10361800E0FB120D328A0C8B0D850C08850D09E52F
:1036280008450960367C007D00E5082405FAE43584
:1036380009FB850882850983A3A3A3A3E0F91215D2
:1036480012E9FFEFC3940A5014AC0EAD0FAA0AABEF
:103658000BEFF9121536E97E0080027E14EEF9743C
:1036680002121CF97F08021E2574F7121D53EAFE88
:10367800EBFF9008B1EEF0A3EFF0900897E0FC7D27
:10368800007A267B0012085EE9F508900897E0F9B1
:10369800120AC87F01021E2574F2121D5374EC121F
:1036A8001CE38A0A8B0B850A82850B83A3A3E0247B
:1036B800FA7003023AE424FD700302395C147003C3
:1036C80002379014601024FD70030239041470034B
:1036D80002399F023B52AE0AAF0B9008B1E0F8A343
:1036E800E0F9E84960669008B1E0F8A3E0F583885E
:1036F80082E0F8A3E0F9E8496052EE240CF582E490
:103708003FF583E0F5087808121F6AEE240BF5826E
:10371800E43FF583E0F98E828F83A3A3A3A3A3A339
:10372800A3A3A3E0FCA3E0FDEE2403FAE43FFB908F
:1037380008B1E0F8A3E0F5838882E0F8A3E0F58318
:103748008882121D517401121CF980398E828F8370
:10375800A3A3A3A3A3A3A3A3A3121F7D9008AD12A1
:103768001BB91208FA7402121CF9E9601879018E63
:10377800828F83A3A3A3A3A3A3A3A3A3E0FAA3E095
:10378800FB1208F4E9023B52AE0AAF0B8E828F831C
:10379800A3E060030238B28E828F83A3A3A3A3A3FE
:1037A800E0A2E040030238B290094BE0F8A3E0F948
:1037B800E84960030238B27C0E7D007900AA18AB94
:1037C800191212D28A088B09AA08AB09EE240CF543
:1037D80082E43FF583E0F8A3E0F9E849603675082C
:1037E800067509007808121F66EE240CF582E43F7E
:1037F800F583E02410FCA3E03400FD7402121D419F
:103808001212BA7402121CF98A088B09850882857B
:103818000983804F8E828F83A3A3A3E0FAA3E0FBE2
:10382800120D328A0C8B0D850C08850D09E50845AB
:1038380009602D750C06750D00780C121F66E508D9
:103848002405FCE43509FD7402121D411212BA74F4
:1038580002121CF98A0C8B0D850C82850D8380035E
:10386800023B528E828F83A3A3A3A3A3E0A2E250BC
:1038780004D2F08002C2F0A2F0E433F87900740CAC
:10388800121D2FE048F0A3E049F0EEFCEFFDAA1866
:10389800AB19121548E970127A027B00900897E07C
:1038A800F912130EE97900023B549008B1E0F8A32D
:1038B800E0F9E84960439008B1E0F8A3E0F58388AF
:1038C80082A3A3E0F8A3E0F9E849602D8E828F83F4
:1038D800A3E0FC79018E828F83A3A3A3E0FAA3E07F
:1038E800FB9008B1E0F8A3E0F5838882A3A3E0F891
:1038F800A3E0F5838882121D51023B52AE0AAF0B3A
:103908009008B1E0F8A3E0F9E84960459008B1E013
:10391800F8A3E0F5838882A3A3E0F8A3E0F9E849D7
:10392800602F850A82850B83A3E0FC79028E828F43
:1039380083A3A3A3E0FAA3E0FB9008B1E0F8A3E017
:10394800F5838882A3A3E0F8A3E0F5838882121D9B
:1039580051023B52850A08850B097C007D00E50869
:103968002404FAE43509FB850882850983A3A3A307
:10397800E0F9121512E9FEEEC3940A5017E508247F
:103988000AFCE43509FD7A0475F006EEA42425F94D
:1039980012188AE9023B52AE0AAF0B9008ACE060FD
:1039A80018900E88E0F98E828F83A3A3A3E0FAA370
:1039B800E0FB1208F4E9023B52900E85E07015799D
:1039C800058E828F83A3A3A3E0FAA3E0FB1208F479
:1039D800E9023B528E828F83A3A3A3E0FAA3E0FB04
:1039E800120D328A0C8B0D850C08850D098E828F7D
:1039F80083A3A3A3A3A3A3A3E0A2E05071E5084572
:103A0800096068850882850983A3A3A3A3E0605E93
:103A18008E828F83A3A3A3A3A3A3A3A3A3E0F8A346
:103A2800E0F9E8C4540FF87900E85401F8E95400C3
:103A3800F9E8A2E04038740E121D49E5082405FA99
:103A4800E43509FB850882850983A3A3A3A3E0F9CC
:103A5800121512E9701879038E828F83A3A3A3E04D
:103A6800FAA3E0FB1208F4E9023B52023B52EE24AF
:103A780005FCE43FFD850882850983A3A3A3A3E091
:103A8800F98E828F83A3A3A3E0FAA3E0FB1215B4F7
:103A98009008B1E0F8A3E0F9E849603E9008B1E089
:103AA800F8A3E0F5838882A3A3E0F8A3E0F9E84946
:103AB80060287C0079008E828F83A3A3A3E0FAA3F9
:103AC800E0FB9008B1E0F8A3E0F5838882A3A3E0C7
:103AD800F8A3E0F5838882121D51806E1209C0E9AF
:103AE8007068900940E06401701A12157EE9FE9032
:103AF80009407400F07C0A7D0079007A417B091244
:103B080012D2803C7E00EEC3940A50348E087509A8
:103B18000074412508F58274093509F583E06401CC
:103B2800701BEEF9121584E9F88E087509007441C6
:103B38002508F58274093509F5837400F00E80C6EE
:103B48007950121896E9FE12156C79017414121C3A
:103B5800F97F06021E2574F3121D5374F2121CE33A
:103B68008908EAFEEBFF8C09AC18AD197A0E75F0DE
:103B780006E508A42420F9121890E970647C0679F7
:103B8800FFAA18AB19121332E97056740C121D2FC4
:103B9800E0F8A3E0F9E8F50CE5096005EE420C80D1
:103BA80004EEF4520C850C0A750B00740C121D2FD0
:103BB800E0650A7004A3E0650B6022E50CF8790063
:103BC800740C121D2FE8F0A3E9F0AC18AD197A0EA9
:103BD80075F006E508A42420F912188AE97901800D
:103BE800027900740E121CF97F05021E2574F0126A
:103BF8001D5374E6121CE389098A0E8B0FECFEED47
:103C0800FF740C121D497A0E75F006E509A42420EC
:103C1800F9121890E96003023D257C0679FF740CBF
:103C2800121D41121332E96003023D25AC18AD198B
:103C38007A0C74702509F9121890E96003023D2185
:103C4800750800AA18AB19121542E50E450F702E1B
:103C58007C0C7900AA18AB19121332E96003023DF3
:103C6800077C0C7D007900AA18AB191212D28A0AB7
:103C78008B0B850A82850B83750801023D07AC18FA
:103C8800AD19AA0EAB0F12153C8A0C8B0D850C0AC8
:103C9800850D0BE50A450B7030EE4F601BAC18AD77
:103CA800197A007B0012153C8A0C8B0DA80CA90D03
:103CB800880A890BE849700479008063850A82853F
:103CC8000B83E50EF0A3E50FF0850A82850B83A32D
:103CD800A3E0F87900EE687002EF696022EEC0E0B8
:103CE800850A82850B83A3A3D0E0F0EE4F700D8583
:103CF8000A82850B837400F0A37400F0750801E54F
:103D0800086016AA18AB19121542AC18AD197A0C2E
:103D180074702509F912188AE9790180027900740A
:103D28001A121CF97F08021E2574F7121D53EAFEA9
:103D3800EBFF7B00EBC39404504EEBF87900E87579
:103D4800F003A4C8AAF075F000A42AFA75F003E9F4
:103D5800A42AF9EC28F582ED39F583E06E7003A307
:103D6800E06F7021EBF87900E875F003A4C8AAF0B9
:103D780075F000A42AFA75F003E9A42AF9EC28FAE8
:103D8800ED39FB80070B80AC7A007B007F01021EB7
:103D98002574F7121D537F00EFC394044003023EBD
:103DA80048EFF87900E875F003A4C8ACF075F000A6
:103DB800A42CFC75F003E9A42CF9EA28F582EB3968
:103DC800F583E0F4FCA3E0F4FDEFF87900E875F082
:103DD80003A4C8AEF075F000A42EFE75F003E9A4A4
:103DE8002EF9EA28F582EB39F583ECF0A3EDF0EF34
:103DF800F87900E875F003A4C8ACF075F000A42CBD
:103E0800FC75F003E9A42CF9EA28F582EB39F5836F
:103E1800A3A3E0F4C0E0EFF87900E875F003A4C8C4
:103E2800ACF075F000A42CFC75F003E9A42CF9EAB9
:103E380028F582EB39F583A3A3D0E0F00F023DA06B
:103E48007F01021E2574F0121D5374F4121CE3EA5C
:103E5800FEEBFF8C088D0990094BE0F8A3E0F9E828
:103E680049702CEE4F6006E5084509700579010296
:103E780040F9EEFAEFFB121560E9900E8BF0900E08
:103E88008BE0C3940A4008121572E9900E8BF090EB
:103E98000E8BE0C3940A40030240F790094BE0F808
:103EA800A3E0F9E8496003023F43EEFCEFFD7A0E18
:103EB80075F006900E8BE0A42420F912188AE9F513
:103EC8000B7C0C7D0079FFAA18AB191212D28A0C50
:103ED8008B0D850C0E850D0FAC18AD197A0C900E54
:103EE8008BE02470F912188AE9F50A750C0E750D25
:103EF80000780C121F66EEFCEFFD900E8BE0F8794F
:103F080000E875F00EA4C8AAF075F000A42AFA75A6
:103F1800F00EE9A42AF974B328FA740839FB1212CE
:103F2800BA7402121CF98A0C8B0DA80CA90D900901
:103F38004BE508F0A3E509F00240F390094BE0F8DF
:103F4800A3E0C82406F582C83400F583E0F8A3E0AE
:103F5800F9E849604390094BE0F8A3E0C82406F566
:103F680082C83400F583E0FCA3E0FD7A1B75F006F7
:103F7800900E8BE0A42421F912188AE9F890094BD5
:103F8800E0F9A3E0C92406F582C93400F58374007A
:103F9800F0A37400F00240F390094BE0F8A3E0C8E6
:103FA800240AF582C83400F583E0F8A3E0F9E8496B
:103FB800604390094BE0F8A3E0C8240AF582C834AE
:103FC80000F583E0FCA3E0FD7A1B75F006900E8BEC
:103FD800E0A42422F912188AE9F890094BE0F9A321
:103FE800E0C9240AF582C93400F5837400F0A3748B
:103FF80000F00240F390094BE0F8A3E0C8240CF568
:1040080082C83400F583E0F8A3E0F9E849604390FA
:10401800094BE0F8A3E0C8240CF582C83400F58306
:10402800E0FCA3E0FD7A1075F006900E8BE0A42466
:1040380023F912188AE9F890094BE0F9A3E0C9249A
:104048000CF582C93400F5837400F0A37400F00203
:1040580040F390094BE0F8A3E0C82408F582C8347F
:1040680000F583E0F8A3E0F9E849606F90094BE0B8
:10407800F8A3E0C82408F582C83400F583E0FCA35F
:10408800E0FD7A1075F006900E8BE0A42424F91256
:10409800188AE9F50A90094BE0F8A3E0C82408F566
:1040A80082C83400F583E02410FCA3E03400FD7AD4
:1040B8000475F006900E8BE0A42425F912188AE9FD
:1040C800F890094BE0F9A3E0C92408F582C9340047
:1040D800F5837400F0A37400F0801090093FE0604D
:1040E800031215C61215AE7901800679008002798F
:1040F80001740C121CF97F08021E2574F7121D5357
:1041080074F2121CE3E9FEAC18AD197A0E75F006CC
:10411800EEA42420F9121890E9700E740C121D2FC9
:10412800E0F8A3E0F9E8F980027900740E121CF9AE
:104138007F01021E2574F4121D5374F2121CE389C8
:1041480009EAFEEBFFE509C3940A5004EE4F700438
:1041580079028041AC18AD197A0E75F006E509A40C
:104168002420F9121890E9F508E5087026750A0662
:10417800750B00780A121F667402121D49EEFAEFD9
:10418800FB1212BA7402121CF98A0A8B0B850A8276
:10419800850B83A908740E121CF97F04021E25746E
:1041A800F4121D53EAFEEBFF750800E508C3940AF4
:1041B8005044750A06750B00780A121F66EEFCEF6C
:1041C800FDE508F87900E875F00EA4C8AAF075F0C6
:1041D80000A42AFA75F00EE9A42AF974B928FA7429
:1041E8000839FB1212CC7402121CF9E96004A90800
:1041F8008006050880B5790A7F04021E2574F4122A
:104208001D53EAFEEBFF750800E508C3940A504405
:10421800750A06750B00780A121F66EEFCEFFDE5BD
:1042280008F87900E875F00EA4C8AAF075F000A4A3
:104238002AFA75F00EE9A42AF974B328FA74083931
:10424800FB1212CC7402121CF9E96004A90880065A
:10425800050880B5790A7F04021E2574F7121D53DC
:1042680074F0121CE3EAFEEBFF750800E508C3943E
:104278000A5039AC18AD197A1075F006E508A4246F
:1042880023F9121890E970207C1079FFAA18AB194D
:10429800121332E97012EEFCEFFDAA18AB191208DE
:1042A800CAE97004A9088006050880C0790A741054
:1042B800121CF97F01021E2574F4121D53750800A3
:1042C800E508C3940A400302439EE508F87900E82C
:1042D80075F00EA4C8AAF075F000A42AFA75F00EBD
:1042E800E9A42AF974B328FC740839FD7A0E75F02C
:1042F80006E508A42420F9121890E97003024399EE
:104308007C067D0079FFE508FA7B00EA75F00EA4CB
:10431800CAA8F075F000A428F875F00EEBA428FBE5
:1043280074B32AFA74083BFB1212D28A0A8B0BAEBA
:104338000AAF0B7C067D0079FFE508FA7B00EA7579
:10434800F00EA4CAA8F075F000A428F875F00EEBDA
:10435800A428FB74B92AFA74083BFB1212D28A0A01
:104368008B0BAC0AAD0BE508F87900E875F00EA4E4
:10437800C8AAF075F000A42AFA75F00EE9A42AF983
:1043880074BF28F582740839F5837400F0A37400AB
:10439800F005080242C890093FE060031215C612F2
:1043A80015AE7F04021E2574F7121D537E00EEC35E
:1043B800940A50327C0679FFEEFA7B00EA75F00E1B
:1043C800A4CAA8F075F000A428F875F00EEBA4288C
:1043D800FB74B32AFA74083BFB121332E96004EE4B
:1043E800F980050E80C8790A7F01021E2574F7122C
:1043F8001D537E007F00EFC3940A502F7C0679FF7F
:10440800EFFA7B00EA75F00EA4CAA8F075F000A4D4
:1044180028F875F00EEBA428FB74B32AFA74083B4D
:10442800FB121332E970010E0F80CBEEF97F010207
:104438001E2574F7121D537E007F00EFC3940A50A7
:104448000DEE700AEFF9121584E9FE0F80EDEEF912
:104458007F01021E2574F0121D5374C9121CE3E972
:10446800FE900E8BE06E701D7A017B00900897E03D
:10447800F9121314E97A027B00900897E0F91213F5
:1044880014E91215D27429121D497A0E75F006EE38
:10449800A42420F9121890E960030245917C06795A
:1044A800FF7429121D41121332E960030245917C01
:1044B8000E7D0079FF7429121D411212D2851882CF
:1044C800851983EAF0A3EBF07C1B7D0079FF740E5D
:1044D800121D411212D28A0A8B0B850A0E850B0F08
:1044E8007C0C7D0079FF7402121D411212D28A0CD5
:1044F8008B0D850C0A850D0B7429121D497A0E75D2
:10450800F006EEA42420F912188AE9F508740E12B0
:104518001D497A1B75F006EEA42421F912188AE9C0
:104528004208740E121D497A1B75F006EEA4242267
:10453800F912188AE94208740E121D497A1075F0AA
:1045480006EEA42423F912188AE94208740E121DF3
:10455800497A1075F006EEA42424F912188AE94263
:1045680008740E121D497A0475F006EEA42425F984
:1045780012188AE942087402121D497A0C74702EC6
:10458800F912188AE942088003750800A9087437E7
:10459800121CF97F08021E2574F7121D53E9FEEE5E
:1045A800900897F012156C7F01021E2574F2121DF7
:1045B80053890AEAFEEBFFEE5400F8EF5480F9E85D
:1045C800496035900897E0F91212F68A0C8B0DA80D
:1045D8000CA90D88088909E8496012AA08AB0912D4
:1045E8001596E96008AA08AB091212E4E9EE64001E
:1045F800FAEF6480FB0246B8EE5402602D7C007D21
:10460800007A007B00121548E960187A017B009057
:104618000897E0F912130EE9EE6402FAEF6400FB62
:104628000246B87A027B000246B8EEA2E0507D90BE
:10463800094BE0F8A3E0F5838882A3A3A3E0FAA3DB
:10464800E0FB1215CCE9605E9008B1E0F8A3E0F950
:10465800E84960459008B1E0F8A3E0F5838882A3B3
:10466800A3E0F8A3E0F9E849602F7C0079019009FC
:104678004BE0F8A3E0F5838882A3A3A3E0FAA3E0C4
:10468800FB9008B1E0F8A3E0F5838882A3A3E0F8E3
:10469800A3E0F5838882121D511215D2EE6401FA47
:1046A800EF6400FB800A7A017B0080047A007B00BB
:1046B8007F06021E2574F7121D53EAFEEBFF7508EC
:1046C800018E828F83E02450601314601924E170F6
:1046D8001CEEFAEFFB12152AE9F5088010EEFAEF46
:1046E800FB12159C8007EEFAEFFB1215A2A9087FB2
:1046F80001021E2574F7121D53EAFEEBFF8E828F0E
:1047080083A3A3A3A3E0641E701179008E828F8314
:10471800A3A3E0FAA3E0FB121518E97F01021E2506
:1047280074F6121D538A088B09850882850983A3AC
:10473800A3A3A3E07034AE08AF098E828F83A3A32E
:10474800A3A3A3A3A3121F7D8E828F83A3A3A3A3D6
:10475800A3E0FCA3E0FD8E828F83A3A3E0FAA3E08D
:10476800FB12151E7402121CF9E97F02021E257441
:10477800F7121D53EAFEEBFF900897E0F98E828F3F
:1047880083A3E0FAA3E0FB120B52E97F01021E2586
:10479800C082C08374FF121CE3121578E9C3940227
:1047A800400B8518828519837402F0800985188268
:1047B800851983740AF0AC18AD197A0179051209C4
:1047C800D8E97401121CF9D083D08202013274F244
:1047D800121D5374E8121CE38A088B09E9FE8C0A3F
:1047E8008D0B7C187D007900AA18AB191212D28A99
:1047F8000C8B0DAC0CAD0D851882851983E508F07E
:10480800A3E509F0900899E0C0E07402121D2FD0CA
:10481800E0F090089AE0C0E07403121D2FD0E0F099
:10482800900E8AE0C0E07417121D2FD0E0F07415C6
:10483800121D2FE054FEF8A3E054FFF9900E89E012
:10484800A2E0E433FA7B00E84AF8E94BF974151260
:104858001D2FE8F0A3E9F0900E89E0A2E15004D200
:10486800F08002C2F07415121D2FE054FDFAA3E087
:1048780054FFFBA2F0E433F87900E828F8E933F9AB
:10488800EA48F8EB49F97415121D2FE8F0A3E9F08E
:10489800900E89E0A2E35004D2F08002C2F07415B1
:1048A800121D2FE054F7FAA3E054FFFBA2F0E43303
:1048B800F50C750D007403780C121CD0EA450CF841
:1048C800EB450DF97415121D2FE8F0A3E9F0900ED1
:1048D80089E0A2E45004D2F08002C2F07415121DDF
:1048E8002FE054EFFAA3E054FFFBA2F0E433F50CF9
:1048F800750D007404780C121CD0EA450CF8EB45D1
:104908000DF97415121D2FE8F0A3E9F0900E89E057
:10491800A2E55004D2F08002C2F07415121D2FE0F7
:1049280054DFFAA3E054FFFBA2F0E433F50C750D55
:10493800007405780C121CD0EA450CF8EB450DF90B
:104948007415121D2FE8F0A3E9F0900E89E0A2E299
:104958005004D2F08002C2F07415121D2FE054FBEF
:10496800FAA3E054FFFBA2F0E433F50C750D0074D4
:1049780002780C121CD0EA450CF8EB450DF97415B9
:10498800121D2FE8F0A3E9F090089AE0602A750C50
:1049980010750D00780C121F667C9B7D087406123A
:1049A8001D2FAA82AB831212BA7402121CF98A0C48
:1049B8008B0D850C82850D839008ABE06011EE604D
:1049C8000E7415121D2FE04402F0A3E04400F0908D
:1049D80008ABE060067801790080047800790074FB
:1049E80014121D2FE048F0900898E06006780479CA
:1049F800008004780079007414121D2FE048F0AC90
:104A08000AAD0BAA18AB191208EEE97418121CF9B2
:104A18007F06021E2574F7121D53EAFEEBFF750888
:104A2800009008ABE060067801790080047800798E
:104A380000E84208900898E060067804790080044D
:104A480078007900E84208A908EEFAEFFB1209A8F5
:104A5800E97F01021E2574F2121D5374E3121CE350
:104A68008A0C8B0DE9FF8C0A8D09742B121D2FE01F
:104A7800F50874086509700A75F006EFA42422FE8B
:104A8800800875F006EFA42421FE7C1B7D007900C8
:104A98007402121D411212D2851882851983EAF018
:104AA800A3EBF07402121D497A1BEEF9121890E973
:104AB8007038741C121D2FE0C39407402D741C120B
:104AC8001D2FE0C394115022E508F50B780B121F37
:104AD8006A7403121D49E50AA2E0E433F9AA0CAB93
:104AE8000D1209007401121CF9E9741D121CF97FDA
:104AF80006021E2574F7121D53120BCAE97E00EE3A
:104B0800C3940A50557C0679FFEEFA7B00EA75F0EB
:104B18000EA4CAA8F075F000A428F875F00EEBA44E
:104B280028FB74B32AFA74083BFB121332E9702786
:104B3800EEF87900E875F00EA4C8AAF075F000A4A4
:104B48002AFA75F00EE9A42AF974B328FA74083918
:104B5800FB7900120BD0E90E80A57F01021E257497
:104B6800F6121D5374FD121CE3EAFEEBFF90094D8B
:104B7800E0F8A3E0F9E849703975084F7509097834
:104B880008121F667508027509007808121F6675F5
:104B980008BC7509837808121F667CFF7DFF7A01BF
:104BA8007B00120A1A7406121CF990094DEAF0A348
:104BB800EBF090094DE0F8A3E0F9E8497003024CE6
:104BC80084E4F508F5097808121F667404121D3983
:104BD800880889097808121F667404121D39880824
:104BE80089097808121F6690094F121F7D79029073
:104BF800094DE0FCA3E0FDEEFAEFFB120B40740850
:104C0800121CF9E9704A851882851983E0FA7B003D
:104C18007401121D2FE0F87900E4C8F9EA28F508B4
:104C2800EB39F509E508450960267808121F6690F2
:104C3800094DE0F8A3E0F5838882A3A3A3A3E0FCD1
:104C4800A3E0FDEEFAEFFB12151E7402121CF9E93F
:104C5800E4F508F5097808121F6690094F121F7DC0
:104C68007CFF7DFF90094DE0FAA3E0FB120A267451
:104C780004121CF990094DEAF0A3EBF090094DE0FD
:104C8800F8A3E0F9E8497004790180027900740317
:104C9800121CF97F02021E25C082C08390094BE0D6
:104CA800F8A3E0F9E849601790094BE0FAA3E0FBA4
:104CB8001212E4E9F890094B7400F0A37400F09024
:104CC8000E8B740AF0D083D082020132C082C08376
:104CD800E9900B92F0024F6374F7121D53E99002AA
:104CE800E1F07C197D037AFF7BFF120B589002E2FA
:104CF80074FFF0A3F0A3E4F0A3F07905120AE090A2
:104D080002E1E0F9120A027A767B0B120D207F018C
:104D1800021E2574F4121D538A088B09EB54806017
:104D2800309002E1E0F91212F68A0A8B0BAE0AAF54
:104D38000BEE4F60138E828F83E064B07003120A0B
:104D4800F8EEFAEFFB1212E4AA08E5096480FB808A
:104D5800047A007B00024F3274F2121D5374FC1265
:104D68001CE3EAFEEBFFEE4F60387402121D2FEED3
:104D7800F0A3EF125197ECF0A3ED125197AA82AB72
:104D8800831209FCE9F50870737412121D2F125D65
:104D98004BE50A450B60658E828F83124E0EEE4FEF
:104DA800700575080280557A067B001213508A0C2C
:104DB8008B0DA80CA90DE8497005750813803D886E
:104DC800828983E4124E18A3A3EEF0A3EF1261E4E4
:104DD800E50AF0A3E50BF09002E7124EA09002E777
:104DE8006017E0FCA3E08003EAFCEBFD8C828D8376
:104DF800124EA070F38C828D83125C70A908740423
:104E0800121CF90263E6A3A3A3A3E0FEA3E0FF221A
:104E1800F0A3F0888289832274F2121D53890AE96B
:104E280075F017A4FEAFF09002E6E4F09002E412E9
:104E38004EA0600A1213569002E4E4F0A3F0EEFAD2
:104E4800EFFB1213508A088B09EA4509602FEEFC24
:104E5800EFFD79001212D29002E4E508F0A3E5090B
:104E6800F07B008008124E8AE4F0A3F00BEBC395A8
:104E78000A40F2E50A9002E6F0790080027913020E
:104E880063E6EB75F017A4F8A9F09002E4E028FABD
:104E9800A3E0398A82F58322125A06EA4B2274F477
:104EA800121D53750800750900740C121D2F12612C
:104EB800B8FEE9FF800CE5082401F508E50934008F
:104EC800F509C3E5089CE5099D503285080A85095E
:104ED8000B7403780A121CD0EA250AF8EB350BF993
:104EE80088828983A3A3A3A3A3A3125D4BEE650ABB
:104EF8007003EF650B70BFE8FAE9FB80047A007B6A
:104F080000802774F4121D537900EAA2E0501B7543
:104F180008F07509827808121F667C047D007A946F
:104F28007B0B120ADA7402121CF97F04021E25C0D8
:104F380082C0839002E7124F6A601C88828983A32B
:104F4800A3E06A7003A3E06B8882898370E8A3A357
:104F5800A3A3125A0280047A007B00D083D0820275
:104F680001321264B9E8492274EE121D5374FC121E
:104F78001CE3EAFEEBFF851882851983E4F0A3F0B1
:104F8800EE2402125C54EE2405125185EE2404F539
:104F98000EEF12556AE024FE603924FC604624FEB8
:104FA800605224FE605E24FE700302508A24FE7064
:104FB8000302510224FE700302511124FE70030201
:104FC800512024FC700302512F24FE700302513E2D
:104FD80002517B9003007417F0A3E412519F12074B
:104FE8007A02517B851882851983AC82AD83120AB7
:104FF800FE02514B851882851983AC82AD83120B52
:105008000402514B850C08850D097402121D2FAC42
:1050180082AD83850882850983125A02120A208A82
:105028000C8B0DAC0CAD0DEC4D6042E4F50CF50DA0
:10503800780C121F66750C00750D03780C121F662C
:10504800750C01750D03780C121F667408121D2F5C
:10505800121F7D79161259FC120B407408121CF9A4
:10506800E9F50C700B1259F8120792800F750C01B4
:1050780085088285098312518D125C70850C08029F
:10508800514E7402121D2FAC82AD83850C82850DA2
:1050980083125A02120A208A108B11AC10AD11EC3F
:1050A8004D6043850C82850D83A3A3121F7D751067
:1050B800007511037810121F6675100175110378B9
:1050C80010121F667408121D2F121F7D79161259AF
:1050D800FC120B407408121CF9E9F509700B1259FF
:1050E800F8120798800F750901850C82850D8312C7
:1050F800518D125C70850908804C8518828519834A
:10510800AC82AD83120B0A803A851882851983AC6C
:1051180082AD83120B10802B851882851983AC828F
:10512800AD83120B16801C851882851983AC82AD5D
:1051380083120B1C800D851882851983AC82AD8380
:10514800120B22E9F508E50860298E828F83A3E017
:105158006414601F850E82850F83E090030012514E
:10516800971264B5900301125C70E508A312519F71
:10517800120774EEFAEFFB120A9E025B5CF50CEF65
:105188003400F50D221264B985188285198322F03E
:1051980085188285198322F07C007D03850A828523
:1051A8000B83125A062274EE121D5374FC121CE370
:1051B8008A0A8B0B8C0E8D0FEA2405F508EB340058
:1051C800F5097C157D0079007A007B031212D2E57F
:1051D800082402F50CE5091251888518828519837F
:1051E8008582108583117810121F668508828509CB
:1051F80083A3A3A3A31256B2121F66E5082405F5DC
:1052080010E5093400F5117810121F66850C8285A7
:105218000D83125A0C120A1A7406121CF98A108B82
:1052280011AE10AF11E50A2402F50AE50B125C571E
:10523800EE4F700302537480177402121D2F125A16
:105248000288828983EAF0A3EBF0900300E004F07F
:10525800900300E0C394054003025374E4F510F58D
:10526800117810121F667510E97511027810121F57
:10527800667510EA7511027810121F667406121D01
:105288002F121F7D7910EEFCEFFD1259FC120B4016
:105298007408121CF9E9705E850882850983A3A346
:1052A800A3A3A3A3A3E0F89002E9E068704812560C
:1052B800B2121F667CEA7D02E5082408FAE5093483
:1052C80000FB1212CC7402121CF9E960298E828F3D
:1052D80083A3A3A3A3125A02900300E0F51074025B
:1052E8007810121CD074012510F58274033511F55D
:1052F80083EAF0A3EBF07402121D2F8582108583D8
:10530800117810121F667402121D2F121F7D850C52
:1053180082850D831264CA120A267404121CF98A43
:10532800108B11AE10AF11900300E0F5107511004D
:1053380074027810121CD074002510F8740335110B
:10534800F988828983A3124EA07003025238E82498
:1053580003F8E93400F9EE4F60030252418882896C
:105368008374FFF0A3F0900300E004F0900300E0E2
:10537800600A1259F81207867900800B8508828521
:105388000983125C67790A025B5C74EA121D537424
:10539800FE121CE38C128D13EA2405F50CEB126641
:1053A80034124E12750800750900EA2402F510EB54
:1053B8003400F51185188285198385820A85830B47
:1053C800780A121F66850C82850D83A3A3A3A312F6
:1053D8005574121F66E50C2405F50AE50D125C5795
:1053E800780A121F66850C82850D831264C8120A1A
:1053F8001A7406121CF98A0A8B0BEA450B70030211
:105408005525EA2404F50EEB12556A124E128A82CB
:105418008B83A3A3A3E0F9851082851183125A0216
:10542800120A08E9F5096003025525E4F514F51593
:105438007814121F667514E97515027814121F6620
:105448007514EA7515027814121F667406121D2F5A
:10545800121F7D7913AC0AAD0B851082851183125A
:105468005A02120B407408121CF9E9F5096003028C
:1054780055259002E9E0F8E5087009E02402900358
:1054880001F08017900301E0FCE82402FAE43400FC
:10549800FBEA6C7001EB6003025529850882AA8239
:1054A8001256A994141256A15073850E82850F8343
:1054B800E0C0E074022A125561D0E0F00508850EBC
:1054C80082850F83A3E0C0E085080A7402250A12CA
:1054D8005561D0E0F005089002E9125574121F6674
:1054E8007CEA7D0285080A7402250AFA74033400EE
:1054F800FB1212BA7402121CF99002E9E02508F5B1
:105508000874FF6E700374FF6F6012EE24010EEFD3
:105518003400FFE508C3941450030253BCE5086047
:10552800131258ED851082851183125A0212078CC6
:1055380079008014E509700375090A8512828513BC
:1055480083EEF0A3EFF0A9097402121CF97F0E0292
:105558001E2585080C7402250CF58274033400F5A9
:1055680083223400F50F850E82F583221261F7221B
:1055780074EE121D5374FE121CE38C0E8D0FEA2478
:1055880005F50CEB125188750B00900300E4F0F55B
:105598000AEA2402F508EB3400F509804990030073
:1055A800E0FA9002E9E0F81256A994171256A140C1
:1055B8000D900300E0F87416C3989002E9F01256B3
:1055C800B2121F667CEA7D0274012AFA7403340061
:1055D800FB1212BA7402121CF99002E9E0F8900367
:1055E80000E028F0050AE50C2416F582E50D1255B1
:1055F80065E0F8E50AC398400302568A900300E084
:10560800C39416507DE50AC333F8E433F9E50C2852
:10561800FEE50D39FF851882851983AC82AD838E2E
:10562800828F83125A02120A208A108B11AC10AD95
:1056380011EC4D7005750B018043E4F510F51178F8
:1056480010121F667510E97511027810121F667521
:1056580010EA7511027810121F667406121D2F12B7
:105668001F7D7916850882850983125A02120B401C
:105678007408121CF9E9F50B70030255A5125C6356
:1056880080107C007D03850882850983125A0212E6
:10569800079EA90B7402025B5EE99400C365D033D0
:1056A80022EA28F8E43400F9E822E0F51075110040
:1056B80078102274EA121D5374FC121CE38A0C8BB6
:1056C8000D8C128D13EA2405F50AEB125C57750848
:1056D80000750900E50A2402F510E50B3400F51100
:1056E8007402121D2F85820E85830F780E121F6695
:1056F800850A82850B83A3A3A3A31261A3121F6645
:10570800E50A2405F50EE50B3400F50F780E121F97
:1057180066851082851183125C5D1259FC120A1A83
:105728007406121CF98A0E8B0FAE0EAF0FE50C240F
:1057380002F50EE50D3400F50F80408882898374E8
:10574800FFF0050812555A74FFF005089002E9E0C9
:10575800F50C750D00780C121F667CEA7D02850831
:105768000C7402250CFA74033400FB1212BA74028A
:10577800121CF99002E9E02508F508EE4F60718ED9
:10578800828F83A3A3A3E0F9850E82850F83125A23
:1057980002120A08E9F509EE2404125185E9704459
:1057A800E4F514F5157814121F667514E9751502D9
:1057B8007814121F667514EA7515027814121F669C
:1057C8007408121D2F121F7D7911EEFCEFFD850E56
:1057D80082850F83125A02120B407408121CF9E9D1
:1057E800F5096027850C82850D831258E3125C70D9
:1057F800E50870030258C91258ED850E82850F839B
:10580800125A021207A479000258DE850882AA8279
:10581800EA9002E97009E02404900301F08022E094
:10582800F8900301E0F514E82404FCE43400FDECEE
:1058380065147001ED70C01256A994121256A15049
:10584800B6850C82850D83E0C0E074022A1255618A
:10585800D0E0F00508850C82850D83A3E0C0E01236
:10586800555AD0E01258FF85820C85830D780C12AA
:105878001F667404121D2F121F7D851082851183E7
:105888001264CA120A267404121CF98A0C8B0DAE13
:105898000CAF0D85080C7402250CF874033400F95C
:1058A800EE4F7003025743851882851983E088827A
:1058B80089831258FFA3E0C0E012555AD0E002577E
:1058C80051E509700375090A850A82850B83125808
:1058D800E3125C70A90974040255521264B9851266
:1058E8008285138322900301E0F5F0E50884900394
:1058F80000F07C007D0322F0050885188285198355
:105908002274EC121D5374FE121CE38A088B098C56
:105918000E8D0FEA2405FEEB3400FF8518828519E9
:1059280083AC82AD838E828F83125A02120A208A38
:105938000A8B0BEE2418125185EA450B70030259A5
:10594800D3125B455032851882851983125A021288
:105958000B348A108B11EA4511606B7912AC0AADD1
:105968000B850882850983125A0285108285118366
:10597800121D51E9F50A7058E4F50AF50B780A1278
:105988001F668E828F83A3A3E0F50A780A121F662A
:10599800EE2403125C54780A121F668E828F8312DB
:1059A8005A0C120B467406121CF9E9F50A70218587
:1059B8000C82850D83E0701F850882850983125A41
:1059C800021207AA8011750A0E8009750A0180045F
:1059D800E50A6003125C63850C82850D83E0600430
:1059E80079008002A90A7402121CF97F0C021E2594
:1059F8007C007D03850A82850B83125A0622E0FA11
:105A0800A3E0FB22E0FCA3E0FD8508828509831260
:105A18005A062274EE121D5374FE121CE38A088B78
:105A2800098C0C8D0DEA2405FEEB3400FF750E0081
:105A3800851882851983AC82AD838E828F83125A32
:105A480002120A208A0A8B0BEA450B7003025B31AB
:105A5800125B455035851882851983125A02120B3C
:105A6800348A0E8B0FEA450F605E7912AC0AAD0BD3
:105A7800850882850983125A02850E82850F831252
:105A88001D51E9F50E6003025B34850882850983A0
:105A9800125D4BAA0AFB120B288A108B11A810A9B9
:105AA80011E849701E7AFF7BFF120B288A108B11B0
:105AB800A810A911E849606C88828983E50AF0A3D7
:105AC800E50BF0750A008007750E0E805F050A90D9
:105AD80002E6E0FAE50AC39A504AE50A75F017A407
:105AE800FAABF088828983A3A3E02AFAA3E03BFB00
:105AF8008A828B83125C5DEC4D70D2750A17750B28
:105B080000780A121F66EEFCEFFD1212BA74021238
:105B18001CF9EEFCEFFD850882850983125A0212F2
:105B280007B08014750E098003750E011264B185E3
