:020000040000FA
:0600000002011A0227B7FD
:03002B00022F6C35
:03003300022F4455
:0300530002282A56
:03006B00022EEB77
:03007B00022F133E
:10008300022623E5C754F84401F5C779012200008D
:100093000080FB120086B90003020104E479217891
:1000A30008B800028004F709D8FCE479297802B87B
:1000B30000028004F709D8FCE4900281788479086F
:1000C3008002F0A3D8FCD9FA781A90014A7A01BACF
:1000D30000028007E493A3F608DAF97A047B0A9016
:1000E300014B782A79078015E493A3AD82AE838A06
:1000F300828B83F0A3AA82AB838D828E83D8E9D9C6
:10010300E775829E75838E740412012C7582917536
:100113008300740012012C75D00075813F7518811E
:10012300751902759F00020096C09FF59FE473D076
:100133009F22D083D082C09FE493C0E0740193C018
:10014300E0740293F59F2201FF0000B40000280031
:100153002800283075A000A000A000A0000008001F
:1001630008E001F000100010001000100010001053
:100173000050005000500010001000D00700000095
:100183000000000F0001000500307507001000019A
:100193000081FF00000000FF720990097809FF0247
:1001A300020208025000A0000000E80302B083012D
:1001B3000000988302B6830100005B0A02CE83012C
:1001C3000000B30202B6830100005C0A02D283017D
:1001D3000000C90202B6830100005D0A02D4830154
:1001E3000000CB0202B6830100005E0A02D6830838
:1001F3000000CC0202B6830100005F0A02D883012B
:100203000000600AFF0100FF2002B0830100009E8E
:100213008302B683010000C40A02DA8300000000EF
:100223000002C2830300001903480F480F480F4818
:100233000F480F480F480F480F480F480F480F4803
:100243000F480FDC11F411D611FFFF0A0953656E35
:10025300736F72546167051250002003020A000293
:100263000105544920424C452053656E736F72203B
:1002730054616700D007E803E803E803E803FE13CB
:10028300000034143A14401446144C1452145814F5
:100293005E14641412416363656C2E2044617461BF
:1002A300000A416363656C2E20436F6E662E000A5D
:1002B3000A416363656C2E20506572696F640002A6
:1002C300B083010000A78302B683010000500B1026
:1002D300D5810100007C0702C2830300007F07026F
:1002E300BA83010000510B02B6830100005D0B10BD
:1002F300E581030000850702BA830100005E0B025B
:10030300B6830100006B0B10F5810300006C0B0238
:10031300BA830100006D0B124261726F6D2E20448F
:10032300617461000A4261726F6D2E20436F6E66C5
:100333002E00024261726F6D2E2043616C696272FE
:100343002E000A0A4261726F6D2E20506572696F2A
:10035300640002B083010000928302B683010000AF
:10036300D30B103582010000880702C2830300000B
:100373008C0702BA83010000D40B02B6830100008C
:10038300E00B104582030000920702BA83010000CC
:10039300E10B02B683010000FE0B1065820300002F
:1003A300FF0B02BA83010000000C02B683010000B8
:1003B300EE0B105582010000930702C28303000075
:1003C300A30702BA83010000EF0B12436F6E6E2E78
:1003D30020506172616D730008436F6E6E2E205062
:1003E3006172616D73205265710008446973636FB4
:1003F3006E6E656374205265710002B08301000064
:100403009B8302B683010000860C10A582010000C5
:10041300AB0702C283030000B10702BA83010000E5
:10042300870C02B683010000940C10858202000041
:10043300B70702BA83010000950C02B683010000DE
:10044300A60C107582020000BF0702BA83010000E8
:10045300A70C020202020202020202010D000000C6
:10046300100102B0830100008F8302B683010000F4
:100473000E0D02C483010000C00702B68301000011
:100483000F0D02C083010000258302B68301000023
:10049300100D02BC830100002F8302B6830100000C
:1004A300120D02DE83010000818002B68301000089
:1004B300130D02B8830100002A8302B683010000F2
:1004C300110D02DC83010000208302B683010000CA
:1004D300140D02E083010000938002B68301000043
:1004E300150D02C683010000B58202B68301000028
:1004F300160D02C883010000170D01E803053F1024
:100503000A124779726F2044617461000A47797255
:100513006F20436F6E662E000A0A4779726F205070
:100523006572696F640002B0830100008C8302B6B8
:1005330083010000BD0D10A581010000840802C2E3
:10054300830300008A0802BA83010000BE0D02B6CD
:1005530083010000C80D109581030000900802BAC2
:1005630083010000C90D02B683010000D40D10857C
:1005730081030000D50D02BA83010000D60D03806C
:10058300000080700061801254656D702E204461FC
:100593007461000A54656D702E20436F6E662E00E1
:1005A3000A1E54656D702E20506572696F640002D7
:1005B300B083010000AA8302B683010000430E103A
:1005C3006581010000140902C283030000200902AF
:1005D300BA83010000440E02B6830100004F0E10DF
:1005E3005581030000260902BA83010000500E0260
:1005F300B6830100005C0E1015820300005D0E023D
:10060300BA830100005E0E124D61676E2E204461B5
:100613007461000A4D61676E2E20436F6E662E0073
:100623000A0A4D61676E2E20506572696F6400027D
:10063300B083010000A48302B683010000C30E103F
:10064300D5800100002A0902C28303000030090299
:10065300BA83010000C40E02B683010000CF0E105E
:10066300C580030000360902BA83010000D00E02E0
:10067300B683010000DC0E10B580030000DD0E021E
:10068300BA83010000DE0EFF00013075030201068C
:100693000000000000000000000000000000000057
:1006A300000000000000000000000000FFFF060043
:1006B300800CE803104B65792050726573732053E7
:1006C300746174650002B083010000A18302B683E4
:1006D300010000700F02CC83000000E60902C28310
:1006E300030000E70902BA83010000710F02546599
:1006F30073742044617461000A5465737420436FFA
:100703006E6669670002B083010000958302B683B9
:10071300010000A90F10E580030000EF0902BA836E
:10072300010000AA0F02B683010000B40F10258157
:10073300030000F70902BA83010000B50F125469E0
:100743006D652E20446174610002B083010000AD29
:100753008302B683010000F90F104581010000FAFE
:100763000902C283030000FE0902BA83010000FAF2
:100773000F120135FBFC0312013512FD0312013583
:1007830043FD031201357EFD03120135A8FD03125B
:100793000135D2FD03120135E9FD0312013500FED7
:1007A3000312013517FE0312013540FE0312013512
:1007B30053FE0312013569FE031201357CFE031259
:1007C3000135A3FE03120135AADD02120135AEDEA7
:1007D30002120135E6DE0212013509DF021201358C
:1007E30014DF0212013537DF0212013546E002122F
:1007F30001351BE10212013596E1021201351EE2B9
:100803000212013559E20212013590E2021201355A
:100813001EE302120135F7E30212013557E4021217
:10082300013562E402120135E1E402120135E4E428
:1008330002120135E7E40212013576E502120135B1
:1008430079E502120135A9E502120135D3E5021259
:100853000135C1E60212013573E7021201358BAA95
:1008630003120135B3AA03120135E1AA03120135BC
:1008730018AB0312013576AB03120135C1AB03127A
:1008830001350CAC031201354CAC0312013592ACAB
:1008930003120135C0AC031201357DAD03120135DE
:1008A30087AD0312013594AD03120135C7AD0312B1
:1008B300013593AE031201359FAE03120135B7AE76
:1008C30003120135C1AE03120135F2FE02120135E6
:1008D30000FF0212013518FF0212013530FF021228
:1008E3000135008002120135AC80021201352781E7
:1008F3000212013548820212013584820212013547
:100903002D830212013514840212013578850212F7
:100913000135CF8502120135508602120135408719
:10092300021201358D870212013513880212013537
:10093300458802120135598A021201359B8A021237
:100943000135B98A021201353C8B02120135108C34
:1009530002120135D88C021201350F8F03120135B3
:10096300E28F031201358B9003120135DE900312DF
:1009730001358E91031201351A9203120135069344
:1009830003120135359303120135489403120135DF
:10099300909403120135659503120135A195031255
:1009A3000135BD95031201351A8E04120135A0D607
:1009B30003120135B6D603120135DCD60312013515
:1009C300F8D70312013502D80312013537D90312C0
:1009D30001352FDA03120135AB9B03120135DB9C82
:1009E300031201350E9D03120135589D0312013583
:1009F3001F9F03120135E9D30112013553D40112AC
:100A03000135B2D501120135C2D501120135EFD539
:100A13000112013546D601120135EFD60112013517
:100A2300F6D701120135C0D80112013520DA0112BF
:100A3300013563DA0112013508DB0112013555DB9B
:100A4300011201357BDB0112013589DD011201350C
:100A53008EDD0112013593DF01120135E0DF011252
:100A6300013553E00112013586E00112013528E119
:100A730001120135D1E10112013509E201120135FB
:100A83000CE20112013554E20112013594E2011224
:100A93000135EBE201120135DDEC03120135F5EC12
:100AA300031201353DED0312013553ED03120135F8
:100AB3009AED03120135AEEE031201353BEF03123B
:100AC300013586EF03120135C84C00120135D44CB1
:100AD300001201350F4D00120135544D001201353E
:100AE300144E001201359A4E00120135FF4E0012CA
:100AF30001352B4F00120135644F00120135A2510D
:100B0300001201358653001201356C550012013570
:100B1300AF5600120135FD58001201350F5A00126D
:100B230001355A5B001201356A5C00120135875C9E
:100B330000120135C25C00120135E45C001201357C
:100B4300475D001201350862001201359D620012F3
:100B53000135EE620012013515630012013567633A
:100B630000120135856300120135DF630012013580
:100B7300C864001201353E6600120135C2660012D8
:100B8300013548AF0312013552AF0312013595AF5A
:100B930003120135B0AF0312013540B00312013522
:100BA30068B003120135A5B003120135DCB003129E
:100BB300013505B1031201357AB1031201358FB145
:100BC30003120135A4B103120135D5B10312013566
:100BD300E9B1031201350EB20312013548B2031213
:100BE300013574B203120135ACB2031201352BB3D4
:100BF3000312013574B3031201359EB30312013599
:100C0300C9B303120135458A0412013575C60212B0
:100C13000135A3C602120135F1C702120135D1C84D
:100C230002120135F0C8021201356DC902120135F5
:100C3300B0C90212013506CB02120135C7CB02122D
:100C430001354ECE02120135EFCE02120135E5CF4A
:100C530002120135E2D0021201353CD202120135F3
:100C6300C7D2021201357E8604120135E7860412CB
:100C730001353B87041201356287041201359387DE
:100C830004120135E3C10312013550C203120135C9
:100C930097C203120135AFC303120135ABC403126C
:100CA30001358EC5031201357BF002120135BDF00B
:100CB300021201358FF10212013568F20212013579
:100CC30062F30212013544F402120135ADF402124B
:100CD300013563F502120135D7F50212013543F6EA
:100CE300021201356CF602120135E6F602120135E5
:100CF3007FF702120135E4F702120135F9F7021208
:100D030001353FF80212013558F802120135BDF8DA
:100D130002120135C0F802120135FCE60312013557
:100D230024E70312013562E70312013520E80312B9
:100D3300013587E803120135A3E803120135CBE837
:100D430003120135FBE8031201350AE903120135E9
:100D530087E903120135ADE903120135D8E3011226
:100D63000135B6E501120135E8E70112013524E842
:100D73000112013551E8011201353BE90112013538
:100D830086E901120135D1E901120135E3E90112C6
:100D9300013523EA0112013558EA01120135A6EAA9
:100DA30001120135D5EA01120135F8EA01120135C4
:100DB30045EB01120135CAEB01120135E4ED0112D5
:100DC300013523F00112013564F00112013506F2F9
:100DD3000112013547F201120135BAF20112013550
:100DE30010F30112013560B9021201355EBA021225
:100DF3000135F7C00212013518C302120135E3C4ED
:100E0300021201354BC60212013529670012013562
:100E1300D867001201350568001201354B680012CE
:100E230001358B6900120135216B001201359B6B73
:100E330000120135B66B00120135316C0012013519
:100E43008B6D00120135EB6E00120135F16F00124C
:100E530001355271001201356B7100120135C971F0
:100E630000120135B77200120135EA720012013522
:100E73005A7300120135D473001201351E74001227
:100E83000135E87400120135BD75001201359C76F9
:100E930000120135277700120135957700120135CD
:100EA300097800120135347800120135F378001205
:100EB3000135587A00120135757A00120135947A9A
:100EC30000120135857B00120135AA7B0012013522
:100ED300D47B001201354F7C00120135A97C00122E
:100EE3000135127E00120135C07E00120135017FEB
:100EF300001201358CAB02120135DAAB0212013557
:100F0300E6AB02120135C4AC02120135F5AC021294
:100F1300013526AD02120135A6AD02120135DEAD53
:100F23000212013530AE021201356DAE02120135E7
:100F33008AB002120135B0B2021201359BB402121B
:100F4300013585B602120135DD7F00120135F198B6
:100F530001120135219901120135FA9F0112013560
:100F63007FA1011201357CA70112013564A801128A
:100F73000135A1A801120135C4A801120135F5A854
:100F830001120135FEA80112013508A9011201352C
:100F9300F6A901120135ECAA01120135E28301120F
:100FA3000135E18701120135E78701120135228FEF
:100FB300011201353B9401120135D2D203120135DE
:100FC30068D3031201357ED303120135F4D3031220
:100FD300013568D403120135A6D4031201351AD59D
:100FE3000312013593D5031201359CD50312013544
:100FF300A8D503120135BDD503120135FBD5031264
:10100300013511D60312013570D60312013550C6CE
:10101300031201355DC60312013577C6031201358C
:10102300B6C603120135F4C60312013559C70312BC
:1010330001356EC70312013579C70312013586C71F
:10104300031201359DC703120135ABC703120135E6
:10105300B6C703120135C2C703120135D1C7031244
:101063000135DCC703120135FFC703120135A6C8DA
:1010730003120135B6C803120135D0C80312013576
:10108300EDC80312013509C9031201352EC9031234
:10109300013539C9031201354EC90312013562C93D
:1010A30003120135C3C903120135C9C9031201353E
:1010B300CFC903120135D5C903120135EDC9031296
:1010C300013520CA03120135629D02120135E69DE6
:1010D30002120135959E02120135F49F0212013569
:1010E30015A20212013501A30212013536A3021221
:1010F300013558A30212013507A402120135FFA5D9
:101103000212013528A602120135BAA602120135D0
:10111300ECA602120135F9A60212013550A70212FC
:10112300013576A702120135E3A902120135E6AAB9
:10113300021201353EAB02120135F18E0212013566
:10114300FB8F02120135E29002120135EC9002127C
:1011530001350E91021201351A9102120135B39233
:1011630002120135E29202120135FE930212013599
:10117300579402120135BD95021201359C96021255
:101183000135F89602120135659702120135A097D1
:1011930002120135DF9702120135989A02120135C6
:1011A300B29A021201353E9B021201354C9B021288
:1011B3000135A59B02120135B39B02120135269C12
:1011C300021201358A9C02120135D49C02120135A8
:1011D3003AF3011201355CF30112013582F5011274
:1011E300013597F801120135AFF90112013562FAA1
:1011F3000112013544FB01120135AB8104120135A3
:10120300D0810412013542820412013595870312FD
:1012130001359E8703120135A787031201357E88A6
:10122300031201352F8A03120135658A0312013532
:101233009F8A03120135D58A031201350F8B0312DE
:101243000135438B031201356F8B03120135B88BC4
:1012530003120135F28B031201353B8C0312013566
:10126300938C03120135C88C03120135238D0312AD
:1012730001355D8D03120135AE8D03120135E48D09
:10128300031201351E8E031201354C8E03120135F4
:101293006F8E031201352C8C04120135588C041205
:1012A3000135B38C04120135BD8C04120135CD8C8C
:1012B3000412013500800312013515800312013534
:1012C300718003120135DC8003120135248103127E
:1012D30001358E8103120135BD8103120135CB81A6
:1012E300031201352D82031201356B82031201357E
:1012F300868203120135218303120135C68303124B
:1013030001354984031201358284031201350D85A9
:1013130003120135648503120135C38503120135B8
:10132300D58503120135FB850312013504860312AB
:1013330001355E8703120135D98704120135B78859
:1013430004120135B0EF03120135F5EF0312013535
:101353003BF00312013504F2031201355E8B0412D4
:101363000135798B04120135898B04120135E08B29
:1013730004120135D78C04120135E4E7021201355A
:1013830004E8021201357AE902120135C8E90212B2
:101393000135E8E90212013550EA02120135D2EAB9
:1013A3000212013518EB02120135A4EB02120135CA
:1013B300EDEF021201356AF002120135B5FE031298
:1013C3000135E6FE0312013510FF0312013530FF2C
:1013D300031201358EFF0312013504AD01120135ED
:1013E300F9AF011201358FB301120135C1B30112F7
:1013F3000135ECB301120135E0B40112013554B5E6
:10140300011201352CB60112013557B6011201350F
:1014130082B601120135ADB601120135E4B60112EF
:10142300013565B7011201352EB8011201352FB907
:10143300011201355AB90112013501BA0112013500
:10144300A6BA011201354DBB01120135F2BB0112DF
:10145300013599BC01120135DABC0112013582BD97
:10146300011201354FBE01120135DBBE01120135F8
:10147300A0BF0112013597B803120135E7B8031273
:10148300013510B903120135C2B9031201352BBA64
:101493000312013537BB0312013500BD03120135B9
:1014A300329603120135829603120135AB9603126D
:1014B3000135C59703120135589803120135A199D7
:1014C300031201356E9B031201359DCA03120135C8
:1014D300EDCA031201350ACB03120135D9CB03122E
:1014E30001355ACC031201352DCD03120135ABCE94
:1014F30003120135E4F80212013509F9021201352C
:1015030041F9021201357A8D041201359C2F001224
:101513000135B532001201356734001201350B3540
:1015230000120135AE350012013565360012013562
:10153300943600120135523B00120135E93B00128B
:101543000135253D001201358D3D00120135413E27
:1015530000120135F7400012013531410012013507
:101563009B4100120135F941001201355742001227
:101573000135B44200120135A34300120135E9439A
:10158300001201352E440012013551440012013579
:10159300944500120135A84500120135B1460012E9
:1015A3000135F046001201351C47001201356B4727
:1015B300001201358C4700120135CA47001201356C
:1015C300114A00120135524A00120135F04A001245
:1015D30001355B4B00120135944C001201353DBDC2
:1015E300031201358DBD03120135B6BD031201355A
:1015F30068BE03120135D1BE03120135DDBF0312EC
:101603000135A6C1031201351EFB031201352EFB62
:101613000312013573FB0312013551FC031201352B
:10162300E9FC0312013500800412013533800412F2
:101633000135518004120135EA8004120135078116
:1016430004120135998104120135848F0412013586
:1016530013890412013523890412013537890412D1
:1016630001353F8A04120135F5E3031201359FE486
:1016730003120135E1E603120135B6F40312013515
:10168300D0F40312013533F503120135A1F503122A
:10169300013557F60312013576F60312013586F646
:1016A30003120135C5F60312013502F703120135A2
:1016B300158F04120135548F04120135508304121F
:1016C30001359F8304120135D183041201356384EC
:1016D30004120135DF84041201358EDD0312013556
:1016E300A2DD03120135CBDD03120135F4DD031254
:1016F3000135BCDE0312013507DF03120135BEE0FD
:1017030003120135F18404120135248504120135D5
:10171300A08504120135C085041201352586041203
:1017230001356D8604120135708604120135D2A08D
:1017330003120135EBA00312013580A10312013519
:1017430071A20312013527A50312013567A5031200
:101753000135A9A50312013514F70312013525F745
:10176300031201356EF7031201359AF7031201359F
:10177300BAF70312013559F8031201352CF9031294
:10178300013568FE01120135B7FE011201353FFF35
:1017930001120135C9FF01120135F87F001201352D
:1017A300F5E90312013523EC031201358FEC031223
:1017B3000135DAEC03120135C7A50312013517A66B
:1017C3000312013540A603120135F2A603120135B7
:1017D3005BA70312013567A80312013530AA031270
:1017E30001357BAA03120135F1B30312013541B46C
:1017F300031201356AB4031201351CB50312013516
:1018030085B50312013591B6031201355AB8031297
:1018130001353EF903120135A5F90312013550FADA
:1018230003120135C6FA0312013539DA0312013501
:101833006CDA0312013572DB03120135C7DC0312C4
:10184300013548D30212013524D4021201356BD479
:1018530002120135A8D40212013516D50212013540
:1018630070D502120135E0D502120135B8D6021245
:101873000135ABD7021201352FD802120135D2D967
:10188300021201355DDA02120135EDDA0212013579
:1018930086DB021201359DDB02120135D8DC021210
:1018A30001352EDD021201357BC0011201351FC542
:1018B3000112013510C80112013539C80112013571
:1018C30050C80112013579C8011201352BC9011223
:1018D300013509CB011201355BCC01120135A2D1CF
:1018E30001120135DBD1011201351FD2011201357D
:1018F3002BD30112013548F20312013598F203127A
:101903000135FBF203120135C1F30312013579F4FA
:1019130003120135317F00120135DBCE031201358D
:101923002BCF0312013554CF03120135ECCF031231
:10193300013543D00312013548D10312013595D245
:1019430003120135D0E00312013535E103120135ED
:101953005EE103120135AAE103120135EDE1031241
:101963000135C0E203120135B8E303120135C9FFA3
:1019730002120135668F04E066701008A3E06670FA
:101983000A08A3E066700408A3E06622C3E796088A
:1019930009E7960809E7960809E79622C3E096083F
:1019A300A3E09608A3E09608A3E09622C008C3E04C
:1019B30096F50808A3E096420808A3E096420808B3
:1019C300A3E09645087001D3D00822080808EAC0AE
:1019D300E0EBC0E086F0E7A4FA180986F0E7A42A52
:1019E300FA180986F0E7A42AFA180986F0E7A42A68
:1019F300FA1986F0E7A4FBE5F02AFA190886F0E75E
:101A0300A42BFBE5F03AFA190886F0E7A42BFBE5D3
:101A1300F03AFA18180986F0E7A4C5F02BFBE43A6C
:101A2300FA1908E7C5F0C6A426F6E5F03BFBE43A4D
:101A3300FA1886F0E7A4F6E5F00826F6E43B08F684
:101A4300E43A08F6D0E0FBD0E0FA22E4CFC0E0E4C9
:101A5300CEC0E0E4CDC0E0E4CCC0E075F020E626E3
:101A6300F608E633F608E633F608E633F6181818F0
:101A7300EC33FCED33FDEE33FEEF33FFC3EC97099C
:101A8300ED9709EE9709EF97191919400FFFEC9796
:101A9300FC09ED97FD09EE97FE191906D5F0BFEC89
:101AA300F709EDF709EEF709EFF7191919D0E0FC7B
:101AB300D0E0FDD0E0FED0E0FF226016080808C6A3
:101AC300C313C618C613C618C613C618C613C6D57D
:101AD300E0EA227009080808226016181818C6C31D
:101AE30033C608C633C608C633C608C633C6D5E0F0
:101AF300EA22E627F60809E637F60809E637F60884
:101B030009E637F622E026F608A3E036F608A3E056
:101B130036F608A3E036F622E026F008A3E036F016
:101B230008A3E036F008A3E036F022C3E697F608F0
:101B330009E697F60809E697F60809E697F622C339
:101B4300E096F008A3E096F008A3E096F008A3E07F
:101B530096F022E657F60809E657F60809E657F61F
:101B63000809E657F622E056F608A3E056F608A35E
:101B7300E056F608A3E056F622E056F008A3E05636
:101B8300F008A3E056F008A3E056F022E0F608A31D
:101B9300E0F608A3E0F608A3E0F622E6F008A3E6E1
:101BA300F008A3E6F008A3E6F022E0FAA3E0FBA323
:101BB300E0FCA3E0FD22EAF0A3EBF0A3ECF0A3ED3D
:101BC300F022E0F8A3E0F9A3E0FAA3E0FB22E8F0B7
:101BD300A3E9F0A3EAF0A3EBF022CAC0E0E6F0A386
:101BE30008DAFAD0E0FA22CAC0E0E0A3C582CCC585
:101BF30082C583CDC583F0A3C582CCC582C583CD01
:101C0300C583DAE6D0E0CA22C3E498F8E499F9126E
:101C13001C4C8026C3E49AFAE49BFBE920E7E91213
:101C23001C4CE498F8E499F922C3E498F8E499F990
:101C3300121C4CE498F8E499F9C3E49AFAE49BFB88
:101C430022EB20E7CFE920E7E0B90010BB0008E86A
:101C53008AF084F8AAF022E4FBC8FA22EB70227B14
:101C630010C833C8C933C9335007C39AC3DBF280E2
:101C7300069A50012ADBEAC833F4C8C933F4C9FA17
:101C83002275F008E4C833C8C933C933C99AC99B5C
:101C93005004C92AC93BD5F0ECFBC833F4C8E4C9E6
:101CA300FA22600D08C6A2E713C618C613C6D5E00C
:101CB300F322600C08C6C313C618C613C6D5E0F4D6
:101CC30022700422600D18C6C333C608C633C6D5B6
:101CD300E0F41822251810AF08F518400C151980E8
:101CE30008F51840021519D2AF2200C0D0251810EC
:101CF300AF08F518500C05198008F518500205199E
:101D0300D2AFD0D0222518F58210AF08F518400CB9
:101D130015198008F51840021519D2AF85198322C9
:101D23002518F582E43519F583222518F8E43519C9
:101D3300F9222518FAE43519FB222518FCE4351994
:101D4300FD22E4732518C582C0E0E51934FFC5837D
:101D5300C0E0E518C3958224F810AF088583198580
:101D630082188008858319858218D2AFCEF0A3E547
:101D730020F0A37808E608F0A3DEFAEFF0A3E581EC
:101D830024FAF8E608F0A3E608F0A3E608F0A308AF
:101D930008E608F0A3E608F0A315811581D0E0FE5C
:101DA300D0E0F8158115811581E8C0E0EEC0E0228E
:101DB3002518C582C0E0E51934FFC583C0E0E518E6
:101DC300C3958224F910AF0885831985821880088A
:101DD300858319858218D2AFCEF0A3E520F0A378CE
:101DE30008E608F0A3DEFAEFF0A3E58124FBF8E6AA
:101DF30008F0A3E608F0A30808E608F0A3E608F055
:101E0300A315811581D0E0FED0E0F815811581E896
:101E1300C0E0EEC0E022851983851882E0A3FEE0CE
:101E2300A3F5207808E0A3F608DFFAE0A3FFE0A318
:101E3300C0E0E0A3C0E0E0A3C0E0E0A3C0E0E0A313
:101E4300C0E010AF08858218858319800885821841
:101E5300858319D2AFD083D082020132851983855D
:101E63001882E0A3FEE0A3F5207808E0A3F608DFDC
:101E7300FAE0A3FFE0A3C0E0E0A3C0E0E0A3C0E07A
:101E8300E0A3C0E010AF0885821885831980088518
:101E93008218858319D2AFD083D08222C0D025186F
:101EA300C582C0E0E51934FFC583C0E0E518C395DA
:101EB3008224F310AF0885831985821880088583EF
:101EC30019858218D2AFC8F0A3E9F0A3EAF0A3EB17
:101ED300F0A37908E709F0A3D8FAECF0A3EDF0A397
:101EE300EEF0A3EFF0A3D0E0F0A3D0E0F0A3D0E0B6
:101EF300F0A3E520F0A3E5F0F0A32285198385186C
:101F030082E0C0E0A3E0F9A3E0FAA3E0FBA3780832
:101F1300E0F608A3DFFAE0FCA3E0FDA3E0FEA3E004
:101F2300FFA3E0C0E0A3E0C0E0A3E0F5D0A3E0F5A9
:101F330020A3E0A3F5F010AF0885831985821880EC
:101F430008858319858218D2AFD082D083D0E0F878
:101F5300D0E03274048006740280027401C0E0F49D
:101F630004121D08D0E0121BDD22740480047402E5
:101F73008000CCC0E0EDC0E0E518C39CCCAD1950A7
:101F8300011D10AF068C188D1980068C188D19D27F
:101F9300AF121BEAD0E0FDD0E0FC22D083D082E96F
:101FA300C0E0E493A3C386F0C5F095F0F908E49389
:101FB300A386F0C5F095F0700BE493A3C399400595
:101FC300E9048002A3E475F002A42582F582E5F01A
:101FD3003583F583D0E0F9E493A3C0E0E493C0E054
:101FE30022D083D082ECC0E0EDC0E0E493A3FCE414
:101FF30093A3FDED4C600D122030EC24FFFCED3477
:10200300FFFD80EFE493A3FCE493A3FDED4C600D8F
:1020130012206FEC24FFFCED34FFFD80EFD0E0FDD8
:10202300D0E0FCE493A3C0E0E493C0E022C0E0C3AB
:10203300E49396087401939618400FE4936670082E
:1020430008740193661870007019A3A3C3E49396F0
:10205300087401939618A3A3400DD0E0D0E0D0E01C
:10206300022020A3A3A3A3A3A3D0E022C0E0C0F037
:1020730088F0E4936670080874019366187000A8EA
:10208300F0A3A3700BD0F0D0E0D0E0D0E00220208A
:07209300A3A3D0F0D0E0226E
:10209C0074F5121DB3EAFEEBFFEE2434F8EF3400B6
:1020AC00F988088909EE2435F582EF3400F583E0D0
:1020BC00F8EE2437F582EF3400F583E0F50AEC8571
:1020CC000AF0A4FCAAF0850AF0EDA42AFDE82CF88D
:1020DC00E43DF97A257B00121C4CEA8508828509BF
:1020EC0083F0F8740758F97401B900028004C33303
:1020FC00D9FCFAE8131313541FF8EE28F8EF340048
:10210C00F9E8245DF582E93400F583E05A6008EEC5
:10211C002434F582EF802CEE2434F582EF3400F574
:10212C0083E0C0E0EE2436F582EF3400F583E0F571
:10213C00F0D0E084A8F0EE28F8EF3400F9E8243869
:10214C00F582E93400F583E0F97F04021E5F74F533
:10215C00121DB3EAFEEBFFEE2434F582EF3400F5EA
:10216C0083E0C0E0EE2435F582EF3400F583D0E057
:10217C00F08E828F83A3A3A3A3A3A3A3C082C08347
:10218C008E828F83A3A3A3A3A3E0F8A3E0F9D0834B
:10219C00D082E0C398F508A3E099F509EE247FF509
:1021AC0082EF3400F583E064017069EE2480F582DF
:1021BC00EF3400F583E0F8A3E0F98E828F83A3A3BC
:1021CC00A3A3A3A3A3E0FCA3E0FD8E828F83A3A310
:1021DC00A3A3A3E0FAA3E0FBC3EA9CEB9D5010C3BE
:1021EC00EC98ED99402EC3EA98EB995027800EC3DA
:1021FC00EA98EB994007C3EC98ED9940177CDC7D8D
:10220C0004EEFAEFFB120EA6EE247FF582EF3400FB
:10221C00F583E4F0EE2434F8EF3400F9E8FCE9FD42
:10222C00EE2435F582EF3400F583E0F8EE2437F533
:10223C0082EF3400F583E0F50AE508850AF0A4F591
:10224C0008AAF0850AF0E509A42AF509E82508F89A
:10225C00E43509F97A257B00121C4CEA8C828D83BB
:10226C00F0F8740758F97401B900028004C333D92B
:10227C00FCFAE8131313541FF8EE28F8EF3400F9A6
:10228C00E8245DF582E93400F583E05A6008EE2419
:10229C0034F582EF802CEE2434F582EF3400F58394
:1022AC00E0C0E0EE2436F582EF3400F583E0F5F083
:1022BC00D0E084A8F0EE28F8EF3400F9E82438F5E3
:1022CC0082E93400F583E0F9122ED7022155C08241
:1022DC00C083851882851983E0F8A3E0F9C3EA9CD2
:1022EC00EB9D5010C3EC98ED99401BC3EA98EB9909
:1022FC005014800EC3EA98EB994007C3EC98ED9903
:10230C004004790180027900D083D08222EAC39CF8
:10231C00FAEB9DFB2274EF121DB39003A2E064084C
:10232C006005E06407702A9061C8E060249003D0D7
:10233C00E0F4601DE0F875F003A4C8AAF02AF97463
:10234C00D228FE740339FF8E828F83A3A3A3E0707F
:10235C0003022451906060E0C0E0EE2468F582EF47
:10236C003400F583D0E0F0750C45750D057508004B
:10237C00750900E5D914F50AE5D95403F50E601773
:10238C007403650E605CE50A6010EE2467F582EF5D
:10239C003400F583E07003022436900540E06401BC
:1023AC00602AEE2482F582EF3400F583E060047835
:1023BC000480027800850A08E508C398FA95E0FBCA
:1023CC00120D6E8A088B09EA450970051210AA8055
:1023DC0074EE2482F582EF3400F583E070048A0CED
:1023EC008B0DE50A6012850C82850D83F50BE5D902
:1023FC00F0A3150BE50B70F6EE2482F582EF34009A
:10240C00F583E0604474FC250AF50A780C121F5A17
:10241C00AC0AA90EEEFAEFFB120F427402121CED7D
:10242C00E97026AA08AB09121818793D8E828F83A1
:10243C00A3A3A3A3E0FA7B00120C42EEFAEFFB126B
:10244C000EBE120F54790080747403650E605685AD
:10245C000A107511007810121F5AAC0CAD0DAA0899
:10246C00AB09120F1E7402121CEDEE2468F582EFFC
:10247C003400F583E064807004747F8001E0F50C17
:10248C00780C121F5EE50EF50C780C121F5EA90A73
:10249C00AC08AD099003D0E0FA7B00120C06740274
:1024AC00121CED80139003A2E06408600BAC0CAD21
:1024BC000DEEFAEFFB120FAE1210B679017F0A0285
:1024CC001E5F74F5121DB374FC121CD7EAFEEBFFF1
:1024DC008908A2AFE433F509C2AF806AEE2463F831
:1024EC00EF3400F97A007B00A2AFE433F50AC2AFF7
:1024FC0088828983E0FCA3E0FDEC4D603A888289F8
:10250C0083E0FAA3E0FB8A828B83E0FCA3E0FD88E6
:10251C00828983ECF0A3EDF08A828B83E4F0A3F044
:10252C0088828983E0FCA3E0FDEC4D700A888289E7
:10253C0083A3A3E4F0A3F0E50AA2E092AF1218186B
:10254C009004E3E004F0EE2463F582EF3400F583AD
:10255C00E0F8A3E0F9E849603DEE2463F582EF343E
:10256C0000F583E02402FAA3E03400FBEA2402F530
:10257C000AEB3400F50B780A121F5A8A828B83E01F
:10258C00FCA3E0F9EEFAEFFB120EE27402121CED62
:10259C00E970030224E89004E3E060639004E4E053
:1025AC00F89004E3E0C398500C74026508705090E6
:1025BC0004E5E0604A8E828F83A3A3A3A3E0851871
:1025CC0082851983F0A3E4F09004E3E0F87402121E
:1025DC001D23E8F0A3E4F09004E3E0F89004E2E0BB
:1025EC0028F07402121D23AC82AD838518828519E4
:1025FC0083AA82AB837901120C129004E3E4F0E518
:10260C0009A2E092AF7404121CED022155000000E7
:10261C008521878522C622C0E0C0D0E8C0E0E9C091
:10262C00E0EAC0E0EBC0E0ECC0E0EDC0E0EEC0E002
:10263C00C008C009C00AC00BC082C083C0F0A2AFE2
:10264C00E433FEC2AF759B00906182E0A2E05012B1
:10265C00E591A2E0500C7591FE7401652170031296
:10266C002321E0A2E55051E591A2E5504B7591DF95
:10267C009003A2E064076005E064087023740165B0
:10268C0021703579019003D0E0FA75F003A4CAA843
:10269C00F028FB74D22AFA74033BFB1224CE801868
:1026AC00E0640D70139003C4E004F064287002E43D
:1026BC00F07A00E0F91210BC906182E0A2E64003CF
:1026CC0002276AE591A2E6400302276A7591BF9042
:1026DC0003A2E064057008120FE4120FF0800312DD
:1026EC000FEA75210012104AE99003A3F079001249
:1026FC00103E120E1C7A017B009003A1E0F912131C
:10270C000E907803E064427055900544E014F0702C
:10271C004DC2AF12272200782AD0E0F618D0E0F68E
:10272C00E59F540770057509FF800375097FC4C0C8
:10273C00E07829E6F50808E65509F509740B7808E0
:10274C00121CB5D0E02508F8906270E0A2E740F8C2
:10275C00E8C333906272F0906270E0D2E0F0906166
:10276C0081E0A2E35009E5E9A2E3500375E9F7A380
:10277C00E0A2E75009E591A2E7500375917FEEA224
:10278C00E092AFD0F0D083D082D00BD00AD009D059
:10279C0008D0E0FED0E0FDD0E0FCD0E0FBD0E0FAC9
:1027AC00D0E0F9D0E0F8D0D0D0E032C0E0C0D0C05A
:1027BC0082C083906183E0A2E05009E5BFA2E050A3
:1027CC000375BFFEE0A2E15009E5BFA2E15003751D
:1027DC00BFFDE0A2E25009E5BFA2E2500375BFFBCA
:1027EC00E0A2E35009E5BFA2E3500375BFF7E0A2F6
:1027FC00E45009E5BFA2E4500375BFEFE0A2E55039
:10280C0009E5BFA2E5500375BFDFE0A2E65009E57C
:10281C00BFA2E6500375BFBFD083D0828088C0E0D2
:10282C00C0D0E8C0E0E9C0E0EAC0E0EBC0E0ECC03A
:10283C00E0EDC0E0C0F0E5A7A2E6500FE5A1A2E6EE
:10284C00500953A7BF75A1BF12288FE5A7A2E55069
:10285C000CE5A1A2E5500653A7DF75A1DFE5A7A201
:10286C00E15009E5A1A2E1500375A1FDE5A7A2E2A3
:10287C00500CE5A1A2E2500653A7FB75A1FBD0F0CA
:10288C000227A074F8121DB37521019003A2E06415
:10289C00067015120F728A828B83A3A3A3A3A3A322
:1028AC00E0FAA3E0FB120FD2A2AFE433FED2AF905A
:1028BC0003A8E0640170187A207B009003A1E0F972
:1028CC0012139E7A207B009003A1E0F9121314904E
:1028DC006182E0D2E6F0900541E0602185C622805D
:1028EC00169003A7E064017008E5C654F84405F59A
:1028FC00C653BEFC12261C7401652160E4EEA2E0F6
:10290C0092AF7F01021E5F008E238F248582288563
:10291C008327851882851983E0CEA3E0CF85288292
:10292C00852783EBC9EAC8EDCBECCA75F010C3E878
:10293C0033C8E933C9EA33CAEB33CBC3EA9EF52675
:10294C00EB9FF525B35004AB25AA26EC33CCED3325
:10295C00CDD5F0DAAE23AF242274E9121DB374F88E
:10296C00121CD7851882851983ECF0A3EDF08A0828
:10297C008B099003A2E024F7C39405500675080157
:10298C00022AFC120F728A0A8B0BAE0AAF0BEE4FA7
:10299C007003022AF9AC08AD097402121D23AA8235
:1029AC00AB831210028E828F83A3A3750CFF750D5F
:1029BC00FF750EFF750F00780C121B697402121D47
:1029CC00237510FF7511FF7512FF75130078101227
:1029DC001B69780C791012198F502A780C79101207
:1029EC001B2E7508017509C8750A00750B0078084F
:1029FC00790C12198F5052850C08850D09850E0A19
:102A0C00850F0B80507514017515C8751600751758
:102A1C000085100885110985120A85130B78087931
:102A2C000C121B2E7814790812198F401C75080093
:102A3C00750900750A00750B0178087910121B2EA8
:102A4C007808790C121AF5800C7508017509007557
:102A5C000A00750B0074097808121AD6750C19F552
:102A6C000DF50EF50F7808790C121A4E8E828F83A5
:102A7C00A3A3A3A3A3A3E0F8A3E0F97AD07B03124A
:102A8C001C4C880C890DE4F50EF50F7808790C12A6
:102A9C001AF57406121D23E0F8A3E0F97AD07B0333
:102AAC00121C4CE8FA8A0CE4F50D7808790C121912
:102ABC008F50077808790C121B2E9003A2E0640843
:102ACC00600AE064066005E06405702D750C0D78F5
:102ADC000C790812198F4021750CF4750DFF750EC9
:102AEC00FF750FFF7808790C121AF5800C75080029
:102AFC00750900750A00750B00851882851983E02D
:102B0C00F8A3E0F58388827808121B9E7408121CC7
:102B1C00ED7F10021E5F74F7121DB3121014900596
:102B2C003FE064017010906245E4F0A3F053F4F3BD
:102B3C0043FE0C5390F3120FC0E5C654804449F584
:102B4C00C6E59E547F644970F8906185740FF090CF
:102B5C00053DE0F47002A3E0604E90053EE0600895
:102B6C0014601B14602E80407508017509009005D7
:102B7C003DE07808121CC4E508F45280802A7508E0
:102B8C000175090090053DE07808121CC4E508F4B5
:102B9C005290801475080175090090053DE0780885
:102BAC00121CC4E508F452A079007F02021E5F7467
:102BBC00F7121DB3E9FEEAFF74016E700C7A807B8C
:102BCC00009003A1E0F912130E902F94E493F4609B
:102BDC0008E493F9120E10800953C680E59E547FC9
:102BEC0070FA120FC690053FE064017003120E28B4
:102BFC0090053DE0F47002A3E0604B90053EE06070
:102C0C000814601A14602C803D7508017509009039
:102C1C00053DE07808121CC4E50842808028750840
:102C2C000175090090053DE07808121CC4E50842C6
:102C3C0090801375080175090090053DE078081225
:102C4C001CC4E50842A0121014120F728A088B09DA
:102C5C00A808A909E8496015E5E170FCE82414F519
:102C6C0082E93400F583E0F46003E0F5E174016F70
:102C7C00700A7A019003A1E0F9121368022BB67462
:102C8C00ED121DB38A088B098C0A8D0B7413121D5F
:102C9C0023780C121B8F7808790C12198F75100180
:102CAC007511C875120075130050127808790C1242
:102CBC001B2E7810790812198F50168010780C7909
:102CCC0008121B2E7810790C12198F400479018090
:102CDC000279007F0C021E5F74ED121DB38A088B03
:102CEC00098C0A8D0B7413121D23780C121B8F7810
:102CFC000C790812198F40117808790C121B2EAA26
:102D0C0008AB09AC0AAD0B8022751000751100756B
:102D1C0012007513017810790C121B2E781079089B
:102D2C00121AF5AA10AB11AC12AD1380A68A828BC5
:102D3C00837508FF7509FF750AFF750B007808127B
:102D4C001B7C7F04021E5F74F5121DB38C828D8375
:102D5C007808121B8F8A828B837808121B42EA2414
:102D6C0004F8EB3400F98C828D83A3A3A3A3E0FCBD
:102D7C00A3E0FD88828983C3E09CF0A3E09DF088EA
:102D8C00828983C3E09420A3E0944E40268A828BF0
:102D9C00837508FF7509FF750AFF750BFF7808121C
:102DAC001B1B8A828B83A3A3A3A3E02420F0A3E0A4
:102DBC00344EF0022D3974F5121DB3E9FE9004F770
:102DCC00E0FAA3E0FBEEC333F8E433F974F528F52D
:102DDC0082748039F583E02AF508A3E03BF5097885
:102DEC0008121F5A7A407B427C0F7D001229147402
:102DFC0002121CED8A088B098C0A8D0B7410780852
:102E0C00121ABDAA08AB097F04021E5F74F1121DD1
:102E1C00B38A0C8B0D8C0E8D0F740F121D23E0FAE0
:102E2C00A3E0FB7411121D23E0F508A3E0F509786B
:102E3C0008121F5AEA2401F508EB3400F509E4F5F1
:102E4C000AF50B780C79081219CE75087175090200
:102E5C00780C79081219CEAA0CAB0DAC0EAD0F1272
:102E6C0029147402121CED8B09EA450960047A01DD
:102E7C0080027A00EC2AFCED3400FD7413121D2341
:102E8C00E0F8A3E0F9E8FEE9FFECF8EDF97A717BE4
:102E9C0002121C4C880889098E828F837808121BB9
:102EAC009EECF8EDF97A717B02121C4C8A088B09A6
:102EBC0074057808121CC48E828F83A3A3A3A3E588
:102ECC0008F0A3E509F07F08021E5FC082C083E909
:102EDC00906000F0D083D08222C2AF02000022C0EA
:102EEC00E074F2121E9FA2AFE433FED2AFE589A2CA
:102EFC00E0500312171C758900C2C5EEF8EEA2E073
:102F0C0092AF7F01021EFEC0E074F2121E9FA2AFB0
:102F1C00E433FED2AFE58AA2E64006E58AA2E7508A
:102F2C000312171C758A00758A00C2EBEEF8EEA22C
:102F3C00E092AF7F01021EFEC0E0C0D0E8C0E0E925
:102F4C00C0E0A2AFE433F8D2AF758B00C2E8E8F969
:102F5C00E8A2E092AFD0E0F9D0E0F8D0D0D0E032E7
:102F6C00C0E0C0D0E8C0E0E9C0E0A2AFE433F8D2E2
:102F7C00AFC2C7751A00E8F9E8A2E092AFD0E0F949
:102F8C00D0E0F8D0D0D0E032FFFFFFFFFFFFFFFF13
:102F9C0074F0121D4774F8121CD78A0E8B0FE9FFC0
:102FAC008C0C8D0D7E00850E08850F097808121F7C
:102FBC009E0004108132E42F0730263049306C30EB
:102FCC008F30C030E330FA302A31E231053228320A
:102FDC00563281328132533174016F7019850C82F3
:102FEC00850D83E0C39403500D850C82850D83E021
:102FFC00900DB6F080027E180232A974026F701523
:10300C00850C82850D83E0F8A3E0F9900DB7E8F00C
:10301C00A3E9F080027E180232A974016F70198541
:10302C000C82850D83E0C39402500D850C82850DB6
:10303C0083E09007C9F080027E180232A974016FF8
:10304C007019850C82850D83E0C39405500D850C99
:10305C0082850D83E09007CAF080027E180232A9A7
:10306C0074016F7019850C82850D83E0C394025036
:10307C000D850C82850D83E09007CBF080027E18C5
:10308C000232A974106F7027750810750900780842
:10309C00121F5AAC0CAD0D7ACC7B071212BA74020B
:1030AC00121CED8A088B0985088285098380027EB3
:1030BC00180232A974016F7019850C82850D83E09A
:1030CC00C39402500D850C82850D83E09007DCF0D3
:1030DC0080027E180232A974016F700D850C8285F6
:1030EC000D83E0900DBAF080027E180232A97404B0
:1030FC006F70269083447808121B8F850C82850D87
:10310C0083780812199F5011850C82850D83121B30
:10311C00C59007DE121BD180027E180232A9EF7017
:10312C00211209C0E97013121584E9F508795012BF
:10313C0018A2E9F509121572800A9008717401F051
:10314C0080027E180232A974076F60030231DD75AC
:10315C0008067509007808121F5A850C82850D83A4
:10316C00A3AC82AD837404121D351212C07402120A
:10317C001CED851882851983EAF0A3EBF07C007DA9
:10318C00007402121D35850C82850D83E0F9121531
:10319C0018E9F50AE50AC3940A50321209C0E9701D
:1031AC0015A90A12158AE9F50879501218A2E9F541
:1031BC0009121572801D850A08750900747225089C
:1031CC00F58274083509F5837401F080067E02805F
:1031DC00027E180232A974016F7019850C82850D5C
:1031EC0083E0C39402500D850C82850D83E090071B
:1031FC00DDF080027E180232A974016F7019850C03
:10320C0082850D83E0C3940A500D850C82850D8355
:10321C00E0900DB9F080027E180232A974016F7033
:10322C0025850C82850D83E0C394074019850C829B
:10323C00850D83E0C39411500D850C82850D83E0C0
:10324C00900DBBF080577E18805374016F702290E4
:10325C000870E0F508850C82850D83E0900870F00D
:10326C00E5087039900870E06401703112157280B5
:10327C002C7E188028C3E50E9427E50F9400501B74
:10328C0074026F7016850C82850D83E0FCA3E0FD43
:10329C00AA0EAB0F12085EE9FE80027E02EEF974F4
:1032AC0008121CED7F08021E1974F0121D4774D70A
:1032BC00121CD7E9C0E0851882851983D0E0F07420
:1032CC0001121D23EAF0A3EBF08C0E8D0F908308F6
:1032DC007403121D3D7406121BEA7403121D3D7417
:1032EC0001121D23E0FAA3E0FB851882851983E007
:1032FC00F9121518E9FEEEC3940A4003023442EEAB
:10330C00F9121554E9FF900DB6E0640270047401D3
:10331C0080027400F5087808121F5E743A121D239F
:10332C00E0FDEFFCEEF9AA0EAB0F1215C6740112FC
:10333C001CED7C147D0079007415121D351212D20F
:10334C008A088B0985080A85090B7415121D3D7AAC
:10335C001075F006EEA42424F912189CE9703B7C3D
:10336C001079FF7415121D35121332E9702C742567
:10337C00121D23AC82AD837A0475F006EEA42425CD
:10338C00F912189CE9F5087415121D3DEFA2E0E442
:10339C0033F9AA0EAB0F1208E8E97409121D3D7A35
:1033AC000C74702EF912189CE970797409121D3581
:1033BC00121548750800E508C394045067E508F831
:1033CC007900E875F003A4C8AAF075F000A42AFAF5
:1033DC0075F003E9A42AF97409121D23E58228F576
:1033EC000CE58339F50D850C82850D83E0F8A3E09F
:1033FC00F9E849602B850C82850D83A3A3E0F50ABF
:10340C00750B00780A121F5A850C82850D83E0FC1F
:10341C00A3E0FDAA0EAB0F120B4C7402121CEDE9CB
:10342C0005088092EFA2E1500D9007C8E0F9AA0EB2
:10343C00AB0F120B52E97439121D23E06404700FA8
:10344C00900DB6E064027007AA0EAB0F1215C0798E
:10345C00007429121CED7F08021E1974F2121D470C
:10346C00890B8A088B09ECFEEDFF750A0AE50B60E7
:10347C000B14600814604114605F807CAA08AB09CF
:10348C00121566E9F50AE50AC3940A506BEE4F6013
:10349C0067750C06750D00780C121F5AAC08AD0937
:1034AC00EEFAEFFB1212BA7402121CED8A0C8B0DA1
:1034BC00850C82850D838040AA08AB09121560E942
:1034CC00F50AE50AC3940A502FEE4F602BEEFAEF83
:1034DC00FBA90A12155AE9801FAA08AB0912156C30
:1034EC00E9F50AE50AC3940A500EEE4F600AEEFAAB
:1034FC00EFFBA90A12155AE9A90A7F06021E1974D4
:10350C00F2121D478A0C8B0DE9FF7E1574FF650CBA
:10351C00700474FF650D702A750800E508C3940AE1
:10352C005014EFFC7A027B00A908121536E96002F0
:10353C007E00050880E5EF60627AAE7B15120D50B7
:10354C008059AA0CAB0D120D328A088B0985080A1A
:10355C0085090BE50A450B60407C007D00E50A24DB
:10356C0005FAE4350BFB850A82850B83A3A3A3A381
:10357C00E0F9121518E9F508E508C3940A500EEFA6
:10358C00FC7A027B00A908121536E97E00EF600B6D
:10359C00AA0AAB0B1215AE80027E14EEF97F06025E
:1035AC001E1974F0121D4774FE121CD785188285E3
:1035BC001983EAF0A3EBF08C0A8D0B7412121D2305
:1035CC00E0F50EA3E0F50F7E15851882851983E0D2
:1035DC0064FF7004A3E064FF701D7F00EFC3940AC6
:1035EC00506BAC0EAD0FAA0AAB0BEFF912153CE900
:1035FC0060027E000F80E5851882851983E0FAA3AE
:10360C00E0FB120D328A0C8B0D850C08850D09E53B
:10361C0008450960367C007D00E5082405FAE43590
:10362C0009FB850882850983A3A3A3A3E0F91215DE
:10363C0018E9FFEFC3940A5014AC0EAD0FAA0AABF5
:10364C000BEFF912153CE97E0080027E14EEF97442
:10365C0002121CED7F08021E1974F7121D47EAFEB8
:10366C00EBFF9007E2EEF0A3EFF09007C8E0FC7DD3
:10367C00007A267B0012085EE9F5089007C8E0F98D
:10368C00120AC87F01021E1974F2121D4774EC1243
:10369C001CD78A0A8B0B850A82850B83A3A3E02493
:1036AC00FA7003023AD824FD7003023950147003E7
:1036BC0002378414601024FD70030238F814700370
:1036CC00023993023B46AE0AAF0B9007E2E0F8A337
:1036DC00E0F9E84960669007E2E0F8A3E0F583883A
:1036EC0082E0F8A3E0F9E8496052EE240CF582E49C
:1036FC003FF583E0F5087808121F5EEE240BF58287
:10370C00E43FF583E0F98E828F83A3A3A3A3A3A345
:10371C00A3A3A3E0FCA3E0FDEE2403FAE43FFB909B
:10372C0007E2E0F8A3E0F5838882E0F8A3E0F583F4
:10373C008882121D457401121CED80398E828F8394
:10374C00A3A3A3A3A3A3A3A3A3121F719007DE1289
:10375C001BAD1208FA7402121CEDE9601879018E87
:10376C00828F83A3A3A3A3A3A3A3A3A3E0FAA3E0A1
:10377C00FB1208F4E9023B46AE0AAF0B8E828F8334
:10378C00A3E060030238A68E828F83A3A3A3A3A316
:10379C00E0A2E040030238A690087CE0F8A3E0F930
:1037AC00E84960030238A67C0E7D007900AA18ABAC
:1037BC00191212D28A088B09AA08AB09EE240CF54F
:1037CC0082E43FF583E0F8A3E0F9E8496036750838
:1037DC00067509007808121F5AEE240CF582E43F96
:1037EC00F583E02410FCA3E03400FD7402121D35B7
:1037FC001212BA7402121CED8A088B098508828594
:10380C000983804F8E828F83A3A3A3E0FAA3E0FBEE
:10381C00120D328A0C8B0D850C08850D09E50845B7
:10382C0009602D750C06750D00780C121F5AE508F1
:10383C002405FCE43509FD7402121D351212BA740C
:10384C0002121CED8A0C8B0D850C82850D83800376
:10385C00023B468E828F83A3A3A3A3A3E0A2E250D4
:10386C0004D2F08002C2F0A2F0E433F87900740CB8
:10387C00121D23E048F0A3E049F0EEFCEFFDAA187E
:10388C00AB1912154EE970127A027B009007C8E052
:10389C00F912130EE97900023B489007E2E0F8A315
:1038AC00E0F9E84960439007E2E0F8A3E0F583888B
:1038BC0082A3A3E0F8A3E0F9E849602D8E828F8300
:1038CC00A3E0FC79018E828F83A3A3A3E0FAA3E08B
:1038DC00FB9007E2E0F8A3E0F5838882A3A3E0F86D
:1038EC00A3E0F5838882121D45023B46AE0AAF0B5E
:1038FC009007E2E0F8A3E0F9E84960459007E2E0C0
:10390C00F8A3E0F5838882A3A3E0F8A3E0F9E849E3
:10391C00602F850A82850B83A3E0FC79028E828F4F
:10392C0083A3A3A3E0FAA3E0FB9007E2E0F8A3E0F3
:10393C00F5838882A3A3E0F8A3E0F5838882121DA7
:10394C0045023B46850A08850B097C007D00E5088D
:10395C002404FAE43509FB850882850983A3A3A313
:10396C00E0F9121518E9FEEEC3940A5017E5082485
:10397C000AFCE43509FD7A0475F006EEA42425F959
:10398C00121896E9023B46AE0AAF0B9007DDE060D9
:10399C0018900DB9E0F98E828F83A3A3A3E0FAA34C
:1039AC00E0FB1208F4E9023B46900DB6E070157985
:1039BC00058E828F83A3A3A3E0FAA3E0FB1208F485
:1039CC00E9023B468E828F83A3A3A3E0FAA3E0FB1C
:1039DC00120D328A0C8B0D850C08850D098E828F89
:1039EC0083A3A3A3A3A3A3A3E0A2E05071E508457E
:1039FC00096068850882850983A3A3A3A3E0605EA0
:103A0C008E828F83A3A3A3A3A3A3A3A3A3E0F8A352
:103A1C00E0F9E8C4540FF87900E85401F8E95400CF
:103A2C00F9E8A2E04038740E121D3DE5082405FAB1
:103A3C00E43509FB850882850983A3A3A3A3E0F9D8
:103A4C00121518E9701879038E828F83A3A3A3E053
:103A5C00FAA3E0FB1208F4E9023B46023B46EE24D3
:103A6C0005FCE43FFD850882850983A3A3A3A3E09D
:103A7C00F98E828F83A3A3A3E0FAA3E0FB1215BAFD
:103A8C009007E2E0F8A3E0F9E849603E9007E2E035
:103A9C00F8A3E0F5838882A3A3E0F8A3E0F9E84952
:103AAC0060287C0079008E828F83A3A3A3E0FAA305
:103ABC00E0FB9007E2E0F8A3E0F5838882A3A3E0A3
:103ACC00F8A3E0F5838882121D45806E1209C0E9C7
:103ADC007068900871E06401701A121584E9FE9008
:103AEC0008717400F07C0A7D0079007A727B0812F0
:103AFC0012D2803C7E00EEC3940A50348E087509B5
:103B0C000074722508F58274083509F583E06401A8
:103B1C00701BEEF912158AE9F88E0875090074729B
:103B2C002508F58274083509F5837400F00E80C6FB
:103B3C0079501218A2E9FE12157279017414121C34
:103B4C00ED7F06021E1974F3121D4774F2121CD776
:103B5C008908EAFEEBFF8C09AC18AD197A0E75F0EA
:103B6C0006E508A42420F912189CE970647C0679F7
:103B7C00FFAA18AB19121332E97056740C121D23DC
:103B8C00E0F8A3E0F9E8F50CE5096005EE420C80DD
:103B9C0004EEF4520C850C0A750B00740C121D23E8
:103BAC00E0650A7004A3E0650B6022E50CF879006F
:103BBC00740C121D23E8F0A3E9F0AC18AD197A0EC1
:103BCC0075F006E508A42420F9121896E97901800D
:103BDC00027900740E121CED7F05021E1974F0128E
:103BEC001D4774E6121CD789098A0E8B0FECFEED6B
:103BFC00FF740C121D3D7A0E75F006E509A4242005
:103C0C00F912189CE96003023D197C0679FF740CCB
:103C1C00121D35121332E96003023D19AC18AD19AF
:103C2C007A0C74702509F912189CE96003023D1591
:103C3C00750800AA18AB19121548E50E450F702E21
:103C4C007C0C7900AA18AB19121332E96003023C00
:103C5C00FB7C0C7D007900AA18AB191212D28A0ACF
:103C6C008B0B850A82850B83750801023CFBAC1813
:103C7C00AD19AA0EAB0F1215428A0C8B0D850C0ACE
:103C8C00850D0BE50A450B7030EE4F601BAC18AD83
:103C9C00197A007B001215428A0C8B0DA80CA90D09
:103CAC00880A890BE849700479008063850A82854B
:103CBC000B83E50EF0A3E50FF0850A82850B83A339
:103CCC00A3E0F87900EE687002EF696022EEC0E0C4
:103CDC00850A82850B83A3A3D0E0F0EE4F700D858F
:103CEC000A82850B837400F0A37400F0750801E55B
:103CFC00086016AA18AB19121548AC18AD197A0C35
:103D0C0074702509F9121896E9790180027900740A
:103D1C001A121CED7F08021E1974F7121D47EAFED9
:103D2C00EBFF7B00EBC39404504EEBF87900E87585
:103D3C00F003A4C8AAF075F000A42AFA75F003E900
:103D4C00A42AF9EC28F582ED39F583E06E7003A313
:103D5C00E06F7021EBF87900E875F003A4C8AAF0C5
:103D6C0075F000A42AFA75F003E9A42AF9EC28FAF4
:103D7C00ED39FB80070B80AC7A007B007F01021EC3
:103D8C001974F7121D477F00EFC394044003023EE1
:103D9C003CEFF87900E875F003A4C8ACF075F000BE
:103DAC00A42CFC75F003E9A42CF9EA28F582EB3974
:103DBC00F583E0F4FCA3E0F4FDEFF87900E875F08E
:103DCC0003A4C8AEF075F000A42EFE75F003E9A4B0
:103DDC002EF9EA28F582EB39F583ECF0A3EDF0EF40
:103DEC00F87900E875F003A4C8ACF075F000A42CC9
:103DFC00FC75F003E9A42CF9EA28F582EB39F5837C
:103E0C00A3A3E0F4C0E0EFF87900E875F003A4C8D0
:103E1C00ACF075F000A42CFC75F003E9A42CF9EAC5
:103E2C0028F582EB39F583A3A3D0E0F00F023D9483
:103E3C007F01021E1974F0121D4774F4121CD7EA8C
:103E4C00FEEBFF8C088D0990087CE0F8A3E0F9E804
:103E5C0049702CEE4F6006E50845097005790102A2
:103E6C0040EDEEFAEFFB121566E9900DBCF0900DEB
:103E7C00BCE0C3940A4008121578E9900DBCF09090
:103E8C000DBCE0C3940A40030240EB90087CE0F8C0
:103E9C00A3E0F9E8496003023F37EEFCEFFD7A0E30
:103EAC0075F006900DBCE0A42420F9121896E9F5E3
:103EBC000B7C0C7D0079FFAA18AB191212D28A0C5C
:103ECC008B0D850C0E850D0FAC18AD197A0C900D61
:103EDC00BCE02470F9121896E9F50A750C0E750DF4
:103EEC0000780C121F5AEEFCEFFD900DBCE0F87937
:103EFC0000E875F00EA4C8AAF075F000A42AFA75B3
:103F0C00F00EE9A42AF974E428FA740739FB1212AA
:103F1C00BA7402121CED8A0C8B0DA80CA90D90081A
:103F2C007CE508F0A3E509F00240E790087CE0F896
:103F3C00A3E0C82406F582C83400F583E0F8A3E0BA
:103F4C00F9E849604390087CE0F8A3E0C82406F542
:103F5C0082C83400F583E0FCA3E0FD7A1B75F00603
:103F6C00900DBCE0A42421F9121896E9F890087C75
:103F7C00E0F9A3E0C92406F582C93400F583740086
:103F8C00F0A37400F00240E790087CE0F8A3E0C8CE
:103F9C00240AF582C83400F583E0F8A3E0F9E84977
:103FAC00604390087CE0F8A3E0C8240AF582C8348A
:103FBC0000F583E0FCA3E0FD7A1B75F006900DBCC8
:103FCC00E0A42422F9121896E9F890087CE0F9A3F1
:103FDC00E0C9240AF582C93400F5837400F0A37497
:103FEC0000F00240E790087CE0F8A3E0C8240CF550
:103FFC0082C83400F583E0F8A3E0F9E84960439007
:10400C00087CE0F8A3E0C8240CF582C83400F583E2
:10401C00E0FCA3E0FD7A1075F006900DBCE0A42442
:10402C0023F9121896E9F890087CE0F9A3E0C9246A
:10403C000CF582C93400F5837400F0A37400F0020F
:10404C0040E790087CE0F8A3E0C82408F582C83467
:10405C0000F583E0F8A3E0F9E849606F90087CE094
:10406C00F8A3E0C82408F582C83400F583E0FCA36B
:10407C00E0FD7A1075F006900DBCE0A42424F91232
:10408C001896E9F50A90087CE0F8A3E0C82408F536
:10409C0082C83400F583E02410FCA3E03400FD7AE0
:1040AC000475F006900DBCE0A42425F9121896E9CD
:1040BC00F890087CE0F9A3E0C92408F582C9340023
:1040CC00F5837400F0A37400F08010900870E06029
:1040DC00031215CC1215B47901800679008002798F
:1040EC0001740C121CED7F08021E1974F7121D4787
:1040FC0074F2121CD7E9FEAC18AD197A0E75F006E5
:10410C00EEA42420F912189CE9700E740C121D23D5
:10411C00E0F8A3E0F9E8F980027900740E121CEDC6
:10412C007F01021E1974F4121D4774F2121CD789F8
:10413C0009EAFEEBFFE509C3940A5004EE4F700444
:10414C0079028041AC18AD197A0E75F006E509A418
:10415C002420F912189CE9F508E5087026750A0662
:10416C00750B00780A121F5A7402121D3DEEFAEFFD
:10417C00FB1212BA7402121CED8A0A8B0B850A828E
:10418C00850B83A908740E121CED7F04021E197492
:10419C00F4121D47EAFEEBFF750800E508C3940A0C
:1041AC005044750A06750B00780A121F5AEEFCEF84
:1041BC00FDE508F87900E875F00EA4C8AAF075F0D2
:1041CC0000A42AFA75F00EE9A42AF974EA28FA7404
:1041DC000739FB1212CC7402121CEDE96004A90819
:1041EC008006050880B5790A7F04021E1974F41242
:1041FC001D47EAFEEBFF750800E508C3940A50441E
:10420C00750A06750B00780A121F5AEEFCEFFDE5D5
:10421C0008F87900E875F00EA4C8AAF075F000A4AF
:10422C002AFA75F00EE9A42AF974E428FA7407390D
:10423C00FB1212CC7402121CEDE96004A908800672
:10424C00050880B5790A7F04021E1974F7121D4700
:10425C0074F0121CD7EAFEEBFF750800E508C39456
:10426C000A5039AC18AD197A1075F006E508A4247B
:10427C0023F912189CE970207C1079FFAA18AB194D
:10428C00121332E97012EEFCEFFDAA18AB191208EA
:10429C00CAE97004A9088006050880C0790A741060
:1042AC00121CED7F01021E1974F4121D47750800D3
:1042BC00E508C3940A4003024392E508F87900E844
:1042CC0075F00EA4C8AAF075F000A42AFA75F00EC9
:1042DC00E9A42AF974E428FC740739FD7A0E75F008
:1042EC0006E508A42420F912189CE9700302438DFA
:1042FC007C067D0079FFE508FA7B00EA75F00EA4D8
:10430C00CAA8F075F000A428F875F00EEBA428FBF1
:10431C0074E42AFA74073BFB1212D28A0A8B0BAE96
:10432C000AAF0B7C067D0079FFE508FA7B00EA7585
:10433C00F00EA4CAA8F075F000A428F875F00EEBE6
:10434C00A428FB74EA2AFA74073BFB1212D28A0ADD
:10435C008B0BAC0AAD0BE508F87900E875F00EA4F0
:10436C00C8AAF075F000A42AFA75F00EE9A42AF98F
:10437C0074F028F582740739F5837400F0A3740087
:10438C00F005080242BC900870E060031215CC12D4
:10439C0015B47F04021E1974F7121D477E00EEC37C
:1043AC00940A50327C0679FFEEFA7B00EA75F00E27
:1043BC00A4CAA8F075F000A428F875F00EEBA42898
:1043CC00FB74E42AFA74073BFB121332E96004EE27
:1043DC00F980050E80C8790A7F01021E1974F71244
:1043EC001D477E007F00EFC3940A502F7C0679FF97
:1043FC00EFFA7B00EA75F00EA4CAA8F075F000A4E1
:10440C0028F875F00EEBA428FB74E42AFA74073B29
:10441C00FB121332E970010E0F80CBEEF97F010213
:10442C001E1974F7121D477E007F00EFC3940A50CB
:10443C000DEE700AEFF912158AE9FE0F80EDEEF918
:10444C007F01021E1974F0121D4774C9121CD7E9A2
:10445C00FE900DBCE06E701D7A017B009007C8E0E9
:10446C00F9121314E97A027B009007C8E0F91213D1
:10447C0014E91215D87429121D3D7A0E75F006EE4A
:10448C00A42420F912189CE960030245857C067966
:10449C00FF7429121D35121332E960030245857C25
:1044AC000E7D0079FF7429121D351212D2851882E7
:1044BC00851983EAF0A3EBF07C1B7D0079FF740E69
:1044CC00121D351212D28A0A8B0B850A0E850B0F20
:1044DC007C0C7D0079FF7402121D351212D28A0CED
:1044EC008B0D850C0A850D0B7429121D3D7A0E75EA
:1044FC00F006EEA42420F9121896E9F508740E12B1
:10450C001D3D7A1B75F006EEA42421F9121896E9CC
:10451C004208740E121D3D7A1B75F006EEA424227F
:10452C00F9121896E94208740E121D3D7A1075F0B6
:10453C0006EEA42423F9121896E94208740E121DF3
:10454C003D7A1075F006EEA42424F9121896E9426F
:10455C0008740E121D3D7A0475F006EEA42425F99C
:10456C00121896E942087402121D3D7A0C74702ED2
:10457C00F9121896E942088003750800A9087437E7
:10458C00121CED7F08021E1974F7121D47E9FEEE8E
:10459C009007C8F01215727F01021E1974F2121DD9
:1045AC0047890AEAFEEBFFEE5400F8EF5480F9E875
:1045BC004960359007C8E0F91212F68A0C8B0DA8E9
:1045CC000CA90D88088909E8496012AA08AB0912E0
:1045DC00159CE96008AA08AB091212E4E9EE640024
:1045EC00FAEF6480FB0246ACEE5402602D7C007D39
:1045FC00007A007B0012154EE960187A017B00905E
:10460C0007C8E0F912130EE9EE6402FAEF6400FB3E
:10461C000246AC7A027B000246ACEEA2E0507D90E2
:10462C00087CE0F8A3E0F5838882A3A3A3E0FAA3B7
:10463C00E0FB1215D2E9605E9007E2E0F8A3E0F926
:10464C00E84960459007E2E0F8A3E0F5838882A38F
:10465C00A3E0F8A3E0F9E849602F7C007901900809
:10466C007CE0F8A3E0F5838882A3A3A3E0FAA3E09F
:10467C00FB9007E2E0F8A3E0F5838882A3A3E0F8BF
:10468C00A3E0F5838882121D451215D8EE6401FA59
:10469C00EF6400FB800A7A017B0080047A007B00C7
:1046AC007F06021E1974F7121D47EAFEEBFF750810
:1046BC00018E828F83E02450601314601924E17002
:1046CC001CEEFAEFFB121530E9F5088010EEFAEF4C
:1046DC00FB1215A28007EEFAEFFB1215A8A9087FB2
:1046EC0001021E1974F7121D47EAFEEBFF8E828F32
:1046FC0083A3A3A3A3E0641E701179008E828F8321
:10470C00A3A3E0FAA3E0FB12151EE97F01021E1918
:10471C0074F6121D478A088B09850882850983A3C4
:10472C00A3A3A3E07034AE08AF098E828F83A3A33A
:10473C00A3A3A3A3A3121F718E828F83A3A3A3A3EE
:10474C00A3E0FCA3E0FD8E828F83A3A3E0FAA3E099
:10475C00FB1215247402121CEDE97F02021E19745F
:10476C00F7121D47EAFEEBFF9007C8E0F98E828F27
:10477C0083A3E0FAA3E0FB120B52E97F01021E199E
:10478C00C082C08374FF121CD712157EE9C3940239
:10479C00400B8518828519837402F0800985188274
:1047AC00851983740AF0AC18AD197A0179051209D0
:1047BC00D8E97401121CEDD083D08202013274F25C
:1047CC00121D4774E8121CD78A088B09E9FE8C0A63
:1047DC008D0B7C187D007900AA18AB191212D28AA5
:1047EC000C8B0DAC0CAD0D851882851983E508F08A
:1047FC00A3E509F09007CAE0C0E07402121D23D0B3
:10480C00E0F09007CBE0C0E07403121D23D0E0F081
:10481C00900DBBE0C0E07417121D23D0E0F07415AE
:10482C00121D23E054FEF8A3E054FFF9900DBAE0FA
:10483C00A2E0E433FA7B00E84AF8E94BF97415126C
:10484C001D23E8F0A3E9F0900DBAE0A2E15004D2E8
:10485C00F08002C2F07415121D23E054FDFAA3E09F
:10486C0054FFFBA2F0E433F87900E828F8E933F9B7
:10487C00EA48F8EB49F97415121D23E8F0A3E9F0A6
:10488C00900DBAE0A2E35004D2F08002C2F074158D
:10489C00121D23E054F7FAA3E054FFFBA2F0E4331B
:1048AC00F50C750D007403780C121CC4EA450CF859
:1048BC00EB450DF97415121D23E8F0A3E9F0900DEA
:1048CC00BAE0A2E45004D2F08002C2F07415121DBA
:1048DC0023E054EFFAA3E054FFFBA2F0E433F50C11
:1048EC00750D007404780C121CC4EA450CF8EB45E9
:1048FC000DF97415121D23E8F0A3E9F0900DBAE040
:10490C00A2E55004D2F08002C2F07415121D23E00F
:10491C0054DFFAA3E054FFFBA2F0E433F50C750D61
:10492C00007405780C121CC4EA450CF8EB450DF923
:10493C007415121D23E8F0A3E9F0900DBAE0A2E281
:10494C005004D2F08002C2F07415121D23E054FB07
:10495C00FAA3E054FFFBA2F0E433F50C750D0074E0
:10496C0002780C121CC4EA450CF8EB450DF97415D1
:10497C00121D23E8F0A3E9F09007CBE0602A750C38
:10498C0010750D00780C121F5A7CCC7D0774061222
:10499C001D23AA82AB831212BA7402121CED8A0C6C
:1049AC008B0D850C82850D839007DCE06011EE6029
:1049BC000E7415121D23E04402F0A3E04400F090A5
:1049CC0007DCE060067801790080047800790074D7
:1049DC0014121D23E048F09007C9E06006780479B2
:1049EC00008004780079007414121D23E048F0ACA8
:1049FC000AAD0BAA18AB191208EEE97418121CEDCB
:104A0C007F06021E1974F7121D47EAFEEBFF7508AC
:104A1C00009007DCE060067801790080047800796A
:104A2C0000E842089007C9E0600678047900800429
:104A3C0078007900E84208A908EEFAEFFB1209A801
:104A4C00E97F01021E1974F2121D4774E3121CD780
:104A5C008A0C8B0DE9FF8C0A8D09742B121D23E037
:104A6C00F50874086509700A75F006EFA42422FE97
:104A7C00800875F006EFA42421FE7C1B7D007900D4
:104A8C007402121D351212D2851882851983EAF030
:104A9C00A3EBF07402121D3D7A1BEEF912189CE97F
:104AAC007038741C121D23E0C39407402D741C1223
:104ABC001D23E0C394115022E508F50B780B121F4F
:104ACC005E7403121D3DE50AA2E0E433F9AA0CABB7
:104ADC000D1209007401121CEDE9741D121CED7FFE
:104AEC0006021E1974F7121D47120BCAE97E00EE5E
:104AFC00C3940A50557C0679FFEEFA7B00EA75F0F8
:104B0C000EA4CAA8F075F000A428F875F00EEBA45A
:104B1C0028FB74E42AFA74073BFB121332E9702762
:104B2C00EEF87900E875F00EA4C8AAF075F000A4B0
:104B3C002AFA75F00EE9A42AF974E428FA740739F4
:104B4C00FB7900120BD0E90E80A57F01021E1974AF
:104B5C00F6121D4774FD121CD7EAFEEBFF90087E7F
:104B6C00E0F8A3E0F9E84970397508807509087810
:104B7C0008121F5A7508027509007808121F5A7519
:104B8C0008C27509837808121F5A7CFF7DFF7A01D1
:104B9C007B00120A1A7406121CED90087EEAF0A330
:104BAC00EBF090087EE0F8A3E0F9E8497003024CC2
:104BBC0078E4F508F5097808121F5A7404121D2DB3
:104BCC00880889097808121F5A7404121D2D880848
:104BDC0089097808121F5A900880121F7179029067
:104BEC00087EE0FCA3E0FDEEFAEFFB120B4074082C
:104BFC00121CEDE9704A851882851983E0FA7B0056
:104C0C007401121D23E0F87900E4C8F9EA28F508CC
:104C1C00EB39F509E508450960267808121F5A900A
:104C2C00087EE0F8A3E0F5838882A3A3A3A3E0FCAD
:104C3C00A3E0FDEEFAEFFB1215247402121CEDE951
:104C4C00E4F508F5097808121F5A900880121F71B4
:104C5C007CFF7DFF90087EE0FAA3E0FB120A26742D
:104C6C0004121CED90087EEAF0A3EBF090087EE0B5
:104C7C00F8A3E0F9E8497004790180027900740323
:104C8C00121CED7F02021E19C082C08390087CE0CA
:104C9C00F8A3E0F9E849601790087CE0FAA3E0FB80
:104CAC001212E4E9F890087C7400F0A37400F09000
:104CBC000DBC740AF0D083D082020132C082C08352
:104CCC00E9900AC3F0024F5774F7121D47E990029E
:104CDC00E1F07C197D037AFF7BFF120B589002E206
:104CEC0074FFF0A3F0A3E4F0A3F07905120AE090AE
:104CFC0002E1E0F9120A027A767B0B120D207F0199
:104D0C00021E1974F4121D478A088B09EB5480603B
:104D1C00309002E1E0F91212F68A0A8B0BAE0AAF60
:104D2C000BEE4F60138E828F83E064B07003120A17
:104D3C00F8EEFAEFFB1212E4AA08E5096480FB8096
:104D4C00047A007B00024F2674F2121D4774FC1289
:104D5C001CD7EAFEEBFFEE4F60387402121D23EEF7
:104D6C00F0A3EF12518BECF0A3ED12518BAA82AB96
:104D7C00831209FCE9F50870737412121D23125D7D
:104D8C003FE50A450B60658E828F83124E02EE4F13
:104D9C00700575080280557A067B001213508A0C38
:104DAC008B0DA80CA90DE8497005750813803D887A
:104DBC00828983E4124E0CA3A3EEF0A3EF1261D808
:104DCC00E50AF0A3E50BF09002E7124E949002E78F
:104DDC006017E0FCA3E08003EAFCEBFD8C828D8382
:104DEC00124E9470F38C828D83125C64A908740447
:104DFC00121CED0263DAA3A3A3A3E0FEA3E0FF223F
:104E0C00F0A3F0888289832274F2121D47890AE983
:104E1C0075F017A4FEAFF09002E6E4F09002E412F5
:104E2C004E94600A1213569002E4E4F0A3F0EEFAEA
:104E3C00EFFB1213508A088B09EA4509602FEEFC30
:104E4C00EFFD79001212D29002E4E508F0A3E50917
:104E5C00F07B008008124E7EE4F0A3F00BEBC395C0
:104E6C000A40F2E50A9002E6F0790080027913021A
:104E7C0063DAEB75F017A4F8A9F09002E4E028FAD5
:104E8C00A3E0398A82F583221259FAEA4B2274F490
:104E9C00121D47750800750900740C121D23126150
:104EAC00ACFEE9FF800CE5082401F508E5093400A7
:104EBC00F509C3E5089CE5099D503285080A85096A
:104ECC000B7403780A121CC4EA250AF8EB350BF9AB
:104EDC0088828983A3A3A3A3A3A3125D3FEE650AD3
:104EEC007003EF650B70BFE8FAE9FB80047A007B76
:104EFC0000802774F4121D477900EAA2E0501B755C
:104F0C0008E47509827808121F5A7C047D007AC562
:104F1C007B0A120ADA7402121CED7F04021E19C0FD
:104F2C0082C0839002E7124F5E601C88828983A343
:104F3C00A3E06A7003A3E06B8882898370E8A3A363
:104F4C00A3A31259F680047A007B00D083D082028E
:104F5C0001321264ADE8492274EE121D4774FC1242
:104F6C001CD7EAFEEBFF851882851983E4F0A3F0C9
:104F7C00EE2402125C48EE2405125179EE2404F55D
:104F8C000EEF12555EE024FE603924FC604624FED0
:104F9C00605224FE605E24FE700302507E24FE707C
:104FAC00030250F624FE700302510524FE70030226
:104FBC00511424FC700302512324FE70030251325D
:104FCC0002516F9003007417F0A3E412519312076F
:104FDC007A02516F851882851983AC82AD83120ACF
:104FEC00FE02513F851882851983AC82AD83120B6A
:104FFC000402513F850C08850D097402121D23AC67
:10500C0082AD838508828509831259F6120A208A9B
:10501C000C8B0DAC0CAD0DEC4D6042E4F50CF50DAC
:10502C00780C121F5A750C00750D03780C121F5A50
:10503C00750C01750D03780C121F5A7408121D2380
:10504C00121F7179161259F0120B407408121CEDD4
:10505C00E9F50C700B1259EC120792800F750C01CC
:10506C00850882850983125181125C64850C0802C3
:10507C0051427402121D23AC82AD83850C82850DC6
:10508C00831259F6120A208A108B11AC10AD11EC58
:10509C004D6043850C82850D83A3A3121F7175107F
:1050AC00007511037810121F5A75100175110378D1
:1050BC0010121F5A7408121D23121F7179161259DF
:1050CC00F0120B407408121CEDE9F509700B125923
:1050DC00EC120798800F750901850C82850D8312DF
:1050EC005181125C64850908804C8518828519836E
:1050FC00AC82AD83120B0A803A851882851983AC79
:10510C0082AD83120B10802B851882851983AC829B
:10511C00AD83120B16801C851882851983AC82AD69
:10512C0083120B1C800D851882851983AC82AD838C
:10513C00120B22E9F508E50860298E828F83A3E023
:10514C006414601F850E82850F83E090030012515A
:10515C008B1264A9900301125C64E508A3125193AD
:10516C00120774EEFAEFFB120A9E025B50F50CEF7D
:10517C003400F50D221264AD85188285198322F056
:10518C0085188285198322F07C007D03850A82852F
:10519C000B831259FA2274EE121D4774FC121CD7A1
:1051AC008A0A8B0B8C0E8D0FEA2405F508EB340064
:1051BC00F5097C157D0079007A007B031212D2E58B
:1051CC00082402F50CE50912517C85188285198397
:1051DC008582108583117810121F5A8508828509E3
:1051EC0083A3A3A3A31256A6121F5AE5082405F500
:1051FC0010E5093400F5117810121F5A850C8285C0
:10520C000D83125A00120A1A7406121CED8A108BA6
:10521C0011AE10AF11E50A2402F50AE50B125C4B36
:10522C00EE4F700302536880177402121D2312593B
:10523C00F688828983EAF0A3EBF0900300E004F097
:10524C00900300E0C394054003025368E4F510F5A5
:10525C00117810121F5A7510E97511027810121F6F
:10526C005A7510EA7511027810121F5A7406121D25
:10527C0023121F717910EEFCEFFD1259F0120B4046
:10528C007408121CEDE9705E850882850983A3A35E
:10529C00A3A3A3A3A3E0F89002E9E0687048125618
:1052AC00A6121F5A7CEA7D02E5082408FAE50934A7
:1052BC0000FB1212CC7402121CEDE960298E828F55
:1052CC0083A3A3A3A31259F6900300E0F510740274
:1052DC007810121CC474012510F58274033511F575
:1052EC0083EAF0A3EBF07402121D238582108583F0
:1052FC00117810121F5A7402121D23121F71850C83
:10530C0082850D831264BE120A267404121CED8A67
:10531C00108B11AE10AF11900300E0F51075110059
:10532C0074027810121CC474002510F87403351123
:10533C00F988828983A3124E94700302522CE824BC
:10534C0003F8E93400F9EE4F600302523588828984
:10535C008374FFF0A3F0900300E004F0900300E0EE
:10536C00600A1259EC1207867900800B8508828539
:10537C000983125C5B790A025B5074EA121D477454
:10538C00FE121CD78C128D13EA2405F50CEB126659
:10539C0028124E06750800750900EA2402F510EB78
:1053AC003400F51185188285198385820A85830B53
:1053BC00780A121F5A850C82850D83A3A3A3A3120E
:1053CC005568121F5AE50C2405F50AE50D125C4BC5
:1053DC00780A121F5A850C82850D831264BC120A3E
:1053EC001A7406121CED8A0A8B0BEA450B70030229
:1053FC005519EA2404F50EEB12555E124E068A82FC
:10540C008B83A3A3A3E0F98510828511831259F62F
:10541C00120A08E9F5096003025519E4F514F515AB
:10542C007814121F5A7514E97515027814121F5A44
:10543C007514EA7515027814121F5A7406121D237E
:10544C00121F717913AC0AAD0B8510828511831272
:10545C0059F6120B407408121CEDE9F509600302B1
:10546C0055199002E9E0F8E5087009E02402900370
:10547C0001F08017900301E0FCE82402FAE4340008
:10548C00FBEA6C7001EB600302551D850882AA8251
:10549C0012569D94141256955073850E82850F8367
:1054AC00E0C0E074022A125555D0E0F00508850ED4
:1054BC0082850F83A3E0C0E085080A7402250A12D6
:1054CC005555D0E0F005089002E9125568121F5AA4
:1054DC007CEA7D0285080A7402250AFA74033400FA
:1054EC00FB1212BA7402121CED9002E9E02508F5C9
:1054FC000874FF6E700374FF6F6012EE24010EEFE0
:10550C003400FFE508C3941450030253B0E508605F
:10551C00131258E18510828511831259F612078CEB
:10552C0079008014E509700375090A8512828513C8
:10553C0083EEF0A3EFF0A9097402121CED7F0E02AA
:10554C001E1985080C7402250CF58274033400F5C1
:10555C0083223400F50F850E82F583221261EB2233
:10556C0074EE121D4774FE121CD78C0E8D0FEA249C
:10557C0005F50CEB12517C750B00900300E4F0F573
:10558C000AEA2402F508EB3400F50980499003007F
:10559C00E0FA9002E9E0F812569D941712569540E5
:1055AC000D900300E0F87416C3989002E9F01256BF
:1055BC00A6121F5A7CEA7D0274012AFA7403340085
:1055CC00FB1212BA7402121CED9002E9E0F890037F
:1055DC0000E028F0050AE50C2416F582E50D1255BD
:1055EC0059E0F8E50AC398400302567E900300E0A8
:1055FC00C39416507DE50AC333F8E433F9E50C285F
:10560C00FEE50D39FF851882851983AC82AD838E3A
:10561C00828F831259F6120A208A108B11AC10ADAE
:10562C0011EC4D7005750B018043E4F510F5117804
:10563C0010121F5A7510E97511027810121F5A7545
:10564C0010EA7511027810121F5A7406121D2312DB
:10565C001F7179168508828509831259F6120B4041
:10566C007408121CEDE9F50B7003025599125C5786
:10567C0080107C007D038508828509831259F612FF
:10568C00079EA90B7402025B52E99400C365D033E8
:10569C0022EA28F8E43400F9E822E0F5107511004C
:1056AC0078102274EA121D4774FC121CD78A0C8BDA
:1056BC000D8C128D13EA2405F50AEB125C4B750860
:1056CC0000750900E50A2402F510E50B3400F5110C
:1056DC007402121D2385820E85830F780E121F5AB9
:1056EC00850A82850B83A3A3A3A3126197121F5A69
:1056FC00E50A2405F50EE50B3400F50F780E121FA4
:10570C005A851082851183125C511259F0120A1AB3
:10571C007406121CED8A0E8B0FAE0EAF0FE50C2427
:10572C0002F50EE50D3400F50F80408882898374F4
:10573C00FFF0050812554E74FFF005089002E9E0E1
:10574C00F50C750D00780C121F5A7CEA7D02850849
:10575C000C7402250CFA74033400FB1212BA740296
:10576C00121CED9002E9E02508F508EE4F60718EF1
:10577C00828F83A3A3A3E0F9850E82850F83125930
:10578C00F6120A08E9F509EE2404125179E970447D
:10579C00E4F514F5157814121F5A7514E9751502F1
:1057AC007814121F5A7514EA7515027814121F5AC0
:1057BC007408121D23121F717911EEFCEFFD850E7A
:1057CC0082850F831259F6120B407408121CEDE9F6
:1057DC00F5096027850C82850D831258D7125C64FD
:1057EC00E50870030258BD1258E1850E82850F83BF
:1057FC001259F61207A479000258D2850882AA829F
:10580C00EA9002E97009E02404900301F08022E0A0
:10581C00F8900301E0F514E82404FCE43400FDECFA
:10582C0065147001ED70C012569D9412125695506D
:10583C00B6850C82850D83E0C0E074022A125555A2
:10584C00D0E0F00508850C82850D83A3E0C0E01242
:10585C00554ED0E01258F385820C85830D780C12CE
:10586C001F5A7404121D23121F7185108285118317
:10587C001264BE120A267404121CED8A0C8B0DAE37
:10588C000CAF0D85080C7402250CF874033400F968
:10589C00EE4F7003025737851882851983E0888292
:1058AC0089831258F3A3E0C0E012554ED0E00257A2
:1058BC0045E509700375090A850A82850B83125820
:1058CC00D7125C64A90974040255461264AD8512A2
:1058DC008285138322900301E0F5F0E508849003A0
:1058EC0000F07C007D0322F0050885188285198361
:1058FC002274EC121D4774FE121CD78A088B098C7B
:10590C000E8D0FEA2405FEEB3400FF8518828519F5
:10591C0083AC82AD838E828F831259F6120A208A51
:10592C000A8B0BEE2418125179EA450B70030259BD
:10593C00C7125B3950328518828519831259F612B9
:10594C000B348A108B11EA4511606B7912AC0AADDD
:10595C000B8508828509831259F68510828511837F
:10596C00121D45E9F50A7058E4F50AF50B780A1290
:10597C001F5A8E828F83A3A3E0F50A780A121F5A4E
:10598C00EE2403125C48780A121F5A8E828F8312FF
:10599C005A00120B467406121CEDE9F50A702185AB
:1059AC000C82850D83E0701F85088285098312594E
:1059BC00F61207AA8011750A0E8009750A01800477
:1059CC00E50A6003125C57850C82850D83E0600448
:1059DC0079008002A90A7402121CED7F0C021E19B8
:1059EC007C007D03850A82850B831259FA22E0FA2A
:1059FC00A3E0FB22E0FCA3E0FD850882850983126D
:105A0C0059FA2274EE121D4774FE121CD78A088BA9
:105A1C00098C0C8D0DEA2405FEEB3400FF750E008D
:105A2C00851882851983AC82AD838E828F8312593F
:105A3C00F6120A208A0A8B0BEA450B7003025B25CF
:105A4C00125B3950358518828519831259F6120B61
:105A5C00348A0E8B0FEA450F605E7912AC0AAD0BDF
:105A6C008508828509831259F6850E82850F83126B
:105A7C001D45E9F50E6003025B28850882850983C4
:105A8C00125D3FAA0AFB120B288A108B11A810A9D1
:105A9C0011E849701E7AFF7BFF120B288A108B11BC
:105AAC00A810A911E849606C88828983E50AF0A3E3
:105ABC00E50BF0750A008007750E0E805F050A90E5
:105ACC0002E6E0FAE50AC39A504AE50A75F017A413
:105ADC00FAABF088828983A3A3E02AFAA3E03BFB0C
:105AEC008A828B83125C51EC4D70D2750A17750B40
:105AFC0000780A121F5AEEFCEFFD1212BA74021251
:105B0C001CEDEEFCEFFD8508828509831259F61217
:105B1C0007B08014750E098003750E011264A585FB
:105B2C000C82850D83125C64A90E025690E5082444
