:020000040000FA
:0600000002011A0227D3E1
:03002B00022F8819
:03003300022F6039
:030053000228463A
:03006B00022F075A
:03007B00022F2F22
:1000830002263FE5C754F84401F5C7790122000071
:100093000080FB120086B90003020104E479217891
:1000A30008B800028004F709D8FCE479297802B87B
:1000B30000028004F709D8FCE49002817893790860
:1000C3008002F0A3D8FCD9FA781A90014A7A01BACF
:1000D30000028007E493A3F608DAF97A137B0A9007
:1000E300014B782A79078015E493A3AD82AE838A06
:1000F300828B83F0A3AA82AB838D828E83D8E9D9C6
:10010300E7758290758390740412012C7582917542
:100113008300740012012C75D00075813F7518811E
:10012300751902759F00020096C09FF59FE473D076
:100133009F22D083D082C09FE493C0E0740193C018
:10014300E0740293F59F2201FF0000B40000280031
:100153002800283075A000A000A000A0000008001F
:1001630008E001F000100010001000100010001053
:100173000050005000500010001000D00700000095
:100183000000000F0001000500307507001000019A
:100193000081FF00000000FF720990097809FF0247
:1001A300020208025000A0000000E80302EA8301F3
:1001B3000000A18302C4830100006A0A02BC830118
:1001C3000000B30202C4830100006B0A02C2830170
:1001D3000000C90202C4830100006C0A02C8830143
:1001E3000000CB0202C4830100006D0A02CE830823
:1001F3000000CC0202C4830100006E0A02DA83010C
:1002030000006F0AFF0100FF2002EA83010000A73C
:100213008302C483010000D30A02DC8300000000D0
:100223000002BE830300001903480F480F480F481C
:100233000F480F480F480F480F480F480F480F4803
:100243000F480FDC11F411D611FFFF0A0953656E35
:10025300736F72546167051250002003020A000293
:100263000105544920424C452053656E736F72203B
:1002730054616700D007E803E803E803E803FE13CB
:1002830000003A14401446144C14521458145E14CB
:1002930064146A1412416363656C2E2044617461B3
:1002A300000A416363656C2E20436F6E662E000A5D
:1002B3000A416363656C2E20506572696F640002A6
:1002C300EA83010000B98302C4830100005F0B10BD
:1002D30005820100008B0702BE830300008E070224
:1002E300C083010000600B02C4830100006C0B108B
:1002F3001582030000940702C0830100006D0B0206
:10030300C4830100007A0B1025820300007B0B02DB
:10031300C0830100007C0B124261726F6D2E20447A
:10032300617461000A4261726F6D2E20436F6E66C5
:100333002E00024261726F6D2E2043616C696272FE
:100343002E000A0A4261726F6D2E20506572696F2A
:10035300640002EA830100009B8302C4830100005E
:10036300E20B106582010000970702BE83030000C1
:100373009B0702C083010000E30B02C4830100005A
:10038300EF0B107582030000A10702C08301000078
:10039300F00B02C4830100000D0C109582030000D2
:1003A3000E0C02C0830100000F0C02C48301000085
:1003B300FD0B108582010000A20702BE830300002B
:1003C300B20702C083010000FE0B12436F6E6E2E54
:1003D30020506172616D730008436F6E6E2E205062
:1003E3006172616D73205265710008446973636FB4
:1003F3006E6E656374205265710002EA830100002A
:100403009E8302C483010000950C10B58101000096
:10041300BA0702BE83030000C00702C083010000C5
:10042300960C02C483010000A30C10658102000036
:10043300C60702C083010000A40C02C483010000AC
:10044300B50C105581020000CE0702C083010000E5
:10045300B60C020202020202020202010D000000B7
:10046300100102EA83010000B38302C48301000088
:100473001D0D02E483010000CF0702C483010000C5
:100483001E0D02E283010000258302C483010000E4
:100493001F0D02D0830100002A8302C483010000E0
:1004A300210D02D283010000818002C48301000078
:1004B300220D02D4830100002F8302C483010000B4
:1004C300200D02DE83010000208302C483010000AB
:1004D300230D02E083010000938002C48301000026
:1004E300240D02E883010000B58202C483010000E9
:1004F300250D02EC83010000260D01E803053F10E2
:100503000A124779726F2044617461000A47797255
:100513006F20436F6E662E000A0A4779726F205070
:100523006572696F640002EA83010000988302C464
:1005330083010000CC0D10B580010000930802BEBA
:1005430083030000990802C083010000CD0D02C49B
:1005530083010000D70D10D5800300009F0802C05F
:1005630083010000D80D02C483010000E30D1005D0
:1005730081030000E40D02C083010000E50D038048
:10058300000080700061801254656D702E204461FC
:100593007461000A54656D702E20436F6E662E00E1
:1005A3000A1E54656D702E20506572696F640002D7
:1005B300EA83010000B68302C483010000520E10D7
:1005C300E581010000230902BE830300002F090215
:1005D300C083010000530E02C4830100005E0E10AD
:1005E300D581030000350902C0830100005F0E02BC
:1005F300C4830100006B0E10C5810300006C0E0262
:10060300C0830100006D0E124D61676E2E204461A0
:100613007461000A4D61676E2E20436F6E662E0073
:100623000A0A4D61676E2E20506572696F6400027D
:10063300EA83010000B08302C483010000D20E10DC
:100643009581010000390902BE830300003F0902BE
:10065300C083010000D30E02C483010000DE0E102C
:100663008581030000450902C083010000DF0E02FB
:10067300C483010000EB0E107581030000EC0E0231
:10068300C083010000ED0EFF000130750302010677
:100693000000000000000000000000000000000057
:1006A300000000000000000000000000FFFF060043
:1006B300800CE803104B65792050726573732053E7
:1006C300746174650002EA83010000AD8302C48390
:1006D3000100007F0F02D883000000F50902BE83EA
:1006E300030000F60902C083010000800F02546575
:1006F30073742044617461000A5465737420436FFA
:100703006E6669670002EA83010000A48302C48362
:10071300010000B80F104581030000FE0902C083E9
:10072300010000B90F02C483010000C30F10A580AC
:10073300030000060A02C083010000C40F125469BB
:100743006D652E20446174610002EA83010000AAF2
:100753008302C483010000081010258101000009F1
:100763000A02BE830300000D0A02C08301000009D0
:100773001012013511FD0312013528FD0312013555
:1007830059FD0312013594FD03120135BEFD031219
:100793000135E8FD03120135FFFD0312013516FE95
:1007A300031201352DFE0312013556FE03120135E6
:1007B30069FE031201357FFE0312013592FE031217
:1007C3000135B9FE0312013576DE021201357ADFF7
:1007D30002120135B2DF02120135D5DF02120135F3
:1007E300E0DF0212013503E00212013512E10212C9
:1007F3000135E7E10212013562E202120135EAE254
:100803000212013525E3021201355CE302120135C0
:10081300EAE302120135C3E40212013523E50212B1
:1008230001352EE502120135ADE502120135B0E5C1
:1008330002120135B3E50212013542E60212013517
:1008430045E60212013575E6021201359FE60212F2
:1008530001358DE7021201353FE802120135A1AAE5
:1008630003120135C9AA03120135F7AA0312013590
:100873002EAB031201358CAB03120135D7AB031238
:10088300013522AC0312013562AC03120135A8AC69
:1008930003120135D6AC0312013593AD03120135B2
:1008A3009DAD03120135AAAD03120135DDAD03126F
:1008B3000135A9AE03120135B5AE03120135CDAE34
:1008C30003120135D7AE03120135FC8C0412013536
:1008D3000A8D04120135228D041201353A8D04125A
:1008E3000135008002120135AC80021201352781E7
:1008F3000212013548820212013584820212013547
:100903002D830212013514840212013578850212F7
:100913000135CF8502120135508602120135408719
:10092300021201358D870212013513880212013537
:10093300458802120135598A021201359B8A021237
:100943000135B98A021201353C8B02120135108C34
:1009530002120135D88C021201350F8F03120135B3
:10096300E28F031201358B9003120135DE900312DF
:1009730001358E91031201351A9203120135069344
:1009830003120135359303120135489403120135DF
:10099300909403120135659503120135A195031255
:1009A3000135BD950312013561FF01120135B6D63C
:1009B30003120135CCD603120135F2D603120135E9
:1009C3000ED80312013518D8031201354DD903127D
:1009D300013545DA03120135AB9B03120135DB9C6C
:1009E300031201350E9D03120135589D0312013583
:1009F3001F9F03120135AED50112013518D601121E
:100A0300013577D70112013587D701120135B4D7E4
:100A1300011201350BD801120135B4D80112013589
:100A2300BBD90112013585DA01120135E5DB01126B
:100A3300013528DC01120135CDDC011201351ADD47
:100A43000112013540DD011201354EDF011201357E
:100A530053DF0112013558E101120135A5E10112FD
:100A6300013518E2011201354BE201120135EDE2C5
:100A73000112013596E301120135CEE3011201356E
:100A8300D1E30112013519E40112013559E40112D0
:100A93000135B0E401120135F3EC031201350BED1E
:100AA3000312013553ED0312013569ED03120135CC
:100AB300B0ED03120135C4EE0312013551EF0312F9
:100AC30001359CEF03120135E44C00120135F04C63
:100AD300001201352B4D00120135704D0012013506
:100AE300304E00120135B64E001201351B4F001275
:100AF3000135474F00120135804F00120135BE51B9
:100B030000120135A2530012013588550012013538
:100B1300CB56001201351959001201352B5A001218
:100B23000135765B00120135865C00120135A35C4A
:100B330000120135DE5C00120135005D0012013543
:100B4300635D00120135246200120135B96200129F
:100B530001350A63001201353163001201358363E5
:100B630000120135A16300120135FB630012013548
:100B7300E464001201355A6600120135DE66001284
:100B830001355EAF0312013568AF03120135ABAF18
:100B930003120135C6AF0312013556B003120135F6
:100BA3007EB003120135BBB003120135F2B003125C
:100BB30001351BB10312013590B103120135A5B103
:100BC30003120135BAB103120135EBB1031201353A
:100BD300FFB10312013524B2031201355EB20312D1
:100BE30001358AB203120135C2B20312013541B392
:100BF300031201358AB303120135B4B3031201356D
:100C0300DFB303120135E38B0412013575C60212FB
:100C13000135A3C602120135F1C702120135D1C84D
:100C230002120135F0C8021201356DC902120135F5
:100C3300B0C90212013506CB02120135C7CB02122D
:100C430001354ECE02120135EFCE02120135E5CF4A
:100C530002120135E2D0021201353CD202120135F3
:100C6300C7D2021201350C880412013575880412AB
:100C73000135C98804120135F08804120135218930
:100C830004120135F9C10312013566C2031201359D
:100C9300ADC203120135C5C303120135C1C403122A
:100CA3000135A4C50312013547F10212013589F15B
:100CB300021201355BF20212013534F302120135DF
:100CC3002EF40212013510F50212013579F50212E4
:100CD30001352FF602120135A3F6021201350FF783
:100CE3000212013538F702120135B2F7021201354B
:100CF3004BF802120135B0F802120135C5F80212A1
:100D030001350BF90212013524F90212013589F973
:100D1300021201358CF90212013512E70312013573
:100D23003AE70312013578E70312013536E8031277
:100D330001359DE803120135B9E803120135E1E8F5
:100D43000312013511E90312013520E903120135BC
:100D53009DE903120135C3E9031201359DE5011233
:100D630001357BE701120135ADE901120135E9E9EE
:100D73000112013516EA0112013500EB01120135AA
:100D83004BEB0112013596EB01120135A8EB011271
:100D93000135E8EB011201351DEC011201356BEC55
:100DA300011201359AEC01120135BDEC0112013536
:100DB3000AED011201358FED01120135A9EF011280
:100DC3000135E8F10112013529F201120135CBF3A6
:100DD300011201350CF4011201357FF401120135C2
:100DE300D5F40112013560B9021201355EBA02125F
:100DF3000135F7C00212013518C302120135E3C4ED
:100E0300021201354BC60212013545670012013546
:100E1300F46700120135216800120135676800127A
:100E23000135A769001201353D6B00120135B76B1F
:100E330000120135D26B001201354D6C00120135E1
:100E4300A76D00120135076F001201350D700012F6
:100E530001356E7100120135877100120135E5719C
:100E630000120135D37200120135067300120135E9
:100E7300767300120135F073001201353A740012D3
:100E83000135047500120135D97500120135B876A4
:100E930000120135437700120135B1770012013595
:100EA3002578001201355078001201350F790012B0
:100EB3000135747A00120135917A00120135B07A46
:100EC30000120135A17B00120135C67B00120135EA
:100ED300F07B001201356B7C00120135C57C0012DA
:100EE30001352E7E00120135DC7E001201351D7F97
:100EF300001201358CAB02120135DAAB0212013557
:100F0300E6AB02120135C4AC02120135F5AC021294
:100F1300013526AD02120135A6AD02120135DEAD53
:100F23000212013530AE021201356DAE02120135E7
:100F33008AB002120135B0B2021201359BB402121B
:100F4300013585B602120135E5FF011201352DAEDB
:100F5300011201355DAE0112013536B501120135BD
:100F6300BBB601120135B8BC01120135A0BD011297
:100F73000135DDBD0112013500BE0112013531BE5F
:100F8300011201353ABE0112013544BE0112013589
:100F930032BF0112013528C0011201351E99011219
:100FA30001351D9D01120135239D011201355EA4FA
:100FB3000112013577A901120135E8D20312013577
:100FC3007ED30312013594D3031201350AD40312DD
:100FD30001357ED403120135BCD40312013530D55B
:100FE30003120135A9D503120135B2D50312013518
:100FF300BED503120135D3D50312013511D6031221
:10100300013527D60312013586D60312013566C68C
:101013000312013573C6031201358DC60312013560
:10102300CCC6031201350AC7031201356FC7031279
:10103300013584C7031201358FC7031201359CC7DD
:1010430003120135B3C703120135C1C703120135BA
:10105300CCC703120135D8C703120135E7C7031202
:101063000135F2C70312013515C803120135BCC897
:1010730003120135CCC803120135E6C8031201354A
:1010830003C9031201351FC90312013544C90312F1
:1010930001354FC90312013564C90312013578C9FB
:1010A30003120135D9C903120135DFC90312013512
:1010B300E5C903120135EBC90312013503CA031253
:1010C300013536CA03120135629D02120135E69DD0
:1010D30002120135959E02120135F49F0212013569
:1010E30015A20212013501A30212013536A3021221
:1010F300013558A30212013507A402120135FFA5D9
:101103000212013528A602120135BAA602120135D0
:10111300ECA602120135F9A60212013550A70212FC
:10112300013576A702120135E3A902120135E6AAB9
:10113300021201353EAB02120135F18E0212013566
:10114300FB8F02120135E29002120135EC9002127C
:1011530001350E91021201351A9102120135B39233
:1011630002120135E29202120135FE930212013599
:10117300579402120135BD95021201359C96021255
:101183000135F89602120135659702120135A097D1
:1011930002120135DF9702120135989A02120135C6
:1011A300B29A021201353E9B021201354C9B021288
:1011B3000135A59B02120135B39B02120135269C12
:1011C300021201358A9C02120135D49C02120135A8
:1011D30048D3021201356AD30212013590D50212A7
:1011E3000135A5D802120135BDD90212013570DAD5
:1011F3000212013552DB02120135AB8104120135B3
:10120300D0810412013542820412013595870312FD
:1012130001359E8703120135A787031201357E88A6
:10122300031201352F8A03120135658A0312013532
:101233009F8A03120135D58A031201350F8B0312DE
:101243000135438B031201356F8B03120135B88BC4
:1012530003120135F28B031201353B8C0312013566
:10126300938C03120135C88C03120135238D0312AD
:1012730001355D8D03120135AE8D03120135E48D09
:10128300031201351E8E031201354C8E03120135F4
:101293006F8E031201354D7F00120135797F0012E5
:1012A3000135D47F00120135DE7F00120135EE7F58
:1012B3000012013500800312013515800312013538
:1012C300718003120135DC8003120135248103127E
:1012D30001358E8103120135BD8103120135CB81A6
:1012E300031201352D82031201356B82031201357E
:1012F300868203120135218303120135C68303124B
:1013030001354984031201358284031201350D85A9
:1013130003120135648503120135C38503120135B8
:10132300D58503120135FB850312013504860312AB
:1013330001355E8703120135A98A04120135878BB3
:1013430004120135C6EF031201350BF00312013508
:1013530051F0031201351AF203120135D38D041231
:101363000135EE8D04120135FE8D04120135558EC3
:10137300041201354D8F04120135B0E80212013514
:10138300D0E80212013546EA0212013594EA02124C
:101393000135B4EA021201351CEB021201359EEB52
:1013A30002120135E4EB0212013570EC0212013531
:1013B300B9F00212013536F10212013567890412C0
:1013C3000135988904120135C28904120135E28975
:1013D30004120135408A04120135EE8301120135EE
:1013E300578701120135ED8A011201351F8B011256
:1013F30001354A8B011201353E8C01120135B28C45
:10140300011201358A8D01120135B58D01120135A5
:10141300E08D011201350B8E01120135428E01124E
:1014230001357A8F01120135FB8F01120135D190FD
:1014330001120135D29101120135FD9101120135DD
:10144300A49201120135499301120135F09301125F
:1014530001359594011201353C95011201357D95B5
:1014630001120135259601120135F296011201355B
:101473007E9701120135439801120135ADB803126D
:101483000135FDB80312013526B903120135D8B968
:101493000312013541BA031201354DBB0312013565
:1014A30016BD0312013532960312013582960312DB
:1014B3000135AB9603120135C597031201355898D0
:1014C30003120135A199031201356E9B03120135F5
:1014D300B3CA0312013503CB0312013520CB031228
:1014E3000135EFCB0312013570CC0312013543CD27
:1014F30003120135C1CE03120135B0F902120135D1
:10150300D5F9021201350DFA02120135F08F0412DA
:101513000135B82F00120135D13200120135833461
:1015230000120135273500120135CA350012013585
:10153300813600120135B036001201356E3B0012C0
:101543000135053C00120135413D00120135A93D2D
:10155300001201355D3E00120135134100120135C1
:101563004D4100120135B7410012013515420012F9
:101573000135734200120135D04200120135BF43D9
:10158300001201350544001201354A4400120135A9
:101593006D4400120135B04500120135C4450012F7
:1015A3000135CD46001201350C470012013538478D
:1015B30000120135874700120135A8470012013593
:1015C300E647001201352D4A001201356E4A00121A
:1015D30001350C4B00120135774B00120135B04C2D
:1015E3000012013553BD03120135A3BD03120135AA
:1015F300CCBD031201357EBE03120135E7BE0312D3
:101603000135F3BF03120135BCC10312013534FBAD
:101613000312013544FB0312013589FB0312013523
:1016230067FC03120135FFFC03120135008004122D
:101633000135338004120135518004120135EA80EB
:101643000412013507810412013599810412013511
:10165300769104120135CBFE03120135DBFE031232
:101663000135EFFE03120135F7FF031201350BE4D9
:1016730003120135B5E403120135F7E60312013510
:10168300CCF403120135E6F40312013549F50312D4
:101693000135B7F5031201356DF6031201358CF6EA
:1016A300031201359CF603120135DBF603120135F3
:1016B30018F70312013507910412013546910412FC
:1016C30001355083041201359F8304120135D18300
:1016D30004120135638404120135DF8404120135D9
:1016E300A4DD03120135B8DD03120135E1DD031278
:1016F30001350ADE03120135D2DE031201351DDF87
:1017030003120135D4E0031201357F86041201353B
:10171300B286041201352E87041201354E87041256
:101723000135B38704120135FB8704120135FE87A7
:1017330004120135D2A003120135EBA003120135C7
:1017430080A10312013571A20312013527A50312EB
:10175300013567A503120135A9A5031201352AF73F
:10176300031201353BF70312013584F703120135E8
:10177300B0F703120135D0F7031201356FF80312E6
:10178300013542F903120135F18404120135408514
:1017930004120135C885041201355286041201353D
:1017A300F87F001201350BEA0312013539EC0312FD
:1017B3000135A5EC03120135F0EC03120135C7A581
:1017C3000312013517A60312013540A60312013592
:1017D300F2A6031201355BA7031201357DA803129C
:1017E300013546AA0312013591AA0312013507B444
:1017F3000312013557B40312013580B403120135C6
:1018030032B5031201359BB503120135A7B6031296
:10181300013570B80312013554F903120135BBF9D0
:101823000312013566FA03120135DCFA031201359E
:101833004FDA0312013582DA0312013588DB031212
:101843000135DDDC03120135FFF401120135DBF54F
:101853000112013522F6011201355FF6011201353D
:10186300CDF60112013527F70112013597F7011261
:1018730001356FF80112013562F901120135E6F9FC
:101883000112013589FB0112013514FC01120135E6
:10189300A4FC011201353DFD0112013554FD011275
:1018A30001358FFE01120135E5FE0112013540C2FB
:1018B30001120135E4C601120135D5C90112013502
:1018C300FEC90112013515CA011201353ECA0112C2
:1018D3000135F0CA01120135CECC0112013520CEFB
:1018E3000112013567D301120135A0D3011201356D
:1018F300E4D301120135F0D4011201355EF2031273
:101903000135AEF20312013511F303120135D7F39A
:10191300031201358FF403120135A18E0412013530
:10192300F1CE0312013541CF031201356ACF031201
:10193300013502D00312013559D0031201355ED1AE
:1019430003120135ABD203120135E6E00312013570
:101953004BE10312013574E103120135C0E10312B7
:10196300013503E203120135D6E203120135CEE35A
:1019730003120135BEFF02120135589104E066706F
:101983001008A3E066700A08A3E066700408A3E0E9
:101993006622C3E7960809E7960809E7960809E768
:1019A3009622C3E09608A3E09608A3E09608A3E076
:1019B3009622C008C3E096F50808A3E096420808FB
:1019C300A3E096420808A3E09645087001D3D00827
:1019D30022080808EAC0E0EBC0E086F0E7A4FA18A2
:1019E3000986F0E7A42AFA180986F0E7A42AFA1868
:1019F3000986F0E7A42AFA1986F0E7A4FBE5F02AA2
:101A0300FA190886F0E7A42BFBE5F03AFA190886E1
:101A1300F0E7A42BFBE5F03AFA18180986F0E7A4DF
:101A2300C5F02BFBE43AFA1908E7C5F0C6A426F67D
:101A3300E5F03BFBE43AFA1886F0E7A4F6E5F00894
:101A430026F6E43B08F6E43A08F6D0E0FBD0E0FAE9
:101A530022E4CFC0E0E4CEC0E0E4CDC0E0E4CCC0FB
:101A6300E075F020E626F608E633F608E633F608D6
:101A7300E633F6181818EC33FCED33FDEE33FEEFC6
:101A830033FFC3EC9709ED9709EE9709EF971919FF
:101A930019400FFFEC97FC09ED97FD09EE97FE192E
:101AA3001906D5F0BFECF709EDF709EEF709EFF7E3
:101AB300191919D0E0FCD0E0FDD0E0FED0E0FF2200
:101AC3006016080808C6C313C618C613C618C6137B
:101AD300C618C613C6D5E0EA2270090808082260B2
:101AE30016181818C6C333C608C633C608C633C685
:101AF30008C633C6D5E0EA22E627F60809E637F634
:101B03000809E637F60809E637F622E026F608A3C1
:101B1300E036F608A3E036F608A3E036F622E02620
:101B2300F008A3E036F008A3E036F008A3E036F0AF
:101B330022C3E697F60809E697F60809E697F6083A
:101B430009E697F622C3E0C696F608A3E0C696F622
:101B530008A3E0C696F608A3E0C696F622C3E0966D
:101B6300F008A3E096F008A3E096F008A3E096F04F
:101B730022E657F60809E657F60809E657F6080974
:101B8300E657F622E056F608A3E056F608A3E05619
:101B9300F608A3E056F622E056F008A3E056F00854
:101BA300A3E056F008A3E056F022E0F608A3E0F61F
:101BB30008A3E0F608A3E0F622E6F008A3E6F0089F
:101BC300A3E6F008A3E6F022E0FAA3E0FBA3E0FC1F
:101BD300A3E0FD22EAF0A3EBF0A3ECF0A3EDF022E7
:101BE300E0F8A3E0F9A3E0FAA3E0FB22E8F0A3E91D
:101BF300F0A3EAF0A3EBF022CAC0E0E6F0A308DA10
:101C0300FAD0E0FA22CAC0E0E0A3C582CCC582C5FF
:101C130083CDC583F0A3C582CCC582C583CDC583DF
:101C2300DAE6D0E0CA22C3E498F8E499F9121C6A10
:101C33008026C3E49AFAE49BFBE920E7E9121C6AD5
:101C4300E498F8E499F922C3E498F8E499F9121CAA
:101C53006AE498F8E499F9C3E49AFAE49BFB22EB6B
:101C630020E7CFE920E7E0B90010BB0008E88AF0DD
:101C730084F8AAF022E4FBC8FA22EB70227B10C896
:101C830033C8C933C9335007C39AC3DBF280069AFA
:101C930050012ADBEAC833F4C8C933F4C9FA227500
:101CA300F008E4C833C8C933C933C99AC99B50047F
:101CB300C92AC93BD5F0ECFBC833F4C8E4C9FA22FE
:101CC300600D08C6A2E713C618C613C6D5E0F322F3
:101CD300600C08C6C313C618C613C6D5E0F4227039
:101CE3000422600D18C6C333C608C633C6D5E0F454
:101CF3001822251810AF08F518400C15198008F59F
:101D03001840021519D2AF2200C0D0251810AF0811
:101D1300F518500C05198008F51850020519D2AFB3
:101D2300D0D0222518F58210AF08F518400C1519EC
:101D33008008F51840021519D2AF8519832225189A
:101D4300F582E43519F583222518F8E43519F922CB
:101D53002518FAE43519FB222518FCE43519FD2270
:101D6300E4732518C582C0E0E51934FFC583C0E0DC
:101D7300E518C3958224F810AF0885831985821866
:101D83008008858319858218D2AFCEF0A3E520F0B1
:101D9300A37808E608F0A3DEFAEFF0A3E58124FABE
:101DA300F8E608F0A3E608F0A3E608F0A30808E6BF
:101DB30008F0A3E608F0A315811581D0E0FED0E07A
:101DC300F8158115811581E8C0E0EEC0E0222518E1
:101DD300C582C0E0E51934FFC583C0E0E518C395AB
:101DE3008224F910AF0885831985821880088583BA
:101DF30019858218D2AFCEF0A3E520F0A37808E6C8
:101E030008F0A3DEFAEFF0A3E58124FBF8E608F07F
:101E1300A3E608F0A30808E608F0A3E608F0A31574
:101E2300811581D0E0FED0E0F815811581E8C0E08E
:101E3300EEC0E022851983851882E0A3FEE0A3F5B6
:101E4300207808E0A3F608DFFAE0A3FFE0A3C0E0F0
:101E5300E0A3C0E0E0A3C0E0E0A3C0E0E0A3C0E0F3
:101E630010AF0885821885831980088582188583B9
:101E730019D2AFD083D082020132851983851882AB
:101E8300E0A3FEE0A3F5207808E0A3F608DFFAE07C
:101E9300A3FFE0A3C0E0E0A3C0E0E0A3C0E0E0A3B1
:101EA300C0E010AF088582188583198008858218E1
:101EB300858319D2AFD083D08222C0D02518C582A2
:101EC300C0E0E51934FFC583C0E0E518C39582245B
:101ED300F310AF08858319858218800885831985D7
:101EE3008218D2AFC8F0A3E9F0A3EAF0A3EBF0A302
:101EF3007908E709F0A3D8FAECF0A3EDF0A3EEF02C
:101F0300A3EFF0A3D0E0F0A3D0E0F0A3D0E0F0A3E0
:101F1300E520F0A3E5F0F0A322851983851882E07C
:101F2300C0E0A3E0F9A3E0FAA3E0FBA37808E0F69E
:101F330008A3DFFAE0FCA3E0FDA3E0FEA3E0FFA318
:101F4300E0C0E0A3E0C0E0A3E0F5D0A3E0F520A368
:101F5300E0A3F5F010AF0885831985821880088502
:101F63008319858218D2AFD082D083D0E0F8D0E035
:101F73003274048006740280027401C0E0F4041217
:101F83001D26D0E0121BFB2274048004740280001F
:101F9300CCC0E0EDC0E0E518C39CCCAD1950011DE9
:101FA30010AF068C188D1980068C188D19D2AF12BC
:101FB3001C08D0E0FDD0E0FC22D083D082E9C0E051
:101FC300E493A3C386F0C5F095F0F908E493A386E0
:101FD300F0C5F095F0700BE493A3C3994005E904B1
:101FE3008002A3E475F002A42582F582E5F035832F
:101FF300F583D0E0F9E493A3C0E0E493C0E022D0FA
:1020030083D082ECC0E0EDC0E0E493A3FCE493A3AF
:10201300FDED4C600D12204EEC24FFFCED34FFFD72
:1020230080EFE493A3FCE493A3FDED4C600D122039
:102033008DEC24FFFCED34FFFD80EFD0E0FDD0E01C
:10204300FCE493A3C0E0E493C0E022C0E0C3E493C4
:1020530096087401939618400FE493667008087409
:102063000193661870007019A3A3C3E493960874D0
:1020730001939618A3A3400DD0E0D0E0D0E0022056
:102083003EA3A3A3A3A3A3D0E022C0E0C0F088F0A3
:10209300E4936670080874019366187000A8F0A3AF
:1020A300A3700BD0F0D0E0D0E0D0E002203EA3A399
:1020B300D0F0D0E02274F5121DD1EAFEEBFFEE243E
:1020C30034F8EF3400F988088909EE2435F582EFF6
:1020D3003400F583E0F8EE2437F582EF3400F5831E
:1020E300E0F50AEC850AF0A4FCAAF0850AF0EDA459
:1020F3002AFDE82CF8E43DF97A257B00121C6AEAF4
:10210300850882850983F0F8740758F97401B900CA
:10211300028004C333D9FCFAE8131313541FF8EEF7
:1021230028F8EF3400F9E8245DF582E93400F583FB
:10213300E05A6008EE2434F582EF802CEE2434F567
:1021430082EF3400F583E0C0E0EE2436F582EF340D
:1021530000F583E0F5F0D0E084A8F0EE28F8EF3442
:1021630000F9E82438F582E93400F583E0F97F04C7
:10217300021E7D74F5121DD1EAFEEBFFEE2434F549
:1021830082EF3400F583E0C0E0EE2435F582EF34CE
:1021930000F583D0E0F08E828F83A3A3A3A3A3A330
:1021A300A3C082C0838E828F83A3A3A3A3A3E0F8DB
:1021B300A3E0F9D083D082E0C398F508A3E099F5B2
:1021C30009EE247FF582EF3400F583E06401706942
:1021D300EE2480F582EF3400F583E0F8A3E0F98E76
:1021E300828F83A3A3A3A3A3A3A3E0FCA3E0FD8EF9
:1021F300828F83A3A3A3A3A3E0FAA3E0FBC3EA9C78
:10220300EB9D5010C3EC98ED99402EC3EA98EB99DF
:102213005027800EC3EA98EB994007C3EC98ED99D9
:1022230040177CDC7D04EEFAEFFB120EA6EE247F52
:10223300F582EF3400F583E4F0EE2434F8EF340054
:10224300F9E8FCE9FDEE2435F582EF3400F583E08F
:10225300F8EE2437F582EF3400F583E0F50AE5085C
:10226300850AF0A4F508AAF0850AF0E509A42AF581
:1022730009E82508F8E43509F97A257B00121C6A78
:10228300EA8C828D83F0F8740758F97401B900025F
:102293008004C333D9FCFAE8131313541FF8EE2850
:1022A300F8EF3400F9E8245DF582E93400F583E0C2
:1022B3005A6008EE2434F582EF802CEE2434F58244
:1022C300EF3400F583E0C0E0EE2436F582EF34000E
:1022D300F583E0F5F0D0E084A8F0EE28F8EF3400C1
:1022E300F9E82438F582E93400F583E0F9122EF396
:1022F300022171C082C083851882851983E0F8A307
:10230300E0F9C3EA9CEB9D5010C3EC98ED99401B98
:10231300C3EA98EB995014800EC3EA98EB994007EF
:10232300C3EC98ED994004790180027900D083D001
:102333008222EAC39CFAEB9DFB2274EF121DD1901B
:1023430003A2E064086005E06407702A9061C8E0B6
:1023530060249003D0E0F4601DE0F875F003A4C896
:10236300AAF02AF974D228FE740339FF8E828F8370
:10237300A3A3A3E0700302246D906060E0C0E0EECD
:102383002468F582EF3400F583D0E0F0750C4575D1
:102393000D05750800750900E5D914F50AE5D9544A
:1023A30003F50E60177403650E605CE50A6010EEBA
:1023B3002467F582EF3400F583E070030224529022
:1023C3000540E06401602AEE2482F582EF3400F5D3
:1023D30083E06004780480027800850A08E508C376
:1023E30098FA95E0FB120D6E8A088B09EA4509708D
:1023F300051210AA8074EE2482F582EF3400F5836F
:10240300E070048A0C8B0DE50A6012850C82850D41
:1024130083F50BE5D9F0A3150BE50B70F6EE2482DB
:10242300F582EF3400F583E0604474FC250AF50A75
:10243300780C121F78AC0AA90EEEFAEFFB120F42CA
:102443007402121D0BE97026AA08AB0912181E7933
:102453003D8E828F83A3A3A3A3E0FA7B00120C42D9
:10246300EEFAEFFB120EBE120F5479008074740360
:10247300650E6056850A107511007810121F78AC2E
:102483000CAD0DAA08AB09120F1E7402121D0BEE40
:102493002468F582EF3400F583E064807004747F70
:1024A3008001E0F50C780C121F7CE50EF50C780C1E
:1024B300121F7CA90AAC08AD099003D0E0FA7B0097
:1024C300120C067402121D0B80139003A2E0640821
:1024D300600BAC0CAD0DEEFAEFFB120FAE1210B6A3
:1024E30079017F0A021E7D74F5121DD174FC121C42
:1024F300F5EAFEEBFF8908A2AFE433F509C2AF802A
:102503006AEE2463F8EF3400F97A007B00A2AFE4AB
:1025130033F50AC2AF88828983E0FCA3E0FDEC4D6A
:10252300603A88828983E0FAA3E0FB8A828B83E0A6
:10253300FCA3E0FD88828983ECF0A3EDF08A828B13
:1025430083E4F0A3F088828983E0FCA3E0FDEC4DF3
:10255300700A88828983A3A3E4F0A3F0E50AA2E0CA
:1025630092AF12181E9004E3E004F0EE2463F582A8
:10257300EF3400F583E0F8A3E0F9E849603DEE2489
:1025830063F582EF3400F583E02402FAA3E034001C
:10259300FBEA2402F50AEB3400F50B780A121F78E4
:1025A3008A828B83E0FCA3E0F9EEFAEFFB120EE2E2
:1025B3007402121D0BE970030225049004E3E0602A
:1025C300639004E4E0F89004E3E0C398500C7402D1
:1025D300650870509004E5E0604A8E828F83A3A360
:1025E300A3A3E0851882851983F0A3E4F09004E3A4
:1025F300E0F87402121D41E8F0A3E4F09004E3E074
:10260300F89004E2E028F07402121D41AC82AD831D
:10261300851882851983AA82AB837901120C1290E3
:1026230004E3E4F0E509A2E092AF7404121D0B0287
:1026330021710000008521878522C622C0E0C0D019
:10264300E8C0E0E9C0E0EAC0E0EBC0E0ECC0E0EDE8
:10265300C0E0EEC0E0C008C009C00AC00BC082C021
:1026630083C0F0A2AFE433FEC2AF759B00906182DA
:10267300E0A2E05012E591A2E0500C7591FE7401C6
:102683006521700312233DE0A2E55051E591A2E5D7
:10269300504B7591DF9003A2E064076005E0640886
:1026A300702374016521703579019003D0E0FA75C8
:1026B300F003A4CAA8F028FB74D22AFA74033BFBE4
:1026C3001224EA8018E0640D70139003C4E004F050
:1026D30064287002E4F07A00E0F91210BC90618281
:1026E300E0A2E64003022786E591A2E64003022723
:1026F300867591BF9003A2E064057008120FE4127F
:102703000FF08003120FEA75210012104AE99003BB
:10271300A3F0790012103E120E1C7A017B00900385
:10272300A1E0F912130E907803E06442705590050E
:1027330044E014F0704DC2AF12273E00782AD0E077
:10274300F618D0E0F6E59F540770057509FF80037E
:1027530075097FC4C0E07829E6F50808E65509F550
:1027630009740B7808121CD3D0E02508F890627026
:10277300E0A2E740F8E8C333906272F0906270E041
:10278300D2E0F0906181E0A2E35009E5E9A2E350D1
:102793000375E9F7A3E0A2E75009E591A2E7500327
:1027A30075917FEEA2E092AFD0F0D083D082D00BB0
:1027B300D00AD009D008D0E0FED0E0FDD0E0FCD0B4
:1027C300E0FBD0E0FAD0E0F9D0E0F8D0D0D0E032AE
:1027D300C0E0C0D0C082C083906183E0A2E0500912
:1027E300E5BFA2E0500375BFFEE0A2E15009E5BFDB
:1027F300A2E1500375BFFDE0A2E25009E5BFA2E2EA
:10280300500375BFFBE0A2E35009E5BFA2E3500309
:1028130075BFF7E0A2E45009E5BFA2E4500375BF1A
:10282300EFE0A2E55009E5BFA2E5500375BFDFE085
:10283300A2E65009E5BFA2E6500375BFBFD083D01F
:10284300828088C0E0C0D0E8C0E0E9C0E0EAC0E030
:10285300EBC0E0ECC0E0EDC0E0C0F0E5A7A2E650BD
:102863000FE5A1A2E6500953A7BF75A1BF1228AB7C
:10287300E5A7A2E5500CE5A1A2E5500653A7DF7535
:10288300A1DFE5A7A2E15009E5A1A2E1500375A1EB
:10289300FDE5A7A2E2500CE5A1A2E2500653A7FB77
:1028A30075A1FBD0F00227BC74F8121DD17521016C
:1028B3009003A2E064067015120F728A828B83A3C1
:1028C300A3A3A3A3A3E0FAA3E0FB120FD2A2AFE456
:1028D30033FED2AF9003A8E0640170187A207B0026
:1028E3009003A1E0F912139E7A207B009003A1E0EC
:1028F300F9121314906182E0D2E6F0900541E06092
:102903002185C62280169003A7E064017008E5C6FE
:1029130054F84405F5C653BEFC12263874016521EC
:1029230060E4EEA2E092AF7F01021E7D008E238F52
:1029330024858228858327851882851983E0CEA381
:10294300E0CF852882852783EBC9EAC8EDCBECCAA3
:1029530075F010C3E833C8E933C9EA33CAEB33CBA4
:10296300C3EA9EF526EB9FF525B35004AB25AA26B3
:10297300EC33CCED33CDD5F0DAAE23AF242274E9BA
:10298300121DD174F8121CF5851882851983ECF099
:10299300A3EDF08A088B099003A2E024F7C3940502
:1029A3005006750801022B18120F728A0A8B0BAEA0
:1029B3000AAF0BEE4F7003022B15AC08AD0974027E
:1029C300121D41AA82AB831210028E828F83A3A3AE
:1029D300750CFF750DFF750EFF750F00780C121B3C
:1029E300877402121D417510FF7511FF7512FF7573
:1029F30013007810121B87780C7910121995502A3E
:102A0300780C7910121B347508017509C8750A0012
:102A1300750B007808790C1219955052850C0885AE
:102A23000D09850E0A850F0B80507514017515C8A5
:102A330075160075170085100885110985120A851A
:102A4300130B7808790C121B347814790812199532
:102A5300401C750800750900750A00750B0178089C
:102A63007910121B347808790C121AFB800C750844
:102A730001750900750A00750B0074097808121AAC
:102A8300DC750C19F50DF50EF50F7808790C121A93
:102A9300548E828F83A3A3A3A3A3A3E0F8A3E0F997
:102AA3007AD07B03121C6A880C890DE4F50EF50FAE
:102AB3007808790C121AFB7406121D41E0F8A3E0A2
:102AC300F97AD07B03121C6AE8FA8A0CE4F50D78D4
:102AD30008790C12199550077808790C121B349059
:102AE30003A2E06408600AE064066005E064057020
:102AF3002D750C0D780C79081219954021750CF47D
:102B0300750DFF750EFF750FFF7808790C121AFB10
:102B1300800C750800750900750A00750B0085188F
:102B230082851983E0F8A3E0F58388827808121B75
:102B3300BC7408121D0B7F10021E7D74F7121DD189
:102B430012101490053FE064017010906245E4F0A8
:102B5300A3F053F4F343FE0C5390F3120FC0E5C6F6
:102B630054804449F5C6E59E547F644970F89061EA
:102B730085740FF090053DE0F47002A3E0604E9081
:102B8300053EE0600814601B14602E804075080148
:102B930075090090053DE07808121CE2E508F4523F
:102BA30080802A75080175090090053DE0780812B8
:102BB3001CE2E508F4529080147508017509009031
:102BC300053DE07808121CE2E508F452A079007F85
:102BD30002021E7D74F7121DD1E9FEEAFF74016E35
:102BE300700C7A807B009003A1E0F912130E902FF2
:102BF300B0E493F46008E493F9120E10800953C60D
:102C030080E59E547F70FA120FC690053FE0640181
:102C13007003120E2890053DE0F47002A3E0604BB0
:102C230090053EE0600814601A14602C803D75081E
:102C33000175090090053DE07808121CE2E50842A1
:102C430080802875080175090090053DE078081219
:102C53001CE2E50842908013750801750900900590
:102C63003DE07808121CE2E50842A0121014120F8E
:102C7300728A088B09A808A909E8496015E5E1707B
:102C8300FCE82414F582E93400F583E0F46003E002
:102C9300F5E174016F700A7A019003A1E0F9121350
:102CA30068022BD274ED121DD18A088B098C0A8D10
:102CB3000B7413121D41780C121BAD7808790C129A
:102CC30019957510017511C875120075130050120E
:102CD3007808790C121B347810790812199550165C
:102CE3008010780C7908121B347810790C1219951E
:102CF30040047901800279007F0C021E7D74ED127D
:102D03001DD18A088B098C0A8D0B7413121D41780F
:102D13000C121BAD780C79081219954011780879BB
:102D23000C121B34AA08AB09AC0AAD0B8022751038
:102D3300007511007512007513017810790C121BC0
:102D43003478107908121AFBAA10AB11AC12AD1328
:102D530080A68A828B837508FF7509FF750AFF7544
:102D63000B007808121B9A7F04021E7D74F5121D56
:102D7300D18C828D837808121BAD8A828B8378086D
:102D8300121B60EA2404F8EB3400F98C828D83A3D0
:102D9300A3A3A3E0FCA3E0FD88828983C3E09CF0A6
:102DA300A3E09DF088828983C3E09420A3E0944E3E
:102DB30040268A828B837508FF7509FF750AFF75A4
:102DC3000BFF7808121B218A828B83A3A3A3A3E0A2
:102DD3002420F0A3E0344EF0022D5574F5121DD1DA
:102DE300E9FE9004F7E0FAA3E0FBEEC333F8E43323
:102DF300F974F528F582748039F583E02AF508A380
:102E0300E03BF5097808121F787A407B427C0F7DFE
:102E1300001229307402121D0B8A088B098C0A8D4B
:102E23000B74107808121AC3AA08AB097F04021E98
:102E33007D74F1121DD18A0C8B0D8C0E8D0F740FC6
:102E4300121D41E0FAA3E0FB7411121D41E0F508E5
:102E5300A3E0F5097808121F78EA2401F508EB349A
:102E630000F509E4F50AF50B780C79081219D47505
:102E73000871750902780C79081219D4AA0CAB0DE4
:102E8300AC0EAD0F1229307402121D0B8B09EA45EB
:102E93000960047A0180027A00EC2AFCED3400FD1B
:102EA3007413121D41E0F8A3E0F9E8FEE9FFECF822
:102EB300EDF97A717B02121C6A880889098E828F68
:102EC300837808121BBCECF8EDF97A717B02121CB3
:102ED3006A8A088B0974057808121CE28E828F8334
:102EE300A3A3A3A3E508F0A3E509F07F08021E7DD1
:102EF300C082C083E9906000F0D083D08222C2AF49
:102F030002000022C0E074F2121EBDA2AFE433FE41
:102F1300D2AFE589A2E05003121722758900C2C51A
:102F2300EEF8EEA2E092AF7F01021F1CC0E074F244
:102F3300121EBDA2AFE433FED2AFE58AA2E640067D
:102F4300E58AA2E75003121722758A00758A00C228
:102F5300EBEEF8EEA2E092AF7F01021F1CC0E0C0CF
:102F6300D0E8C0E0E9C0E0A2AFE433F8D2AF758B9C
:102F730000C2E8E8F9E8A2E092AFD0E0F9D0E0F8C7
:102F8300D0D0D0E032C0E0C0D0E8C0E0E9C0E0A2D9
:102F9300AFE433F8D2AFC2C7751A00E8F9E8A2E08C
:102FA30092AFD0E0F9D0E0F8D0D0D0E032FFFFFF0D
:102FB300FFFFFFFFFF74F0121D6574F8121CF58A02
:102FC3000E8B0FE9FF8C0C8D0D7E00850E08850F8F
:102FD300097808121FBC0004109D320030233042D0
:102FE3003065308830AB30DC30FF3016314631FE8F
:102FF300312132443272329D329D326F3174016F0E
:103003007019850C82850D83E0C39403500D850CE4
:1030130082850D83E0900DC5F080027E180232C5D3
:1030230074026F7015850C82850D83E0F8A3E0F9B7
:10303300900DC6E8F0A3E9F080027E180232C57451
:10304300016F7019850C82850D83E0C39402500DC6
:10305300850C82850D83E09007D8F080027E1802EC
:1030630032C574016F7019850C82850D83E0C3949A
:1030730005500D850C82850D83E09007D9F0800201
:103083007E180232C574016F7019850C82850D8319
:10309300E0C39402500D850C82850D83E09007DA1E
:1030A300F080027E180232C574106F702775081005
:1030B3007509007808121F78AC0CAD0D7ADB7B071D
:1030C3001212BA7402121D0B8A088B0985088285B5
:1030D300098380027E180232C574016F7019850C52
:1030E30082850D83E0C39402500D850C82850D8388
:1030F300E09007EBF080027E180232C574016F7016
:103103000D850C82850D83E0900DC9F080027E1839
:103113000232C574046F70269083507808121BAD79
:10312300850C82850D8378081219A55011850C82B0
:10313300850D83121BE39007ED121BEF80027E18AF
:103143000232C5EF70211209C0E9701312158AE922
:10315300F50879501218A8E9F509121578800A9034
:1031630008807401F080027E180232C574076F6014
:10317300030231F97508067509007808121F78856E
:103183000C82850D83A3AC82AD837404121D53128C
:1031930012C07402121D0B851882851983EAF0A3ED
:1031A300EBF07C007D007402121D53850C82850DAB
:1031B30083E0F912151EE9F50AE50AC3940A5032B1
:1031C3001209C0E97015A90A121590E9F50879509A
:1031D3001218A8E9F509121578801D850A087509E2
:1031E3000074812508F58274083509F5837401F0AC
:1031F30080067E0280027E180232C574016F701948
:10320300850C82850D83E0C39402500D850C828565
:103213000D83E09007ECF080027E180232C5740142
:103223006F7019850C82850D83E0C3940A500D8558
:103233000C82850D83E0900DC8F080027E18023267
:10324300C574016F7025850C82850D83E0C39407D7
:103253004019850C82850D83E0C39411500D850CB4
:1032630082850D83E0900DCAF080577E18805374D9
:10327300016F702290087FE0F508850C82850D832D
:10328300E090087FF0E508703990087FE0640170F2
:1032930031121578802C7E188028C3E50E9427E51B
:1032A3000F9400501B74026F7016850C82850D837A
:1032B300E0FCA3E0FDAA0EAB0F12085EE9FE80025C
:1032C3007E02EEF97408121D0B7F08021E3774F09C
:1032D300121D6574D7121CF5E9C0E08518828519A3
:1032E30083D0E0F07401121D41EAF0A3EBF08C0EE1
:1032F3008D0F9082FC7403121D5B7406121C0874FC
:1033030003121D5B7401121D41E0FAA3E0FB851853
:1033130082851983E0F912151EE9FEEEC3940A4073
:103323000302345EEEF912155AE9FF900DC5E0640D
:10333300027004740180027400F5087808121F7C7F
:10334300743A121D41E0FDEFFCEEF9AA0EAB0F1229
:1033530015CC7401121D0B7C147D007900741512B9
:103363001D531212D28A088B0985080A85090B742A
:1033730015121D5B7A1075F006EEA42424F91218B9
:10338300A2E9703B7C1079FF7415121D531213329E
:10339300E9702C7425121D41AC82AD837A0475F05B
:1033A30006EEA42425F91218A2E9F5087415121DD6
:1033B3005BEFA2E0E433F9AA0EAB0F1208E8E9745D
:1033C30009121D5B7A0C74702EF91218A2E9707938
:1033D3007409121D5312154E750800E508C39404B1
:1033E3005067E508F87900E875F003A4C8AAF075FA
:1033F300F000A42AFA75F003E9A42AF97409121D4E
:1034030041E58228F50CE58339F50D850C82850DA0
:1034130083E0F8A3E0F9E849602B850C82850D83EE
:10342300A3A3E0F50A750B00780A121F78850C82B6
:10343300850D83E0FCA3E0FDAA0EAB0F120B4C74C9
:1034430002121D0BE905088092EFA2E1500D9007CF
:10345300D7E0F9AA0EAB0F120B52E97439121D41D2
:10346300E06404700F900DC5E064027007AA0EAB10
:103473000F1215C679007429121D0B7F08021E371F
:1034830074F2121D65890B8A088B09ECFEEDFF753A
:103493000A0AE50B600B14600814604114605F8036
:1034A3007CAA08AB0912156CE9F50AE50AC3940A6C
:1034B300506BEE4F6067750C06750D00780C121F8C
:1034C30078AC08AD09EEFAEFFB1212BA7402121DC2
:1034D3000B8A0C8B0D850C82850D838040AA08AB6B
:1034E30009121566E9F50AE50AC3940A502FEE4F4F
:1034F300602BEEFAEFFBA90A121560E9801FAA08F8
:10350300AB09121572E9F50AE50AC3940A500EEEE7
:103513004F600AEEFAEFFBA90A121560E9A90A7FC8
:1035230006021E3774F2121D658A0C8B0DE9FF7EAD
:103533001574FF650C700474FF650D702A7508001F
:10354300E508C3940A5014EFFC7A027B00A9081221
:10355300153CE960027E00050880E5EF60627AB4FD
:103563007B15120D508059AA0CAB0D120D328A082F
:103573008B0985080A85090BE50A450B60407C0029
:103583007D00E50A2405FAE4350BFB850A82850BE9
:1035930083A3A3A3A3E0F912151EE9F508E508C365
:1035A300940A500EEFFC7A027B00A90812153CE93D
:1035B3007E00EF600BAA0AAB0B1215B480027E14D7
:1035C300EEF97F06021E3774F0121D6574FE121C9D
:1035D300F5851882851983EAF0A3EBF08C0A8D0B2D
:1035E3007412121D41E0F50EA3E0F50F7E15851848
:1035F30082851983E064FF7004A3E064FF701D7F7C
:1036030000EFC3940A506BAC0EAD0FAA0AAB0BEFDD
:10361300F9121542E960027E000F80E58518828564
:103623001983E0FAA3E0FB120D328A0C8B0D850C93
:1036330008850D09E508450960367C007D00E5082D
:103643002405FAE43509FB850882850983A3A3A32E
:10365300A3E0F912151EE9FFEFC3940A5014AC0E50
:10366300AD0FAA0AAB0BEFF9121542E97E008002F7
:103673007E14EEF97402121D0B7F08021E3774F7D5
:10368300121D65EAFEEBFF9007F1EEF0A3EFF09059
:1036930007D7E0FC7D007A267B0012085EE9F50877
:1036A3009007D7E0F9120AC87F01021E3774F2129D
:1036B3001D6574EC121CF58A0A8B0B850A82850B37
:1036C30083A3A3E024FA7003023AF424FD700302F7
:1036D300396C1470030237A014601024FD700302C8
:1036E30039141470030239AF023B62AE0AAF0B9078
:1036F30007F1E0F8A3E0F9E84960669007F1E0F824
:10370300A3E0F5838882E0F8A3E0F9E8496052EE8C
:10371300240CF582E43FF583E0F5087808121F7C5A
:10372300EE240BF582E43FF583E0F98E828F83A3C9
:10373300A3A3A3A3A3A3A3A3E0FCA3E0FDEE2403FD
:10374300FAE43FFB9007F1E0F8A3E0F5838882E019
:10375300F8A3E0F5838882121D637401121D0B80A8
:10376300398E828F83A3A3A3A3A3A3A3A3A3121F0F
:103773008F9007ED121BCB1208FA7402121D0BE98E
:10378300601879018E828F83A3A3A3A3A3A3A3A30A
:10379300A3E0FAA3E0FB1208F4E9023B62AE0AAF2E
:1037A3000B8E828F83A3E060030238C28E828F83E5
:1037B300A3A3A3A3A3E0A2E040030238C290088B13
:1037C300E0F8A3E0F9E84960030238C27C0E7D000B
:1037D3007900AA18AB191212D28A088B09AA08AB6E
:1037E30009EE240CF582E43FF583E0F8A3E0F9E861
:1037F3004960367508067509007808121F78EE24AB
:103803000CF582E43FF583E02410FCA3E03400FDD3
:103813007402121D531212BA7402121D0B8A088B02
:1038230009850882850983804F8E828F83A3A3A392
:10383300E0FAA3E0FB120D328A0C8B0D850C088590
:103843000D09E5084509602D750C06750D00780C0A
:10385300121F78E5082405FCE43509FD7402121DE6
:10386300531212BA7402121D0B8A0C8B0D850C8233
:10387300850D838003023B628E828F83A3A3A3A360
:10388300A3E0A2E25004D2F08002C2F0A2F0E4333B
:10389300F87900740C121D41E048F0A3E049F0EE02
:1038A300FCEFFDAA18AB19121554E970127A027BCA
:1038B300009007D7E0F912130EE97900023B6490F8
:1038C30007F1E0F8A3E0F9E84960439007F1E0F875
:1038D300A3E0F5838882A3A3E0F8A3E0F9E84960B5
:1038E3002D8E828F83A3E0FC79018E828F83A3A325
:1038F300A3E0FAA3E0FB9007F1E0F8A3E0F58388E7
:1039030082A3A3E0F8A3E0F5838882121D63023B40
:1039130062AE0AAF0B9007F1E0F8A3E0F9E8496063
:10392300459007F1E0F8A3E0F5838882A3A3E0F8CC
:10393300A3E0F9E849602F850A82850B83A3E0FCA5
:1039430079028E828F83A3A3A3E0FAA3E0FB9007FF
:10395300F1E0F8A3E0F5838882A3A3E0F8A3E0F500
:10396300838882121D63023B62850A08850B097CEA
:10397300007D00E5082404FAE43509FB8508828507
:103983000983A3A3A3E0F912151EE9FEEEC3940A6B
:103993005017E508240AFCE43509FD7A0475F0069E
:1039A300EEA42425F912189CE9023B62AE0AAF0B80
:1039B3009007ECE06018900DC8E0F98E828F83A326
:1039C300A3A3E0FAA3E0FB1208F4E9023B62900D23
:1039D300C5E0701579058E828F83A3A3A3E0FAA3B4
:1039E300E0FB1208F4E9023B628E828F83A3A3A358
:1039F300E0FAA3E0FB120D328A0C8B0D850C0885CF
:103A03000D098E828F83A3A3A3A3A3A3A3E0A2E0A4
:103A13005071E50845096068850882850983A3A379
:103A2300A3A3E0605E8E828F83A3A3A3A3A3A3A318
:103A3300A3A3E0F8A3E0F9E8C4540FF87900E8542D
:103A430001F8E95400F9E8A2E04038740E121D5B56
:103A5300E5082405FAE43509FB850882850983A373
:103A6300A3A3A3E0F912151EE9701879038E828FC0
:103A730083A3A3A3E0FAA3E0FB1208F4E9023B62E9
:103A8300023B62EE2405FCE43FFD85088285098341
:103A9300A3A3A3A3E0F98E828F83A3A3A3E0FAA336
:103AA300E0FB1215C09007F1E0F8A3E0F9E84960E4
:103AB3003E9007F1E0F8A3E0F5838882A3A3E0F842
:103AC300A3E0F9E84960287C0079008E828F83A304
:103AD300A3A3E0FAA3E0FB9007F1E0F8A3E0F583EA
:103AE3008882A3A3E0F8A3E0F5838882121D638094
:103AF3006E1209C0E97068900880E06401701A12C0
:103B0300158AE9FE9008807400F07C0A7D00790034
:103B13007A817B081212D2803C7E00EEC3940A5055
:103B2300348E0875090074812508F58274083509F7
:103B3300F583E06401701BEEF9121590E9F88E0825
:103B430075090074812508F58274083509F58374B5
:103B530000F00E80C679501218A8E9FE1215787984
:103B6300017414121D0B7F06021E3774F3121D65B8
:103B730074F2121CF58908EAFEEBFF8C09AC18AD50
:103B8300197A0E75F006E508A42420F91218A2E9A3
:103B930070647C0679FFAA18AB19121332E97056C8
:103BA300740C121D41E0F8A3E0F9E8F50CE5096097
:103BB30005EE420C8004EEF4520C850C0A750B00E2
:103BC300740C121D41E0650A7004A3E0650B6022CA
:103BD300E50CF87900740C121D41E8F0A3E9F0AC90
:103BE30018AD197A0E75F006E508A42420F9121809
:103BF3009CE9790180027900740E121D0B7F050286
:103C03001E3774F0121D6574E6121CF589098A0EBD
:103C13008B0FECFEEDFF740C121D5B7A0E75F00634
:103C2300E509A42420F91218A2E96003023D357CBA
:103C33000679FF740C121D53121332E96003023D1F
:103C430035AC18AD197A0C74702509F91218A2E96C
:103C53006003023D31750800AA18AB1912154EE531
:103C63000E450F702E7C0C7900AA18AB1912133273
:103C7300E96003023D177C0C7D007900AA18AB199B
:103C83001212D28A0A8B0B850A82850B837508016F
:103C9300023D17AC18AD19AA0EAB0F1215488A0CCA
:103CA3008B0D850C0A850D0BE50A450B7030EE4F25
:103CB300601BAC18AD197A007B001215488A0C8B77
:103CC3000DA80CA90D880A890BE8497004790080B6
:103CD30063850A82850B83E50EF0A3E50FF0850A61
:103CE30082850B83A3A3E0F87900EE687002EF6985
:103CF3006022EEC0E0850A82850B83A3A3D0E0F0A7
:103D0300EE4F700D850A82850B837400F0A3740057
:103D1300F0750801E5086016AA18AB1912154EAC28
:103D230018AD197A0C74702509F912189CE97901F8
:103D330080027900741A121D0B7F08021E3774F774
:103D4300121D65EAFEEBFF7B00EBC39404504EEBC0
:103D5300F87900E875F003A4C8AAF075F000A42A66
:103D6300FA75F003E9A42AF9EC28F582ED39F58315
:103D7300E06E7003A3E06F7021EBF87900E875F053
:103D830003A4C8AAF075F000A42AFA75F003E9A405
:103D93002AF9EC28FAED39FB80070B80AC7A007B1B
:103DA300007F01021E3774F7121D657F00EFC39475
:103DB300044003023E58EFF87900E875F003A4C805
:103DC300ACF075F000A42CFC75F003E9A42CF9EA1F
:103DD30028F582EB39F583E0F4FCA3E0F4FDEFF87A
:103DE3007900E875F003A4C8AEF075F000A42EFEC8
:103DF30075F003E9A42EF9EA28F582EB39F583EC93
:103E0300F0A3EDF0EFF87900E875F003A4C8ACF087
:103E130075F000A42CFC75F003E9A42CF9EA28F54D
:103E230082EB39F583A3A3E0F4C0E0EFF87900E86F
:103E330075F003A4C8ACF075F000A42CFC75F00376
:103E4300E9A42CF9EA28F582EB39F583A3A3D0E0A2
:103E5300F00F023DB07F01021E3774F0121D65742E
:103E6300F4121CF5EAFEEBFF8C088D0990088BE039
:103E7300F8A3E0F9E849702CEE4F6006E508450920
:103E830070057901024109EEFAEFFB12156CE99016
:103E93000DCBF0900DCBE0C3940A400812157EE9D8
:103EA300900DCBF0900DCBE0C3940A400302410781
:103EB30090088BE0F8A3E0F9E8496003023F53EE72
:103EC300FCEFFD7A0E75F006900DCBE0A42420F9EB
:103ED30012189CE9F50B7C0C7D0079FFAA18AB192D
:103EE3001212D28A0C8B0D850C0E850D0FAC18ADFA
:103EF300197A0C900DCBE02470F912189CE9F50A9D
:103F0300750C0E750D00780C121F78EEFCEFFD900A
:103F13000DCBE0F87900E875F00EA4C8AAF075F0AF
:103F230000A42AFA75F00EE9A42AF974F328FA74A6
:103F33000739FB1212BA7402121D0B8A0C8B0DA8DF
:103F43000CA90D90088BE508F0A3E509F0024103E5
:103F530090088BE0F8A3E0C82406F582C83400F586
:103F630083E0F8A3E0F9E849604390088BE0F8A305
:103F7300E0C82406F582C83400F583E0FCA3E0FD25
:103F83007A1B75F006900DCBE0A42421F912189C3E
:103F9300E9F890088BE0F9A3E0C92406F582C93457
:103FA30000F5837400F0A37400F002410390088BC2
:103FB300E0F8A3E0C8240AF582C83400F583E0F8EA
:103FC300A3E0F9E849604390088BE0F8A3E0C82434
:103FD3000AF582C83400F583E0FCA3E0FD7A1B7583
:103FE300F006900DCBE0A42422F912189CE9F89076
:103FF300088BE0F9A3E0C9240AF582C93400F583EC
:104003007400F0A37400F002410390088BE0F8A35E
:10401300E0C8240CF582C83400F583E0F8A3E0F986
:10402300E849604390088BE0F8A3E0C8240CF582CC
:10403300C83400F583E0FCA3E0FD7A1075F0069028
:104043000DCBE0A42423F912189CE9F890088BE027
:10405300F9A3E0C9240CF582C93400F5837400F098
:10406300A37400F002410390088BE0F8A3E0C82496
:1040730008F582C83400F583E0F8A3E0F9E8496065
:104083006F90088BE0F8A3E0C82408F582C83400D9
:10409300F583E0FCA3E0FD7A1075F006900DCBE00C
:1040A300A42424F912189CE9F50A90088BE0F8A3DC
:1040B300E0C82408F582C83400F583E02410FCA38B
:1040C300E03400FD7A0475F006900DCBE0A42425BE
:1040D300F912189CE9F890088BE0F9A3E0C92408C9
:1040E300F582C93400F5837400F0A37400F08010E6
:1040F30090087FE060031215D21215BA7901800689
:10410300790080027901740C121D0B7F08021E379F
:1041130074F7121D6574F2121CF5E9FEAC18AD19A3
:104123007A0E75F006EEA42420F91218A2E9700E97
:10413300740C121D41E0F8A3E0F9E8F9800279005C
:10414300740E121D0B7F01021E3774F4121D657469
:10415300F2121CF58909EAFEEBFFE509C3940A5044
:1041630004EE4F700479028041AC18AD197A0E75D4
:10417300F006E509A42420F91218A2E9F508E508D8
:104183007026750A06750B00780A121F78740212DE
:104193001D5BEEFAEFFB1212BA7402121D0B8A0AB0
:1041A3008B0B850A82850B83A908740E121D0B7F66
:1041B30004021E3774F4121D65EAFEEBFF75080056
:1041C300E508C3940A5044750A06750B00780A1271
:1041D3001F78EEFCEFFDE508F87900E875F00EA412
:1041E300C8AAF075F000A42AFA75F00EE9A42AF91A
:1041F30074F928FA740739FB1212CC7402121D0BDE
:10420300E96004A9088006050880B5790A7F0402DD
:104213001E3774F4121D65EAFEEBFF750800E5080E
:10422300C3940A5044750A06750B00780A121F7866
:10423300EEFCEFFDE508F87900E875F00EA4C8AAD6
:10424300F075F000A42AFA75F00EE9A42AF974F3C4
:1042530028FA740739FB1212CC7402121D0BE960A1
:1042630004A9088006050880B5790A7F04021E3771
:1042730074F7121D6574F0121CF5EAFEEBFF750866
:1042830000E508C3940A5039AC18AD197A1075F0DB
:1042930006E508A42423F91218A2E970207C1079FA
:1042A300FFAA18AB19121332E97012EEFCEFFDAA44
:1042B30018AB191208CAE97004A90880060508801A
:1042C300C0790A7410121D0B7F01021E3774F41299
:1042D3001D65750800E508C3940A40030243AEE573
:1042E30008F87900E875F00EA4C8AAF075F000A4E8
:1042F3002AFA75F00EE9A42AF974F328FC74073935
:10430300FD7A0E75F006E508A42420F91218A2E937
:1043130070030243A97C067D0079FFE508FA7B0060
:10432300EA75F00EA4CAA8F075F000A428F875F099
:104333000EEBA428FB74F32AFA74073BFB1212D288
:104343008A0A8B0BAE0AAF0B7C067D0079FFE5086A
:10435300FA7B00EA75F00EA4CAA8F075F000A42851
:10436300F875F00EEBA428FB74F92AFA74073BFBEB
:104373001212D28A0A8B0BAC0AAD0BE508F879004E
:10438300E875F00EA4C8AAF075F000A42AFA75F037
:104393000EE9A42AF974FF28F582740739F58374AA
:1043A30000F0A37400F005080242D890087FE06093
:1043B300031215D21215BA7F04021E3774F7121DA9
:1043C300657E00EEC3940A50327C0679FFEEFA7BD9
:1043D30000EA75F00EA4CAA8F075F000A428F875D9
:1043E300F00EEBA428FB74F32AFA74073BFB1213B9
:1043F30032E96004EEF980050E80C8790A7F010274
:104403001E3774F7121D657E007F00EFC3940A50B8
:104413002F7C0679FFEFFA7B00EA75F00EA4CAA899
:10442300F075F000A428F875F00EEBA428FB74F3E4
:104433002AFA74073BFB121332E970010E0F80CB8B
:10444300EEF97F01021E3774F7121D657E007F00AF
:10445300EFC3940A500DEE700AEFF9121590E9FEBE
:104463000F80EDEEF97F01021E3774F0121D6574A3
:10447300C9121CF5E9FE900DCBE06E701D7A017B2D
:10448300009007D7E0F9121314E97A027B00900732
:10449300D7E0F9121314E91215DE7429121D5B7AA1
:1044A3000E75F006EEA42420F91218A2E9600302A7
:1044B30045A17C0679FF7429121D53121332E9605A
:1044C300030245A17C0E7D0079FF7429121D53124E
:1044D30012D2851882851983EAF0A3EBF07C1B7D49
:1044E3000079FF740E121D531212D28A0A8B0B85A8
:1044F3000A0E850B0F7C0C7D0079FF7402121D538D
:104503001212D28A0C8B0D850C0A850D0B7429129D
:104513001D5B7A0E75F006EEA42420F912189CE9AF
:10452300F508740E121D5B7A1B75F006EEA42421A8
:10453300F912189CE94208740E121D5B7A1B75F080
:1045430006EEA42422F912189CE94208740E121DE7
:104553005B7A1075F006EEA42423F912189CE94245
:1045630008740E121D5B7A1075F006EEA42424F96C
:1045730012189CE94208740E121D5B7A0475F0064A
:10458300EEA42425F912189CE942087402121D5B5B
:104593007A0C74702EF912189CE94208800375088E
:1045A30000A9087437121D0B7F08021E3774F71217
:1045B3001D65E9FEEE9007D7F01215787F01021E04
:1045C3003774F2121D65890AEAFEEBFFEE5400F818
:1045D300EF5480F9E84960359007D7E0F91212F6F5
:1045E3008A0C8B0DA80CA90D88088909E84960126B
:1045F300AA08AB091215A2E96008AA08AB091212AE
:10460300E4E9EE6400FAEF6480FB0246C8EE54026C
:10461300602D7C007D007A007B00121554E9601840
:104623007A017B009007D7E0F912130EE9EE6402DA
:10463300FAEF6400FB0246C87A027B000246C8EE2A
:10464300A2E0507D90088BE0F8A3E0F5838882A375
:10465300A3A3E0FAA3E0FB1215D8E9605E9007F18B
:10466300E0F8A3E0F9E84960459007F1E0F8A3E03A
:10467300F5838882A3A3E0F8A3E0F9E849602F7CDF
:1046830000790190088BE0F8A3E0F5838882A3A367
:10469300A3E0FAA3E0FB9007F1E0F8A3E0F5838839
:1046A30082A3A3E0F8A3E0F5838882121D631215A9
:1046B300DEEE6401FAEF6400FB800A7A017B00807E
:1046C300047A007B007F06021E3774F7121D65EA29
:1046D300FEEBFF7508018E828F83E0245060131474
:1046E300601924E1701CEEFAEFFB121536E9F508A8
:1046F3008010EEFAEFFB1215A88007EEFAEFFB121B
:1047030015AEA9087F01021E3774F7121D65EAFE74
:10471300EBFF8E828F83A3A3A3A3E0641E701179A2
:10472300008E828F83A3A3E0FAA3E0FB121524E992
:104733007F01021E3774F6121D658A088B098508EE
:1047430082850983A3A3A3A3E07034AE08AF098EC7
:10475300828F83A3A3A3A3A3A3A3121F8F8E828FEE
:1047630083A3A3A3A3A3E0FCA3E0FD8E828F83A373
:10477300A3E0FAA3E0FB12152A7402121D0BE97FD2
:1047830002021E3774F7121D65EAFEEBFF9007D78E
:10479300E0F98E828F83A3E0FAA3E0FB120B52E9C8
:1047A3007F01021E37C082C08374FF121CF51215ED
:1047B30084E9C39402400B8518828519837402F03F
:1047C3008009851882851983740AF0AC18AD197AAB
:1047D3000179051209D8E97401121D0BD083D08227
:1047E30002013274F2121D6574E8121CF58A088BFB
:1047F30009E9FE8C0A8D0B7C187D007900AA18ABA1
:10480300191212D28A0C8B0DAC0CAD0D8518828552
:104813001983E508F0A3E509F09007D9E0C0E07437
:1048230002121D41D0E0F09007DAE0C0E0740312F9
:104833001D41D0E0F0900DCAE0C0E07417121D4195
:10484300D0E0F07415121D41E054FEF8A3E054FFCC
:10485300F9900DC9E0A2E0E433FA7B00E84AF8E9F5
:104863004BF97415121D41E8F0A3E9F0900DC9E06E
:10487300A2E15004D2F08002C2F07415121D41E08F
:1048830054FDFAA3E054FFFBA2F0E433F87900E807
:1048930028F8E933F9EA48F8EB49F97415121D4190
:1048A300E8F0A3E9F0900DC9E0A2E35004D2F08050
:1048B30002C2F07415121D41E054F7FAA3E054FF4D
:1048C300FBA2F0E433F50C750D007403780C121C95
:1048D300E2EA450CF8EB450DF97415121D41E8F0B9
:1048E300A3E9F0900DC9E0A2E45004D2F08002C223
:1048F300F07415121D41E054EFFAA3E054FFFBA23C
:10490300F0E433F50C750D007404780C121CE2EA24
:10491300450CF8EB450DF97415121D41E8F0A3E9B8
:10492300F0900DC9E0A2E55004D2F08002C2F07409
:1049330015121D41E054DFFAA3E054FFFBA2F0E49B
:1049430033F50C750D007405780C121CE2EA450C66
:10495300F8EB450DF97415121D41E8F0A3E9F09049
:104963000DC9E0A2E25004D2F08002C2F074151225
:104973001D41E054FBFAA3E054FFFBA2F0E433F53E
:104983000C750D007402780C121CE2EA450CF8EB6E
:10499300450DF97415121D41E8F0A3E9F09007DA0B
:1049A300E0602A750C10750D00780C121F787CDB03
:1049B3007D077406121D41AA82AB831212BA7402D8
:1049C300121D0B8A0C8B0D850C82850D839007EBD2
:1049D300E06011EE600E7415121D41E04402F0A375
:1049E300E04400F09007EBE0600678017900800472
:1049F300780079007414121D41E048F09007D8E064
:104A03006006780479008004780079007414121D1C
:104A130041E048F0AC0AAD0BAA18AB191208EEE955
:104A23007418121D0B7F06021E3774F7121D65EAF8
:104A3300FEEBFF7508009007EBE060067801790054
:104A4300800478007900E842089007D8E06006788F
:104A5300047900800478007900E84208A908EEFA96
:104A6300EFFB1209A8E97F01021E3774F2121D65DC
:104A730074E3121CF58A0C8B0DE9FF8C0A8D097403
:104A83002B121D41E0F50874086509700A75F006DC
:104A9300EFA42422FE800875F006EFA42421FE7CF7
:104AA3001B7D0079007402121D531212D2851882E5
:104AB300851983EAF0A3EBF07402121D5B7A1BEEF7
:104AC300F91218A2E97038741C121D41E0C394074F
:104AD300402D741C121D41E0C394115022E508F5CA
:104AE3000B780B121F7C7403121D5BE50AA2E0E432
:104AF30033F9AA0CAB0D1209007401121D0BE974F2
:104B03001D121D0B7F06021E3774F7121D65120B53
:104B1300CAE97E00EEC3940A50557C0679FFEEFA8B
:104B23007B00EA75F00EA4CAA8F075F000A428F87B
:104B330075F00EEBA428FB74F32AFA74073BFB12FF
:104B43001332E97027EEF87900E875F00EA4C8AACD
:104B5300F075F000A42AFA75F00EE9A42AF974F3AB
:104B630028FA740739FB7900120BD0E90E80A57F70
:104B730001021E3774F6121D6574FD121CF5EAFE60
:104B8300EBFF90088DE0F8A3E0F9E8497039750868
:104B93008F7509087808121F78750802750900785F
:104BA30008121F787508BE7509837808121F787C70
:104BB300FF7DFF7A017B00120A1A7406121D0B9007
:104BC300088DEAF0A3EBF090088DE0F8A3E0F9E894
:104BD300497003024C94E4F508F5097808121F782C
:104BE3007404121D4B880889097808121F7874040D
:104BF300121D4B880889097808121F7890088F12B4
:104C03001F8F790290088DE0FCA3E0FDEEFAEFFB25
:104C1300120B407408121D0BE9704A85188285191E
:104C230083E0FA7B007401121D41E0F87900E4C8C7
:104C3300F9EA28F508EB39F509E50845096026780E
:104C430008121F7890088DE0F8A3E0F5838882A30B
:104C5300A3A3A3E0FCA3E0FDEEFAEFFB12152A7475
:104C630002121D0BE9E4F508F5097808121F789084
:104C7300088F121F8F7CFF7DFF90088DE0FAA3E061
:104C8300FB120A267404121D0B90088DEAF0A3EBA5
:104C9300F090088DE0F8A3E0F9E849700479018009
:104CA3000279007403121D0B7F02021E37C082C0FB
:104CB3008390088BE0F8A3E0F9E849601790088B2C
:104CC300E0FAA3E0FB1212E4E9F890088B7400F019
:104CD300A37400F0900DCB740AF0D083D08202014C
:104CE30032C082C083E9900AD2F0024F7374F71284
:104CF3001D65E99002E1F07C197D037AFF7BFF12C9
:104D03000B589002E274FFF0A3F0A3E4F0A3F07950
:104D130005120AE09002E1E0F9120A027A767B0BAF
:104D2300120D207F01021E3774F4121D658A088B51
:104D330009EB548060309002E1E0F91212F68A0A1E
:104D43008B0BAE0AAF0BEE4F60138E828F83E06442
:104D5300B07003120AF8EEFAEFFB1212E4AA08E5A8
:104D6300096480FB80047A007B00024F4274F212D4
:104D73001D6574FC121CF5EAFEEBFFEE4F60387400
:104D830002121D41EEF0A3EF1251A7ECF0A3ED12B6
:104D930051A7AA82AB831209FCE9F5087073741258
:104DA300121D41125D5BE50A450B60658E828F83A0
:104DB300124E1EEE4F700575080280557A067B0071
:104DC3001213508A0C8B0DA80CA90DE849700575B8
:104DD3000813803D88828983E4124E28A3A3EEF052
:104DE300A3EF1261F4E50AF0A3E50BF09002E712DA
:104DF3004EB09002E76017E0FCA3E08003EAFCEB0F
:104E0300FD8C828D83124EB070F38C828D83125C85
:104E130080A9087404121D0B0263F6A3A3A3A3E0E5
:104E2300FEA3E0FF22F0A3F0888289832274F212AA
:104E33001D65890AE975F017A4FEAFF09002E6E458
:104E4300F09002E4124EB0600A1213569002E4E4AA
:104E5300F0A3F0EEFAEFFB1213508A088B09EA4530
:104E630009602FEEFCEFFD79001212D29002E4E507
:104E730008F0A3E509F07B008008124E9AE4F0A342
:104E8300F00BEBC3950A40F2E50A9002E6F07900D5
:104E9300800279130263F6EB75F017A4F8A9F0907A
:104EA30002E4E028FAA3E0398A82F58322125A1633
:104EB300EA4B2274F4121D65750800750900740C21
:104EC300121D411261C8FEE9FF800CE5082401F5BB
:104ED30008E5093400F509C3E5089CE5099D50324E
:104EE30085080A85090B7403780A121CE2EA250A6D
:104EF300F8EB350BF988828983A3A3A3A3A3A31299
:104F03005D5BEE650A7003EF650B70BFE8FAE9FBC2
:104F130080047A007B00802774F4121D657900EA0F
:104F2300A2E0501B7508F07509827808121F787C7F
:104F3300047D007AD47B0A120ADA7402121D0B7FF5
:104F430004021E37C082C0839002E7124F7A601CAE
:104F530088828983A3A3E06A7003A3E06B888289B4
:104F63008370E8A3A3A3A3125A1280047A007B00E0
:104F7300D083D0820201321264C9E8492274EE124E
:104F83001D6574FC121CF5EAFEEBFF85188285197A
:104F930083E4F0A3F0EE2402125C64EE24051251C4
:104FA30095EE2404F50EEF12557AE024FE603924C1
:104FB300FC604624FE605224FE605E24FE70030201
:104FC300509A24FE700302511224FE7003025121F1
:104FD30024FE700302513024FC700302513F24FE6F
:104FE300700302514E02518B9003007417F0A3E437
:104FF3001251AF12077A02518B851882851983AC3F
:1050030082AD83120AFE02515B851882851983AC37
:1050130082AD83120B0402515B850C08850D097464
:1050230002121D41AC82AD83850882850983125A21
:1050330012120A208A0C8B0DAC0CAD0DEC4D6042A4
:10504300E4F50CF50D780C121F78750C00750D0343
:10505300780C121F78750C01750D03780C121F78EC
:105063007408121D41121F8F7916125A0C120B402D
:105073007408121D0BE9F50C700B125A08120792F3
:10508300800F750C0185088285098312519D125C7E
:1050930080850C0802515E7402121D41AC82AD83FF
:1050A300850C82850D83125A12120A208A108B11E5
:1050B300AC10AD11EC4D6043850C82850D83A3A329
:1050C300121F8F7510007511037810121F78751059
:1050D300017511037810121F787408121D41121FF5
:1050E3008F7916125A0C120B407408121D0BE9F536
:1050F30009700B125A08120798800F750901850C65
:1051030082850D8312519D125C80850908804C8530
:105113001882851983AC82AD83120B0A803A8518F5
:1051230082851983AC82AD83120B10802B85188284
:10513300851983AC82AD83120B16801C851882857A
:105143001983AC82AD83120B1C800D8518828519DF
:1051530083AC82AD83120B22E9F508E50860298E42
:10516300828F83A3E06414601F850E82850F83E022
:105173009003001251A71264C5900301125C80E5ED
:1051830008A31251AF120774EEFAEFFB120A9E0244
:105193005B6CF50CEF3400F50D221264C98518829F
:1051A30085198322F085188285198322F07C007D7E
:1051B30003850A82850B83125A162274EE121D652B
:1051C30074FC121CF58A0A8B0B8C0E8D0FEA2405D6
:1051D300F508EB3400F5097C157D0079007A007B36
:1051E300031212D2E5082402F50CE5091251988541
:1051F30018828519838582108583117810121F7890
:10520300850882850983A3A3A3A31256C2121F781C
:10521300E5082405F510E5093400F5117810121F8F
:1052230078850C82850D83125A1C120A1A74061291
:105233001D0B8A108B11AE10AF11E50A2402F50A7B
:10524300E50B125C67EE4F70030253848017740200
:10525300121D41125A1288828983EAF0A3EBF0905F
:105263000300E004F0900300E0C3940540030253FD
:1052730084E4F510F5117810121F787510E9751193
:10528300027810121F787510EA7511027810121F38
:10529300787406121D41121F8F7910EEFCEFFD1278
:1052A3005A0C120B407408121D0BE9705E850882BC
:1052B300850983A3A3A3A3A3A3A3E0F89002E9E032
:1052C3006870481256C2121F787CEA7D02E50824F2
:1052D30008FAE5093400FB1212CC7402121D0BE923
:1052E30060298E828F83A3A3A3A3125A1290030073
:1052F300E0F51074027810121CE274012510F58297
:1053030074033511F583EAF0A3EBF07402121D4127
:105313008582108583117810121F787402121D4143
:10532300121F8F850C82850D831264DA120A26748C
:1053330004121D0B8A108B11AE10AF11900300E005
:10534300F51075110074027810121CE27400251018
:10535300F874033511F988828983A3124EB0700360
:10536300025248E82403F8E93400F9EE4F600302DF
:1053730052518882898374FFF0A3F0900300E00404
:10538300F0900300E0600A125A0812078679008041
:105393000B850882850983125C77790A025B6C743A
:1053A300EA121D6574FE121CF58C128D13EA240596
:1053B300F50CEB126644124E22750800750900EADB
:1053C3002402F510EB3400F51185188285198385C5
:1053D300820A85830B780A121F78850C82850D83D8
:1053E300A3A3A3A3125584121F78E50C2405F50A81
:1053F300E50D125C67780A121F78850C82850D8390
:105403001264D8120A1A7406121D0B8A0A8B0BEA4D
:10541300450B7003025535EA2404F50EEB12557A59
:10542300124E228A828B83A3A3A3E0F9851082857F
:105433001183125A12120A08E9F50960030255355D
:10544300E4F514F5157814121F787514E97515022F
:105453007814121F787514EA7515027814121F78E0
:105463007406121D41121F8F7913AC0AAD0B851000
:1054730082851183125A12120B407408121D0BE914
:10548300F50960030255359002E9E0F8E508700973
:10549300E02402900301F08017900301E0FCE8246C
:1054A30002FAE43400FBEA6C7001EB600302553945
:1054B300850882AA821256B994141256B150738584
:1054C3000E82850F83E0C0E074022A125571D0E08A
:1054D300F00508850E82850F83A3E0C0E085080AE6
:1054E3007402250A125571D0E0F005089002E91202
:1054F3005584121F787CEA7D0285080A7402250A06
:10550300FA74033400FB1212BA7402121D0B9002D8
:10551300E9E02508F50874FF6E700374FF6F6012ED
:10552300EE24010EEF3400FFE508C3941450030288
:1055330053CCE50860131258FD8510828511831240
:105543005A1212078C79008014E509700375090A51
:10555300851282851383EEF0A3EFF0A9097402127A
:105563001D0B7F0E021E3785080C7402250CF58275
:1055730074033400F583223400F50F850E82F5831E
:10558300221262072274EE121D6574FE121CF58C42
:105593000E8D0FEA2405F50CEB125198750B009054
:1055A3000300E4F0F50AEA2402F508EB3400F509F8
:1055B3008049900300E0FA9002E9E0F81256B994AA
:1055C300171256B1400D900300E0F87416C398907B
:1055D30002E9F01256C2121F787CEA7D0274012A96
:1055E300FA74033400FB1212BA7402121D0B9002F8
:1055F300E9E0F8900300E028F0050AE50C2416F52D
:1056030082E50D125575E0F8E50AC398400302568A
:105613009A900300E0C39416507DE50AC333F8E47F
:1056230033F9E50C28FEE50D39FF851882851983CA
:10563300AC82AD838E828F83125A12120A208A1093
:105643008B11AC10AD11EC4D7005750B018043E46B
:10565300F510F5117810121F787510E9751102789D
:1056630010121F787510EA7511027810121F7874E2
:1056730006121D41121F8F79168508828509831230
:105683005A12120B407408121D0BE9F50B7003023A
:1056930055B5125C7380107C007D038508828509F3
:1056A30083125A1212079EA90B7402025B6EE994CD
:1056B30000C365D03322EA28F8E43400F9E822E095
:1056C300F51075110078102274EA121D6574FC122E
:1056D3001CF58A0C8B0D8C128D13EA2405F50AEB4D
:1056E300125C67750800750900E50A2402F510E5E8
:1056F3000B3400F5117402121D4185820E85830F50
:10570300780E121F78850A82850B83A3A3A3A312A5
:1057130061B3121F78E50A2405F50EE50B3400F595
:105723000F780E121F78851082851183125C6D121B
:105733005A0C120A1A7406121D0B8A0E8B0FAE0E28
:10574300AF0FE50C2402F50EE50D3400F50F804094
:105753008882898374FFF0050812556A74FFF00587
:10576300089002E9E0F50C750D00780C121F787CA7
:10577300EA7D0285080C7402250CFA74033400FBDD
:105783001212BA7402121D0B9002E9E02508F50803
:10579300EE4F60718E828F83A3A3A3E0F9850E82FF
:1057A300850F83125A12120A08E9F509EE2404122E
:1057B3005195E97044E4F514F5157814121F7875C2
:1057C30014E97515027814121F787514EA75150219
:1057D3007814121F787408121D41121F8F7911EE6D
:1057E300FCEFFD850E82850F83125A12120B407453
:1057F30008121D0BE9F5096027850C82850D8312BC
:1058030058F3125C80E50870030258D91258FD85DD
:105813000E82850F83125A121207A479000258EEE2
:10582300850882AA82EA9002E97009E024049003C1
:1058330001F08022E0F8900301E0F514E82404FC71
:10584300E43400FDEC65147001ED70C01256B99498
:10585300121256B150B6850C82850D83E0C0E074F8
:10586300022A125571D0E0F00508850C82850D835C
:10587300A3E0C0E012556AD0E012590F85820C856F
:10588300830D780C121F787404121D41121F8F852B
:1058930010828511831264DA120A267404121D0B16
:1058A3008A0C8B0DAE0CAF0D85080C7402250CF819
:1058B30074033400F9EE4F70030257538518828541
:1058C3001983E08882898312590FA3E0C0E012553F
:1058D3006AD0E0025761E509700375090A850A82F7
:1058E300850B831258F3125C80A909740402556274
:1058F3001264C985128285138322900301E0F5F0B7
:10590300E50884900300F07C007D0322F005088500
:1059130018828519832274EC121D6574FE121CF51E
:105923008A088B098C0E8D0FEA2405FEEB3400FFE9
:10593300851882851983AC82AD838E828F83125A38
:1059430012120A208A0A8B0BEE2418125195EA458B
:105953000B70030259E3125B555032851882851987
:1059630083125A12120B348A108B11EA4511606BA1
:105973007912AC0AAD0B850882850983125A128508
:105983001082851183121D63E9F50A7058E4F50A44
:10599300F50B780A121F788E828F83A3A3E0F50A92
:1059A300780A121F78EE2403125C64780A121F78B7
:1059B3008E828F83125A1C120B467406121D0BE93A
:1059C300F50A7021850C82850D83E0701F8508829E
:1059D300850983125A121207AA8011750A0E8009CB
:1059E300750A018004E50A6003125C73850C8285E5
:1059F3000D83E0600479008002A90A7402121D0B72
:105A03007F0C021E377C007D03850A82850B83127F
:105A13005A1622E0FAA3E0FB22E0FCA3E0FD85088E
:105A230082850983125A162274EE121D6574FE12C2
:105A33001CF58A088B098C0C8D0DEA2405FEEB34CA
:105A430000FF750E00851882851983AC82AD838EA5
:105A5300828F83125A12120A208A0A8B0BEA450B91
:105A63007003025B41125B5550358518828519839B
:105A7300125A12120B348A0E8B0FEA450F605E79AD
:105A830012AC0AAD0B850882850983125A12850E62
:105A930082850F83121D63E9F50E6003025B448563
:105AA3000882850983125D5BAA0AFB120B288A1000
:105AB3008B11A810A911E849701E7AFF7BFF120B06
:105AC300288A108B11A810A911E849606C88828973
:105AD30083E50AF0A3E50BF0750A008007750E0E47
:105AE300805F050A9002E6E0FAE50AC39A504AE5A8
:105AF3000A75F017A4FAABF088828983A3A3E02A7E
:105B0300FAA3E03BFB8A828B83125C6DEC4D70D26F
:105B1300750A17750B00780A121F78EEFCEFFD1259
:105B230012BA7402121D0BEEFCEFFD850882850983
