:020000040000FA
:0600000002011A0227C3F1
:03002B00022F7829
:03003300022F5049
:030053000228364A
:03006B00022EF76B
:03007B00022F1F32
:1000830002262FE5C754F84401F5C7790122000081
:100093000080FB120086B90003020104E479217891
:1000A30008B800028004F709D8FCE479297802B87B
:1000B30000028004F709D8FCE4900281784F7909A3
:1000C3008002F0A3D8FCD9FA781A90014A7A01BACF
:1000D30000028007E493A3F608DAF97ACF7B0A904B
:1000E300014B782C79078015E493A3AD82AE838A04
:1000F300828B83F0A3AA82AB838D828E83D8E9D9C6
:10010300E775824575838F740412012C758291758E
:100113008300740012012C75D00075813F7518811E
:10012300751902759F00020096C09FF59FE473D076
:100133009F22D083D082C09FE493C0E0740193C018
:10014300E0740293F59F2201FF0000B40000280031
:100153002800283075A000A000A000A0000008001F
:1001630008E001F000100010001000100010001053
:100173000050005000500010001000D00700000095
:100183000000000F0001000500307507001000019A
:100193000081FF00000000FF740992097A09FF0241
:1001A300020208025000A0000000E80302E88301F5
:1001B30000009D8302C283010000260B02BA830163
:1001C3000000B30202C283010000270B02B88301BF
:1001D3000000C90202C283010000280B02BE830192
:1001E3000000CB0202C283010000290B02C6830870
:1001F3000000CC0202C2830100002A0B02CA830161
:1002030000002B0BFF0100FF2002E883010000A385
:100213008302C2830100008F0B02D683000000001B
:100223000002BC8303000019034A0F4A0F4A0F4A16
:100233000F4A0F4A0F4A0F4A0F4A0F4A0F4A0F4AF3
:100243000F4A0FDE11F611D811FFFF0A0953656E2D
:10025300736F72546167051250002003020A000293
:100263000105544920424C452053656E736F72203B
:1002730054616700D007E803E803E803E8030014C8
:100283000000301436143C14421448144E14541411
:100293005A14601412416363656C2E2044617461C7
:1002A300000A416363656C2E20436F6E662E000A5D
:1002B3000A416363656C2E20506572696F640002A6
:1002C300E883010000B28302C2830100001B0C100B
:1002D300F581010000470802BC830300004A0802BD
:1002E300C0830100001C0C02C283010000280C1013
:1002F3000582030000500802C083010000290C029C
:10030300C283010000360C101582030000370C0273
:10031300C083010000380C124261726F6D2E2044BD
:10032300617461000A4261726F6D2E20436F6E66C5
:100333002E00024261726F6D2E2043616C696272FE
:100343002E000A0A4261726F6D2E20506572696F2A
:10035300640002E883010000B58302C28301000048
:100363009E0C105582010000530802BC8303000059
:10037300570802C0830100009F0C02C283010000E2
:10038300AB0C1065820300005D0802C0830100000E
:10039300AC0C02C283010000C90C1085820300006B
:1003A300CA0C02C083010000CB0C02C2830100000F
:1003B300B90C1075820100005E0802BC83030000C3
:1003C3006E0802C083010000BA0C12436F6E6E2EDA
:1003D30020506172616D730008436F6E6E2E205062
:1003E3006172616D73205265710008446973636FB4
:1003F3006E6E656374205265710002E8830100002C
:10040300978302C283010000510D10B581010000E2
:10041300760802BC830300007C0802C0830100004D
:10042300520D02C2830100005F0D106581020000BE
:10043300820802C083010000600D02C28301000034
:10044300710D1055810200008A0802C0830100006B
:10045300720D020202020202020202010D000000FA
:10046300100102E883010000AC8302C28301000093
:10047300D90D02E2830100008B0802C28301000050
:10048300DA0D02E083010000208302C28301000031
:10049300DB0D02DE83010000258302C2830100001D
:1004A300DD0D02CE83010000818002C283010000C2
:1004B300DE0D02D0830100002F8302C283010000FE
:1004C300DC0D02DA830100002A8302C283010000EB
:1004D300DF0D02DC83010000938002C28301000070
:1004E300E00D02E483010000B58202C28301000033
:1004F300E10D02E683010000E20D01E803053F1070
:100503000A124779726F2044617461000A47797255
:100513006F20436F6E662E000A0A4779726F205070
:100523006572696F640002E883010000948302C26C
:1005330083010000880E10B5800100004F0902BC42
:1005430083030000550902C083010000890E02C223
:1005530083010000930E10D5800300005B0902C0E5
:1005630083010000940E02C2830100009F0E100558
:1005730081030000A00E02C083010000A10E0380CE
:10058300000080700061801254656D702E204461FC
:100593007461000A54656D702E20436F6E662E00E1
:1005A3000A1E54656D702E20506572696F640002D7
:1005B300E883010000AF8302C2830100000E0F1025
:1005C3002582010000DF0902BC83030000EB09025E
:1005D300C0830100000F0F02C2830100001A0F1035
:1005E300D581030000F10902C0830100001B0F0243
:1005F300C283010000270F10C581030000280F02EA
:10060300C083010000290F124D61676E2E204461E3
:100613007461000A4D61676E2E20436F6E662E0073
:100623000A0A4D61676E2E20506572696F6400027D
:10063300E883010000A98302C2830100008E0F102A
:100643009581010000F50902BC83030000FB090248
:10065300C0830100008F0F02C2830100009A0F10B4
:100663008581030000010A02C0830100009B0F0281
:10067300C283010000A70F107581030000A80F02B9
:10068300C083010000A90FFF0001307503020106BA
:100693000000000000000000000000000000000057
:1006A300000000000000000000000000FFFF060043
:1006B300800CE803104B65792050726573732053E7
:1006C300746174650002E883010000A68302C2839B
:1006D3000100003B1002D483000000B10A02BC8376
:1006E300030000B20A02C0830100003C10025465FB
:1006F30073742044617461000A5465737420436FFA
:100703006E6669670002E883010000A08302C2836A
:100713000100007410104581030000BA0A02C0836F
:10072300010000751002C2830100007F1010A58034
:10073300030000C20A02C0830100008010C50A1230
:1007430054696D652E20446174610002E8830100E1
:10075300009A8302C283010000C6101025810300A2
:1007630000C50A02BC83030000C90A02C08301005A
:1007730000C710120135E8FC03120135FFFC031218
:10078300013530FD031201356BFD0312013595FD73
:1007930003120135BFFD03120135D6FD03120135E6
:1007A300EDFD0312013504FE031201352DFE031284
:1007B300013540FE0312013556FE0312013569FE71
:1007C3000312013590FE03120135AADD0212013531
:1007D300AEDE02120135E6DE0212013509DF021236
:1007E300013514DF0212013537DF0212013546E00D
:1007F300021201351BE10212013596E102120135A5
:100803001EE20212013559E20212013590E2021290
:1008130001351EE302120135F7E30212013557E4F5
:100823000212013562E402120135E1E402120135DC
:10083300E4E402120135E7E40212013576E502121F
:10084300013579E502120135A9E502120135D3E537
:1008530002120135C1E60212013573E702120135B6
:1008630091AA03120135B9AA03120135E7AA0312AB
:1008730001351EAB031201357CAB03120135C7AB47
:100883000312013512AC0312013552AC03120135C8
:1008930098AC03120135C6AC0312013583AD0312C4
:1008A30001358DAD031201359AAD03120135CDAD7E
:1008B3000312013599AE03120135A5AE03120135BA
:1008C300BDAE03120135C7AE031201350DFF011290
:1008D30001351BFF0112013533FF011201354BFFB7
:1008E30001120135008002120135AC80021201357C
:1008F30027810212013548820212013584820212D5
:1009030001352D83021201351484021201357885D5
:1009130002120135CF8502120135508602120135CC
:100923004087021201358D870212013513880212A6
:100933000135458802120135598A021201359B8A15
:1009430002120135B98A021201353C8B02120135BC
:10095300108C02120135D88C021201350F8F03124D
:100963000135E28F031201358B9003120135DE90BE
:10097300031201358E91031201351A9203120135C8
:10098300069303120135359303120135489403127C
:100993000135909403120135659503120135A19534
:1009A30003120135BD9503120135C18E04120135C1
:1009B300A6D603120135BCD603120135E2D60312C3
:1009C3000135FED70312013508D8031201353DD98D
:1009D3000312013535DA03120135AB9B03120135DE
:1009E300DB9C031201350E9D03120135589D031242
:1009F30001351F9F031201358ED401120135F8D43E
:100A03000112013557D60112013567D6011201359E
:100A130094D601120135EBD60112013594D7011298
:100A230001359BD80112013565D901120135C5DAAB
:100A33000112013508DB01120135ADDB011201356D
:100A4300FADB0112013520DC011201352EDE011221
:100A5300013533DE0112013538E00112013585E03D
:100A630001120135F8E0011201352BE101120135C4
:100A7300CDE10112013576E201120135AEE2011238
:100A83000135B1E201120135F9E20112013539E311
:100A93000112013590E301120135CAEC031201354D
:100AA300E2EC031201352AED0312013540ED031286
:100AB300013587ED031201359BEE0312013528EF53
:100AC3000312013573EF03120135D44C00120135C3
:100AD300E04C001201351B4D00120135604D001230
:100AE3000135204E00120135A64E001201350B4F81
:100AF30000120135374F00120135704F00120135D6
:100B0300AE5100120135925300120135785500128F
:100B13000135BB56001201350959001201351B5A24
:100B230000120135665B00120135765C0012013557
:100B3300935C00120135CE5C00120135F05C0012AB
:100B43000135535D00120135146200120135A962AB
:100B530000120135FA6200120135216300120135DA
:100B6300736300120135916300120135EB630012C8
:100B73000135D464001201354A6600120135CE6690
:100B8300001201354EAF0312013558AF0312013580
:100B93009BAF03120135B6AF0312013546B0031202
:100BA30001356EB003120135ABB003120135E2B06B
:100BB300031201350BB10312013580B10312013564
:100BC30095B103120135AAB103120135DBB103124A
:100BD3000135EFB10312013514B2031201354EB2E0
:100BE300031201357AB203120135B2B20312013591
:100BF30031B3031201357AB303120135A4B30312DF
:100C03000135CFB303120135BA8B0412013575C612
:100C130002120135A3C602120135F1C702120135D2
:100C2300D1C802120135F0C8021201356DC9021292
:100C33000135B0C90212013506CB02120135C7CB0B
:100C4300021201354ECE02120135EFCE02120135EA
:100C5300E5CF02120135E2D0021201353CD2021275
:100C63000135C7D202120135A2FE031201350BFF73
:100C7300031201355FFF0312013586FF03120135AD
:100C8300B7FF03120135E9C10312013556C203123E
:100C930001359DC203120135B5C303120135B1C439
:100CA3000312013594C5031201357BF0021201359D
:100CB300BDF0021201358FF10212013568F2021202
:100CC300013562F30212013544F402120135ADF429
:100CD3000212013563F502120135D7F5021201350F
:100CE30043F6021201356CF602120135E6F60212E2
:100CF30001357FF702120135E4F702120135F9F7E6
:100D0300021201353FF80212013558F8021201357B
:100D1300BDF802120135C0F802120135E9E60312EB
:100D2300013511E7031201354FE7031201350DE8D1
:100D33000312013574E80312013590E803120135FB
:100D4300B8E803120135E8E803120135F7E80312A6
:100D5300013574E9031201359AE9031201357DE483
:100D6300011201355BE6011201358DE801120135EF
:100D7300C9E801120135F6E801120135E0E9011273
:100D830001352BEA0112013576EA0112013588EAB1
:100D930001120135C8EA01120135FDEA01120135DC
:100DA3004BEB011201357AEB011201359DEB011278
:100DB3000135EAEB011201356FEC0112013589EEC1
:100DC30001120135C8F00112013509F10112013593
:100DD300ABF201120135ECF2011201355FF301129E
:100DE3000135B5F30112013560B9021201355EBA5E
:100DF30002120135F7C00212013518C30212013580
:100E0300E3C4021201354BC60212013535670012E5
:100E13000135E46700120135116800120135576886
:100E2300001201359769001201352D6B001201354F
:100E3300A76B00120135C26B001201353D6C001225
:100E43000135976D00120135F76E00120135FD6F04
:100E5300001201355E710012013577710012013500
:100E6300D57100120135C37200120135F6720012FA
:100E73000135667300120135E073001201352A74DF
:100E830000120135F47400120135C97500120135E1
:100E9300A87600120135337700120135A1770012CD
:100EA3000135157800120135407800120135FF78BD
:100EB30000120135647A00120135817A001201357E
:100EC300A07A00120135917B00120135B67B001226
:100ED3000135E07B001201355B7C00120135B57CE6
:100EE300001201351E7E00120135CC7E0012013541
:100EF3000D7F001201358CAB02120135DAAB021201
:100F03000135E6AB02120135C4AC02120135F5AC72
:100F13000212013526AD02120135A6AD02120135CA
:100F2300DEAD0212013530AE021201356DAE021292
:100F330001358AB002120135B0B2021201359BB4F9
:100F43000212013585B602120135E97F001201351F
:100F53000DAD011201353DAD0112013516B401127B
:100F630001359BB50112013598BB0112013580BCD7
:100F730001120135BDBC01120135E0BC011201357E
:100F830011BD011201351ABD0112013524BD011233
:100F9300013512BE0112013508BF01120135EA8382
:100FA30001120135E98701120135EF87011201357D
:100FB3002A8F01120135439401120135D8D203124D
:100FC30001356ED30312013584D303120135FAD3ED
:100FD300031201356ED403120135ACD4031201356B
:100FE30020D50312013599D503120135A2D5031279
:100FF3000135AED503120135C3D50312013501D630
:101003000312013517D60312013576D603120135C3
:1010130056C60312013563C6031201357DC603129A
:101023000135BCC603120135FAC6031201355FC789
:101033000312013574C7031201357FC7031201354B
:101043008CC703120135A3C703120135B1C70312BD
:101053000135BCC703120135C8C703120135D7C711
:1010630003120135E2C70312013505C80312013526
:10107300ACC803120135BCC803120135D6C803122C
:101083000135F3C8031201350FC90312013534C901
:10109300031201353FC90312013554C90312013547
:1010A30068C903120135C9C903120135CFC9031237
:1010B3000135D5C903120135DBC903120135F3C963
:1010C3000312013526CA03120135629D021201354E
:1010D300E69D02120135959E02120135F49F02121C
:1010E300013515A20212013501A30212013536A3FF
:1010F3000212013558A30212013507A40212013569
:10110300FFA50212013528A602120135BAA6021262
:101113000135ECA602120135F9A60212013550A7DA
:101123000212013576A702120135E3A90212013535
:10113300E6AA021201353EAB02120135F18E02120C
:101143000135FB8F02120135E29002120135EC905A
:10115300021201350E91021201351A910212013564
:10116300B39202120135E29202120135FE9302128A
:101173000135579402120135BD95021201359C9633
:1011830002120135F89602120135659702120135F4
:10119300A09702120135DF9702120135989A0212C5
:1011A3000135B29A021201353E9B021201354C9B66
:1011B30002120135A59B02120135B39B02120135C0
:1011C300269C021201358A9C02120135D49C02121C
:1011D3000135DFF30112013501F40112013527F660
:1011E300011201353CF90112013554FA011201359E
:1011F30007FB01120135E9FB01120135AB81041232
:101203000135D081041201354282041201359587DC
:10121300031201359E8703120135A7870312013597
:101223007E88031201352F8A03120135658A031262
:1012330001359F8A03120135D58A031201350F8BBD
:1012430003120135438B031201356F8B03120135F2
:10125300B88B03120135F28B031201353B8C031259
:101263000135938C03120135C88C03120135238D8C
:10127300031201355D8D03120135AE8D0312013565
:10128300E48D031201351E8E031201354C8E0312B9
:1012930001356F8E03120135D38C04120135FF8C97
:1012A300041201355A8D04120135648D041201357F
:1012B300748D041201350080031201351580031269
:1012C3000135718003120135DC800312013524815D
:1012D300031201358E8103120135BD8103120135DD
:1012E300CB81031201352D82031201356B82031268
:1012F3000135868203120135218303120135C6832A
:101303000312013549840312013582840312013526
:101313000D8503120135648503120135C38503125C
:101323000135D58503120135FB850312013504868A
:10133300031201355E87031201354E89041201350C
:101343002C8A041201359DEF03120135E2EF0312DB
:10135300013528F003120135F1F103120135F2FED4
:10136300021201350DFF021201351DFF0212013574
:1013730074FF021201357E8D04120135E4E7021277
:10138300013504E8021201357AE902120135C8E990
:1013930002120135E8E90212013550EA0212013561
:1013A300D2EA0212013518EB02120135A4EB021244
:1013B3000135EDEF021201356AF0021201350C8896
:1013C300041201353D880412013567880412013582
:1013D300878804120135E58804120135F998011252
:1013E3000135A59C0112013543A00112013575A0F9
:1013F30001120135A0A00112013594A1011201359A
:1014030008A201120135E0A2011201350BA301125A
:10141300013536A30112013561A30112013598A3E9
:1014230001120135D0A401120135BBA5011201350A
:10143300E6A5011201358DA60112013532A701126D
:101443000135D9A7011201357EA80112013525A95D
:10145300011201356CA90112013514AA01120135DB
:10146300E1AA011201356DAB0112013532AC011253
:1014730001359DB803120135EDB80312013516B9D4
:1014830003120135C8B90312013531BA031201350C
:101493003DBB0312013506BD03120135329603121B
:1014A3000135829603120135AB9603120135C597B8
:1014B30003120135589803120135A199031201351E
:1014C3006E9B03120135A3CA03120135F3CA03123B
:1014D300013510CB03120135DFCB0312013560CC8C
:1014E3000312013533CD03120135B1CE0312013599
:1014F300E4F80212013509F90212013541F9021229
:101503000135218E04120135A82F00120135C13295
:1015130000120135733400120135173500120135FD
:10152300BA3500120135713600120135A0360012AA
:1015330001355E3B00120135F53B00120135313DAB
:1015430000120135993D001201354D3E001201355F
:101553000341001201353D4100120135A74100123C
:101563000135054200120135634200120135C042C4
:1015730000120135AF4300120135F5430012013566
:101583003A44001201355D4400120135A0450012B2
:101593000135B44500120135BD4600120135FC4644
:1015A3000012013528470012013577470012013533
:1015B300984700120135D647001201351D4A001223
:1015C30001355E4A00120135FC4A00120135674BB2
:1015D30000120135A04C0012013543BD0312013541
:1015E30093BD03120135BCBD031201356EBE031258
:1015F3000135D7BE03120135E3BF03120135ACC178
:10160300031201350BFB031201351BFB03120135DA
:1016130060FB031201353EFC03120135D6FC0312B5
:1016230001350080041201353380041201355180E5
:1016330004120135EA8004120135078104120135D1
:101643009981041201352B9004120135888A041202
:101653000135988A04120135AC8A04120135B48B22
:1016630004120135E2E3031201358CE40312013560
:10167300CEE603120135A3F403120135BDF40312C0
:10168300013520F5031201358EF50312013544F6B9
:101693000312013563F60312013573F603120135A4
:1016A300B2F603120135EFF603120135BC8F0412B3
:1016B3000135FB8F041201355083041201359F83DA
:1016C30004120135D18304120135638404120135F8
:1016D300DF840412013594DD03120135A8DD031202
:1016E3000135D1DD03120135FADD03120135C2DE06
:1016F300031201350DDF03120135C4E00312013576
:101703007F8604120135B286041201352E87041236
:1017130001354E8704120135B38704120135FB8767
:1017230004120135FE8704120135D2A003120135DC
:10173300EBA00312013580A10312013571A203123C
:10174300013527A50312013567A503120135A9A5A4
:101753000312013501F70312013512F703120135A4
:101763005BF70312013587F703120135A7F703125D
:10177300013546F80312013519F903120135F184D5
:1017830004120135408504120135C8850412013560
:10179300528604120135F87F00120135E2E9031283
:1017A300013510EC031201357CEC03120135C7EC53
:1017B30003120135C7A50312013517A6031201351C
:1017C30040A603120135F2A6031201355BA70312EB
:1017D30001357DA80312013546AA03120135F7B37B
:1017E3000312013547B40312013570B403120135F6
:1017F30022B5031201358BB50312013597B60312D7
:10180300013560B8031201352BF90312013592F942
:10181300031201353DFA03120135B3FA0312013500
:101823003FDA0312013572DA0312013578DB031252
:101833000135CDDC0312013548D30212013524D41E
:10184300021201356BD402120135A8D402120135FC
:1018530016D50212013570D502120135E0D50212F8
:101863000135B8D602120135ABD7021201352FD894
:1018730002120135D2D9021201355DDA02120135A5
:10188300EDDA0212013586DB021201359DDB02120D
:101893000135D8DC021201352EDD0212013520C1DB
:1018A30001120135C4C501120135B5C80112013554
:1018B300DEC801120135F5C8011201351EC9011236
:1018C3000135D0C901120135AECB0112013500CD6E
:1018D3000112013547D20112013580D201120135BF
:1018E300C4D201120135D0D30112013535F20312EE
:1018F300013585F203120135E8F203120135AEF327
:101903000312013566F4031201353D7F00120135E0
:10191300E1CE0312013531CF031201355ACF031241
:101923000135F2CF0312013549D0031201354ED1EF
:10193300031201359BD203120135D6E003120135A0
:101943003BE10312013564E103120135B0E10312F7
:101953000135F3E103120135C6E203120135A5E3B4
:1019630003120135C0FF021201350D9004E06670C9
:101973001008A3E066700A08A3E066700408A3E0F9
:101983006622C3E7960809E7960809E7960809E778
:101993009622C3E09608A3E09608A3E09608A3E086
:1019A3009622C008C3E096F50808A3E0964208080B
:1019B300A3E096420808A3E09645087001D3D00837
:1019C30022080808EAC0E0EBC0E086F0E7A4FA18B2
:1019D3000986F0E7A42AFA180986F0E7A42AFA1878
:1019E3000986F0E7A42AFA1986F0E7A4FBE5F02AB2
:1019F300FA190886F0E7A42BFBE5F03AFA190886F2
:101A0300F0E7A42BFBE5F03AFA18180986F0E7A4EF
:101A1300C5F02BFBE43AFA1908E7C5F0C6A426F68D
:101A2300E5F03BFBE43AFA1886F0E7A4F6E5F008A4
:101A330026F6E43B08F6E43A08F6D0E0FBD0E0FAF9
:101A430022E4CFC0E0E4CEC0E0E4CDC0E0E4CCC00B
:101A5300E075F020E626F608E633F608E633F608E6
:101A6300E633F6181818EC33FCED33FDEE33FEEFD6
:101A730033FFC3EC9709ED9709EE9709EF9719190F
:101A830019400FFFEC97FC09ED97FD09EE97FE193E
:101A93001906D5F0BFECF709EDF709EEF709EFF7F3
:101AA300191919D0E0FCD0E0FDD0E0FED0E0FF2210
:101AB3006016080808C6C313C618C613C618C6138B
:101AC300C618C613C6D5E0EA2270090808082260C2
:101AD30016181818C6C333C608C633C608C633C695
:101AE30008C633C6D5E0EA22E627F60809E637F644
:101AF3000809E637F60809E637F622E026F608A3D2
:101B0300E036F608A3E036F608A3E036F622E02630
:101B1300F008A3E036F008A3E036F008A3E036F0BF
:101B230022C3E697F60809E697F60809E697F6084A
:101B330009E697F622C3E0C696F608A3E0C696F632
:101B430008A3E0C696F608A3E0C696F622C3E0967D
:101B5300F008A3E096F008A3E096F008A3E096F05F
:101B630022E657F60809E657F60809E657F6080984
:101B7300E657F622E056F608A3E056F608A3E05629
:101B8300F608A3E056F622E056F008A3E056F00864
:101B9300A3E056F008A3E056F022E0F608A3E0F62F
:101BA30008A3E0F608A3E0F622E6F008A3E6F008AF
:101BB300A3E6F008A3E6F022E0FAA3E0FBA3E0FC2F
:101BC300A3E0FD22EAF0A3EBF0A3ECF0A3EDF022F7
:101BD300E0F8A3E0F9A3E0FAA3E0FB22E8F0A3E92D
:101BE300F0A3EAF0A3EBF022CAC0E0E6F0A308DA20
:101BF300FAD0E0FA22CAC0E0E0A3C582CCC582C510
:101C030083CDC583F0A3C582CCC582C583CDC583EF
:101C1300DAE6D0E0CA22C3E498F8E499F9121C5A30
:101C23008026C3E49AFAE49BFBE920E7E9121C5AF5
:101C3300E498F8E499F922C3E498F8E499F9121CBA
:101C43005AE498F8E499F9C3E49AFAE49BFB22EB8B
:101C530020E7CFE920E7E0B90010BB0008E88AF0ED
:101C630084F8AAF022E4FBC8FA22EB70227B10C8A6
:101C730033C8C933C9335007C39AC3DBF280069A0A
:101C830050012ADBEAC833F4C8C933F4C9FA227510
:101C9300F008E4C833C8C933C933C99AC99B50048F
:101CA300C92AC93BD5F0ECFBC833F4C8E4C9FA220E
:101CB300600D08C6A2E713C618C613C6D5E0F32203
:101CC300600C08C6C313C618C613C6D5E0F4227049
:101CD3000422600D18C6C333C608C633C6D5E0F464
:101CE3001822251810AF08F518400C15198008F5AF
:101CF3001840021519D2AF2200C0D0251810AF0822
:101D0300F518500C05198008F51850020519D2AFC3
:101D1300D0D0222518F58210AF08F518400C1519FC
:101D23008008F51840021519D2AF851983222518AA
:101D3300F582E43519F583222518F8E43519F922DB
:101D43002518FAE43519FB222518FCE43519FD2280
:101D5300E4732518C582C0E0E51934FFC583C0E0EC
:101D6300E518C3958224F810AF0885831985821876
:101D73008008858319858218D2AFCEF0A3E520F0C1
:101D8300A37808E608F0A3DEFAEFF0A3E58124FACE
:101D9300F8E608F0A3E608F0A3E608F0A30808E6CF
:101DA30008F0A3E608F0A315811581D0E0FED0E08A
:101DB300F8158115811581E8C0E0EEC0E0222518F1
:101DC300C582C0E0E51934FFC583C0E0E518C395BB
:101DD3008224F910AF0885831985821880088583CA
:101DE30019858218D2AFCEF0A3E520F0A37808E6D8
:101DF30008F0A3DEFAEFF0A3E58124FBF8E608F090
:101E0300A3E608F0A30808E608F0A3E608F0A31584
:101E1300811581D0E0FED0E0F815811581E8C0E09E
:101E2300EEC0E022851983851882E0A3FEE0A3F5C6
:101E3300207808E0A3F608DFFAE0A3FFE0A3C0E000
:101E4300E0A3C0E0E0A3C0E0E0A3C0E0E0A3C0E003
:101E530010AF0885821885831980088582188583C9
:101E630019D2AFD083D082020132851983851882BB
:101E7300E0A3FEE0A3F5207808E0A3F608DFFAE08C
:101E8300A3FFE0A3C0E0E0A3C0E0E0A3C0E0E0A3C1
:101E9300C0E010AF088582188583198008858218F1
:101EA300858319D2AFD083D08222C0D02518C582B2
:101EB300C0E0E51934FFC583C0E0E518C39582246B
:101EC300F310AF08858319858218800885831985E7
:101ED3008218D2AFC8F0A3E9F0A3EAF0A3EBF0A312
:101EE3007908E709F0A3D8FAECF0A3EDF0A3EEF03C
:101EF300A3EFF0A3D0E0F0A3D0E0F0A3D0E0F0A3F1
:101F0300E520F0A3E5F0F0A322851983851882E08C
:101F1300C0E0A3E0F9A3E0FAA3E0FBA37808E0F6AE
:101F230008A3DFFAE0FCA3E0FDA3E0FEA3E0FFA328
:101F3300E0C0E0A3E0C0E0A3E0F5D0A3E0F520A378
:101F4300E0A3F5F010AF0885831985821880088512
:101F53008319858218D2AFD082D083D0E0F8D0E045
:101F63003274048006740280027401C0E0F4041227
:101F73001D16D0E0121BEB2274048004740280004F
:101F8300CCC0E0EDC0E0E518C39CCCAD1950011DF9
:101F930010AF068C188D1980068C188D19D2AF12CC
:101FA3001BF8D0E0FDD0E0FC22D083D082E9C0E072
:101FB300E493A3C386F0C5F095F0F908E493A386F0
:101FC300F0C5F095F0700BE493A3C3994005E904C1
:101FD3008002A3E475F002A42582F582E5F035833F
:101FE300F583D0E0F9E493A3C0E0E493C0E022D00A
:101FF30083D082ECC0E0EDC0E0E493A3FCE493A3C0
:10200300FDED4C600D12203EEC24FFFCED34FFFD92
:1020130080EFE493A3FCE493A3FDED4C600D122049
:102023007DEC24FFFCED34FFFD80EFD0E0FDD0E03C
:10203300FCE493A3C0E0E493C0E022C0E0C3E493D4
:1020430096087401939618400FE493667008087419
:102053000193661870007019A3A3C3E493960874E0
:1020630001939618A3A3400DD0E0D0E0D0E0022066
:102073002EA3A3A3A3A3A3D0E022C0E0C0F088F0C3
:10208300E4936670080874019366187000A8F0A3BF
:10209300A3700BD0F0D0E0D0E0D0E002202EA3A3B9
:1020A300D0F0D0E02274F5121DC1EAFEEBFFEE245E
:1020B30034F8EF3400F988088909EE2435F582EF06
:1020C3003400F583E0F8EE2437F582EF3400F5832E
:1020D300E0F50AEC850AF0A4FCAAF0850AF0EDA469
:1020E3002AFDE82CF8E43DF97A257B00121C5AEA14
:1020F300850882850983F0F8740758F97401B900DB
:10210300028004C333D9FCFAE8131313541FF8EE07
:1021130028F8EF3400F9E8245DF582E93400F5830B
:10212300E05A6008EE2434F582EF802CEE2434F577
:1021330082EF3400F583E0C0E0EE2436F582EF341D
:1021430000F583E0F5F0D0E084A8F0EE28F8EF3452
:1021530000F9E82438F582E93400F583E0F97F04D7
:10216300021E6D74F5121DC1EAFEEBFFEE2434F579
:1021730082EF3400F583E0C0E0EE2435F582EF34DE
:1021830000F583D0E0F08E828F83A3A3A3A3A3A340
:10219300A3C082C0838E828F83A3A3A3A3A3E0F8EB
:1021A300A3E0F9D083D082E0C398F508A3E099F5C2
:1021B30009EE247FF582EF3400F583E06401706952
:1021C300EE2480F582EF3400F583E0F8A3E0F98E86
:1021D300828F83A3A3A3A3A3A3A3E0FCA3E0FD8E09
:1021E300828F83A3A3A3A3A3E0FAA3E0FBC3EA9C88
:1021F300EB9D5010C3EC98ED99402EC3EA98EB99F0
:102203005027800EC3EA98EB994007C3EC98ED99E9
:1022130040177CDC7D04EEFAEFFB120EA8EE247F60
:10222300F582EF3400F583E4F0EE2434F8EF340064
:10223300F9E8FCE9FDEE2435F582EF3400F583E09F
:10224300F8EE2437F582EF3400F583E0F50AE5086C
:10225300850AF0A4F508AAF0850AF0E509A42AF591
:1022630009E82508F8E43509F97A257B00121C5A98
:10227300EA8C828D83F0F8740758F97401B900026F
:102283008004C333D9FCFAE8131313541FF8EE2860
:10229300F8EF3400F9E8245DF582E93400F583E0D2
:1022A3005A6008EE2434F582EF802CEE2434F58254
:1022B300EF3400F583E0C0E0EE2436F582EF34001E
:1022C300F583E0F5F0D0E084A8F0EE28F8EF3400D1
:1022D300F9E82438F582E93400F583E0F9122EE3B6
:1022E300022161C082C083851882851983E0F8A327
:1022F300E0F9C3EA9CEB9D5010C3EC98ED99401BA9
:10230300C3EA98EB995014800EC3EA98EB994007FF
:10231300C3EC98ED994004790180027900D083D011
:102323008222EAC39CFAEB9DFB2274EF121DC1903B
:1023330003A2E064086005E06407702A9061C8E0C6
:1023430060249003D0E0F4601DE0F875F003A4C8A6
:10235300AAF02AF974D228FE740339FF8E828F8380
:10236300A3A3A3E0700302245D906060E0C0E0EEED
:102373002468F582EF3400F583D0E0F0750C4575E1
:102383000D05750800750900E5D914F50AE5D9545A
:1023930003F50E60177403650E605CE50A6010EECA
:1023A3002467F582EF3400F583E070030224429042
:1023B3000540E06401602AEE2482F582EF3400F5E3
:1023C30083E06004780480027800850A08E508C386
:1023D30098FA95E0FB120D708A088B09EA4509709B
:1023E300051210AC8074EE2482F582EF3400F5837D
:1023F300E070048A0C8B0DE50A6012850C82850D52
:1024030083F50BE5D9F0A3150BE50B70F6EE2482EB
:10241300F582EF3400F583E0604474FC250AF50A85
:10242300780C121F68AC0AA90EEEFAEFFB120F44E8
:102433007402121CFBE97026AA08AB0912180E7964
:102443003D8E828F83A3A3A3A3E0FA7B00120C44E7
:10245300EEFAEFFB120EC0120F567900807474036C
:10246300650E6056850A107511007810121F68AC4E
:102473000CAD0DAA08AB09120F207402121CFBEE5F
:102483002468F582EF3400F583E064807004747F80
:102493008001E0F50C780C121F6CE50EF50C780C3E
:1024A300121F6CA90AAC08AD099003D0E0FA7B00B7
:1024B300120C087402121CFB80139003A2E0640840
:1024C300600BAC0CAD0DEEFAEFFB120FB01210B8AF
:1024D30079017F0A021E6D74F5121DC174FC121C72
:1024E300E5EAFEEBFF8908A2AFE433F509C2AF804A
:1024F3006AEE2463F8EF3400F97A007B00A2AFE4BC
:1025030033F50AC2AF88828983E0FCA3E0FDEC4D7A
:10251300603A88828983E0FAA3E0FB8A828B83E0B6
:10252300FCA3E0FD88828983ECF0A3EDF08A828B23
:1025330083E4F0A3F088828983E0FCA3E0FDEC4D03
:10254300700A88828983A3A3E4F0A3F0E50AA2E0DA
:1025530092AF12180E9004E3E004F0EE2463F582C8
:10256300EF3400F583E0F8A3E0F9E849603DEE2499
:1025730063F582EF3400F583E02402FAA3E034002C
:10258300FBEA2402F50AEB3400F50B780A121F6804
:102593008A828B83E0FCA3E0F9EEFAEFFB120EE4F0
:1025A3007402121CFBE970030224F49004E3E0605C
:1025B300639004E4E0F89004E3E0C398500C7402E1
:1025C300650870509004E5E0604A8E828F83A3A370
:1025D300A3A3E0851882851983F0A3E4F09004E3B4
:1025E300E0F87402121D31E8F0A3E4F09004E3E094
:1025F300F89004E2E028F07402121D31AC82AD833E
:10260300851882851983AA82AB837901120C1490F1
:1026130004E3E4F0E509A2E092AF7404121CFB02A8
:1026230021610000008521878522C622C0E0C0D039
:10263300E8C0E0E9C0E0EAC0E0EBC0E0ECC0E0EDF8
:10264300C0E0EEC0E0C008C009C00AC00BC082C031
:1026530083C0F0A2AFE433FEC2AF759B00906182EA
:10266300E0A2E05012E591A2E0500C7591FE7401D6
:102673006521700312232DE0A2E55051E591A2E5F7
:10268300504B7591DF9003A2E064076005E0640896
:10269300702374016521703579019003D0E0FA75D8
:1026A300F003A4CAA8F028FB74D22AFA74033BFBF4
:1026B3001224DA8018E0640D70139003C4E004F070
:1026C30064287002E4F07A00E0F91210BE9061828F
:1026D300E0A2E64003022776E591A2E64003022743
:1026E300767591BF9003A2E064057008120FE6129D
:1026F3000FF28003120FEC75210012104CE99003C6
:10270300A3F07900121040120E1E7A017B00900391
:10271300A1E0F9121310907803E06442705590051C
:1027230044E014F0704DC2AF12272E00782AD0E097
:10273300F618D0E0F6E59F540770057509FF80038E
:1027430075097FC4C0E07829E6F50808E65509F560
:1027530009740B7808121CC3D0E02508F890627046
:10276300E0A2E740F8E8C333906272F0906270E051
:10277300D2E0F0906181E0A2E35009E5E9A2E350E1
:102783000375E9F7A3E0A2E75009E591A2E7500337
:1027930075917FEEA2E092AFD0F0D083D082D00BC0
:1027A300D00AD009D008D0E0FED0E0FDD0E0FCD0C4
:1027B300E0FBD0E0FAD0E0F9D0E0F8D0D0D0E032BE
:1027C300C0E0C0D0C082C083906183E0A2E0500922
:1027D300E5BFA2E0500375BFFEE0A2E15009E5BFEB
:1027E300A2E1500375BFFDE0A2E25009E5BFA2E2FA
:1027F300500375BFFBE0A2E35009E5BFA2E350031A
:1028030075BFF7E0A2E45009E5BFA2E4500375BF2A
:10281300EFE0A2E55009E5BFA2E5500375BFDFE095
:10282300A2E65009E5BFA2E6500375BFBFD083D02F
:10283300828088C0E0C0D0E8C0E0E9C0E0EAC0E040
:10284300EBC0E0ECC0E0EDC0E0C0F0E5A7A2E650CD
:102853000FE5A1A2E6500953A7BF75A1BF12289B9C
:10286300E5A7A2E5500CE5A1A2E5500653A7DF7545
:10287300A1DFE5A7A2E15009E5A1A2E1500375A1FB
:10288300FDE5A7A2E2500CE5A1A2E2500653A7FB87
:1028930075A1FBD0F00227AC74F8121DC17521019C
:1028A3009003A2E064067015120F748A828B83A3CF
:1028B300A3A3A3A3A3E0FAA3E0FB120FD4A2AFE464
:1028C30033FED2AF9003A8E0640170187A207B0036
:1028D3009003A1E0F91213A07A207B009003A1E0FA
:1028E300F9121316906182E0D2E6F0900541E060A0
:1028F3002185C62280169003A7E064017008E5C60F
:1029030054F84405F5C653BEFC122628740165210C
:1029130060E4EEA2E092AF7F01021E6D008E238F72
:1029230024858228858327851882851983E0CEA391
:10293300E0CF852882852783EBC9EAC8EDCBECCAB3
:1029430075F010C3E833C8E933C9EA33CAEB33CBB4
:10295300C3EA9EF526EB9FF525B35004AB25AA26C3
:10296300EC33CCED33CDD5F0DAAE23AF242274E9CA
:10297300121DC174F8121CE5851882851983ECF0C9
:10298300A3EDF08A088B099003A2E024F7C3940512
:102993005006750801022B08120F748A0A8B0BAEBE
:1029A3000AAF0BEE4F7003022B05AC08AD0974029E
:1029B300121D31AA82AB831210048E828F83A3A3CC
:1029C300750CFF750DFF750EFF750F00780C121B4C
:1029D300777402121D317510FF7511FF7512FF75A3
:1029E30013007810121B77780C7910121985502A6E
:1029F300780C7910121B247508017509C8750A0033
:102A0300750B007808790C1219855052850C0885CE
:102A13000D09850E0A850F0B80507514017515C8B5
:102A230075160075170085100885110985120A852A
:102A3300130B7808790C121B247814790812198562
:102A4300401C750800750900750A00750B017808AC
:102A53007910121B247808790C121AEB800C750874
:102A630001750900750A00750B0074097808121ABC
:102A7300CC750C19F50DF50EF50F7808790C121AB3
:102A8300448E828F83A3A3A3A3A3A3E0F8A3E0F9B7
:102A93007AD07B03121C5A880C890DE4F50EF50FCE
:102AA3007808790C121AEB7406121D31E0F8A3E0D2
:102AB300F97AD07B03121C5AE8FA8A0CE4F50D78F4
:102AC30008790C12198550077808790C121B249089
:102AD30003A2E06408600AE064066005E064057030
:102AE3002D750C0D780C79081219854021750CF49D
:102AF300750DFF750EFF750FFF7808790C121AEB31
:102B0300800C750800750900750A00750B0085189F
:102B130082851983E0F8A3E0F58388827808121B85
:102B2300AC7408121CFB7F10021E6D74F7121DC1DA
:102B330012101690053FE064017010906245E4F0B6
:102B4300A3F053F4F343FE0C5390F3120FC2E5C604
:102B530054804449F5C6E59E547F644970F89061FA
:102B630085740FF090053DE0F47002A3E0604E9091
:102B7300053EE0600814601B14602E804075080158
:102B830075090090053DE07808121CD2E508F4525F
:102B930080802A75080175090090053DE0780812C8
:102BA3001CD2E508F4529080147508017509009051
:102BB300053DE07808121CD2E508F452A079007FA5
:102BC30002021E6D74F7121DC1E9FEEAFF74016E65
:102BD300700C7A807B009003A1E0F9121310902F00
:102BE300A0E493F46008E493F9120E12800953C62B
:102BF30080E59E547F70FA120FC890053FE0640190
:102C03007003120E2A90053DE0F47002A3E0604BBE
:102C130090053EE0600814601A14602C803D75082E
:102C23000175090090053DE07808121CD2E50842C1
:102C330080802875080175090090053DE078081229
:102C43001CD2E508429080137508017509009005B0
:102C53003DE07808121CD2E50842A0121016120FAC
:102C6300748A088B09A808A909E8496015E5E17089
:102C7300FCE82414F582E93400F583E0F46003E012
:102C8300F5E174016F700A7A019003A1E0F9121360
:102C93006A022BC274ED121DC18A088B098C0A8D3E
:102CA3000B7413121D31780C121B9D7808790C12CA
:102CB30019857510017511C875120075130050122E
:102CC3007808790C121B247810790812198550168C
:102CD3008010780C7908121B247810790C1219854E
:102CE30040047901800279007F0C021E6D74ED129D
:102CF3001DC18A088B098C0A8D0B7413121D317840
:102D03000C121B9D780C79081219854011780879EB
:102D13000C121B24AA08AB09AC0AAD0B8022751058
:102D2300007511007512007513017810790C121BD0
:102D33002478107908121AEBAA10AB11AC12AD1358
:102D430080A68A828B837508FF7509FF750AFF7554
:102D53000B007808121B8A7F04021E6D74F5121D86
:102D6300C18C828D837808121B9D8A828B8378089D
:102D7300121B50EA2404F8EB3400F98C828D83A3F0
:102D8300A3A3A3E0FCA3E0FD88828983C3E09CF0B6
:102D9300A3E09DF088828983C3E09420A3E0944E4E
:102DA30040268A828B837508FF7509FF750AFF75B4
:102DB3000BFF7808121B118A828B83A3A3A3A3E0C2
:102DC3002420F0A3E0344EF0022D4574F5121DC10A
:102DD300E9FE9004F7E0FAA3E0FBEEC333F8E43333
:102DE300F974F528F582748039F583E02AF508A390
:102DF300E03BF5097808121F687A407B427C0F7D1F
:102E0300001229207402121CFB8A088B098C0A8D7C
:102E13000B74107808121AB3AA08AB097F04021EB8
:102E23006D74F1121DC18A0C8B0D8C0E8D0F740FF6
:102E3300121D31E0FAA3E0FB7411121D31E0F50815
:102E4300A3E0F5097808121F68EA2401F508EB34BA
:102E530000F509E4F50AF50B780C79081219C47525
:102E63000871750902780C79081219C4AA0CAB0D04
:102E7300AC0EAD0F1229207402121CFB8B09EA451C
:102E83000960047A0180027A00EC2AFCED3400FD2B
:102E93007413121D31E0F8A3E0F9E8FEE9FFECF842
:102EA300EDF97A717B02121C5A880889098E828F88
:102EB300837808121BACECF8EDF97A717B02121CD3
:102EC3005A8A088B0974057808121CD28E828F8364
:102ED300A3A3A3A3E508F0A3E509F07F08021E6DF1
:102EE300C082C083E9906000F0D083D08222C2AF59
:102EF30002000022C0E074F2121EADA2AFE433FE62
:102F0300D2AFE589A2E05003121718758900C2C534
:102F1300EEF8EEA2E092AF7F01021F0CC0E074F264
:102F2300121EADA2AFE433FED2AFE58AA2E640069D
:102F3300E58AA2E75003121718758A00758A00C242
:102F4300EBEEF8EEA2E092AF7F01021F0CC0E0C0EF
:102F5300D0E8C0E0E9C0E0A2AFE433F8D2AF758BAC
:102F630000C2E8E8F9E8A2E092AFD0E0F9D0E0F8D7
:102F7300D0D0D0E032C0E0C0D0E8C0E0E9C0E0A2E9
:102F8300AFE433F8D2AFC2C7751A00E8F9E8A2E09C
:102F930092AFD0E0F9D0E0F8D0D0D0E032FFFFFF1D
:102FA300FFFFFFFFFF74F0121D5574F8121CE58A32
:102FB3000E8B0FE9FF8C0C8D0D7E00850E08850F9F
:102FC300097808121FAC0004108D32F02F13303231
:102FD30030553078309B30CC30EF3006313631EE1F
:102FE300311132343262328D328D325F3174016F7E
:102FF3007019850C82850D83E0C39403500D850CF5
:1030030082850D83E0900E81F080027E180232B536
:1030130074026F7015850C82850D83E0F8A3E0F9C7
:10302300900E82E8F0A3E9F080027E180232B574B4
:10303300016F7019850C82850D83E0C39402500DD6
:10304300850C82850D83E0900894F080027E18023F
:1030530032B574016F7019850C82850D83E0C394BA
:1030630005500D850C82850D83E0900895F0800254
:103073007E180232B574016F7019850C82850D8339
:10308300E0C39402500D850C82850D83E090089671
:10309300F080027E180232B574106F702775081025
:1030A3007509007808121F68AC0CAD0D7A977B0880
:1030B3001212BC7402121CFB8A088B0985088285D4
:1030C300098380027E180232B574016F7019850C72
:1030D30082850D83E0C39402500D850C82850D8398
:1030E300E09008A7F080027E180232B574016F7079
:1030F3000D850C82850D83E0900E85F080027E188D
:103103000232B574046F702690834C7808121B9DAD
:10311300850C82850D8378081219955011850C82D0
:10312300850D83121BD39008A9121BDF80027E1822
:103133000232B5EF70211209C2E97013121580E94A
:10314300F5087950121898E9F50912156E800A905E
:10315300093C7401F080027E180232B574076F6077
:10316300030231E97508067509007808121F68859E
:103173000C82850D83A3AC82AD837404121D4312AC
:1031830012C27402121CFB851882851983EAF0A30C
:10319300EBF07C007D007402121D43850C82850DCB
:1031A30083E0F9121514E9F50AE50AC3940A5032CB
:1031B3001209C2E97015A90A121586E9F5087950B2
:1031C300121898E9F50912156E801D850A0875090C
:1031D30000743D2508F58274093509F5837401F0FF
:1031E30080067E0280027E180232B574016F701968
:1031F300850C82850D83E0C39402500D850C828576
:103203000D83E09008A8F080027E180232B57401A5
:103213006F7019850C82850D83E0C3940A500D8568
:103223000C82850D83E0900E84F080027E180232BA
:10323300B574016F7025850C82850D83E0C39407F7
:103243004019850C82850D83E0C39411500D850CC4
:1032530082850D83E0900E86F080577E188053742C
:10326300016F702290093BE0F508850C82850D8380
:10327300E090093BF0E508703990093BE064017088
:103283003112156E802C7E188028C3E50E9427E535
:103293000F9400501B74026F7016850C82850D838A
:1032A300E0FCA3E0FDAA0EAB0F120860E9FE80026A
:1032B3007E02EEF97408121CFB7F08021E2774F0CD
:1032C300121D5574D7121CE5E9C0E08518828519D3
:1032D30083D0E0F07401121D31EAF0A3EBF08C0E01
:1032E3008D0F9082FC7403121D4B7406121BF8742D
:1032F30003121D4B7401121D31E0FAA3E0FB851884
:1033030082851983E0F9121514E9FEEEC3940A408D
:103313000302344EEEF9121550E9FF900E81E0647A
:10332300027004740180027400F5087808121F6C9F
:10333300743A121D31E0FDEFFCEEF9AA0EAB0F1249
:1033430015C27401121CFB7C147D007900741512E4
:103353001D431212D48A088B0985080A85090B7448
:1033630015121D4B7A1075F006EEA42424F91218D9
:1033730092E9703B7C1079FF7415121D43121334CC
:10338300E9702C7425121D31AC82AD837A0475F07B
:1033930006EEA42425F9121892E9F5087415121DF6
:1033A3004BEFA2E0E433F9AA0EAB0F1208EAE9747B
:1033B30009121D4B7A0C74702EF9121892E9707968
:1033C3007409121D43121544750800E508C39404DB
:1033D3005067E508F87900E875F003A4C8AAF0750A
:1033E300F000A42AFA75F003E9A42AF97409121D5E
:1033F30031E58228F50CE58339F50D850C82850DC1
:1034030083E0F8A3E0F9E849602B850C82850D83FE
:10341300A3A3E0F50A750B00780A121F68850C82D6
:10342300850D83E0FCA3E0FDAA0EAB0F120B4E74D7
:1034330002121CFBE905088092EFA2E1500D9008EF
:1034430093E0F9AA0EAB0F120B54E97439121D3134
:10345300E06404700F900E81E064027007AA0EAB63
:103463000F1215BC79007429121CFB7F08021E275A
:1034730074F2121D55890B8A088B09ECFEEDFF755A
:103483000A0AE50B600B14600814604114605F8046
:103493007CAA08AB09121562E9F50AE50AC3940A86
:1034A300506BEE4F6067750C06750D00780C121F9C
:1034B30068AC08AD09EEFAEFFB1212BC7402121CE1
:1034C300FB8A0C8B0D850C82850D838040AA08AB8B
:1034D3000912155CE9F50AE50AC3940A502FEE4F69
:1034E300602BEEFAEFFBA90A121556E9801FAA0812
:1034F300AB09121568E9F50AE50AC3940A500EEE02
:103503004F600AEEFAEFFBA90A121556E9A90A7FE2
:1035130006021E2774F2121D558A0C8B0DE9FF7EDD
:103523001574FF650C700474FF650D702A7508002F
:10353300E508C3940A5014EFFC7A027B00A9081231
:103543001532E960027E00050880E5EF60627AAA21
:103553007B15120D528059AA0CAB0D120D348A083B
:103563008B0985080A85090BE50A450B60407C0039
:103573007D00E50A2405FAE4350BFB850A82850BF9
:1035830083A3A3A3A3E0F9121514E9F508E508C37F
:10359300940A500EEFFC7A027B00A908121532E957
:1035A3007E00EF600BAA0AAB0B1215AA80027E14F1
:1035B300EEF97F06021E2774F0121D5574FE121CCD
:1035C300E5851882851983EAF0A3EBF08C0A8D0B4D
:1035D3007412121D31E0F50EA3E0F50F7E15851868
:1035E30082851983E064FF7004A3E064FF701D7F8C
:1035F30000EFC3940A506BAC0EAD0FAA0AAB0BEFEE
:10360300F9121538E960027E000F80E5851882857E
:103613001983E0FAA3E0FB120D348A0C8B0D850CA1
:1036230008850D09E508450960367C007D00E5083D
:103633002405FAE43509FB850882850983A3A3A33E
:10364300A3E0F9121514E9FFEFC3940A5014AC0E6A
:10365300AD0FAA0AAB0BEFF9121538E97E00800211
:103663007E14EEF97402121CFB7F08021E2774F706
:10367300121D55EAFEEBFF9008ADEEF0A3EFF090BC
:103683000893E0FC7D007A267B00120860E9F508C8
:10369300900893E0F9120ACA7F01021E2774F212FE
:1036A3001D5574EC121CE58A0A8B0B850A82850B67
:1036B30083A3A3E024FA7003023AE424FD70030217
:1036C300395C14700302379014601024FD700302F8
:1036D300390414700302399F023B52AE0AAF0B90B8
:1036E30008ADE0F8A3E0F9E84960669008ADE0F8BA
:1036F300A3E0F5838882E0F8A3E0F9E8496052EE9D
:10370300240CF582E43FF583E0F5087808121F6C7A
:10371300EE240BF582E43FF583E0F98E828F83A3D9
:10372300A3A3A3A3A3A3A3A3E0FCA3E0FDEE24030D
:10373300FAE43FFB9008ADE0F8A3E0F5838882E06C
:10374300F8A3E0F5838882121D537401121CFB80D9
:10375300398E828F83A3A3A3A3A3A3A3A3A3121F1F
:103763007F9008A9121BBB1208FC7402121CFBE910
:10377300601879018E828F83A3A3A3A3A3A3A3A31A
:10378300A3E0FAA3E0FB1208F6E9023B52AE0AAF4C
:103793000B8E828F83A3E060030238B28E828F8305
:1037A300A3A3A3A3A3E0A2E040030238B290094776
:1037B300E0F8A3E0F9E84960030238B27C0E7D002B
:1037C3007900AA18AB191212D48A088B09AA08AB7C
:1037D30009EE240CF582E43FF583E0F8A3E0F9E871
:1037E3004960367508067509007808121F68EE24CB
:1037F3000CF582E43FF583E02410FCA3E03400FDE4
:103803007402121D431212BC7402121CFB8A088B31
:1038130009850882850983804F8E828F83A3A3A3A2
:10382300E0FAA3E0FB120D348A0C8B0D850C08859E
:103833000D09E5084509602D750C06750D00780C1A
:10384300121F68E5082405FCE43509FD7402121D06
:10385300431212BC7402121CFB8A0C8B0D850C8262
:10386300850D838003023B528E828F83A3A3A3A380
:10387300A3E0A2E25004D2F08002C2F0A2F0E4334B
:10388300F87900740C121D31E048F0A3E049F0EE22
:10389300FCEFFDAA18AB1912154AE970127A027BE4
:1038A30000900893E0F9121310E97900023B549059
:1038B30008ADE0F8A3E0F9E84960439008ADE0F80B
:1038C300A3E0F5838882A3A3E0F8A3E0F9E84960C5
:1038D3002D8E828F83A3E0FC79018E828F83A3A335
:1038E300A3E0FAA3E0FB9008ADE0F8A3E0F583883A
:1038F30082A3A3E0F8A3E0F5838882121D53023B61
:1039030052AE0AAF0B9008ADE0F8A3E0F9E84960C6
:10391300459008ADE0F8A3E0F5838882A3A3E0F81F
:10392300A3E0F9E849602F850A82850B83A3E0FCB5
:1039330079028E828F83A3A3A3E0FAA3E0FB90080E
:10394300ADE0F8A3E0F5838882A3A3E0F8A3E0F554
:10395300838882121D53023B52850A08850B097C1A
:10396300007D00E5082404FAE43509FB8508828517
:103973000983A3A3A3E0F9121514E9FEEEC3940A85
:103983005017E508240AFCE43509FD7A0475F006AE
:10399300EEA42425F912188CE9023B52AE0AAF0BB0
:1039A3009008A8E06018900E84E0F98E828F83A3BC
:1039B300A3A3E0FAA3E0FB1208F6E9023B52900E40
:1039C30081E0701579058E828F83A3A3A3E0FAA308
:1039D300E0FB1208F6E9023B528E828F83A3A3A376
:1039E300E0FAA3E0FB120D348A0C8B0D850C0885DD
:1039F3000D098E828F83A3A3A3A3A3A3A3E0A2E0B5
:103A03005071E50845096068850882850983A3A389
:103A1300A3A3E0605E8E828F83A3A3A3A3A3A3A328
:103A2300A3A3E0F8A3E0F9E8C4540FF87900E8543D
:103A330001F8E95400F9E8A2E04038740E121D4B76
:103A4300E5082405FAE43509FB850882850983A383
:103A5300A3A3A3E0F9121514E9701879038E828FDA
:103A630083A3A3A3E0FAA3E0FB1208F6E9023B5207
:103A7300023B52EE2405FCE43FFD85088285098361
:103A8300A3A3A3A3E0F98E828F83A3A3A3E0FAA346
:103A9300E0FB1215B69008ADE0F8A3E0F9E8496041
:103AA3003E9008ADE0F8A3E0F5838882A3A3E0F895
:103AB300A3E0F9E84960287C0079008E828F83A314
:103AC300A3A3E0FAA3E0FB9008ADE0F8A3E0F5833D
:103AD3008882A3A3E0F8A3E0F5838882121D5380B4
:103AE3006E1209C2E9706890093CE06401701A1211
:103AF3001580E9FE90093C7400F07C0A7D00790092
:103B03007A3D7B091212D4803C7E00EEC3940A50A6
:103B1300348E08750900743D2508F582740935094A
:103B2300F583E06401701BEEF9121586E9F88E083F
:103B3300750900743D2508F58274093509F5837408
:103B430000F00E80C67950121898E9FE12156E79AE
:103B5300017414121CFB7F06021E2774F3121D55F9
:103B630074F2121CE58908EAFEEBFF8C09AC18AD70
:103B7300197A0E75F006E508A42420F9121892E9C3
:103B830070647C0679FFAA18AB19121334E97056D6
:103B9300740C121D31E0F8A3E0F9E8F50CE50960B7
:103BA30005EE420C8004EEF4520C850C0A750B00F2
:103BB300740C121D31E0650A7004A3E0650B6022EA
:103BC300E50CF87900740C121D31E8F0A3E9F0ACB0
:103BD30018AD197A0E75F006E508A42420F9121819
:103BE3008CE9790180027900740E121CFB7F0502B7
:103BF3001E2774F0121D5574E6121CE589098A0EFE
:103C03008B0FECFEEDFF740C121D4B7A0E75F00654
:103C1300E509A42420F9121892E96003023D257CEA
:103C23000679FF740C121D43121334E96003023D3D
:103C330025AC18AD197A0C74702509F9121892E99C
:103C43006003023D21750800AA18AB19121544E55B
:103C53000E450F702E7C0C7900AA18AB1912133481
:103C6300E96003023D077C0C7D007900AA18AB19BB
:103C73001212D48A0A8B0B850A82850B837508017D
:103C8300023D07AC18AD19AA0EAB0F12153E8A0CF4
:103C93008B0D850C0A850D0BE50A450B7030EE4F35
:103CA300601BAC18AD197A007B0012153E8A0C8B91
:103CB3000DA80CA90D880A890BE8497004790080C6
:103CC30063850A82850B83E50EF0A3E50FF0850A71
:103CD30082850B83A3A3E0F87900EE687002EF6995
:103CE3006022EEC0E0850A82850B83A3A3D0E0F0B7
:103CF300EE4F700D850A82850B837400F0A3740068
:103D0300F0750801E5086016AA18AB19121544AC42
:103D130018AD197A0C74702509F912188CE9790118
:103D230080027900741A121CFB7F08021E2774F7A5
:103D3300121D55EAFEEBFF7B00EBC39404504EEBE0
:103D4300F87900E875F003A4C8AAF075F000A42A76
:103D5300FA75F003E9A42AF9EC28F582ED39F58325
:103D6300E06E7003A3E06F7021EBF87900E875F063
:103D730003A4C8AAF075F000A42AFA75F003E9A415
:103D83002AF9EC28FAED39FB80070B80AC7A007B2B
:103D9300007F01021E2774F7121D557F00EFC394A5
:103DA300044003023E48EFF87900E875F003A4C825
:103DB300ACF075F000A42CFC75F003E9A42CF9EA2F
:103DC30028F582EB39F583E0F4FCA3E0F4FDEFF88A
:103DD3007900E875F003A4C8AEF075F000A42EFED8
:103DE30075F003E9A42EF9EA28F582EB39F583ECA3
:103DF300F0A3EDF0EFF87900E875F003A4C8ACF098
:103E030075F000A42CFC75F003E9A42CF9EA28F55D
:103E130082EB39F583A3A3E0F4C0E0EFF87900E87F
:103E230075F003A4C8ACF075F000A42CFC75F00386
:103E3300E9A42CF9EA28F582EB39F583A3A3D0E0B2
:103E4300F00F023DA07F01021E2774F0121D55746E
:103E5300F4121CE5EAFEEBFF8C088D09900947E09C
:103E6300F8A3E0F9E849702CEE4F6006E508450930
:103E7300700579010240F9EEFAEFFB121562E99041
:103E83000E87F0900E87E0C3940A4008121574E978
:103E9300900E87F0900E87E0C3940A40030240F728
:103EA300900947E0F8A3E0F9E8496003023F43EED5
:103EB300FCEFFD7A0E75F006900E87E0A42420F93E
:103EC30012188CE9F50B7C0C7D0079FFAA18AB194D
:103ED3001212D48A0C8B0D850C0E850D0FAC18AD08
:103EE300197A0C900E87E02470F912188CE9F50A00
:103EF300750C0E750D00780C121F68EEFCEFFD902B
:103F03000E87E0F87900E875F00EA4C8AAF075F002
:103F130000A42AFA75F00EE9A42AF974AF28FA74FA
:103F23000839FB1212BC7402121CFB8A0C8B0DA8FD
:103F33000CA90D900947E508F0A3E509F00240F349
:103F4300900947E0F8A3E0C82406F582C83400F5D9
:103F530083E0F8A3E0F9E8496043900947E0F8A358
:103F6300E0C82406F582C83400F583E0FCA3E0FD35
:103F73007A1B75F006900E87E0A42421F912188CA1
:103F8300E9F8900947E0F9A3E0C92406F582C934AA
:103F930000F5837400F0A37400F00240F390094726
:103FA300E0F8A3E0C8240AF582C83400F583E0F8FA
:103FB300A3E0F9E8496043900947E0F8A3E0C82487
:103FC3000AF582C83400F583E0FCA3E0FD7A1B7593
:103FD300F006900E87E0A42422F912188CE9F890D9
:103FE3000947E0F9A3E0C9240AF582C93400F5833F
:103FF3007400F0A37400F00240F3900947E0F8A3C3
:10400300E0C8240CF582C83400F583E0F8A3E0F996
:10401300E8496043900947E0F8A3E0C8240CF5821F
:10402300C83400F583E0FCA3E0FD7A1075F0069038
:104033000E87E0A42423F912188CE9F8900947E0CD
:10404300F9A3E0C9240CF582C93400F5837400F0A8
:10405300A37400F00240F3900947E0F8A3E0C824FA
:1040630008F582C83400F583E0F8A3E0F9E8496075
:104073006F900947E0F8A3E0C82408F582C834002C
:10408300F583E0FCA3E0FD7A1075F006900E87E05F
:10409300A42424F912188CE9F50A900947E0F8A33F
:1040A300E0C82408F582C83400F583E02410FCA39B
:1040B300E03400FD7A0475F006900E87E0A4242511
:1040C300F912188CE9F8900947E0F9A3E0C924082C
:1040D300F582C93400F5837400F0A37400F08010F6
:1040E30090093BE060031215C81215B079018006F0
:1040F300790080027901740C121CFB7F08021E27D1
:1041030074F7121D5574F2121CE5E9FEAC18AD19D3
:104113007A0E75F006EEA42420F9121892E9700EB7
:10412300740C121D31E0F8A3E0F9E8F9800279007C
:10413300740E121CFB7F01021E2774F4121D5574AA
:10414300F2121CE58909EAFEEBFFE509C3940A5064
:1041530004EE4F700479028041AC18AD197A0E75E4
:10416300F006E509A42420F9121892E9F508E508F8
:104173007026750A06750B00780A121F68740212FE
:104183001D4BEEFAEFFB1212BC7402121CFB8A0ADF
:104193008B0B850A82850B83A908740E121CFB7F87
:1041A30004021E2774F4121D55EAFEEBFF75080086
:1041B300E508C3940A5044750A06750B00780A1281
:1041C3001F68EEFCEFFDE508F87900E875F00EA432
:1041D300C8AAF075F000A42AFA75F00EE9A42AF92A
:1041E30074B528FA740839FB1212CE7402121CFB40
:1041F300E96004A9088006050880B5790A7F0402EE
:104203001E2774F4121D55EAFEEBFF750800E5083E
:10421300C3940A5044750A06750B00780A121F6886
:10422300EEFCEFFDE508F87900E875F00EA4C8AAE6
:10423300F075F000A42AFA75F00EE9A42AF974AF18
:1042430028FA740839FB1212CE7402121CFBE960BF
:1042530004A9088006050880B5790A7F04021E2791
:1042630074F7121D5574F0121CE5EAFEEBFF750896
:1042730000E508C3940A5039AC18AD197A1075F0EB
:1042830006E508A42423F9121892E970207C10791A
:10429300FFAA18AB19121334E97012EEFCEFFDAA52
:1042A30018AB191208CCE97004A908800605088028
:1042B300C0790A7410121CFB7F01021E2774F412CA
:1042C3001D55750800E508C3940A400302439EE5A3
:1042D30008F87900E875F00EA4C8AAF075F000A4F8
:1042E3002AFA75F00EE9A42AF974AF28FC74083988
:1042F300FD7A0E75F006E508A42420F9121892E958
:1043030070030243997C067D0079FFE508FA7B0080
:10431300EA75F00EA4CAA8F075F000A428F875F0A9
:104323000EEBA428FB74AF2AFA74083BFB1212D4D9
:104333008A0A8B0BAE0AAF0B7C067D0079FFE5087A
:10434300FA7B00EA75F00EA4CAA8F075F000A42861
:10435300F875F00EEBA428FB74B52AFA74083BFB3E
:104363001212D48A0A8B0BAC0AAD0BE508F879005C
:10437300E875F00EA4C8AAF075F000A42AFA75F047
:104383000EE9A42AF974BB28F582740839F58374FD
:1043930000F0A37400F005080242C890093BE060F6
:1043A300031215C81215B07F04021E2774F7121DDD
:1043B300557E00EEC3940A50327C0679FFEEFA7BF9
:1043C30000EA75F00EA4CAA8F075F000A428F875E9
:1043D300F00EEBA428FB74AF2AFA74083BFB12130C
:1043E30034E96004EEF980050E80C8790A7F010282
:1043F3001E2774F7121D557E007F00EFC3940A50E9
:104403002F7C0679FFEFFA7B00EA75F00EA4CAA8A9
:10441300F075F000A428F875F00EEBA428FB74AF38
:104423002AFA74083BFB121334E970010E0F80CB98
:10443300EEF97F01021E2774F7121D557E007F00DF
:10444300EFC3940A500DEE700AEFF9121586E9FED8
:104453000F80EDEEF97F01021E2774F0121D5574D3
:10446300C9121CE5E9FE900E87E06E701D7A017B90
:1044730000900893E0F9121316E97A027B00900882
:1044830093E0F9121316E91215D47429121D4B7A0D
:104493000E75F006EEA42420F9121892E9600302C7
:1044A30045917C0679FF7429121D43121334E96088
:1044B300030245917C0E7D0079FF7429121D43127E
:1044C30012D4851882851983EAF0A3EBF07C1B7D57
:1044D3000079FF740E121D431212D48A0A8B0B85C6
:1044E3000A0E850B0F7C0C7D0079FF7402121D43AD
:1044F3001212D48A0C8B0D850C0A850D0B742912AC
:104503001D4B7A0E75F006EEA42420F912188CE9DF
:10451300F508740E121D4B7A1B75F006EEA42421C8
:10452300F912188CE94208740E121D4B7A1B75F0B0
:1045330006EEA42422F912188CE94208740E121D07
:104543004B7A1075F006EEA42423F912188CE94275
:1045530008740E121D4B7A1075F006EEA42424F98C
:1045630012188CE94208740E121D4B7A0475F0067A
:10457300EEA42425F912188CE942087402121D4B8B
:104583007A0C74702EF912188CE9420880037508AE
:1045930000A9087437121CFB7F08021E2774F71248
:1045A3001D55E9FEEE900893F012156E7F01021E71
:1045B3002774F2121D55890AEAFEEBFFEE5400F848
:1045C300EF5480F9E8496035900893E0F91212F846
:1045D3008A0C8B0DA80CA90D88088909E84960127B
:1045E300AA08AB09121598E96008AA08AB091212C8
:1045F300E6E9EE6400FAEF6480FB0246B8EE54028B
:10460300602D7C007D007A007B0012154AE960185A
:104613007A017B00900893E0F9121310E9EE64022B
:10462300FAEF6400FB0246B87A027B000246B8EE5A
:10463300A2E0507D900947E0F8A3E0F5838882A3C8
:10464300A3A3E0FAA3E0FB1215CEE9605E9008ADE8
:10465300E0F8A3E0F9E84960459008ADE0F8A3E08D
:10466300F5838882A3A3E0F8A3E0F9E849602F7CEF
:10467300007901900947E0F8A3E0F5838882A3A3BA
:10468300A3E0FAA3E0FB9008ADE0F8A3E0F583888C
:1046930082A3A3E0F8A3E0F5838882121D531215C9
:1046A300D4EE6401FAEF6400FB800A7A017B008098
:1046B300047A007B007F06021E2774F7121D55EA59
:1046C300FEEBFF7508018E828F83E0245060131484
:1046D300601924E1701CEEFAEFFB12152CE9F508C2
:1046E3008010EEFAEFFB12159E8007EEFAEFFB1235
:1046F30015A4A9087F01021E2774F7121D55EAFEAF
:10470300EBFF8E828F83A3A3A3A3E0641E701179B2
:10471300008E828F83A3A3E0FAA3E0FB12151AE9AC
:104723007F01021E2774F6121D558A088B0985081E
:1047330082850983A3A3A3A3E07034AE08AF098ED7
:10474300828F83A3A3A3A3A3A3A3121F7F8E828F0E
:1047530083A3A3A3A3A3E0FCA3E0FD8E828F83A383
:10476300A3E0FAA3E0FB1215207402121CFBE97FFD
:1047730002021E2774F7121D55EAFEEBFF90089301
:10478300E0F98E828F83A3E0FAA3E0FB120B54E9D6
:104793007F01021E27C082C08374FF121CE512151D
:1047A3007AE9C39402400B8518828519837402F059
:1047B3008009851882851983740AF0AC18AD197ABB
:1047C3000179051209DAE97401121CFBD083D08246
:1047D30002013274F2121D5574E8121CE58A088B2B
:1047E30009E9FE8C0A8D0B7C187D007900AA18ABB1
:1047F300191212D48A0C8B0DAC0CAD0D8518828561
:104803001983E508F0A3E509F0900895E0C0E0748A
:1048130002121D31D0E0F0900896E0C0E07403125C
:104823001D31D0E0F0900E86E0C0E07417121D3108
:10483300D0E0F07415121D31E054FEF8A3E054FFEC
:10484300F9900E85E0A2E0E433FA7B00E84AF8E948
:104853004BF97415121D31E8F0A3E9F0900E85E0D1
:10486300A2E15004D2F08002C2F07415121D31E0AF
:1048730054FDFAA3E054FFFBA2F0E433F87900E817
:1048830028F8E933F9EA48F8EB49F97415121D31B0
:10489300E8F0A3E9F0900E85E0A2E35004D2F080A3
:1048A30002C2F07415121D31E054F7FAA3E054FF6D
:1048B300FBA2F0E433F50C750D007403780C121CA5
:1048C300D2EA450CF8EB450DF97415121D31E8F0E9
:1048D300A3E9F0900E85E0A2E45004D2F08002C276
:1048E300F07415121D31E054EFFAA3E054FFFBA25C
:1048F300F0E433F50C750D007404780C121CD2EA45
:10490300450CF8EB450DF97415121D31E8F0A3E9D8
:10491300F0900E85E0A2E55004D2F08002C2F0745C
:1049230015121D31E054DFFAA3E054FFFBA2F0E4BB
:1049330033F50C750D007405780C121CD2EA450C86
:10494300F8EB450DF97415121D31E8F0A3E9F09069
:104953000E85E0A2E25004D2F08002C2F074151278
:104963001D31E054FBFAA3E054FFFBA2F0E433F55E
:104973000C750D007402780C121CD2EA450CF8EB8E
:10498300450DF97415121D31E8F0A3E9F09008966E
:10499300E0602A750C10750D00780C121F687C9767
:1049A3007D087406121D31AA82AB831212BC7402F5
:1049B300121CFB8A0C8B0D850C82850D839008A736
:1049C300E06011EE600E7415121D31E04402F0A395
:1049D300E04400F09008A7E06006780179008004C5
:1049E300780079007414121D31E048F0900894E0C7
:1049F3006006780479008004780079007414121D2D
:104A030031E048F0AC0AAD0BAA18AB191208F0E973
:104A13007418121CFB7F06021E2774F7121D55EA39
:104A2300FEEBFF7508009008A7E0600678017900A7
:104A3300800478007900E84208900894E0600678E2
:104A4300047900800478007900E84208A908EEFAA6
:104A5300EFFB1209AAE97F01021E2774F2121D550A
:104A630074E3121CE58A0C8B0DE9FF8C0A8D097423
:104A73002B121D31E0F50874086509700A75F006FC
:104A8300EFA42422FE800875F006EFA42421FE7C07
:104A93001B7D0079007402121D431212D485188203
:104AA300851983EAF0A3EBF07402121D4B7A1BEE17
:104AB300F9121892E97038741C121D31E0C394077F
:104AC300402D741C121D31E0C394115022E508F5EA
:104AD3000B780B121F6C7403121D4BE50AA2E0E462
:104AE30033F9AA0CAB0D1209027401121CFBE97411
:104AF3001D121CFB7F06021E2774F7121D55120B95
:104B0300CCE97E00EEC3940A50557C0679FFEEFA99
:104B13007B00EA75F00EA4CAA8F075F000A428F88B
:104B230075F00EEBA428FB74AF2AFA74083BFB1252
:104B33001334E97027EEF87900E875F00EA4C8AADB
:104B4300F075F000A42AFA75F00EE9A42AF974AFFF
:104B530028FA740839FB7900120BD2E90E80A57F7D
:104B630001021E2774F6121D5574FD121CE5EAFEA0
:104B7300EBFF900949E0F8A3E0F9E84970397508BB
:104B83004B7509097808121F6875080275090078C2
:104B930008121F687508BC7509837808121F687CA2
:104BA300FF7DFF7A017B00120A1C7406121CFB9026
:104BB3000949EAF0A3EBF0900949E0F8A3E0F9E82A
:104BC300497003024C84E4F508F5097808121F685C
:104BD3007404121D3B880889097808121F6874043D
:104BE300121D3B880889097808121F6890094B1227
:104BF3001F7F7902900949E0FCA3E0FDEEFAEFFB89
:104C0300120B427408121CFBE9704A85188285193D
:104C130083E0FA7B007401121D31E0F87900E4C8E7
:104C2300F9EA28F508EB39F509E50845096026781E
:104C330008121F68900949E0F8A3E0F5838882A36E
:104C4300A3A3A3E0FCA3E0FDEEFAEFFB121520748F
:104C530002121CFBE9E4F508F5097808121F6890B5
:104C6300094B121F7F7CFF7DFF900949E0FAA3E007
:104C7300FB120A287404121CFB900949EAF0A3EB07
:104C8300F0900949E0F8A3E0F9E84970047901805C
:104C93000279007403121CFB7F02021E27C082C02C
:104CA30083900947E0F8A3E0F9E8496017900947C2
:104CB300E0FAA3E0FB1212E6E9F89009477400F06A
:104CC300A37400F0900E87740AF0D083D08202019F
:104CD30032C082C083E9900B8EF0024F6374F712E7
:104CE3001D55E99002E1F07C197D037AFF7BFF12E9
:104CF3000B5A9002E274FFF0A3F0A3E4F0A3F0795F
:104D030005120AE29002E1E0F9120A047A787B0BB9
:104D1300120D227F01021E2774F4121D558A088B7F
:104D230009EB548060309002E1E0F91212F88A0A2C
:104D33008B0BAE0AAF0BEE4F60138E828F83E06452
:104D4300B07003120AFAEEFAEFFB1212E6AA08E5B4
:104D5300096480FB80047A007B00024F3274F212F4
:104D63001D5574FC121CE5EAFEEBFFEE4F60387430
:104D730002121D31EEF0A3EF125197ECF0A3ED12E6
:104D83005197AA82AB831209FEE9F5087073741276
:104D9300121D31125D4BE50A450B60658E828F83D0
:104DA300124E0EEE4F700575080280557A067B0091
:104DB3001213528A0C8B0DA80CA90DE849700575C6
:104DC3000813803D88828983E4124E18A3A3EEF072
:104DD300A3EF1261E4E50AF0A3E50BF09002E712FA
:104DE3004EA09002E76017E0FCA3E08003EAFCEB2F
:104DF300FD8C828D83124EA070F38C828D83125CA6
:104E030070A9087404121CFB0263E6A3A3A3A3E026
:104E1300FEA3E0FF22F0A3F0888289832274F212BA
:104E23001D55890AE975F017A4FEAFF09002E6E478
:104E3300F09002E4124EA0600A1213589002E4E4C8
:104E4300F0A3F0EEFAEFFB1213528A088B09EA453E
:104E530009602FEEFCEFFD79001212D49002E4E515
:104E630008F0A3E509F07B008008124E8AE4F0A362
:104E7300F00BEBC3950A40F2E50A9002E6F07900E5
:104E8300800279130263E6EB75F017A4F8A9F0909A
:104E930002E4E028FAA3E0398A82F58322125A0653
:104EA300EA4B2274F4121D55750800750900740C41
:104EB300121D311261B8FEE9FF800CE5082401F5EB
:104EC30008E5093400F509C3E5089CE5099D50325E
:104ED30085080A85090B7403780A121CD2EA250A8D
:104EE300F8EB350BF988828983A3A3A3A3A3A312A9
:104EF3005D4BEE650A7003EF650B70BFE8FAE9FBE3
:104F030080047A007B00802774F4121D557900EA2F
:104F1300A2E0501B7508F07509827808121F687C9F
:104F2300047D007A907B0B120ADC7402121CFB7F57
:104F330004021E27C082C0839002E7124F6A601CDE
:104F430088828983A3A3E06A7003A3E06B888289C4
:104F53008370E8A3A3A3A3125A0280047A007B0000
:104F6300D083D0820201321264B9E8492274EE126E
:104F73001D5574FC121CE5EAFEEBFF8518828519AA
:104F830083E4F0A3F0EE2402125C54EE24051251E4
:104F930085EE2404F50EEF12556AE024FE603924F1
:104FA300FC604624FE605224FE605E24FE70030211
:104FB300508A24FE700302510224FE700302511131
:104FC30024FE700302512024FC700302512F24FE9F
:104FD300700302513E02517B9003007417F0A3E467
:104FE30012519F12077C02517B851882851983AC6D
:104FF30082AD83120B0002514B851882851983AC55
:1050030082AD83120B0602514B850C08850D097482
:1050130002121D31AC82AD83850882850983125A41
:1050230002120A228A0C8B0DAC0CAD0DEC4D6042C2
:10503300E4F50CF50D780C121F68750C00750D0363
:10504300780C121F68750C01750D03780C121F681C
:105053007408121D31121F7F79161259FC120B426C
:105063007408121CFBE9F50C700B1259F812079423
:10507300800F750C0185088285098312518D125C9E
:1050830070850C0802514E7402121D31AC82AD833F
:10509300850C82850D83125A02120A228A108B1103
:1050A300AC10AD11EC4D6043850C82850D83A3A339
:1050B300121F7F7510007511037810121F68751089
:1050C300017511037810121F687408121D31121F25
:1050D3007F79161259FC120B427408121CFBE9F576
:1050E30009700B1259F812079A800F750901850C84
:1050F30082850D8312518D125C70850908804C8561
:105103001882851983AC82AD83120B0C803A851803
:1051130082851983AC82AD83120B12802B85188292
:10512300851983AC82AD83120B18801C8518828588
:105133001983AC82AD83120B1E800D8518828519ED
:1051430083AC82AD83120B24E9F508E50860298E50
:10515300828F83A3E06414601F850E82850F83E032
:105163009003001251971264B5900301125C70E52D
:1051730008A312519F120776EEFAEFFB120AA00260
:105183005B5CF50CEF3400F50D221264B9851882CF
:1051930085198322F085188285198322F07C007D8E
:1051A30003850A82850B83125A062274EE121D555B
:1051B30074FC121CE58A0A8B0B8C0E8D0FEA2405F6
:1051C300F508EB3400F5097C157D0079007A007B46
:1051D300031212D4E5082402F50CE509125188855F
:1051E30018828519838582108583117810121F68B0
:1051F300850882850983A3A3A3A31256B2121F684D
:10520300E5082405F510E5093400F5117810121F9F
:1052130068850C82850D83125A0C120A1C740612BF
:105223001CFB8A108B11AE10AF11E50A2402F50A9C
:10523300E50B125C57EE4F70030253748017740230
:10524300121D31125A0288828983EAF0A3EBF0908F
:105253000300E004F0900300E0C39405400302530D
:1052630074E4F510F5117810121F687510E97511C3
:10527300027810121F687510EA7511027810121F58
:10528300687406121D31121F7F7910EEFCEFFD12B8
:1052930059FC120B427408121CFBE9705E850882EC
:1052A300850983A3A3A3A3A3A3A3E0F89002E9E042
:1052B3006870481256B2121F687CEA7D02E5082422
:1052C30008FAE5093400FB1212CE7402121CFBE942
:1052D30060298E828F83A3A3A3A3125A0290030093
:1052E300E0F51074027810121CD274012510F582B7
:1052F30074033511F583EAF0A3EBF07402121D3148
:105303008582108583117810121F687402121D3173
:10531300121F7F850C82850D831264CA120A2874BA
:1053230004121CFB8A108B11AE10AF11900300E026
:10533300F51075110074027810121CD27400251038
:10534300F874033511F988828983A3124EA0700380
:10535300025238E82403F8E93400F9EE4F600302FF
:1053630052418882898374FFF0A3F0900300E00424
:10537300F0900300E0600A1259F812078879008060
:105383000B850882850983125C67790A025B5C746A
:10539300EA121D5574FE121CE58C128D13EA2405C6
:1053A300F50CEB126634124E12750800750900EA0B
:1053B3002402F510EB3400F51185188285198385D5
:1053C300820A85830B780A121F68850C82850D83F8
:1053D300A3A3A3A3125574121F68E50C2405F50AB1
:1053E300E50D125C57780A121F68850C82850D83C0
:1053F3001264C8120A1C7406121CFB8A0A8B0BEA7D
:10540300450B7003025525EA2404F50EEB12556A89
:10541300124E128A828B83A3A3A3E0F9851082859F
:105423001183125A02120A0AE9F50960030255258B
:10543300E4F514F5157814121F687514E97515024F
:105443007814121F687514EA7515027814121F6810
:105453007406121D31121F7F7913AC0AAD0B851030
:1054630082851183125A02120B427408121CFBE943
:10547300F50960030255259002E9E0F8E508700993
:10548300E02402900301F08017900301E0FCE8247C
:1054930002FAE43400FBEA6C7001EB600302552965
:1054A300850882AA821256A994141256A1507385B4
:1054B3000E82850F83E0C0E074022A125561D0E0AA
:1054C300F00508850E82850F83A3E0C0E085080AF6
:1054D3007402250A125561D0E0F005089002E91222
:1054E3005574121F687CEA7D0285080A7402250A36
:1054F300FA74033400FB1212BC7402121CFB9002F8
:10550300E9E02508F50874FF6E700374FF6F6012FD
:10551300EE24010EEF3400FFE508C3941450030298
:1055230053BCE50860131258ED8510828511831270
:105533005A0212078E79008014E509700375090A6F
:10554300851282851383EEF0A3EFF0A9097402128A
:105553001CFB7F0E021E2785080C7402250CF582A6
:1055630074033400F583223400F50F850E82F5832E
:10557300221261F72274EE121D5574FE121CE58C83
:105583000E8D0FEA2405F50CEB125188750B009074
:105593000300E4F0F50AEA2402F508EB3400F50908
:1055A3008049900300E0FA9002E9E0F81256A994CA
:1055B300171256A1400D900300E0F87416C398909B
:1055C30002E9F01256B2121F687CEA7D0274012AC6
:1055D300FA74033400FB1212BC7402121CFB900217
:1055E300E9E0F8900300E028F0050AE50C2416F53D
:1055F30082E50D125565E0F8E50AC39840030256AB
:105603008A900300E0C39416507DE50AC333F8E49F
:1056130033F9E50C28FEE50D39FF851882851983DA
:10562300AC82AD838E828F83125A02120A228A10B1
:105633008B11AC10AD11EC4D7005750B018043E47B
:10564300F510F5117810121F687510E975110278BD
:1056530010121F687510EA7511027810121F687412
:1056630006121D31121F7F79168508828509831260
:105673005A02120B427408121CFBE9F50B70030269
:1056830055A5125C6380107C007D03850882850923
:1056930083125A021207A0A90B7402025B5EE994FB
:1056A30000C365D03322EA28F8E43400F9E822E0A5
:1056B300F51075110078102274EA121D5574FC124E
:1056C3001CE58A0C8B0D8C128D13EA2405F50AEB6D
:1056D300125C57750800750900E50A2402F510E508
:1056E3000B3400F5117402121D3185820E85830F70
:1056F300780E121F68850A82850B83A3A3A3A312C6
:1057030061A3121F68E50A2405F50EE50B3400F5C5
:105713000F780E121F68851082851183125C5D124B
:1057230059FC120A1C7406121CFB8A0E8B0FAE0E58
:10573300AF0FE50C2402F50EE50D3400F50F8040A4
:105743008882898374FFF0050812555A74FFF005A7
:10575300089002E9E0F50C750D00780C121F687CC7
:10576300EA7D0285080C7402250CFA74033400FBED
:105773001212BC7402121CFB9002E9E02508F50822
:10578300EE4F60718E828F83A3A3A3E0F9850E820F
:10579300850F83125A02120A0AE9F509EE2404124C
:1057A3005185E97044E4F514F5157814121F6875F2
:1057B30014E97515027814121F687514EA75150239
:1057C3007814121F687408121D31121F7F7911EEAD
:1057D300FCEFFD850E82850F83125A02120B427471
:1057E30008121CFBE9F5096027850C82850D8312DD
:1057F30058E3125C70E50870030258C91258ED852E
:105803000E82850F83125A021207A679000258DE10
:10581300850882AA82EA9002E97009E024049003D1
:1058230001F08022E0F8900301E0F514E82404FC81
:10583300E43400FDEC65147001ED70C01256A994B8
:10584300121256A150B6850C82850D83E0C0E07418
:10585300022A125561D0E0F00508850C82850D837C
:10586300A3E0C0E012555AD0E01258FF85820C85A0
:10587300830D780C121F687404121D31121F7F856B
:1058830010828511831264CA120A287404121CFB45
:105893008A0C8B0DAE0CAF0D85080C7402250CF829
:1058A30074033400F9EE4F70030257438518828561
:1058B3001983E0888289831258FFA3E0C0E0125560
:1058C3005AD0E0025751E509700375090A850A8227
:1058D300850B831258E3125C70A9097404025552B4
:1058E3001264B985128285138322900301E0F5F0D7
:1058F300E50884900300F07C007D0322F005088511
:1059030018828519832274EC121D5574FE121CE54E
:105913008A088B098C0E8D0FEA2405FEEB3400FFF9
:10592300851882851983AC82AD838E828F83125A48
:1059330002120A228A0A8B0BEE2418125185EA45B9
:105943000B70030259D3125B4550328518828519B7
:1059530083125A02120B368A108B11EA4511606BBF
:105963007912AC0AAD0B850882850983125A028528
:105973001082851183121D53E9F50A7058E4F50A64
:10598300F50B780A121F688E828F83A3A3E0F50AB2
:10599300780A121F68EE2403125C54780A121F68F7
:1059A3008E828F83125A0C120B487406121CFBE969
:1059B300F50A7021850C82850D83E0701F850882AE
:1059C300850983125A021207AC8011750A0E8009E9
:1059D300750A018004E50A6003125C63850C828505
:1059E3000D83E0600479008002A90A7402121CFB93
:1059F3007F0C021E277C007D03850A82850B8312A0
:105A03005A0622E0FAA3E0FB22E0FCA3E0FD8508AE
:105A130082850983125A062274EE121D5574FE12F2
:105A23001CE58A088B098C0C8D0DEA2405FEEB34EA
:105A330000FF750E00851882851983AC82AD838EB5
:105A4300828F83125A02120A228A0A8B0BEA450BAF
:105A53007003025B31125B455035851882851983CB
:105A6300125A02120B368A0E8B0FEA450F605E79CB
:105A730012AC0AAD0B850882850983125A02850E82
:105A830082850F83121D53E9F50E6003025B348593
:105A93000882850983125D4BAA0AFB120B2A8A101E
:105AA3008B11A810A911E849701E7AFF7BFF120B16
:105AB3002A8A108B11A810A911E849606C88828981
:105AC30083E50AF0A3E50BF0750A008007750E0E57
:105AD300805F050A9002E6E0FAE50AC39A504AE5B8
:105AE3000A75F017A4FAABF088828983A3A3E02A8E
:105AF300FAA3E03BFB8A828B83125C5DEC4D70D290
:105B0300750A17750B00780A121F68EEFCEFFD1279
:105B130012BC7402121CFBEEFCEFFD8508828509A2
:105B230083125A021207B28014750E098003750E90
