:020000040000FA
:0600000002011A0228E7CC
:03002B0002309C04
:0300330002307424
:0300530002295A25
:03006B0002301B45
:03007B000230430D
:10008300022753E5C754F84401F5C779012200005C
:100093000080FB120086B90003020104E479217891
:1000A30008B800028004F709D8FCE479297802B87B
:1000B30000028004F709D8FCE49002817871790981
:1000C3008002F0A3D8FCD9FA781A90014A7A01BACF
:1000D30000028007E493A3F608DAF97AF17B0A9029
:1000E300014B78E779078015E493A3AD82AE838A49
:1000F300828B83F0A3AA82AB838D828E83D8E9D9C6
:10010300E775826575839B740412012C7582917562
:100113008300740012012C75D00075813F7518811E
:10012300751902759F00020096C09FF59FE473D076
:100133009F22D083D082C09FE493C0E0740193C018
:10014300E0740293F59F2201FF0000B40000280031
:100153002800283075A000A000A000A0000008001F
:1001630008E001F000100010001000100010001053
:100173000050005000500010001000D00700000095
:100183000000000F0001000500307507001000019A
:100193000081FF00000000FF2F0A4D0A350AFF020D
:1001A300020208025000A0000000E8030247840195
:1001B30000000184021984010000480B022B840112
:1001C3000000B302021984010000490B02358401C7
:1001D3000000C9020219840100004A0B023B84019A
:1001E3000000CB020219840100004B0B023F84087C
:1001F3000000CC020219840100004C0B024184016F
:1002030000004D0BFF0100FF2002478401000004A2
:1002130084021984010000B10B0243840000000032
:1002230000022384030000190305100510051005BF
:100233001005100510051005100510051005100513
:100243001005109912B1129312FFFF0A0953656E3C
:10025300736F72546167051250002003020A000293
:100263000105544920424C452053656E736F72203B
:1002730054616700D007E803E803E803E803E803F1
:10028300BB140000FD140315091515150F151B15D7
:10029300211527152D15331512416363656C2E2027
:1002A30044617461000A416363656C2E20436F6E81
:1002B300662E000A0A416363656C2E2050657269DD
:1002C3006F6400024784010000F283021984010075
:1002D30000410C1025820100005108022384030011
:1002E300005408021D84010000420C02198401001D
:1002F300004E0C1035820300005A08021D840100D1
:10030300004F0C0219840100005C0C1045820300AD
:10031300005D0C021D840100005E0C124261726FCD
:100323006D2E2044617461000A4261726F6D2E204C
:10033300436F6E662E00024261726F6D2E20436121
:100343006C6962722E000A0A4261726F6D2E205030
:100353006572696F6400024784010000FE8302191D
:1003630084010000C40C1085820100005D08022393
:10037300840300006108021D84010000C50C0219FA
:1003830084010000D10C1095820300006708021D50
:1003930084010000D20C021984010000EF0C10B597
:1003A30082030000F00C021D84010000F10C02190D
:1003B30084010000DF0C10A58201000068080223FD
:1003C300840300007808021D84010000E00C12433E
:1003D3006F6E6E2E20506172616D730008436F6EF5
:1003E3006E2E20506172616D732052657100084456
:1003F3006973636F6E6E65637420526571000247A3
:1004030084010000F883021984010000770D105560
:100413008201000080080223840300008608021D75
:1004230084010000780D021984010000850D10F588
:10043300820200008C08021D84010000860D02194F
:1004430084010000970D10D5820200009408021D5C
:1004530084010000980D020202020202020202015C
:100463000D00000010010247840100000D840219F1
:1004730084010000FF0D0239840100009508021970
:1004830084010000000E02378401000085830219F5
:1004930084010000010E022D840100007B830219F8
:1004A30084010000030E02278401000093800219D7
:1004B30084010000040E02258401000080830219D8
:1004C30084010000020E02218401000076830219D8
:1004D30084010000050E021F8401000081800219BF
:1004E30084010000060E02498401000005830219FD
:1004F30084010000070E024584010000080E01E894
:1005030003053F100A124779726F2044617461003A
:100513000A4779726F20436F6E662E000A0A477985
:10052300726F20506572696F640002478401000096
:10053300F583021984010000AE0E10F5810100005D
:1005430059090223840300005F09021D840100008E
:10055300AF0E021984010000B90E10E581030000FB
:100563006509021D84010000BA0E0219840100000E
:10057300C50E10D581030000C60E021D84010000C4
:10058300C70E0380000080700061801248756D699A
:10059300642E2044617461000A48756D69642E20DD
:1005A300436F6E662E000A0A48756D69642E2050EB
:1005B3006572696F640002478401000010840219A8
:1005C30084010000340F10B581010000F0090223FB
:1005D30084030000F409021D84010000350F021991
:1005E30084010000410F10A581030000FA09021DD8
:1005F30084010000420F0219840100004F0F10957F
:1006030081030000500F021D84010000510F12549A
:10061300656D702E2044617461000A54656D702EFF
:1006230020436F6E662E000A1E54656D702E205097
:100633006572696F64000247840100001384021924
:1006430084010000B70F107581010000FD0902232A
:1006530084030000090A021D84010000B80F021977
:1006630084010000C30F1065810300000F0A021DFF
:1006730084010000C40F021984010000D00F10652B
:1006830082030000D10F021D84010000D20F124D1E
:1006930061676E2E2044617461000A4D61676E2E9E
:1006A30020436F6E662E000A0A4D61676E2E20503E
:1006B3006572696F64000247840100000A840219AD
:1006C300840100003710100581010000130A022382
:1006D30084030000190A021D840100003810021966
:1006E30084010000431010D5800300001F0A021D7F
:1006F300840100004410021984010000501010C549
:10070300800300005110021D840100005210FF00FD
:100713000130750302010600000000000000000024
:1007230000000000000000000000000000000000C6
:10073300000000FFFF0600800CE803104B657920E2
:1007430050726573732053746174650002478401AA
:1007530000000784021984010000E41002338400BE
:100763000000CF0A022384030000D00A021D840183
:100773000000E51002546573742044617461000A3B
:100783005465737420436F6E666967000A41706530
:1007930069724F6E652073656C662D646566696E5C
:1007A3006564207465737400024784010000FB8351
:1007B3000219840100001D1110A580030000D80A4E
:1007C300021D840100001E1102198401000028117A
:1007D30010E580030000E00A021D840100002911D6
:1007E3000219840100003511102581030000E10A7C
:1007F300021D840100003611E70A1254696D652E4B
:1008030020446174610002478401000016840219C8
:1008130084010000A311105581030000E70A02239D
:1008230084030000EB0A021D84010000A4111201DD
:1008330035E78504120135FE85041201352F860440
:100843001201356A8604120135948604120135BEFD
:100853008604120135D58604120135EC8604120193
:10086300350387041201352C87041201353F8704B1
:100873001201355587041201356887041201358F3B
:100883008704120135D8E802120135DCE9021201AE
:100893003514EA0212013537EA0212013542EA023F
:1008A30012013565EA0212013574EB021201354972
:1008B300EC02120135C4EC021201354CED021201B7
:1008C3003587ED02120135BEED021201354CEE0201
:1008D30012013525EF0212013585EF021201359021
:1008E300EF021201350FF00212013512F00212016C
:1008F3003515F002120135A4F002120135A7F002FA
:10090300120135D7F00212013501F102120135EF60
:10091300F102120135A1F20212013523B4031201CF
:10092300354BB40312013579B403120135B0B40366
:100933001201350EB50312013559B503120135A461
:10094300B503120135E4B5031201352AB6031201CA
:100953003558B60312013515B7031201351FB70316
:100963001201352CB7031201355FB7031201352B82
:10097300B80312013537B8031201354FB80312011A
:100983003559B8031201357097041201357E970467
:10099300120135969704120135AE97041201350002
:1009A3008002120135AC8002120135278102120147
:1009B300354882021201358482021201352D8302E9
:1009C300120135148402120135788502120135CFE4
:1009D3008502120135508602120135408702120149
:1009E300358D8702120135138802120135458802BD
:1009F300120135598A021201359B8A02120135B957
:100A03008A021201353C8B02120135108C0212014D
:100A130035D88C021201357897031201354B9803B0
:100A2300120135F49803120135479903120135F782
:100A33009903120135839A031201356F9B03120147
:100A4300359E9B03120135B19C03120135F99C03BA
:100A5300120135CE9D031201350A9E03120135267C
:100A63009E03120135E19A041201354AE103120192
:100A73003560E10312013586E103120135A2E20379
:100A8300120135ACE203120135E1E303120135D95A
:100A9300E40312013522AA0312013552AB031201FA
:100AA3003585AB03120135CFAB0312013596AD0388
:100AB3001201359EDB0112013508DC011201356795
:100AC300DD0112013577DD01120135A4DD011201CB
:100AD30035FBDD01120135A4DE01120135ABDF0167
:100AE30012013575E001120135D5E1011201351806
:100AF300E201120135BDE2011201350AE3011201DF
:100B03003530E3011201353EE50112013543E501BC
:100B130012013548E70112013595E7011201350845
:100B2300E8011201353BE801120135DDE80112014C
:100B33003586E901120135BEE901120135C1E9012A
:100B430012013509EA0112013549EA01120135A002
:100B5300EA0112013561F70312013579F703120136
:100B630035C1F703120135D7F7031201351EF80318
:100B730012013532F903120135BFF9031201350AA7
:100B8300FA03120135F84D00120135044E0012012B
:100B9300353F4E00120135844E00120135444F009B
:100BA300120135CA4F001201352F50001201355B77
:100BB3005000120135945000120135D25200120137
:100BC30035B654001201359C5600120135DF57002B
:100BD3001201352D5A001201353F5B001201358A8F
:100BE3005C001201359A5D00120135B75D001201F8
:100BF30035F25D00120135145E00120135775E0097
:100C0300120135386300120135CD63001201351E20
:100C13006400120135456400120135976400120126
:100C230035B564001201350F6500120135F8650012
:100C33001201356E6700120135F26700120135901B
:100C4300BD031201359ABD03120135DDBD03120147
:100C530035F8BD0312013588BE03120135B0BE035A
:100C6300120135EDBE0312013524BF031201354DC8
:100C7300BF03120135C2BF03120135D7BF031201EF
:100C830035ECBF031201351DC00312013531C0031A
:100C930012013556C00312013590C003120135BC51
:100CA300C003120135F4C00312013573C1031201ED
:100CB30035BCC103120135E6C10312013511C2036C
:100CC30012013557960412013575C602120135A378
:100CD300C602120135F1C702120135D1C802120151
:100CE30035F0C8021201356DC902120135B0C902CF
:100CF30012013506CB02120135C7CB021201354E64
:100D0300CE02120135EFCE02120135E5CF021201F8
:100D130035E2D0021201353CD202120135C7D202AC
:100D23001201354E9104120135B791041201350BAE
:100D330092041201353292041201356392041201B6
:100D430035D1D4031201353ED50312013585D503C0
:100D53001201359DD60312013599D7031201357C53
:100D6300D8031201350080031201354280031201BA
:100D730035148103120135ED8103120135E7820336
:100D8300120135C98303120135328403120135E898
:100D930084031201355C8503120135C885031201F2
:100DA30035F185031201356B860312013504870380
:100DB3001201356987031201357E8703120135C499
:100DC3008703120135DD87031201354288031201BF
:100DD3003545880312013580F103120135A8F1036B
:100DE300120135E6F103120135A4F2031201350BAA
:100DF300F30312013527F3031201354FF3031201F5
:100E0300357FF3031201358EF3031201350BF4031F
:100E130012013531F4031201358DEB011201356BEB
:100E2300ED011201359DEF01120135D9EF011201D8
:100E33003506F001120135F0F0011201353BF101E5
:100E430012013586F10112013598F101120135D8ED
:100E5300F1011201350DF2011201355BF2011201AC
:100E6300358AF201120135ADF201120135FAF201B0
:100E73001201357FF30112013599F501120135D8BD
:100E8300F70112013519F801120135BBF9011201FD
:100E930035FCF9011201356FFA01120135C5FA016A
:100EA30012013560B9021201355EBA02120135F73B
:100EB300C00212013518C302120135E3C402120144
:100EC300354BC6021201354B8401120135FA8401F8
:100ED3001201352785011201356D8501120135ADEA
:100EE3008601120135438801120135BD88011201C3
:100EF30035D88801120135538901120135AD8A01B4
:100F03001201350D8C01120135138D011201357457
:100F13008E011201358D8E01120135EB8E01120106
:100F230035D98F011201350C90011201357C9001E6
:100F3300120135F690011201354091011201350A73
:100F43009201120135DF9201120135BE93011201A4
:100F530035499401120135B794011201352B9501DE
:100F63001201355695011201351596011201357A94
:100F73009701120135979701120135B697011201B6
:100F830035A79801120135CC9801120135F6980165
:100F9300120135719901120135CB990112013534D2
:100FA3009B01120135E29B01120135239C011201C1
:100FB300358CAB02120135DAAB02120135E6AB0216
:100FC300120135C4AC02120135F5AC02120135260B
:100FD300AD02120135A6AD02120135DEAD021201DA
:100FE3003530AE021201356DAE021201358AB00200
:100FF300120135B0B2021201359BB40212013585DC
:10100300B602120135F47F001201351DB40112013D
:10101300354DB40112013526BB01120135ABBC01BC
:10102300120135A8C20112013590C301120135CD59
:10103300C301120135F0C30112013521C4011201AC
:10104300352AC40112013534C40112013522C50108
:1010530012013518C60112013559680012013558BD
:101063006C001201355E6C00120135997300120198
:1010730035B278001201357CDD0312013512DE032F
:1010830012013528DE031201359EDE0312013512EB
:10109300DF0312013550DF03120135C4DF031201F0
:1010A300353DE00312013546E00312013552E003FA
:1010B30012013567E003120135A5E003120135BBC8
:1010C300E0031201351AE103120135A9FB021201F3
:1010D30035B6FB02120135D0FB021201350FFC02BB
:1010E3001201354DFC02120135B2FC02120135C763
:1010F300FC02120135D2FC02120135DFFC0212019F
:1011030035F6FC0212013504FD021201350FFD0212
:101113001201351BFD021201352AFD02120135357C
:10112300FD0212013558FD02120135FFFD021201C5
:10113300350FFE0212013529FE0212013546FE0269
:1011430012013562FE0212013587FE021201359249
:10115300FE02120135A7FE02120135BBFE02120187
:10116300351CFF0212013522FF0212013528FF024E
:101173001201352EFF0212013546FF0212013579A5
:10118300FF02120135629D02120135E69D02120132
:1011930035959E02120135F49F0212013515A20204
:1011A30012013501A30212013536A302120135588B
:1011B300A30212013507A402120135FFA502120191
:1011C3003528A602120135BAA602120135ECA60291
:1011D300120135F9A60212013550A7021201357624
:1011E300A702120135E3A902120135E6AA02120190
:1011F300353EAB02120135F18E02120135FB8F022F
:10120300120135E29002120135EC90021201350E03
:1012130091021201351A9102120135B392021201A1
:1012230035E29202120135FE930212013557940200
:10123300120135BD95021201359C9602120135F853
:101243009602120135659702120135A09702120129
:1012530035DF9702120135989A02120135B29A02CC
:101263001201353E9B021201354C9B02120135A53A
:101273009B02120135B39B02120135269C02120117
:10128300358A9C02120135D49C0212013548D302DF
:101293001201356AD30212013590D502120135A528
:1012A300D802120135BDD90212013570DA021201DA
:1012B3003552DB021201354C890412013571890460
:1012C300120135E38904120135FE8F03120135073C
:1012D3009003120135109003120135E790031201B8
:1012E30035989203120135CE920312013508930308
:1012F3001201353E9303120135789303120135AC85
:101303009303120135D8930312013521940312017B
:10131300355B9403120135A49403120135FC940345
:101323001201353195031201358C9503120135C62F
:1013330095031201351796031201354D96031201D9
:1013430035879603120135B59603120135D89603F6
:10135300120135F398041201351F99041201357AED
:1013630099041201358499041201359499041201E8
:10137300356988031201357E8803120135DA880343
:101383001201354589031201358D8903120135F7A1
:101393008903120135268A03120135348A031201A7
:1013A30035968A03120135D48A03120135EF8A0375
:1013B3001201358A8B031201352F8C03120135B2CA
:1013C3008C03120135EB8C03120135768D03120168
:1013D30035CD8D031201352C8E031201353E8E035C
:1013E300120135648E031201356D8E03120135C768
:1013F3008F03120135EB9304120135C994041201D2
:101403003534FA0312013579FA03120135BFFA03B1
:1014130012013588FC031201352AFF0312013545F9
:10142300FF0312013555FF03120135ACFF0312010F
:10143300359E990412013512F30212013532F3027B
:10144300120135A8F402120135F6F4021201351621
:10145300F5021201357EF50212013500F602120182
:101463003546F602120135D2F6021201351BFB0294
:1014730012013598FB02120135A99204120135DAE3
:1014830092041201350493041201352493041201CA
:1014930035829304120135539C0112013521A001B9
:1014A30012013555A40112013587A401120135B289
:1014B300A401120135A6A50112013529A6011201C5
:1014C3003501A7011201352CA70112013557A701D8
:1014D30012013582A701120135ADA701120135E4CE
:1014E300A7011201351CA90112013586A9011201B8
:1014F3003581AA0112013586AB01120135B1AB0169
:1015030012013558AC01120135FDAC01120135A4AD
:10151300AD0112013549AE01120135F2AE011201DE
:101523003599AF01120135E0AF01120135E9B00180
:10153300120135B6B10112013542B2011201351B58
:10154300B3011201352BD0031201357BD0031201F5
:1015530035A4D00312013556D103120135BFD1038F
:10156300120135CBD20312013594D403120135A9EC
:10157300A403120135F9A40312013522A5031201B4
:10158300353CA603120135CFA60312013518A80373
:10159300120135E5A9031201353ED9031201358E37
:1015A300D903120135ABD9031201357ADA031201DB
:1015B30035FBDA03120135CEDB031201354CDD03B3
:1015C3001201359B9E03120135C09E03120135F8AB
:1015D3009E03120135419A04120135CC30001201E9
:1015E30035E533001201359735001201353B3600DE
:1015F300120135DE3600120135953700120135C46C
:101603003700120135823C00120135193D001201E9
:1016130035553E00120135BD3E00120135713F00C4
:10162300120135274200120135614200120135CB08
:10163300420012013529430012013587430012018C
:1016430035E44300120135D3440012013519450036
:101653001201355E4500120135814500120135C482
:101663004600120135D84600120135E14700120148
:10167300352048001201354C48001201359B4800C3
:10168300120135BC4800120135FA480012013541F8
:101693004B00120135824B00120135204C00120120
:1016A300358B4C00120135C44D0012013539C2038C
:1016B30012013589C203120135B2C2031201356426
:1016C300C303120135CDC303120135D9C40312017B
:1016D30035A2C6031201350A84041201351A8404A3
:1016E3001201355F84041201353D8504120135D59D
:1016F3008504120135A18704120135D48704120130
:1017030035F287041201358B8804120135A8880449
:101713001201353A8904120135089C04120135255A
:1017230095041201353595041201354995041201CA
:10173300355196041201357AEB0312013524EC037B
:1017430012013566EE03120135CCFC03120135E6B6
:10175300FC0312013549FD03120135B7FD031201E4
:10176300356DFE031201358CFE031201359CFE0319
:10177300120135DBFE0312013518FF031201359206
:101783008C04120135CC8C041201353F8D041201F7
:1017930035898D04120135C88D04120135DA8D04A3
:1017A3001201350F8E04120135F18A0412013540FE
:1017B3008B04120135728B04120135048C0412015F
:1017C30035808C0412013538E8031201354CE803E7
:1017D30012013575E8031201359EE80312013566DF
:1017E300E903120135B1E90312013568EB03120174
:1017F30035C18F04120135F48F0412013570900442
:10180300120135909004120135F590041201353D13
:101813009104120135409104120135EFFA011201CE
:101823003508FB011201359DFB011201358EFC01C8
:1018330012013544FF0112013584FF01120135C63F
:10184300FF011201350080041201351180041201D9
:10185300355A8004120135868004120135A68004AE
:101863001201354581041201351882041201353302
:101873008E04120135828E041201350A8F0412017F
:1018830035948F04120135F87F0012013579F40382
:10189300120135A7F60312013513F7031201355E62
:1018A300F70312013585CB03120135D5CB031201A2
:1018B30035FECB03120135B0CC0312013519CD032C
:1018C30012013525CE03120135EECF03120135493E
:1018D300AF0312013599AF03120135C2AF031201F1
:1018E3003574B003120135DDB003120135FFB103C6
:1018F300120135C8B30312013513B403120135DFE6
:10190300C6031201352FC70312013558C70312014D
:10191300350AC80312013573C8031201357FC903A1
:1019230012013548CB031201352A82041201359185
:1019330082041201353C8304120135B2830412017F
:1019430035E3E40312013516E5031201351CE60302
:1019530012013571E70312013576DE0212013552A9
:10196300DF0212013599DF02120135D6DF021201BF
:101973003544E0021201359EE0021201350EE10208
:10198300120135E6E102120135D9E2021201355D99
:10199300E30212013500E5021201358BE502120163
:1019A300351BE602120135B4E602120135CBE6021D
:1019B30012013506E8021201355CE80212013530E6
:1019C300C801120135D4CC01120135C5CF01120172
:1019D30035EECF0112013505D0011201352ED001AC
:1019E300120135E0D001120135BED20112013510CA
:1019F300D40112013557D90112013590D9011201D1
:101A030035D4D901120135E0DA01120135687D00C0
:101A1300120135B87D001201351B7E00120135E13C
:101A23007E00120135997F00120135479804120197
:101A330035E0B80312013530B90312013559B90342
:101A4300120135F1B90312013572BA03120135A53A
:101A5300BB0312013553BD0312013581EE0312019D
:101A630035E6EE031201350FEF031201355BEF0389
:101A73001201359EEF0312013571F0031201355047
:101A8300F103120135DC9B04120135D67F00E066B9
:101A9300701008A3E066700A08A3E066700408A348
:101AA300E06622C3E7960809E7960809E79608095E
:101AB300E79622C3E09608A3E09608A3E09608A35E
:101AC300E09622C008C3E096F50808A3E096420812
:101AD30008A3E096420808A3E09645087001D3D016
:101AE3000822080808EAC0E0EBC0E086F0E7A4FAA1
:101AF300180986F0E7A42AFA180986F0E7A42AFA57
:101B0300180986F0E7A42AFA1986F0E7A4FBE5F0A2
:101B13002AFA190886F0E7A42BFBE5F03AFA19082C
:101B230086F0E7A42BFBE5F03AFA18180986F0E7EC
:101B3300A4C5F02BFBE43AFA1908E7C5F0C6A426BE
:101B4300F6E5F03BFBE43AFA1886F0E7A4F6E5F095
:101B53000826F6E43B08F6E43A08F6D0E0FBD0E0CA
:101B6300FA22E4CFC0E0E4CEC0E0E4CDC0E0E4CCB0
:101B7300C0E075F020E626F608E633F608E633F60D
:101B830008E633F6181818EC33FCED33FDEE33FE9C
:101B9300EF33FFC3EC9709ED9709EE9709EF971918
:101BA3001919400FFFEC97FC09ED97FD09EE97FE1D
:101BB300191906D5F0BFECF709EDF709EEF709EFB0
:101BC300F7191919D0E0FCD0E0FDD0E0FED0E0FF1A
:101BD300226016080808C6C313C618C613C618C65B
:101BE30013C618C613C6D5E0EA22700908080822EE
:101BF3006016181818C6C333C608C633C608C633DA
:101C0300C608C633C6D5E0EA22E627F60809E63752
:101C1300F60809E637F60809E637F622E026F6085D
:101C2300A3E036F608A3E036F608A3E036F622E092
:101C330026F008A3E036F008A3E036F008A3E03668
:101C4300F022C3E697F60809E697F60809E697F641
:101C53000809E697F622C3E0C696F608A3E0C696FF
:101C6300F608A3E0C696F608A3E0C696F622C3E0FC
:101C730096F008A3E096F008A3E096F008A3E09698
:101C8300F022E657F60809E657F60809E657F6087C
:101C930009E657F622E056F608A3E056F608A3E055
:101CA30056F608A3E056F622E056F008A3E056F0F5
:101CB30008A3E056F008A3E056F022E0F608A3E0FC
:101CC300F608A3E0F608A3E0F622E6F008A3E6F0A0
:101CD30008A3E6F008A3E6F022E0FAA3E0FBA3E002
:101CE300FCA3E0FD22EAF0A3EBF0A3ECF0A3EDF0FC
:101CF30022E0F8A3E0F9A3E0FAA3E0FB22E8F0A3D3
:101D0300E9F0A3EAF0A3EBF022CAC0E0E6F0A308EF
:101D1300DAFAD0E0FA22CAC0E0E0A3C582CCC582D9
:101D2300C583CDC583F0A3C582CCC582C583CDC58C
:101D330083DAE6D0E0CA22C3E498F8E499F9121DE5
:101D43007B8026C3E49AFAE49BFBE920E7E9121DB2
:101D53007BE498F8E499F922C3E498F8E499F9123A
:101D63001D7BE498F8E499F9C3E49AFAE49BFB2217
:101D7300EB20E7CFE920E7E0B90010BB0008E88AD1
:101D8300F084F8AAF022E4FBC8FA22EB70227B105D
:101D9300C833C8C933C9335007C39AC3DBF28006BB
:101DA3009A50012ADBEAC833F4C8C933F4C9FA22CA
:101DB30075F008E4C833C8C933C933C99AC99B50FD
:101DC30004C92AC93BD5F0ECFBC833F4C8E4C9FA0B
:101DD30022600D08C6A2E713C618C613C6D5E0F3E2
:101DE30022600C08C6C313C618C613C6D5E0F42276
:101DF300700422600D18C6C333C608C633C6D5E0C7
:101E0300F41822251810AF08F518400C151980088E
:101E1300F51840021519D2AF2200C0D0251810AF13
:101E230008F518500C05198008F51850020519D249
:101E3300AFD0D0222518F58210AF08F518400C1545
:101E4300198008F51840021519D2AF851983222588
:101E530018F582E43519F583222518F8E43519F9C4
:101E6300222518FAE43519FB222518FCE43519FD5F
:101E730022E4732518C582C0E0E51934FFC583C089
:101E8300E0E518C3958224F810AF0885831985828D
:101E9300188008858319858218D2AFCEF0A3E52078
:101EA300F0A37808E608F0A3DEFAEFF0A3E58124B7
:101EB300FAF8E608F0A3E608F0A3E608F0A308089A
:101EC300E608F0A3E608F0A315811581D0E0FED063
:101ED300E0F8158115811581E8C0E0EEC0E0222508
:101EE30018C582C0E0E51934FFC583C0E0E518C317
:101EF300958224F910AF0885831985821880088597
:101F03008319858218D2AFCEF0A3E520F0A3780819
:101F1300E608F0A3DEFAEFF0A3E58124FBF8E60878
:101F2300F0A3E608F0A30808E608F0A3E608F0A388
:101F330015811581D0E0FED0E0F815811581E8C048
:101F4300E0EEC0E022851983851882E0A3FEE0A3BA
:101F5300F5207808E0A3F608DFFAE0A3FFE0A3C0CA
:101F6300E0E0A3C0E0E0A3C0E0E0A3C0E0E0A3C0E2
:101F7300E010AF088582188583198008858218854B
:101F83008319D2AFD083D082020132851983851899
:101F930082E0A3FEE0A3F5207808E0A3F608DFFAC9
:101FA300E0A3FFE0A3C0E0E0A3C0E0E0A3C0E0E063
:101FB300A3C0E010AF088582188583198008858245
:101FC30018858319D2AFD083D08222C0D02518C5FB
:101FD30082C0E0E51934FFC583C0E0E518C39582EC
:101FE30024F310AF08858319858218800885831927
:101FF300858218D2AFC8F0A3E9F0A3EAF0A3EBF00F
:10200300A37908E709F0A3D8FAECF0A3EDF0A3EE67
:10201300F0A3EFF0A3D0E0F0A3D0E0F0A3D0E0F082
:10202300A3E520F0A3E5F0F0A322851983851882A8
:10203300E0C0E0A3E0F9A3E0FAA3E0FBA37808E0A3
:10204300F608A3DFFAE0FCA3E0FDA3E0FEA3E0FFB4
:10205300A3E0C0E0A3E0C0E0A3E0F5D0A3E0F52057
:10206300A3E0A3F5F010AF088583198582188008D3
:10207300858319858218D2AFD082D083D0E0F8D07F
:10208300E03274048006740280027401C0E0F40438
:10209300121E37D0E0121D0C2274048004740280D7
:1020A30000CCC0E0EDC0E0E518C39CCCAD195001F5
:1020B3001D10AF068C188D1980068C188D19D2AFA0
:1020C300121D19D0E0FDD0E0FC22D083D082E9C0FC
:1020D300E0E493A3C386F0C5F095F0F908E493A375
:1020E30086F0C5F095F0700BE493A3C3994005E91E
:1020F300048002A3E475F002A42582F582E5F0359D
:1021030083F583D0E0F9E493A3C0E0E493C0E02235
:10211300D083D082ECC0E0EDC0E0E493A3FCE49371
:10212300A3FDED4C600D12215FEC24FFFCED34FFA9
:10213300FD80EFE493A3FCE493A3FDED4C600D124B
:10214300219EEC24FFFCED34FFFD80EFD0E0FDD0B9
:10215300E0FCE493A3C0E0E493C0E022C0E0C3E466
:102163009396087401939618400FE49366700808D9
:10217300740193661870007019A3A3C3E4939608BF
:102183007401939618A3A3400DD0E0D0E0D0E002F1
:10219300214FA3A3A3A3A3A3D0E022C0E0C0F08850
:1021A300F0E4936670080874019366187000A8F051
:1021B300A3A3700BD0F0D0E0D0E0D0E002214FA376
:0621C300A3D0F0D0E022E1
:1021CC0074F5121EE2EAFEEBFFEE2434F8EF340055
:1021DC00F988088909EE2435F582EF3400F583E09F
:1021EC00F8EE2437F582EF3400F583E0F50AEC8540
:1021FC000AF0A4FCAAF0850AF0EDA42AFDE82CF85C
:10220C00E43DF97A257B00121D7BEA85088285095D
:10221C0083F0F8740758F97401B900028004C333D1
:10222C00D9FCFAE8131313541FF8EE28F8EF340016
:10223C00F9E8245DF582E93400F583E05A6008EE94
:10224C002434F582EF802CEE2434F582EF3400F543
:10225C0083E0C0E0EE2436F582EF3400F583E0F540
:10226C00F0D0E084A8F0EE28F8EF3400F9E8243838
:10227C00F582E93400F583E0F97F04021F8E74F5D2
:10228C00121EE2EAFEEBFFEE2434F582EF3400F589
:10229C0083E0C0E0EE2435F582EF3400F583D0E026
:1022AC00F08E828F83A3A3A3A3A3A3A3C082C08316
:1022BC008E828F83A3A3A3A3A3E0F8A3E0F9D0831A
:1022CC00D082E0C398F508A3E099F509EE247FF5D8
:1022DC0082EF3400F583E064017069EE2480F582AE
:1022EC00EF3400F583E0F8A3E0F98E828F83A3A38B
:1022FC00A3A3A3A3A3E0FCA3E0FD8E828F83A3A3DF
:10230C00A3A3A3E0FAA3E0FBC3EA9CEB9D5010C38C
:10231C00EC98ED99402EC3EA98EB995027800EC3A8
:10232C00EA98EB994007C3EC98ED9940177CDC7D5B
:10233C0004EEFAEFFB120F63EE247FF582EF34000C
:10234C00F583E4F0EE2434F8EF3400F9E8FCE9FD11
:10235C00EE2435F582EF3400F583E0F8EE2437F502
:10236C0082EF3400F583E0F50AE508850AF0A4F560
:10237C0008AAF0850AF0E509A42AF509E82508F869
:10238C00E43509F97A257B00121D7BEA8C828D835A
:10239C00F0F8740758F97401B900028004C333D9FA
:1023AC00FCFAE8131313541FF8EE28F8EF3400F975
:1023BC00E8245DF582E93400F583E05A6008EE24E8
:1023CC0034F582EF802CEE2434F582EF3400F58363
:1023DC00E0C0E0EE2436F582EF3400F583E0F5F052
:1023EC00D0E084A8F0EE28F8EF3400F9E82438F5B2
:1023FC0082E93400F583E0F9123007022285C082AD
:10240C00C083851882851983E0F8A3E0F9C3EA9CA0
:10241C00EB9D5010C3EC98ED99401BC3EA98EB99D7
:10242C005014800EC3EA98EB994007C3EC98ED99D1
:10243C004004790180027900D083D08222EAC39CC7
:10244C00FAEB9DFB2274EF121EE29003A2E06408EB
:10245C006005E06407702A9061C8E060249003D0A6
:10246C00E0F4601DE0F875F003A4C8AAF02AF97432
:10247C00D228FE740339FF8E828F83A3A3A3E0704E
:10248C0003022581906060E0C0E0EE2468F582EFE5
:10249C003400F583D0E0F0750C45750D057508001A
:1024AC00750900E5D914F50AE5D95403F50E601742
:1024BC007403650E605CE50A6010EE2467F582EF2C
:1024CC003400F583E07003022566900540E064015A
:1024DC00602AEE2482F582EF3400F583E060047804
:1024EC000480027800850A08E508C398FA95E0FB99
:1024FC00120E2B8A088B09EA4509700512116780A8
:10250C0074EE2482F582EF3400F583E070048A0CBB
:10251C008B0DE50A6012850C82850D83F50BE5D9D0
:10252C00F0A3150BE50B70F6EE2482F582EF340068
:10253C00F583E0604474FC250AF50A780C122089B6
:10254C00AC0AA90EEEFAEFFB120FFF7402121E1C5E
:10255C00E97026AA08AB0912192F793D8E828F8358
:10256C00A3A3A3A3E0FA7B00120CFFEEFAEFFB127D
:10257C000F7B121011790080747403650E60568500
:10258C000A107511007810122089AC0CAD0DAA0838
:10259C00AB09120FDB7402121E1CEE2468F582EFDD
:1025AC003400F583E064807004747F8001E0F50CE6
:1025BC00780C12208DE50EF50C780C12208DA90AE2
:1025CC00AC08AD099003D0E0FA7B00120CC3740286
:1025DC00121E1C80139003A2E06408600BAC0CADBF
:1025EC000DEEFAEFFB12106B12117379017F0A02D8
:1025FC001F8E74F5121EE274FC121E06EAFEEBFF2F
:10260C008908A2AFE433F509C2AF806AEE2463F8FF
:10261C00EF3400F97A007B00A2AFE433F50AC2AFC5
:10262C0088828983E0FCA3E0FDEC4D603A888289C6
:10263C0083E0FAA3E0FB8A828B83E0FCA3E0FD88B5
:10264C00828983ECF0A3EDF08A828B83E4F0A3F013
:10265C0088828983E0FCA3E0FDEC4D700A888289B6
:10266C0083A3A3E4F0A3F0E50AA2E092AF12192F22
:10267C009004E3E004F0EE2463F582EF3400F5837C
:10268C00E0F8A3E0F9E849603DEE2463F582EF340D
:10269C0000F583E02402FAA3E03400FBEA2402F5FF
:1026AC000AEB3400F50B780A1220898A828B83E0BE
:1026BC00FCA3E0F9EEFAEFFB120F9F7402121E1C42
:1026CC00E970030226189004E3E060639004E4E0F0
:1026DC00F89004E3E0C398500C74026508705090B5
:1026EC0004E5E0604A8E828F83A3A3A3A3E0851840
:1026FC0082851983F0A3E4F09004E3E0F8740212ED
:10270C001E52E8F0A3E4F09004E3E0F89004E2E059
:10271C0028F07402121E52AC82AD83851882851982
:10272C0083AA82AB837901120CCF9004E3E4F0E529
:10273C0009A2E092AF7404121E1C02228500000054
:10274C008521878522C622C0E0C0D0E8C0E0E9C060
:10275C00E0EAC0E0EBC0E0ECC0E0EDC0E0EEC0E0D1
:10276C00C008C009C00AC00BC082C083C0F0A2AFB1
:10277C00E433FEC2AF759B00906182E0A2E0501280
:10278C00E591A2E0500C7591FE7401652170031265
:10279C002451E0A2E55051E591A2E5504B7591DF33
:1027AC009003A2E064076005E0640870237401657F
:1027BC0021703579019003D0E0FA75F003A4CAA812
:1027CC00F028FB74D22AFA74033BFB1225FE801806
:1027DC00E0640D70139003C4E004F064287002E40C
:1027EC00F07A00E0F9121179906182E0A2E64003E0
:1027FC0002289AE591A2E6400302289A7591BF90AF
:10280C0003A2E0640570081210A11210AD8003122F
:10281C0010A7752100121107E99003A3F07900129B
:10282C0010FB120ED97A017B009003A1E0F9121370
:10283C00CB907803E064427055900544E014F0703E
:10284C004DC2AF12285200782AD0E0F618D0E0F62C
:10285C00E59F540770057509FF800375097FC4C097
:10286C00E07829E6F50808E65509F509740B7808AF
:10287C00121DE4D0E02508F8906270E0A2E740F861
:10288C00E8C333906272F0906270E0D2E0F0906135
:10289C0081E0A2E35009E5E9A2E3500375E9F7A34F
:1028AC00E0A2E75009E591A2E7500375917FEEA2F3
:1028BC00E092AFD0F0D083D082D00BD00AD009D028
:1028CC0008D0E0FED0E0FDD0E0FCD0E0FBD0E0FA98
:1028DC00D0E0F9D0E0F8D0D0D0E032C0E0C0D0C029
:1028EC0082C083906183E0A2E05009E5BFA2E05072
:1028FC000375BFFEE0A2E15009E5BFA2E1500375EC
:10290C00BFFDE0A2E25009E5BFA2E2500375BFFB98
:10291C00E0A2E35009E5BFA2E3500375BFF7E0A2C4
:10292C00E45009E5BFA2E4500375BFEFE0A2E55007
:10293C0009E5BFA2E5500375BFDFE0A2E65009E54B
:10294C00BFA2E6500375BFBFD083D0828088C0E0A1
:10295C00C0D0E8C0E0E9C0E0EAC0E0EBC0E0ECC009
:10296C00E0EDC0E0C0F0E5A7A2E6500FE5A1A2E6BD
:10297C00500953A7BF75A1BF1229BFE5A7A2E55007
:10298C000CE5A1A2E5500653A7DF75A1DFE5A7A2D0
:10299C00E15009E5A1A2E1500375A1FDE5A7A2E272
:1029AC00500CE5A1A2E2500653A7FB75A1FBD0F099
:1029BC000228D074F8121EE27521019003A2E06483
:1029CC0006701512102F8A828B83A3A3A3A3A3A333
:1029DC00E0FAA3E0FB12108FA2AFE433FED2AF906B
:1029EC0003A8E0640170187A207B009003A1E0F941
:1029FC0012145B7A207B009003A1E0F91213D190A2
:102A0C006182E0D2E6F0900541E0602185C622802B
:102A1C00169003A7E064017008E5C654F84405F568
:102A2C00C653BEFC12274C7401652160E4EEA2E093
:102A3C0092AF7F01021F8E008E238F248582288502
:102A4C008327851882851983E0CEA3E0CF85288261
:102A5C00852783EBC9EAC8EDCBECCA75F010C3E847
:102A6C0033C8E933C9EA33CAEB33CBC3EA9EF52644
:102A7C00EB9FF525B35004AB25AA26EC33CCED33F4
:102A8C00CDD5F0DAAE23AF242274E9121EE274F82D
:102A9C00121E06851882851983ECF0A3EDF08A08C6
:102AAC008B099003A2E024F7C39405500675080126
:102ABC00022C2C12102F8A0A8B0BAE0AAF0BEE4F86
:102ACC007003022C29AC08AD097402121E52AA82A2
:102ADC00AB831210BF8E828F83A3A3750CFF750D71
:102AEC00FF750EFF750F00780C121C987402121EE5
:102AFC00527510FF7511FF7512FF751300781012C7
:102B0C001C98780C7910121AA6502A780C7910128D
:102B1C001C457508017509C8750A00750B00780805
:102B2C00790C121AA65052850C08850D09850E0ACF
:102B3C00850F0B80507514017515C8751600751727
:102B4C000085100885110985120A85130B78087900
:102B5C000C121C4578147908121AA6401C75080032
:102B6C00750900750A00750B0178087910121C455F
:102B7C007808790C121C0C800C750801750900750D
:102B8C000A00750B0074097808121BED750C19F509
:102B9C000DF50EF50F7808790C121B658E828F835C
:102BAC00A3A3A3A3A3A3E0F8A3E0F97AD07B031219
:102BBC001D7B880C890DE4F50EF50F7808790C1245
:102BCC001C0C7406121E52E0F8A3E0F97AD07B03B9
:102BDC00121D7BE8FA8A0CE4F50D7808790C121AB0
:102BEC00A650077808790C121C459003A2E06408E3
:102BFC00600AE064066005E06405702D750C0D78C4
:102C0C000C7908121AA64021750CF4750DFF750E7F
:102C1C00FF750FFF7808790C121C0C800C750800DE
:102C2C00750900750A00750B00851882851983E0FB
:102C3C00F8A3E0F58388827808121CCD7408121E64
:102C4C001C7F10021F8E74F7121EE21210D1900519
:102C5C003FE064017010906245E4F0A3F053F4F38C
:102C6C0043FE0C5390F312107DE5C654804449F595
:102C7C00C6E59E547F644970F8906185740FF0909E
:102C8C00053DE0F47002A3E0604E90053EE0600864
:102C9C0014601B14602E80407508017509009005A6
:102CAC003DE07808121DF3E508F45280802A75087F
:102CBC000175090090053DE07808121DF3E508F454
:102CCC005290801475080175090090053DE0780854
:102CDC00121DF3E508F452A079007F02021F8E74D6
:102CEC00F7121EE2E9FEEAFF74016E700C7A807B2B
:102CFC00009003A1E0F91213CB9030C4E493F4607C
:102D0C0008E493F9120ECD800953C680E59E547FDA
:102D1C0070FA12108390053FE064017003120EE507
:102D2C0090053DE0F47002A3E0604B90053EE0603E
:102D3C000814601A14602C803D7508017509009008
:102D4C00053DE07808121DF3E508428080287508DF
:102D5C000175090090053DE07808121DF3E5084265
:102D6C0090801375080175090090053DE0780812F4
:102D7C001DF3E50842A01210D112102F8A088B09FE
:102D8C00A808A909E8496015E5E170FCE82414F5E8
:102D9C0082E93400F583E0F46003E0F5E174016F3F
:102DAC00700A7A019003A1E0F9121425022CE67442
:102DBC00ED121EE28A088B098C0A8D0B7413121EFD
:102DCC0052780C121CBE7808790C121AA6751001D8
:102DDC007511C875120075130050127808790C1211
:102DEC001C4578107908121AA650168010780C79A8
:102DFC0008121C457810790C121AA640047901802F
:102E0C000279007F0C021F8E74ED121EE28A088B71
:102E1C00098C0A8D0B7413121E52780C121CBE787E
:102E2C000C7908121AA640117808790C121C45AAC4
:102E3C0008AB09AC0AAD0B8022751000751100753A
:102E4C0012007513017810790C121C457810790852
:102E5C00121C0CAA10AB11AC12AD1380A68A828B7B
:102E6C00837508FF7509FF750AFF750B007808124A
:102E7C001CAB7F04021F8E74F5121EE28C828D83B4
:102E8C007808121CBE8A828B837808121C71EA2483
:102E9C0004F8EB3400F98C828D83A3A3A3A3E0FC8C
:102EAC00A3E0FD88828983C3E09CF0A3E09DF088B9
:102EBC00828983C3E09420A3E0944E40268A828BBF
:102ECC00837508FF7509FF750AFF750BFF780812EB
:102EDC001C328A828B83A3A3A3A3E02420F0A3E05B
:102EEC00344EF0022E6974F5121EE2E9FE9004F7DE
:102EFC00E0FAA3E0FBEEC333F8E433F974F528F5FC
:102F0C0082748039F583E02AF508A3E03BF5097853
:102F1C00081220897A407B427C0F7D00122A44746F
:102F2C0002121E1C8A088B098C0A8D0B74107808EF
:102F3C00121BD4AA08AB097F04021F8E74F1121E57
:102F4C00E28A0C8B0D8C0E8D0F740F121E52E0FA50
:102F5C00A3E0FB7411121E52E0F508A3E0F509780A
:102F6C0008122089EA2401F508EB3400F509E4F590
:102F7C000AF50B780C7908121AE5750871750902B7
:102F8C00780C7908121AE5AA0CAB0DAC0EAD0F1229
:102F9C002A447402121E1C8B09EA450960047A014A
:102FAC0080027A00EC2AFCED3400FD7413121E52E0
:102FBC00E0F8A3E0F9E8FEE9FFECF8EDF97A717BB3
:102FCC0002121D7B880889098E828F837808121C57
:102FDC00CDECF8EDF97A717B02121D7B8A088B0916
:102FEC0074057808121DF38E828F83A3A3A3A3E527
:102FFC0008F0A3E509F07F08021F8EC082C083E9A8
:10300C00906000F0D083D08222C2AF02000022C0B8
:10301C00E074F2121FCEA2AFE433FED2AFE589A268
:10302C00E05003121809758900C2C5EEF8EEA2E053
:10303C0092AF7F0102202DC0E074F2121FCEA2AF1E
:10304C00E433FED2AFE58AA2E64006E58AA2E75059
:10305C0003121809758A00758A00C2EBEEF8EEA20D
:10306C00E092AF7F0102202DC0E0C0D0E8C0E0E9C3
:10307C00C0E0A2AFE433F8D2AF758B00C2E8E8F938
:10308C00E8A2E092AFD0E0F9D0E0F8D0D0D0E032B6
:10309C00C0E0C0D0E8C0E0E9C0E0A2AFE433F8D2B1
:1030AC00AFC2C7751A00E8F9E8A2E092AFD0E0F918
:1030BC00D0E0F8D0D0D0E032FFFFFFFFFFFFFFFFE2
:1030CC0074F0121E7674F8121E068A0E8B0FE9FF2E
:1030DC008C0C8D0D7E00850E08850F09780812204A
:1030EC00CD000410B13314313731563179319C3164
:1030FC00BF31F03113322A325A321233353358334E
:10310C008633B133B133833274016F7019850C82FD
:10311C00850D83E0C39403500D850C82850D83E0EF
:10312C00900EA7F080027E180233D974026F7015CE
:10313C00850C82850D83E0F8A3E0F9900EA8E8F0E9
:10314C00A3E9F080027E180233D974016F701985DF
:10315C000C82850D83E0C39402500D850C82850D85
:10316C0083E090089EF080027E180233D974016FC0
:10317C007019850C82850D83E0C39405500D850C68
:10318C0082850D83E090089FF080027E180233D96F
:10319C0074016F7019850C82850D83E0C394025005
:1031AC000D850C82850D83E09008A0F080027E18BE
:1031BC000233D974106F70277508107509007808E0
:1031CC00122089AC0CAD0D7AA17B08121377740216
:1031DC00121E1C8A088B0985088285098380027E51
:1031EC00180233D974016F7019850C82850D83E038
:1031FC00C39402500D850C82850D83E09008B1F0CC
:10320C0080027E180233D974016F700D850C828593
:10321C000D83E0900EABF080027E180233D974045B
:10322C006F70269083967808121CBE850C82850DD3
:10323C00837808121AB65011850C82850D83121CE6
:10324C00F49008B3121D0080027E180233D9EF707F
:10325C0021120A7DE97013121653E9F50879501200
:10326C0019B9E9F509121641800A9009467401F062
:10327C0080027E180233D974076F600302330D7518
:10328C0008067509007808122089850C82850D8343
:10329C00A3AC82AD837404121E6412137D740212EB
:1032AC001E1C851882851983EAF0A3EBF07C007D47
:1032BC00007402121E64850C82850D83E0F91215D0
:1032CC00E7E9F50AE50AC3940A5032120A7DE9705F
:1032DC0015A90A121659E9F50879501219B9E9F528
:1032EC0009121641801D850A0875090074472508C6
:1032FC00F58274093509F5837401F080067E02802D
:10330C00027E180233D974016F7019850C82850DF9
:10331C0083E0C39402500D850C82850D83E09008E8
:10332C00B2F080027E180233D974016F7019850CCB
:10333C0082850D83E0C3940A500D850C82850D8324
:10334C00E0900EAAF080027E180233D974016F70DF
:10335C0025850C82850D83E0C394074019850C826A
:10336C00850D83E0C39411500D850C82850D83E08F
:10337C00900EACF080577E18805374016F702290C1
:10338C000945E0F508850C82850D83E0900945F030
:10339C00E5087039900945E06401703112164180DE
:1033AC002C7E188028C3E50E9427E50F9400501B43
:1033BC0074026F7016850C82850D83E0FCA3E0FD12
:1033CC00AA0EAB0F12091BE9FE80027E02EEF97405
:1033DC0008121E1C7F08021F4874F0121E7674D748
:1033EC00121E06E9C0E0851882851983D0E0F074BE
:1033FC0001121E52EAF0A3EBF08C0E8D0F90835E3F
:10340C007403121E6C7406121D197403121E6C7454
:10341C0001121E52E0FAA3E0FB851882851983E0A5
:10342C00F91215E7E9FEEEC3940A4003023572EE79
:10343C00F9121623E9FF900EA7E0640270047401E0
:10344C0080027400F508780812208D743A121E520E
:10345C00E0FDEFFCEEF9AA0EAB0F121695740112FB
:10346C001E1C7C147D0079007415121E6412138FBF
:10347C008A088B0985080A85090B7415121E6C7A4B
:10348C001075F006EEA42424F91219B3E9703B7CF4
:10349C001079FF7415121E641213EFE9702C742549
:1034AC00121E52AC82AD837A0475F006EEA424256C
:1034BC00F91219B3E9F5087415121E6CEFA2E0E4C9
:1034CC0033F9AA0EAB0F1209A5E97409121E6C7A16
:1034DC000C74702EF91219B3E970797409121E6408
:1034EC00121617750800E508C394045067E508F830
:1034FC007900E875F003A4C8AAF075F000A42AFAC4
:10350C0075F003E9A42AF97409121E52E58228F514
:10351C000CE58339F50D850C82850D83E0F8A3E06D
:10352C00F9E849602B850C82850D83A3A3E0F50A8D
:10353C00750B00780A122089850C82850D83E0FCBE
:10354C00A3E0FDAA0EAB0F120C097402121E1CE9AB
:10355C0005088092EFA2E1500D90089DE0F9AA0EAB
:10356C00AB0F120C0FE97439121E52E06404700F89
:10357C00900EA7E064027007AA0EAB0F12168F799B
:10358C00007429121E1C7F08021F4874F2121E764A
:10359C00890B8A088B09ECFEEDFF750A0AE50B60B6
:1035AC000B14600814604114605F807CAA08AB099E
:1035BC00121635E9F50AE50AC3940A506BEE4F6012
:1035CC0067750C06750D00780C122089AC08AD09D6
:1035DC00EEFAEFFB1213777402121E1C8A0C8B0D81
:1035EC00850C82850D838040AA08AB0912162FE941
:1035FC00F50AE50AC3940A502FEE4F602BEEFAEF52
:10360C00FBA90A121629E9801FAA08AB0912163B5E
:10361C00E9F50AE50AC3940A500EEE4F600AEEFA79
:10362C00EFFBA90A121629E9A90A7F06021F4874A2
:10363C00F2121E768A0C8B0DE9FF7E1574FF650C59
:10364C00700474FF650D702A750800E508C3940AB0
:10365C005014EFFC7A027B00A908121605E96002EF
:10366C007E00050880E5EF60627A7D7B16120E0DF8
:10367C008059AA0CAB0D120DEF8A088B0985080A2C
:10368C0085090BE50A450B60407C007D00E50A24AA
:10369C0005FAE4350BFB850A82850B83A3A3A3A350
:1036AC00E0F91215E7E9F508E508C3940A500EEFA6
:1036BC00FC7A027B00A908121605E97E00EF600B6C
:1036CC00AA0AAB0B12167D80027E14EEF97F06025D
:1036DC001F4874F0121E7674FE121E068518828521
:1036EC001983EAF0A3EBF08C0A8D0B7412121E52A4
:1036FC00E0F50EA3E0F50F7E15851882851983E0A1
:10370C0064FF7004A3E064FF701D7F00EFC3940A94
:10371C00506BAC0EAD0FAA0AAB0BEFF912160BE9FE
:10372C0060027E000F80E5851882851983E0FAA37C
:10373C00E0FB120DEF8A0C8B0D850C08850D09E54D
:10374C0008450960367C007D00E5082405FAE4355F
:10375C0009FB850882850983A3A3A3A3E0F91215AD
:10376C00E7E9FFEFC3940A5014AC0EAD0FAA0AABF5
:10377C000BEFF912160BE97E0080027E14EEF97441
:10378C0002121E1C7F08021F4874F7121E76EAFEF6
:10379C00EBFF9008B7EEF0A3EFF090089DE0FC7DF6
:1037AC00007A267B0012091BE9F50890089DE0F9C8
:1037BC00120B857F01021F4874F2121E7674EC12F4
:1037CC001E068A0A8B0B850A82850B83A3A3E02431
:1037DC00FA7003023C0824FD7003023A8014700353
:1037EC000238B414601024FD7003023A28147003DC
:1037FC00023AC3023C76AE0AAF0B9008B7E0F8A3CE
:10380C00E0F9E84960669008B7E0F8A3E0F5838832
:10381C0082E0F8A3E0F9E8496052EE240CF582E46A
:10382C003FF583E0F508780812208DEE240BF58225
:10383C00E43FF583E0F98E828F83A3A3A3A3A3A314
:10384C00A3A3A3E0FCA3E0FDEE2403FAE43FFB906A
:10385C0008B7E0F8A3E0F5838882E0F8A3E0F583ED
:10386C008882121E747401121E1C80398E828F8302
:10387C00A3A3A3A3A3A3A3A3A31220A09008B31252
:10388C001CDC1209B77402121E1CE9601879018E37
:10389C00828F83A3A3A3A3A3A3A3A3A3E0FAA3E070
:1038AC00FB1209B1E9023C76AE0AAF0B8E828F8314
:1038BC00A3E060030239D68E828F83A3A3A3A3A3B4
:1038CC00E0A2E040030239D6900951E0F8A3E0F9F8
:1038DC00E84960030239D67C0E7D007900AA18AB4A
:1038EC001912138F8A088B09AA08AB09EE240CF560
:1038FC0082E43FF583E0F8A3E0F9E8496036750807
:10390C00067509007808122089EE240CF582E43F34
:10391C00F583E02410FCA3E03400FD7402121E6455
:10392C001213777402121E1C8A088B098508828573
:10393C000983804F8E828F83A3A3A3E0FAA3E0FBBD
:10394C00120DEF8A0C8B0D850C08850D09E50845C9
:10395C0009602D750C06750D00780C122089E50890
:10396C002405FCE43509FD7402121E6412137774ED
:10397C0002121E1C8A0C8B0D850C82850D83800314
:10398C00023C768E828F83A3A3A3A3A3E0A2E25072
:10399C0004D2F08002C2F0A2F0E433F87900740C87
:1039AC00121E52E048F0A3E049F0EEFCEFFDAA181D
:1039BC00AB1912161DE970127A027B0090089DE07B
:1039CC00F91213CBE97900023C789008B7E0F8A320
:1039DC00E0F9E84960439008B7E0F8A3E0F5838884
:1039EC0082A3A3E0F8A3E0F9E849602D8E828F83CF
:1039FC00A3E0FC79018E828F83A3A3A3E0FAA3E05A
:103A0C00FB9008B7E0F8A3E0F5838882A3A3E0F865
:103A1C00A3E0F5838882121E74023C76AE0AAF0BCB
:103A2C009008B7E0F8A3E0F9E84960459008B7E0E2
:103A3C00F8A3E0F5838882A3A3E0F8A3E0F9E849B2
:103A4C00602F850A82850B83A3E0FC79028E828F1E
:103A5C0083A3A3A3E0FAA3E0FB9008B7E0F8A3E0EC
:103A6C00F5838882A3A3E0F8A3E0F5838882121E75
:103A7C0074023C76850A08850B097C007D00E508FC
:103A8C002404FAE43509FB850882850983A3A3A3E2
:103A9C00E0F91215E7E9FEEEC3940A5017E5082485
:103AAC000AFCE43509FD7A0475F006EEA42425F928
:103ABC001219ADE9023C76AE0AAF0B9008B2E06089
:103ACC0018900EAAE0F98E828F83A3A3A3E0FAA329
:103ADC00E0FB1209B1E9023C76900EA7E070157973
:103AEC00058E828F83A3A3A3E0FAA3E0FB1209B196
:103AFC00E9023C768E828F83A3A3A3E0FAA3E0FBBA
:103B0C00120DEF8A0C8B0D850C08850D098E828F9A
:103B1C0083A3A3A3A3A3A3A3E0A2E05071E508454C
:103B2C00096068850882850983A3A3A3A3E0605E6E
:103B3C008E828F83A3A3A3A3A3A3A3A3A3E0F8A321
:103B4C00E0F9E8C4540FF87900E85401F8E954009E
:103B5C00F9E8A2E04038740E121E6CE5082405FA50
:103B6C00E43509FB850882850983A3A3A3A3E0F9A7
:103B7C001215E7E9701879038E828F83A3A3A3E053
:103B8C00FAA3E0FB1209B1E9023C76023C76EE2482
:103B9C0005FCE43FFD850882850983A3A3A3A3E06C
:103BAC00F98E828F83A3A3A3E0FAA3E0FB121689FC
:103BBC009008B7E0F8A3E0F9E849603E9008B7E058
:103BCC00F8A3E0F5838882A3A3E0F8A3E0F9E84921
:103BDC0060287C0079008E828F83A3A3A3E0FAA3D4
:103BEC00E0FB9008B7E0F8A3E0F5838882A3A3E09C
:103BFC00F8A3E0F5838882121E74806E120A7DE9A8
:103C0C007068900946E06401701A121653E9FE9030
:103C1C0009467400F07C0A7D0079007A477B091212
:103C2C00138F803C7E00EEC3940A50348E087509C5
:103C3C000074472508F58274093509F583E06401A1
:103C4C00701BEEF9121659E9F88E087509007447C5
:103C5C002508F58274093509F5837400F00E80C6C9
:103C6C0079501219B9E9FE12164179017414121E19
:103C7C001C7F06021F4874F3121E7674F2121E0685
:103C8C008908EAFEEBFF8C09AC18AD197A0E75F0B9
:103C9C0006E508A42420F91219B3E970647C0679AE
:103CAC00FFAA18AB191213EFE97056740C121E52BE
:103CBC00E0F8A3E0F9E8F50CE5096005EE420C80AC
:103CCC0004EEF4520C850C0A750B00740C121E5287
:103CDC00E0650A7004A3E0650B6022E50CF879003E
:103CEC00740C121E52E8F0A3E9F0AC18AD197A0E60
:103CFC0075F006E508A42420F91219ADE9790180C4
:103D0C00027900740E121E1C7F05021F4874F012FB
:103D1C001E7674E6121E0689098A0E8B0FECFEEDD8
:103D2C00FF740C121E6C7A0E75F006E509A42420A3
:103D3C00F91219B3E96003023E497C0679FF740C51
:103D4C00121E641213EFE96003023E49AC18AD1960
:103D5C007A0C74702509F91219B3E96003023E4517
:103D6C00750800AA18AB19121617E50E450F702E20
:103D7C007C0C7900AA18AB191213EFE96003023E10
:103D8C002B7C0C7D007900AA18AB1912138F8A0AB0
:103D9C008B0B850A82850B83750801023E2BAC18B0
:103DAC00AD19AA0EAB0F1216118A0C8B0D850C0ACD
:103DBC00850D0BE50A450B7030EE4F601BAC18AD52
:103DCC00197A007B001216118A0C8B0DA80CA90D08
:103DDC00880A890BE849700479008063850A82851A
:103DEC000B83E50EF0A3E50FF0850A82850B83A308
:103DFC00A3E0F87900EE687002EF696022EEC0E093
:103E0C00850A82850B83A3A3D0E0F0EE4F700D855D
:103E1C000A82850B837400F0A37400F0750801E529
:103E2C00086016AA18AB19121617AC18AD197A0C33
:103E3C0074702509F91219ADE979018002790074C1
:103E4C001A121E1C7F08021F4874F7121E76EAFE17
:103E5C00EBFF7B00EBC39404504EEBF87900E87554
:103E6C00F003A4C8AAF075F000A42AFA75F003E9CF
:103E7C00A42AF9EC28F582ED39F583E06E7003A3E2
:103E8C00E06F7021EBF87900E875F003A4C8AAF094
:103E9C0075F000A42AFA75F003E9A42AF9EC28FAC3
:103EAC00ED39FB80070B80AC7A007B007F01021F91
:103EBC004874F7121E767F00EFC394044003023F50
:103ECC006CEFF87900E875F003A4C8ACF075F0005D
:103EDC00A42CFC75F003E9A42CF9EA28F582EB3943
:103EEC00F583E0F4FCA3E0F4FDEFF87900E875F05D
:103EFC0003A4C8AEF075F000A42EFE75F003E9A47F
:103F0C002EF9EA28F582EB39F583ECF0A3EDF0EF0E
:103F1C00F87900E875F003A4C8ACF075F000A42C97
:103F2C00FC75F003E9A42CF9EA28F582EB39F5834A
:103F3C00A3A3E0F4C0E0EFF87900E875F003A4C89F
:103F4C00ACF075F000A42CFC75F003E9A42CF9EA94
:103F5C0028F582EB39F583A3A3D0E0F00F023EC421
:103F6C007F01021F4874F0121E7674F4121E06EACA
:103F7C00FEEBFF8C088D09900951E0F8A3E0F9E8FD
:103F8C0049702CEE4F6006E5084509700579010271
:103F9C00421DEEFAEFFB121635E9900EADF0900EC5
:103FAC00ADE0C3940A4008121647E9900EADF090AC
:103FBC000EADE0C3940A400302421B900951E0F895
:103FCC00A3E0F9E8496003024067EEFCEFFD7A0ECE
:103FDC0075F006900EADE0A42420F91219ADE9F5A8
:103FEC000B7C0C7D0079FFAA18AB1912138F8A0C6D
:103FFC008B0D850C0E850D0FAC18AD197A0C900E2F
:10400C00ADE02470F91219ADE9F50A750C0E750DB9
:10401C0000780C122089EEFCEFFD900EADE0F879E3
:10402C0000E875F00EA4C8AAF075F000A42AFA7581
:10403C00F00EE9A42AF974B928FA740839FB1213A2
:10404C00777402121E1C8A0C8B0DA80CA90D9009FA
:10405C0051E508F0A3E509F0024217900951E0F888
:10406C00A3E0C82406F582C83400F583E0F8A3E089
:10407C00F9E8496043900951E0F8A3E0C82406F53B
:10408C0082C83400F583E0FCA3E0FD7A1B75F006D2
:10409C00900EADE0A42421F91219ADE9F890095164
:1040AC00E0F9A3E0C92406F582C93400F583740055
:1040BC00F0A37400F0024217900951E0F8A3E0C895
:1040CC00240AF582C83400F583E0F8A3E0F9E84946
:1040DC006043900951E0F8A3E0C8240AF582C83483
:1040EC0000F583E0FCA3E0FD7A1B75F006900EADA5
:1040FC00E0A42422F91219ADE9F8900951E0F9A3D2
:10410C00E0C9240AF582C93400F5837400F0A37465
:10411C0000F0024217900951E0F8A3E0C8240CF516
:10412C0082C83400F583E0F8A3E0F9E849604390D5
:10413C000951E0F8A3E0C8240CF582C83400F583DB
:10414C00E0FCA3E0FD7A1075F006900EADE0A4241F
:10415C0023F91219ADE9F8900951E0F9A3E0C9244B
:10416C000CF582C93400F5837400F0A37400F002DE
:10417C004217900951E0F8A3E0C82408F582C8342E
:10418C0000F583E0F8A3E0F9E849606F900951E08D
:10419C00F8A3E0C82408F582C83400F583E0FCA33A
:1041AC00E0FD7A1075F006900EADE0A42424F9120F
:1041BC0019ADE9F50A900951E0F8A3E0C82408F517
:1041CC0082C83400F583E02410FCA3E03400FD7AAF
:1041DC000475F006900EADE0A42425F91219ADE992
:1041EC00F8900951E0F9A3E0C92408F582C934001C
:1041FC00F5837400F0A37400F08010900945E06022
:10420C000312169B121683790180067900800279BD
:10421C0001740C121E1C7F08021F4874F7121E76C4
:10422C0074F2121E06E9FEAC18AD197A0E75F00682
:10423C00EEA42420F91219B3E9700E740C121E525C
:10424C00E0F8A3E0F9E8F980027900740E121E1C64
:10425C007F01021F4874F4121E7674F2121E068936
:10426C0009EAFEEBFFE509C3940A5004EE4F700413
:10427C0079028041AC18AD197A0E75F006E509A4E7
:10428C002420F91219B3E9F508E5087026750A0619
:10429C00750B00780A1220897402121E6CEEFAEF6C
:1042AC00FB1213777402121E1C8A0A8B0B850A826E
:1042BC00850B83A908740E121E1C7F04021F487400
:1042CC00F4121E76EAFEEBFF750800E508C3940AAB
:1042DC005044750A06750B00780A122089EEFCEF23
:1042EC00FDE508F87900E875F00EA4C8AAF075F0A1
:1042FC0000A42AFA75F00EE9A42AF974BF28FA74FE
:10430C000839FB1213897402121E1CE96004A908F7
:10431C008006050880B5790A7F04021F4874F412E0
:10432C001E76EAFEEBFF750800E508C3940A5044BC
:10433C00750A06750B00780A122089EEFCEFFDE574
:10434C0008F87900E875F00EA4C8AAF075F000A47E
:10435C002AFA75F00EE9A42AF974B928FA74083906
:10436C00FB1213897402121E1CE96004A908800652
:10437C00050880B5790A7F04021F4874F7121E766F
:10438C0074F0121E06EAFEEBFF750800E508C394F4
:10439C000A5039AC18AD197A1075F006E508A4244A
:1043AC0023F91219B3E970207C1079FFAA18AB1904
:1043BC001213EFE97012EEFCEFFDAA18AB191209FB
:1043CC0087E97004A9088006050880C0790A741072
:1043DC00121E1C7F01021F4874F4121E7675080011
:1043EC00E508C3940A40030244C2E508F87900E8E2
:1043FC0075F00EA4C8AAF075F000A42AFA75F00E98
:10440C00E9A42AF974B928FC740839FD7A0E75F000
:10441C0006E508A42420F91219B3E970030244BD7F
:10442C007C067D0079FFE508FA7B00EA75F00EA4A6
:10443C00CAA8F075F000A428F875F00EEBA428FBC0
:10444C0074B92AFA74083BFB12138F8A0A8B0BAED1
:10445C000AAF0B7C067D0079FFE508FA7B00EA7554
:10446C00F00EA4CAA8F075F000A428F875F00EEBB5
:10447C00A428FB74BF2AFA74083BFB12138F8A0A18
:10448C008B0BAC0AAD0BE508F87900E875F00EA4BF
:10449C00C8AAF075F000A42AFA75F00EE9A42AF95E
:1044AC0074C528F582740839F5837400F0A3740080
:1044BC00F005080243EC900945E0600312169B12CC
:1044CC0016837F04021F4874F7121E767E00EEC31B
:1044DC00940A50327C0679FFEEFA7B00EA75F00EF6
:1044EC00A4CAA8F075F000A428F875F00EEBA42867
:1044FC00FB74B92AFA74083BFB1213EFE96004EE63
:10450C00F980050E80C8790A7F01021F4874F712E2
:10451C001E767E007F00EFC3940A502F7C0679FF35
:10452C00EFFA7B00EA75F00EA4CAA8F075F000A4AF
:10453C0028F875F00EEBA428FB74B92AFA74083B22
:10454C00FB1213EFE970010E0F80CBEEF97F010225
:10455C001F4874F7121E767E007F00EFC3940A503A
:10456C000DEE700AEFF9121659E9FE0F80EDEEF917
:10457C007F01021F4874F0121E7674C9121E06E9E0
:10458C00FE900EADE06E701D7A017B0090089DE0F0
:10459C00F91213D1E97A027B0090089DE0F912130D
:1045AC00D1E91216A77429121E6C7A0E75F006EE5C
:1045BC00A42420F91219B3E960030246B57C0679EC
:1045CC00FF7429121E641213EFE960030246B57CD6
:1045DC000E7D0079FF7429121E6412138F851882C8
:1045EC00851983EAF0A3EBF07C1B7D0079FF740E38
:1045FC00121E6412138F8A0A8B0B850A0E850B0F01
:10460C007C0C7D0079FF7402121E6412138F8A0CCD
:10461C008B0D850C0A850D0B7429121E6C7A0E7588
:10462C00F006EEA42420F91219ADE9F508740E1267
:10463C001E6C7A1B75F006EEA42421F91219ADE953
:10464C004208740E121E6C7A1B75F006EEA424221E
:10465C00F91219ADE94208740E121E6C7A1075F03D
:10466C0006EEA42423F91219ADE94208740E121EA9
:10467C006C7A1075F006EEA42424F91219ADE942F7
:10468C0008740E121E6C7A0475F006EEA42425F93B
:10469C001219ADE942087402121E6C7A0C74702E59
:1046AC00F91219ADE942088003750800A90874379E
:1046BC00121E1C7F08021F4874F7121E76E9FEEECC
:1046CC0090089DF01216417F01021F4874F2121ED1
:1046DC0076890AEAFEEBFFEE5400F8EF5480F9E815
:1046EC0049603590089DE0F91213B38A0C8B0DA824
:1046FC000CA90D88088909E8496012AA08AB0912AF
:10470C00166BE96008AA08AB091213A1E9EE640064
:10471C00FAEF6480FB0247DCEE5402602D7C007DD6
:10472C00007A007B0012161DE960187A017B00905C
:10473C00089DE0F91213CBE9EE6402FAEF6400FB7A
:10474C000247DC7A027B000247DCEEA2E0507D904F
:10475C000951E0F8A3E0F5838882A3A3A3E0FAA3B0
:10476C00E0FB1216A1E9605E9008B7E0F8A3E0F94F
:10477C00E84960459008B7E0F8A3E0F5838882A388
:10478C00A3E0F8A3E0F9E849602F7C0079019009D7
:10479C0051E0F8A3E0F5838882A3A3A3E0FAA3E099
:1047AC00FB9008B7E0F8A3E0F5838882A3A3E0F8B8
:1047BC00A3E0F5838882121E741216A7EE6401FA28
:1047CC00EF6400FB800A7A017B0080047A007B0096
:1047DC007F06021F4874F7121E76EAFEEBFF75087F
:1047EC00018E828F83E02450601314601924E170D1
:1047FC001CEEFAEFFB1215FFE9F5088010EEFAEF4C
:10480C00FB1216718007EEFAEFFB121677A9087FE0
:10481C0001021F4874F7121E76EAFEEBFF8E828FA0
:10482C0083A3A3A3A3E0641E701179008E828F83EF
:10483C00A3A3E0FAA3E0FB1215EDE97F01021F48E8
:10484C0074F6121E768A088B09850882850983A363
:10485C00A3A3A3E07034AE08AF098E828F83A3A309
:10486C00A3A3A3A3A31220A08E828F83A3A3A3A38D
:10487C00A3E0FCA3E0FD8E828F83A3A3E0FAA3E068
:10488C00FB1215F37402121E1CE97F02021F4874FE
:10489C00F7121E76EAFEEBFF90089DE0F98E828FF0
:1048AC0083A3E0FAA3E0FB120C0FE97F01021F487F
:1048BC00C082C08374FF121E0612164DE9C3940207
:1048CC00400B8518828519837402F0800985188243
:1048DC00851983740AF0AC18AD197A017905120A9E
:1048EC0095E97401121E1CD083D08202013274F23D
:1048FC00121E7674E8121E068A088B09E9FE8C0AD1
:10490C008D0B7C187D007900AA18AB1912138F8AB5
:10491C000C8B0DAC0CAD0D851882851983E508F058
:10492C00A3E509F090089FE0C0E07402121E52D07B
:10493C00E0F09008A0E0C0E07403121E52D0E0F04A
:10494C00900EACE0C0E07417121E52D0E0F074155B
:10495C00121E52E054FEF8A3E054FFF9900EABE0A7
:10496C00A2E0E433FA7B00E84AF8E94BF97415123B
:10497C001E52E8F0A3E9F0900EABE0A2E15004D295
:10498C00F08002C2F07415121E52E054FDFAA3E03E
:10499C0054FFFBA2F0E433F87900E828F8E933F986
:1049AC00EA48F8EB49F97415121E52E8F0A3E9F045
:1049BC00900EABE0A2E35004D2F08002C2F074156A
:1049CC00121E52E054F7FAA3E054FFFBA2F0E433BA
:1049DC00F50C750D007403780C121DF3EA450CF8F8
:1049EC00EB450DF97415121E52E8F0A3E9F0900E88
:1049FC00ABE0A2E45004D2F08002C2F07415121E97
:104A0C0052E054EFFAA3E054FFFBA2F0E433F50CB0
:104A1C00750D007404780C121DF3EA450CF8EB4587
:104A2C000DF97415121E52E8F0A3E9F0900EABE0EC
:104A3C00A2E55004D2F08002C2F07415121E52E0AE
:104A4C0054DFFAA3E054FFFBA2F0E433F50C750D30
:104A5C00007405780C121DF3EA450CF8EB450DF9C2
:104A6C007415121E52E8F0A3E9F0900EABE0A2E22E
:104A7C005004D2F08002C2F07415121E52E054FBA6
:104A8C00FAA3E054FFFBA2F0E433F50C750D0074AF
:104A9C0002780C121DF3EA450CF8EB450DF9741570
:104AAC00121E52E8F0A3E9F09008A0E0602A750C01
:104ABC0010750D00780C1220897CA17D08740612EB
:104ACC001E52AA82AB831213777402121E1C8A0C1C
:104ADC008B0D850C82850D839008B1E06011EE6022
:104AEC000E7415121E52E04402F0A3E04400F09044
:104AFC0008B1E060067801790080047800790074D0
:104B0C0014121E52E048F090089EE060067804797A
:104B1C00008004780079007414121E52E048F0AC46
:104B2C000AAD0BAA18AB191209ABE97418121E1CAA
:104B3C007F06021F4874F7121E76EAFEEBFF75081B
:104B4C00009008B1E0600678017900800478007963
:104B5C0000E8420890089EE0600678047900800422
:104B6C0078007900E84208A908EEFAEFFB120A6512
:104B7C00E97F01021F4874F2121E7674E3121E06BE
:104B8C008A0C8B0DE9FF8C0A8D09742B121E52E0D6
:104B9C00F50874086509700A75F006EFA42422FE66
:104BAC00800875F006EFA42421FE7C1B7D007900A3
:104BBC007402121E6412138F851882851983EAF011
:104BCC00A3EBF07402121E6C7A1BEEF91219B3E906
:104BDC007038741C121E52E0C39407402D741C12C2
:104BEC001E52E0C394115022E508F50B780B1220ED
:104BFC008D7403121E6CE50AA2E0E433F9AA0CAB27
:104C0C000D1209BD7401121E1CE9741D121E1C7FAD
:104C1C0006021F4874F7121E76120C87E97E00EE0E
:104C2C00C3940A50557C0679FFEEFA7B00EA75F0C6
:104C3C000EA4CAA8F075F000A428F875F00EEBA429
:104C4C0028FB74B92AFA74083BFB1213EFE970279E
:104C5C00EEF87900E875F00EA4C8AAF075F000A47F
:104C6C002AFA75F00EE9A42AF974B928FA740839ED
:104C7C00FB7900120C8DE90E80A57F01021F487490
:104C8C00F6121E7674FD121E06EAFEEBFF90095317
:104C9C00E0F8A3E0F9E84970397508557509097809
:104CAC000812208975080275090078081220897588
:104CBC00082375098478081220897CFF7DFF7A010E
:104CCC007B00120AD77406121E1C900953EAF0A33B
:104CDC00EBF0900953E0F8A3E0F9E8497003024DBA
:104CEC00A8E4F508F50978081220897404121E5CF2
:104CFC008808890978081220897404121E5C8808B7
:104D0C00890978081220899009551220A0790290FF
:104D1C000953E0FCA3E0FDEEFAEFFB120BFD740867
:104D2C00121E1CE9704A851882851983E0FA7B00F3
:104D3C007401121E52E0F87900E4C8F9EA28F5086B
:104D4C00EB39F509E50845096026780812208990A9
:104D5C000953E0F8A3E0F5838882A3A3A3A3E0FCA6
:104D6C00A3E0FDEEFAEFFB1215F37402121E1CE920
:104D7C00E4F508F50978081220899009551220A04D
:104D8C007CFF7DFF900953E0FAA3E0FB120AE37469
:104D9C0004121E1C900953EAF0A3EBF0900953E0A7
:104DAC00F8A3E0F9E84970047901800279007403F2
:104DBC00121E1C7F02021F48C082C083900951E062
:104DCC00F8A3E0F9E8496017900951E0FAA3E0FB79
:104DDC001213A1E9F89009517400F0A37400F0903B
:104DEC000EAD740AF0D083D082020132C082C0832F
:104DFC00E9900BB0F002508774F7121E76E990021E
:104E0C00E1F07C197D037AFF7BFF120C159002E216
:104E1C0074FFF0A3F0A3E4F0A3F07905120B9D90BE
:104E2C0002E1E0F9120ABF7A337B0C120DDD7F012F
:104E3C00021F4874F4121E768A088B09EB548060AA
:104E4C00309002E1E0F91213B38A0A8B0BAE0AAF71
:104E5C000BEE4F60138E828F83E064B07003120BE5
:104E6C00B5EEFAEFFB1213A1AA08E5096480FB80EA
:104E7C00047A007B0002505674F2121E7674FC12F7
:104E8C001E06EAFEEBFFEE4F60387402121E52EE65
:104E9C00F0A3EF1252BBECF0A3ED1252BBAA82AB03
:104EAC0083120AB9E9F50870737412121E52125E5D
:104EBC006FE50A450B60658E828F83124F32EE4F81
:104ECC00700575080280557A067B0012140D8A0C49
:104EDC008B0DA80CA90DE8497005750813803D8849
:104EEC00828983E4124F3CA3A3EEF0A3EF12630874
:104EFC00E50AF0A3E50BF09002E7124FC49002E72D
:104F0C006017E0FCA3E08003EAFCEBFD8C828D8350
:104F1C00124FC470F38C828D83125D94A9087404B3
:104F2C00121E1C02650AA3A3A3A3E0FEA3E0FF22AA
:104F3C00F0A3F0888289832274F2121E76890AE922
:104F4C0075F017A4FEAFF09002E6E4F09002E412C4
:104F5C004FC4600A1214139002E4E4F0A3F0EEFACA
:104F6C00EFFB12140D8A088B09EA4509602FEEFC41
:104F7C00EFFD790012138F9002E4E508F0A3E50928
:104F8C00F07B008008124FAEE4F0A3F00BEBC3955E
:104F9C000A40F2E50A9002E6F079008002791302E9
:104FAC00650AEB75F017A4F8A9F09002E4E028FA72
:104FBC00A3E0398A82F58322125B2AEA4B2274F42D
:104FCC00121E76750800750900740C121E521262BE
:104FDC00DCFEE9FF800CE5082401F508E509340046
:104FEC00F509C3E5089CE5099D503285080A850939
:104FFC000B7403780A121DF3EA250AF8EB350BF94A
:10500C0088828983A3A3A3A3A3A3125E6FEE650A70
:10501C007003EF650B70BFE8FAE9FB80047A007B44
:10502C0000802774F4121E767900EAA2E0501B75FA
:10503C00082875098378081220897C047D007AB2CF
:10504C007B0B120B977402121E1C7F04021F48C0AC
:10505C0082C0839002E712508E601C88828983A3E1
:10506C00A3E06A7003A3E06B8882898370E8A3A332
:10507C00A3A3125B2680047A007B00D083D082022B
:10508C0001321265DDE8492274EE121E7674FC12B0
:10509C001E06EAFEEBFF851882851983E4F0A3F067
:1050AC00EE2402125D78EE24051252A9EE2404F5CA
:1050BC000EEF12568EE024FE603924FC604624FE6E
:1050CC00605224FE605E24FE70030251AE24FE701A
:1050DC000302522624FE700302523524FE70030292
:1050EC00524424FC700302525324FE700302526299
:1050FC0002529F9003007417F0A3E41252C31208DB
:10510C003702529F851882851983AC82AD83120BAE
:10511C00BB02526F851882851983AC82AD83120B4A
:10512C00C102526F850C08850D097402121E52AC17
:10513C0082AD83850882850983125B26120ADD8A7B
:10514C000C8B0DAC0CAD0DEC4D6042E4F50CF50D7B
:10515C00780C122089750C00750D03780C122089BF
:10516C00750C01750D03780C1220897408121E52EF
:10517C001220A07916125B20120BFD7408121E1C53
:10518C00E9F50C700B125B1C12084F800F750C01AB
:10519C008508828509831252B1125D94850C080230
:1051AC0052727402121E52AC82AD83850C82850D34
:1051BC0083125B26120ADD8A108B11AC10AD11EC38
:1051CC004D6043850C82850D83A3A31220A075101E
:1051DC000075110378101220897510017511037870
:1051EC00101220897408121E521220A07916125B1C
:1051FC0020120BFD7408121E1CE9F509700B125BD2
:10520C001C120855800F750901850C82850D8312BF
:10521C0052B1125D94850908804C851882851983DA
:10522C00AC82AD83120BC7803A851882851983AC8A
:10523C0082AD83120BCD802B851882851983AC82AD
:10524C00AD83120BD3801C851882851983AC82AD7B
:10525C0083120BD9800D851882851983AC82AD839E
:10526C00120BDFE9F508E50860298E828F83A3E035
:10527C006414601F850E82850F83E0900300125228
:10528C00BB1265D9900301125D94E508A31252C3B9
:10529C00120831EEFAEFFB120B5B025C80F50CEF9F
:1052AC003400F50D221265DD85188285198322F0F4
:1052BC0085188285198322F07C007D03850A8285FE
:1052CC000B83125B2A2274EE121E7674FC121E06DD
:1052DC008A0A8B0B8C0E8D0FEA2405F508EB340033
:1052EC00F5097C157D0079007A007B0312138FE59C
:1052FC00082402F50CE5091252AC85188285198335
:10530C008582108583117810122089850882850981
:10531C0083A3A3A3A31257D6122089E5082405F56D
:10532C0010E5093400F5117810122089850C82855E
:10533C000D83125B30120AD77406121E1C8A108B56
:10534C0011AE10AF11E50A2402F50AE50B125D7BD4
:10535C00EE4F700302549880177402121E52125BA7
:10536C002688828983EAF0A3EBF0900300E004F036
:10537C00900300E0C394054003025498E4F510F543
:10538C001178101220897510E9751102781012200D
:10539C00897510EA75110278101220897406121E94
:1053AC00521220A07910EEFCEFFD125B20120BFDC7
:1053BC007408121E1CE9705E850882850983A3A3FC
:1053CC00A3A3A3A3A3E0F89002E9E06870481257E6
:1053DC00D61220897CEA7D02E5082408FAE5093416
:1053EC0000FB1213897402121E1CE960298E828F35
:1053FC0083A3A3A3A3125B26900300E0F510740211
:10540C007810121DF374012510F58274033511F513
:10541C0083EAF0A3EBF07402121E5285821085838E
:10542C001178101220897402121E521220A0850CC1
:10543C0082850D831265EE120AE37404121E1C8A17
:10544C00108B11AE10AF11900300E0F51075110028
:10545C0074027810121DF374002510F874033511C2
:10546C00F988828983A3124FC4700302535CE82429
:10547C0003F8E93400F9EE4F600302536588828922
:10548C008374FFF0A3F0900300E004F0900300E0BD
:10549C00600A125B1C1208437900800B8508828518
:1054AC000983125D8B790A025C8074EA121E767491
:1054BC00FE121E068C128D13EA2405F50CEB1267F6
:1054CC0058124F36750800750900EA2402F510EBE6
:1054DC003400F51185188285198385820A85830B22
:1054EC00780A122089850C82850D83A3A3A3A312AD
:1054FC005698122089E50C2405F50AE50D125D7B02
:10550C00780A122089850C82850D831265EC120AAB
:10551C00D77406121E1C8A0A8B0BEA450B70030209
:10552C005649EA2404F50EEB12568E124F368A8237
:10553C008B83A3A3A3E0F9851082851183125B26CC
:10554C00120AC5E9F5096003025649E4F514F5158C
:10555C0078141220897514E97515027814122089B3
:10556C007514EA75150278141220897406121E52ED
:10557C001220A07913AC0AAD0B8510828511831211
:10558C005B26120BFD7408121E1CE9F50960030260
:10559C0056499002E9E0F8E5087009E0240290030E
:1055AC0001F08017900301E0FCE82402FAE43400D7
:1055BC00FBEA6C7001EB600302564D850882AA82EF
:1055CC001257CD94141257C55073850E82850F83D4
:1055DC00E0C0E074022A125685D0E0F00508850E72
:1055EC0082850F83A3E0C0E085080A7402250A12A5
:1055FC005685D0E0F005089002E9125698122089E1
:10560C007CEA7D0285080A7402250AFA74033400C8
:10561C00FB1213777402121E1C9002E9E02508F5A8
:10562C000874FF6E700374FF6F6012EE24010EEFAE
:10563C003400FFE508C3941450030254E0E50860FD
:10564C0013125A11851082851183125B2612084998
:10565C0079008014E509700375090A851282851397
:10566C0083EEF0A3EFF0A9097402121E1C7F0E0248
:10567C001F4885080C7402250CF58274033400F560
:10568C0083223400F50F850E82F5832212631B22D0
:10569C0074EE121E7674FE121E068C0E8D0FEA240A
:1056AC0005F50CEB1252AC750B00900300E4F0F511
:1056BC000AEA2402F508EB3400F50980499003004E
:1056CC00E0FA9002E9E0F81257CD94171257C54052
:1056DC000D900300E0F87416C3989002E9F012578D
:1056EC00D61220897CEA7D0274012AFA74033400F4
:1056FC00FB1213777402121E1C9002E9E0F890035F
:10570C0000E028F0050AE50C2416F582E50D12568A
:10571C0089E0F8E50AC39840030257AE900300E015
:10572C00C39416507DE50AC333F8E433F9E50C282D
:10573C00FEE50D39FF851882851983AC82AD838E09
:10574C00828F83125B26120ADD8A108B11AC10AD8E
:10575C0011EC4D7005750B018043E4F510F51178D3
:10576C00101220897510E9751102781012208975B4
:10577C0010EA75110278101220897406121E52124A
:10578C0020A07916850882850983125B26120BFDF1
:10579C007408121E1CE9F50B70030256C9125D87C2
:1057AC0080107C007D03850882850983125B26129C
:1057BC00085BA90B7402025C82E99400C365D033C8
:1057CC0022EA28F8E43400F9E822E0F5107511001B
:1057DC0078102274EA121E7674FC121E068A0C8B48
:1057EC000D8C128D13EA2405F50AEB125D7B7508FE
:1057FC0000750900E50A2402F510E50B3400F511DB
:10580C007402121E5285820E85830F780E12208927
:10581C00850A82850B83A3A3A3A31262C7122089D6
:10582C00E50A2405F50EE50B3400F50F780E122071
:10583C0089851082851183125D81125B20120AD733
:10584C007406121E1C8A0E8B0FAE0EAF0FE50C24C5
:10585C0002F50EE50D3400F50F80408882898374C3
:10586C00FFF0050812567E74FFF005089002E9E07F
:10587C00F50C750D00780C1220897CEA7D028508E8
:10588C000C7402250CFA74033400FB1213777402A7
:10589C00121E1C9002E9E02508F508EE4F60718E8F
:1058AC00828F83A3A3A3E0F9850E82850F83125BFD
:1058BC0026120AC5E9F509EE24041252A9E970442E
:1058CC00E4F514F51578141220897514E975150290
:1058DC0078141220897514EA75150278141220892F
:1058EC007408121E521220A07911EEFCEFFD850EE9
:1058FC0082850F83125B26120BFD7408121E1CE9A5
:10590C00F5096027850C82850D83125A07125D9468
:10591C00E50870030259ED125A11850E82850F832A
:10592C00125B261208617900025A02850882AA824B
:10593C00EA9002E97009E02404900301F08022E06F
:10594C00F8900301E0F514E82404FCE43400FDECC9
:10595C0065147001ED70C01257CD94121257C550DA
:10596C00B6850C82850D83E0C0E074022A12568540
:10597C00D0E0F00508850C82850D83A3E0C0E01211
:10598C00567ED0E0125A2385820C85830D780C123A
:10599C0020897404121E521220A085108285118356
:1059AC001265EE120AE37404121E1C8A0C8B0DAEE7
:1059BC000CAF0D85080C7402250CF874033400F937
:1059CC00EE4F7003025867851882851983E0888230
:1059DC008983125A23A3E0C0E012567ED0E002580D
:1059EC0075E509700375090A850A82850B83125ABD
:1059FC0007125D94A90974040256761265DD8512AE
:105A0C008285138322900301E0F5F0E5088490036E
:105A1C0000F07C007D0322F005088518828519832F
:105A2C002274EC121E7674FE121E068A088B098CE8
:105A3C000E8D0FEA2405FEEB3400FF8518828519C4
:105A4C0083AC82AD838E828F83125B26120ADD8A31
:105A5C000A8B0BEE24181252A9EA450B7003025A5A
:105A6C00F7125C695032851882851983125B2612F5
:105A7C000BF18A108B11EA4511606B7912AC0AADEF
:105A8C000B850882850983125B268510828511831C
:105A9C00121E74E9F50A7058E4F50AF50B780A122F
:105AAC0020898E828F83A3A3E0F50A780A122089BD
:105ABC00EE2403125D78780A1220898E828F83126D
:105ACC005B30120C037406121E1CE9F50A7021855A
:105ADC000C82850D83E0701F850882850983125B1B
:105AEC00261208678011750A0E8009750A01800458
:105AFC00E50A6003125D87850C82850D83E06004E6
:105B0C0079008002A90A7402121E1C7F0C021F4825
:105B1C007C007D03850A82850B83125B2A22E0FAC6
:105B2C00A3E0FB22E0FCA3E0FD850882850983123B
